{"contracts/SkyMoney.sol":{"SkyMoney":{"abi":[{"anonymous":false,"inputs":[{"indexed":false,"internalType":"address","name":"previousAdmin","type":"address"},{"indexed":false,"internalType":"address","name":"newAdmin","type":"address"}],"name":"AdminChanged","type":"event"},{"anonymous":false,"inputs":[{"indexed":true,"internalType":"address","name":"beacon","type":"address"}],"name":"BeaconUpgraded","type":"event"},{"anonymous":false,"inputs":[{"indexed":false,"internalType":"uint256","name":"LevelNumber","type":"uint256"},{"indexed":false,"internalType":"uint256","name":"PriseToStart","type":"uint256"},{"indexed":false,"internalType":"uint256","name":"RefillCount","type":"uint256"},{"indexed":false,"internalType":"uint256","name":"RefillPercent","type":"uint256"},{"indexed":false,"internalType":"uint256","name":"MaxCountForSingleAddress","type":"uint256"},{"indexed":false,"internalType":"uint256","name":"Time","type":"uint256"}],"name":"CreatedNewLevel","type":"event"},{"anonymous":false,"inputs":[{"indexed":false,"internalType":"address","name":"User","type":"address"},{"indexed":false,"internalType":"uint256","name":"Time","type":"uint256"},{"indexed":false,"internalType":"uint256","name":"amount","type":"uint256"},{"indexed":false,"internalType":"uint256","name":"LevelNumber","type":"uint256"}],"name":"EmergencyWithdraw","type":"event"},{"anonymous":false,"inputs":[{"indexed":false,"internalType":"uint8","name":"version","type":"uint8"}],"name":"Initialized","type":"event"},{"anonymous":false,"inputs":[{"indexed":false,"internalType":"uint256","name":"LevelNumber","type":"uint256"},{"indexed":false,"internalType":"uint256","name":"Time","type":"uint256"},{"indexed":false,"internalType":"address","name":"User","type":"address"}],"name":"LevelBought","type":"event"},{"anonymous":false,"inputs":[{"indexed":false,"internalType":"address","name":"account","type":"address"}],"name":"Paused","type":"event"},{"anonymous":false,"inputs":[{"indexed":false,"internalType":"address","name":"Referall","type":"address"},{"indexed":false,"internalType":"address","name":"User","type":"address"},{"indexed":false,"internalType":"uint256","name":"Time","type":"uint256"},{"indexed":false,"internalType":"uint256","name":"LevelNumber","type":"uint256"}],"name":"ReferallGetBonus","type":"event"},{"anonymous":false,"inputs":[{"indexed":true,"internalType":"bytes32","name":"role","type":"bytes32"},{"indexed":true,"internalType":"bytes32","name":"previousAdminRole","type":"bytes32"},{"indexed":true,"internalType":"bytes32","name":"newAdminRole","type":"bytes32"}],"name":"RoleAdminChanged","type":"event"},{"anonymous":false,"inputs":[{"indexed":true,"internalType":"bytes32","name":"role","type":"bytes32"},{"indexed":true,"internalType":"address","name":"account","type":"address"},{"indexed":true,"internalType":"address","name":"sender","type":"address"}],"name":"RoleGranted","type":"event"},{"anonymous":false,"inputs":[{"indexed":true,"internalType":"bytes32","name":"role","type":"bytes32"},{"indexed":true,"internalType":"address","name":"account","type":"address"},{"indexed":true,"internalType":"address","name":"sender","type":"address"}],"name":"RoleRevoked","type":"event"},{"anonymous":false,"inputs":[{"indexed":false,"internalType":"address","name":"account","type":"address"}],"name":"Unpaused","type":"event"},{"anonymous":false,"inputs":[{"indexed":true,"internalType":"address","name":"implementation","type":"address"}],"name":"Upgraded","type":"event"},{"stateMutability":"payable","type":"fallback"},{"inputs":[],"name":"DEFAULT_ADMIN_ROLE","outputs":[{"internalType":"bytes32","name":"","type":"bytes32"}],"stateMutability":"view","type":"function"},{"inputs":[],"name":"ReferallBonusPercent","outputs":[{"internalType":"uint256","name":"","type":"uint256"}],"stateMutability":"view","type":"function"},{"inputs":[],"name":"Token","outputs":[{"internalType":"contract IERC20Upgradeable","name":"","type":"address"}],"stateMutability":"view","type":"function"},{"inputs":[],"name":"TotalBoughtLevels","outputs":[{"internalType":"uint256","name":"","type":"uint256"}],"stateMutability":"view","type":"function"},{"inputs":[],"name":"TotalDepositToken","outputs":[{"internalType":"uint256","name":"","type":"uint256"}],"stateMutability":"view","type":"function"},{"inputs":[{"internalType":"uint256","name":"buyLvl","type":"uint256"},{"internalType":"address","name":"_refferal","type":"address"}],"name":"buyLevel","outputs":[],"stateMutability":"nonpayable","type":"function"},{"inputs":[{"internalType":"uint256","name":"_level","type":"uint256"},{"internalType":"uint256","name":"_count","type":"uint256"}],"name":"changeMaxCountBuyLevel","outputs":[{"internalType":"uint256","name":"","type":"uint256"}],"stateMutability":"nonpayable","type":"function"},{"inputs":[{"internalType":"uint256","name":"percent","type":"uint256"}],"name":"changeReferallPercent","outputs":[{"internalType":"uint256","name":"","type":"uint256"}],"stateMutability":"nonpayable","type":"function"},{"inputs":[{"internalType":"contract IERC20Upgradeable","name":"_token","type":"address"}],"name":"changeToken","outputs":[],"stateMutability":"nonpayable","type":"function"},{"inputs":[{"internalType":"uint256","name":"_level","type":"uint256"}],"name":"closeLevelAndSendReward","outputs":[],"stateMutability":"nonpayable","type":"function"},{"inputs":[{"internalType":"uint256","name":"_numberLvl","type":"uint256"},{"internalType":"uint256","name":"_priceStart","type":"uint256"},{"internalType":"uint256","name":"_refillCount","type":"uint256"},{"internalType":"uint256","name":"_refillPercent","type":"uint256"},{"internalType":"uint256","name":"_maxCount","type":"uint256"}],"name":"createNewLvl","outputs":[{"internalType":"uint256","name":"","type":"uint256"}],"stateMutability":"nonpayable","type":"function"},{"inputs":[{"internalType":"uint256","name":"levelNumber","type":"uint256"}],"name":"currentQueueInLevel","outputs":[{"internalType":"address[]","name":"","type":"address[]"}],"stateMutability":"view","type":"function"},{"inputs":[{"internalType":"uint256","name":"_level","type":"uint256"}],"name":"getLevel","outputs":[{"internalType":"uint256","name":"","type":"uint256"},{"internalType":"uint256","name":"","type":"uint256"},{"internalType":"uint256","name":"","type":"uint256"},{"internalType":"uint256","name":"","type":"uint256"},{"internalType":"address[]","name":"","type":"address[]"}],"stateMutability":"view","type":"function"},{"inputs":[{"internalType":"bytes32","name":"role","type":"bytes32"}],"name":"getRoleAdmin","outputs":[{"internalType":"bytes32","name":"","type":"bytes32"}],"stateMutability":"view","type":"function"},{"inputs":[{"internalType":"address","name":"_user","type":"address"}],"name":"getUser","outputs":[{"internalType":"address","name":"","type":"address"},{"internalType":"uint256","name":"","type":"uint256"},{"internalType":"uint256","name":"","type":"uint256"},{"internalType":"uint256","name":"","type":"uint256"},{"internalType":"uint256","name":"","type":"uint256"},{"internalType":"address[]","name":"","type":"address[]"}],"stateMutability":"view","type":"function"},{"inputs":[{"internalType":"bytes32","name":"role","type":"bytes32"},{"internalType":"address","name":"account","type":"address"}],"name":"grantRole","outputs":[],"stateMutability":"nonpayable","type":"function"},{"inputs":[{"internalType":"bytes32","name":"role","type":"bytes32"},{"internalType":"address","name":"account","type":"address"}],"name":"hasRole","outputs":[{"internalType":"bool","name":"","type":"bool"}],"stateMutability":"view","type":"function"},{"inputs":[{"internalType":"contract IERC20Upgradeable","name":"token_","type":"address"},{"internalType":"address","name":"owner_","type":"address"}],"name":"initialize","outputs":[],"stateMutability":"nonpayable","type":"function"},{"inputs":[{"internalType":"uint256","name":"","type":"uint256"}],"name":"levels","outputs":[{"internalType":"uint256","name":"numberLvl","type":"uint256"},{"internalType":"uint256","name":"priceToStart","type":"uint256"},{"internalType":"uint256","name":"refillCount","type":"uint256"},{"internalType":"uint256","name":"refillPercent","type":"uint256"},{"internalType":"uint256","name":"MaxCountToBuyLevelSingleAddress","type":"uint256"},{"internalType":"uint256","name":"currentSizeArray","type":"uint256"}],"stateMutability":"view","type":"function"},{"inputs":[],"name":"paused","outputs":[{"internalType":"bool","name":"","type":"bool"}],"stateMutability":"view","type":"function"},{"inputs":[],"name":"proxiableUUID","outputs":[{"internalType":"bytes32","name":"","type":"bytes32"}],"stateMutability":"view","type":"function"},{"inputs":[{"internalType":"bytes32","name":"role","type":"bytes32"},{"internalType":"address","name":"account","type":"address"}],"name":"renounceRole","outputs":[],"stateMutability":"nonpayable","type":"function"},{"inputs":[{"internalType":"bytes32","name":"role","type":"bytes32"},{"internalType":"address","name":"account","type":"address"}],"name":"revokeRole","outputs":[],"stateMutability":"nonpayable","type":"function"},{"inputs":[{"internalType":"bool","name":"_newPauseState","type":"bool"}],"name":"setPause","outputs":[],"stateMutability":"nonpayable","type":"function"},{"inputs":[{"internalType":"bytes4","name":"interfaceId","type":"bytes4"}],"name":"supportsInterface","outputs":[{"internalType":"bool","name":"","type":"bool"}],"stateMutability":"view","type":"function"},{"inputs":[{"internalType":"address","name":"newImplementation","type":"address"}],"name":"upgradeTo","outputs":[],"stateMutability":"nonpayable","type":"function"},{"inputs":[{"internalType":"address","name":"newImplementation","type":"address"},{"internalType":"bytes","name":"data","type":"bytes"}],"name":"upgradeToAndCall","outputs":[],"stateMutability":"payable","type":"function"},{"inputs":[{"internalType":"address","name":"","type":"address"}],"name":"users","outputs":[{"internalType":"address","name":"user","type":"address"},{"internalType":"address","name":"referral","type":"address"},{"internalType":"uint256","name":"currentlvl","type":"uint256"},{"internalType":"uint256","name":"deposited","type":"uint256"},{"internalType":"uint256","name":"earned","type":"uint256"},{"internalType":"uint256","name":"countOfBuyingLevels","type":"uint256"}],"stateMutability":"view","type":"function"},{"inputs":[{"internalType":"address","name":"token","type":"address"},{"internalType":"uint256","name":"amount","type":"uint256"}],"name":"witdhraw","outputs":[],"stateMutability":"nonpayable","type":"function"},{"inputs":[{"internalType":"address payable","name":"_to","type":"address"},{"internalType":"uint256","name":"amount","type":"uint256"}],"name":"witdhrawETH","outputs":[],"stateMutability":"nonpayable","type":"function"},{"stateMutability":"payable","type":"receive"}],"evm":{"bytecode":{"linkReferences":{},"object":"60a06040523060805234801561001457600080fd5b50608051612b1a61004c600039600081816108270152818161086701528181610b5f01528181610b9f0152610c2e0152612b1a6000f3fe6080604052600436106101b95760003560e01c80636f77926b116100eb578063a217fddf1161008f578063bedb86fb11610061578063bedb86fb146105e7578063c241267614610607578063d547741f14610640578063e176ce0a1461066057005b8063a217fddf1461049e578063a87430ba146104b3578063ab7a6bf114610549578063b2596a671461056957005b806377a58415116100c857806377a584151461040d578063855b42831461042d57806386481d401461044d57806391d148541461047e57005b80636f77926b146103a457806374a9f9d9146103d657806377125cf1146103ed57005b806344b0d9d81161015d57806352d1902d1161012f57806352d1902d146103365780635c975abb1461034b57806364e5322a1461036457806366829b161461038457005b806344b0d9d8146102cc578063485cc955146102ec5780634b70e8e71461030c5780634f1ef2861461032357005b80632d5339e0116101965780632d5339e0146102555780632f2ff15d1461026c57806336568abe1461028c5780633659cfe6146102ac57005b806301ffc9a7146101c25780631ce480f3146101f7578063248a9ca31461022557005b366101c057005b005b3480156101ce57600080fd5b506101e26101dd3660046124a3565b61068d565b60405190151581526020015b60405180910390f35b34801561020357600080fd5b506102176102123660046124cd565b6106c4565b6040519081526020016101ee565b34801561023157600080fd5b50610217610240366004612508565b600090815260c9602052604090206001015490565b34801561026157600080fd5b506102176101635481565b34801561027857600080fd5b506101c0610287366004612536565b610770565b34801561029857600080fd5b506101c06102a7366004612536565b61079a565b3480156102b857600080fd5b506101c06102c7366004612566565b61081d565b3480156102d857600080fd5b506102176102e7366004612583565b6108fc565b3480156102f857600080fd5b506101c06103073660046125a5565b61092c565b34801561031857600080fd5b506102176101625481565b6101c06103313660046125e9565b610b55565b34801561034257600080fd5b50610217610c21565b34801561035757600080fd5b5061012d5460ff166101e2565b34801561037057600080fd5b506101c061037f366004612536565b610cd4565b34801561039057600080fd5b506101c061039f366004612566565b610fd4565b3480156103b057600080fd5b506103c46103bf366004612566565b61100b565b6040516101ee969594939291906126f1565b3480156103e257600080fd5b506102176101645481565b3480156103f957600080fd5b506101c0610408366004612736565b6110e1565b34801561041957600080fd5b506101c0610428366004612736565b6110eb565b34801561043957600080fd5b50610217610448366004612508565b61110a565b34801561045957600080fd5b5061046d610468366004612508565b61112a565b6040516101ee959493929190612762565b34801561048a57600080fd5b506101e2610499366004612536565b6111d2565b3480156104aa57600080fd5b50610217600081565b3480156104bf57600080fd5b506105116104ce366004612566565b610160602052600090815260409020805460018201546002830154600384015460048501546005909501546001600160a01b039485169593909416939192909186565b604080516001600160a01b039788168152969095166020870152938501929092526060840152608083015260a082015260c0016101ee565b34801561055557600080fd5b506101c0610564366004612508565b6111fd565b34801561057557600080fd5b506105ba610584366004612508565b61016160205260009081526040902080546001820154600283015460038401546004850154600590950154939492939192909186565b604080519687526020870195909552938501929092526060840152608083015260a082015260c0016101ee565b3480156105f357600080fd5b506101c061060236600461279b565b6112ee565b34801561061357600080fd5b5061015f54610628906001600160a01b031681565b6040516001600160a01b0390911681526020016101ee565b34801561064c57600080fd5b506101c061065b366004612536565b61130e565b34801561066c57600080fd5b5061068061067b366004612508565b611333565b6040516101ee91906127b8565b60006001600160e01b03198216637965db0b60e01b14806106be57506301ffc9a760e01b6001600160e01b03198316145b92915050565b60006106ce6113a6565b60006106d9816113f2565b60008781526101616020908152604091829020898155600181018990556002810188905560058101889055600381018790556004810186905582518a815291820189905291810187905260608101869052608081018590524260a08201527f8facac00b97205d28ced8b122d640abfdf7aedc107b011a3009fd0910500925c9060c00160405180910390a150959695505050505050565b600082815260c9602052604090206001015461078b816113f2565b61079583836113fc565b505050565b6001600160a01b038116331461080f5760405162461bcd60e51b815260206004820152602f60248201527f416363657373436f6e74726f6c3a2063616e206f6e6c792072656e6f756e636560448201526e103937b632b9903337b91039b2b63360891b60648201526084015b60405180910390fd5b6108198282611482565b5050565b6001600160a01b037f00000000000000000000000000000000000000000000000000000000000000001630036108655760405162461bcd60e51b8152600401610806906127cb565b7f00000000000000000000000000000000000000000000000000000000000000006001600160a01b03166108ae600080516020612a9e833981519152546001600160a01b031690565b6001600160a01b0316146108d45760405162461bcd60e51b815260040161080690612817565b6108dd816114e9565b604080516000808252602082019092526108f9918391906114f4565b50565b60006109066113a6565b6000610911816113f2565b50506000918252610161602052604090912060040181905590565b600054610100900460ff161580801561094c5750600054600160ff909116105b806109665750303b158015610966575060005460ff166001145b6109c95760405162461bcd60e51b815260206004820152602e60248201527f496e697469616c697a61626c653a20636f6e747261637420697320616c72656160448201526d191e481a5b9a5d1a585b1a5e995960921b6064820152608401610806565b6000805460ff1916600117905580156109ec576000805461ff0019166101001790555b6109f760003361165f565b610a0260008361165f565b610a0a611669565b610a12611698565b610a1a611698565b610a2460016112ee565b610a2e600a61110a565b50610a3883610fd4565b610a4d60006302625a00600360c860026106c4565b50610a63600163055d4a806004609660016106c4565b50610a796002630a21fe80600460af60016106c4565b50610a8f6003631017df80600560c860016106c4565b50610aa56004631dcd6500600560e160016106c4565b50610abb60056335a4e900600560fa60016106c4565b50610ad260066359682f00600561011360016106c4565b50610ae960076377359400600761012c60016106c4565b50610b00600863b2d05e00600861014560016106c4565b50610b0b60006112ee565b8015610795576000805461ff0019169055604051600181527f7f26b83ff96e1f2b6a682f133852f6798a09c465da95921460cefb38474024989060200160405180910390a1505050565b6001600160a01b037f0000000000000000000000000000000000000000000000000000000000000000163003610b9d5760405162461bcd60e51b8152600401610806906127cb565b7f00000000000000000000000000000000000000000000000000000000000000006001600160a01b0316610be6600080516020612a9e833981519152546001600160a01b031690565b6001600160a01b031614610c0c5760405162461bcd60e51b815260040161080690612817565b610c15826114e9565b610819828260016114f4565b6000306001600160a01b037f00000000000000000000000000000000000000000000000000000000000000001614610cc15760405162461bcd60e51b815260206004820152603860248201527f555550535570677261646561626c653a206d757374206e6f742062652063616c60448201527f6c6564207468726f7567682064656c656761746563616c6c00000000000000006064820152608401610806565b50600080516020612a9e83398151915290565b610cdc6116bf565b610ce4611718565b33600090815261016060209081526040808320858452610161909252822090916001600160a01b0384169003610d785760405162461bcd60e51b815260206004820152603360248201527f696620796f7520646f6e74206861766520726566666572616c2061646472657360448201527239903ab9b29030b2323932b9b99037bbb732b960691b6064820152608401610806565b600182810180546001600160a01b0319166001600160a01b03861617905560028301548591610da79190612879565b1015610df55760405162461bcd60e51b815260206004820152601d60248201527f596f75206e65656420746f20627579206561726c696572206c6576656c0000006044820152606401610806565b610e1433600183015461015f546001600160a01b03169190309061175f565b600282018490556001810154600383018054600090610e34908490612879565b909155505081546001600160a01b03191633178255600582018054906000610e5b8361288c565b909155505060008481526007830160205260408120805491610e7c8361288c565b9190505550806001015461016454610e949190612879565b61016455600481015460008581526007840160205260409020541115610efc5760405162461bcd60e51b815260206004820181905260248201527f596f752063616e7420627579206d6f72652074686973206c6576656c207965746044820152606401610806565b600681018054600583015403610f3857610f1a6006830133876117d0565b81600201548260050154610f2e9190612879565b6005830155610f60565b600682018054600181018255600091825260209091200180546001600160a01b031916331790555b6101638054906000610f718361288c565b91905055507f67b7c39dce5fa35f6a4cbe6ec721b5782cc6b7699bec93ff0cd066a22a899b398542610fa03390565b6040805193845260208401929092526001600160a01b03169082015260600160405180910390a1505050610819600160fb55565b610fdc6113a6565b6000610fe7816113f2565b5061015f80546001600160a01b0319166001600160a01b0392909216919091179055565b6000806000806000606060006101606000896001600160a01b03166001600160a01b0316815260200190815260200160002090508060010160009054906101000a90046001600160a01b0316816002015482600301548360040154846005015485600601808054806020026020016040519081016040528092919081815260200182805480156110c457602002820191906000526020600020905b81546001600160a01b031681526001909101906020018083116110a6575b505050505090509650965096509650965096505091939550919395565b6108198282611949565b60006110f6816113f2565b6107956001600160a01b0384163384611a62565b60006111146113a6565b600061111f816113f2565b505061016281905590565b6000806000806060600061016160008881526020019081526020016000209050806001015481600201548260030154836004015484600601808054806020026020016040519081016040528092919081815260200182805480156111b757602002820191906000526020600020905b81546001600160a01b03168152600190910190602001808311611199575b50505050509050955095509550955095505091939590929450565b600091825260c9602090815260408084206001600160a01b0393909316845291905290205460ff1690565b6112056113a6565b6000611210816113f2565b6000828152610161602052604081209060068201815b81548110156112d857818181548110611241576112416128a5565b600091825260209091200154600185015461015f546001600160a01b0392831695506112709216908590611a62565b60018401548454604080516001600160a01b03871681524260208201529081019290925260608201527f2369db1bafee945aee5630782f4a170682e3f8188d8dc247a4c73eb8c9e692d29060800160405180910390a1806112d08161288c565b915050611226565b506112e7600684016000612420565b5050505050565b60006112f9816113f2565b8161130657610819611a92565b610819611ae5565b600082815260c96020526040902060010154611329816113f2565b6107958383611482565b60008181526101616020908152604091829020600681018054845181850281018501909552808552606094929383018282801561139957602002820191906000526020600020905b81546001600160a01b0316815260019091019060200180831161137b575b5050505050915050919050565b61012d5460ff166113f05760405162461bcd60e51b815260206004820152601460248201527314185d5cd8589b194e881b9bdd081c185d5cd95960621b6044820152606401610806565b565b6108f98133611b23565b61140682826111d2565b61081957600082815260c9602090815260408083206001600160a01b03851684529091529020805460ff1916600117905561143e3390565b6001600160a01b0316816001600160a01b0316837f2f8788117e7eff1d82e926ec794901d17c78024a50270940304540a733656f0d60405160405180910390a45050565b61148c82826111d2565b1561081957600082815260c9602090815260408083206001600160a01b0385168085529252808320805460ff1916905551339285917ff6391f5c32d9c69d2a47ea670b442974b53935d1edc7fd64eb21e047a839171b9190a45050565b6000610819816113f2565b7f4910fdfa16fed3260ed0e7147f7cc6da11a60208b5b9406d12a635614ffd91435460ff16156115275761079583611b7c565b826001600160a01b03166352d1902d6040518163ffffffff1660e01b8152600401602060405180830381865afa925050508015611581575060408051601f3d908101601f1916820190925261157e918101906128bb565b60015b6115e45760405162461bcd60e51b815260206004820152602e60248201527f45524331393637557067726164653a206e657720696d706c656d656e7461746960448201526d6f6e206973206e6f74205555505360901b6064820152608401610806565b600080516020612a9e83398151915281146116535760405162461bcd60e51b815260206004820152602960248201527f45524331393637557067726164653a20756e737570706f727465642070726f786044820152681a58589b195555525160ba1b6064820152608401610806565b50610795838383611c18565b61081982826113fc565b600054610100900460ff166116905760405162461bcd60e51b8152600401610806906128d4565b6113f0611c3d565b600054610100900460ff166113f05760405162461bcd60e51b8152600401610806906128d4565b600260fb54036117115760405162461bcd60e51b815260206004820152601f60248201527f5265656e7472616e637947756172643a207265656e7472616e742063616c6c006044820152606401610806565b600260fb55565b61012d5460ff16156113f05760405162461bcd60e51b815260206004820152601060248201526f14185d5cd8589b194e881c185d5cd95960821b6044820152606401610806565b6040516001600160a01b03808516602483015283166044820152606481018290526117ca9085906323b872dd60e01b906084015b60408051601f198184030181529190526020810180516001600160e01b03166001600160e01b031990931692909217909152611c71565b50505050565b6000818152610161602052604081208454909190859082906117f4576117f46128a5565b60009182526020808320909101546001600160a01b031680835261016090915260408220600385015460018601549294509092916118349060649061291f565b61183e9190612941565b90508082600401546118509190612879565b600483015561015f5461186d906001600160a01b03168483611a62565b611878876000611d43565b80546001810182556000828152602090200180546001600160a01b0319166001600160a01b03891617905596506118ae83611e63565b600085815260078301602052604081208054916118ca83612958565b909155505086546118e1906006860190899061243e565b50600182015482548554604080516001600160a01b039485168152939092166020840152429183019190915260608201527f2496e048edda281349e32d9ccb972de94737d94c958c5d182a0e1ed90602fd9a906080015b60405180910390a150505050505050565b804710156119995760405162461bcd60e51b815260206004820152601d60248201527f416464726573733a20696e73756666696369656e742062616c616e63650000006044820152606401610806565b6000826001600160a01b03168260405160006040518083038185875af1925050503d80600081146119e6576040519150601f19603f3d011682016040523d82523d6000602084013e6119eb565b606091505b50509050806107955760405162461bcd60e51b815260206004820152603a60248201527f416464726573733a20756e61626c6520746f2073656e642076616c75652c207260448201527f6563697069656e74206d617920686176652072657665727465640000000000006064820152608401610806565b6040516001600160a01b03831660248201526044810182905261079590849063a9059cbb60e01b90606401611793565b611a9a6113a6565b61012d805460ff191690557f5db9ee0a495bf2e6ff9c91a7834c1ba4fdd244a5e8aa4e537bd38aeae4b073aa335b6040516001600160a01b03909116815260200160405180910390a1565b611aed611718565b61012d805460ff191660011790557f62e78cea01bee320cd4e420270b5ea74000d11b0c9f74754ebdbfc544b05a258611ac83390565b611b2d82826111d2565b61081957611b3a81611f89565b611b45836020611f9b565b604051602001611b56929190612993565b60408051601f198184030181529082905262461bcd60e51b825261080691600401612a08565b6001600160a01b0381163b611be95760405162461bcd60e51b815260206004820152602d60248201527f455243313936373a206e657720696d706c656d656e746174696f6e206973206e60448201526c1bdd08184818dbdb9d1c9858dd609a1b6064820152608401610806565b600080516020612a9e83398151915280546001600160a01b0319166001600160a01b0392909216919091179055565b611c218361213e565b600082511180611c2e5750805b15610795576117ca838361217e565b600054610100900460ff16611c645760405162461bcd60e51b8152600401610806906128d4565b61012d805460ff19169055565b6000611cc6826040518060400160405280602081526020017f5361666545524332303a206c6f772d6c6576656c2063616c6c206661696c6564815250856001600160a01b03166122729092919063ffffffff16565b8051909150156107955780806020019051810190611ce49190612a3b565b6107955760405162461bcd60e51b815260206004820152602a60248201527f5361666545524332303a204552433230206f7065726174696f6e20646964206e6044820152691bdd081cdd58d8d9595960b21b6064820152608401610806565b81546000908210611d8b5760405162461bcd60e51b81526020600482015260126024820152711a5b99195e081bdd5d081bd988189bdd5b9960721b6044820152606401610806565b815b8354611d9b90600190612a58565b811015611e295783611dae826001612879565b81548110611dbe57611dbe6128a5565b9060005260206000200160009054906101000a90046001600160a01b0316848281548110611dee57611dee6128a5565b600091825260209091200180546001600160a01b0319166001600160a01b039290921691909117905580611e218161288c565b915050611d8d565b5082805480611e3a57611e3a612a6b565b600082815260209020600019908201810180546001600160a01b03191690550190555090919050565b6001600160a01b03808216600090815261016060209081526040808320600180820154600283015480875261016190955292852061016254918101549296939093169491611eb39060649061291f565b611ebd9190612941565b60018601546001600160a01b0316600090815261016060205260409020600481015491925090611eee908390612879565b6004820155600681018054600181018255600091825260209091200180546001600160a01b0319166001600160a01b038981169190911790915561015f54611f3891168684611a62565b604080516001600160a01b038088168252891660208201524291810191909152606081018590527f2496e048edda281349e32d9ccb972de94737d94c958c5d182a0e1ed90602fd9a90608001611938565b60606106be6001600160a01b03831660145b60606000611faa836002612941565b611fb5906002612879565b67ffffffffffffffff811115611fcd57611fcd6125d3565b6040519080825280601f01601f191660200182016040528015611ff7576020820181803683370190505b509050600360fc1b81600081518110612012576120126128a5565b60200101906001600160f81b031916908160001a905350600f60fb1b81600181518110612041576120416128a5565b60200101906001600160f81b031916908160001a9053506000612065846002612941565b612070906001612879565b90505b60018111156120e8576f181899199a1a9b1b9c1cb0b131b232b360811b85600f16601081106120a4576120a46128a5565b1a60f81b8282815181106120ba576120ba6128a5565b60200101906001600160f81b031916908160001a90535060049490941c936120e181612958565b9050612073565b5083156121375760405162461bcd60e51b815260206004820181905260248201527f537472696e67733a20686578206c656e67746820696e73756666696369656e746044820152606401610806565b9392505050565b61214781611b7c565b6040516001600160a01b038216907fbc7cd75a20ee27fd9adebab32041f755214dbc6bffa90cc0225b39da2e5c2d3b90600090a250565b60606001600160a01b0383163b6121e65760405162461bcd60e51b815260206004820152602660248201527f416464726573733a2064656c65676174652063616c6c20746f206e6f6e2d636f6044820152651b9d1c9858dd60d21b6064820152608401610806565b600080846001600160a01b0316846040516122019190612a81565b600060405180830381855af49150503d806000811461223c576040519150601f19603f3d011682016040523d82523d6000602084013e612241565b606091505b50915091506122698282604051806060016040528060278152602001612abe60279139612289565b95945050505050565b606061228184846000856122a2565b949350505050565b60608315612298575081612137565b612137838361237d565b6060824710156123035760405162461bcd60e51b815260206004820152602660248201527f416464726573733a20696e73756666696369656e742062616c616e636520666f6044820152651c8818d85b1b60d21b6064820152608401610806565b600080866001600160a01b0316858760405161231f9190612a81565b60006040518083038185875af1925050503d806000811461235c576040519150601f19603f3d011682016040523d82523d6000602084013e612361565b606091505b5091509150612372878383876123a7565b979650505050505050565b81511561238d5781518083602001fd5b8060405162461bcd60e51b81526004016108069190612a08565b6060831561241657825160000361240f576001600160a01b0385163b61240f5760405162461bcd60e51b815260206004820152601d60248201527f416464726573733a2063616c6c20746f206e6f6e2d636f6e74726163740000006044820152606401610806565b5081612281565b612281838361237d565b50805460008255906000526020600020908101906108f9919061248e565b82805482825590600052602060002090810192821561247e5760005260206000209182015b8281111561247e578254825591600101919060010190612463565b5061248a92915061248e565b5090565b5b8082111561248a576000815560010161248f565b6000602082840312156124b557600080fd5b81356001600160e01b03198116811461213757600080fd5b600080600080600060a086880312156124e557600080fd5b505083359560208501359550604085013594606081013594506080013592509050565b60006020828403121561251a57600080fd5b5035919050565b6001600160a01b03811681146108f957600080fd5b6000806040838503121561254957600080fd5b82359150602083013561255b81612521565b809150509250929050565b60006020828403121561257857600080fd5b813561213781612521565b6000806040838503121561259657600080fd5b50508035926020909101359150565b600080604083850312156125b857600080fd5b82356125c381612521565b9150602083013561255b81612521565b634e487b7160e01b600052604160045260246000fd5b600080604083850312156125fc57600080fd5b823561260781612521565b9150602083013567ffffffffffffffff8082111561262457600080fd5b818501915085601f83011261263857600080fd5b81358181111561264a5761264a6125d3565b604051601f8201601f19908116603f01168101908382118183101715612672576126726125d3565b8160405282815288602084870101111561268b57600080fd5b8260208601602083013760006020848301015280955050505050509250929050565b600081518084526020808501945080840160005b838110156126e65781516001600160a01b0316875295820195908201906001016126c1565b509495945050505050565b60018060a01b038716815285602082015284604082015283606082015282608082015260c060a0820152600061272a60c08301846126ad565b98975050505050505050565b6000806040838503121561274957600080fd5b823561275481612521565b946020939093013593505050565b85815284602082015283604082015282606082015260a06080820152600061237260a08301846126ad565b80151581146108f957600080fd5b6000602082840312156127ad57600080fd5b81356121378161278d565b60208152600061213760208301846126ad565b6020808252602c908201527f46756e6374696f6e206d7573742062652063616c6c6564207468726f7567682060408201526b19195b1959d85d1958d85b1b60a21b606082015260800190565b6020808252602c908201527f46756e6374696f6e206d7573742062652063616c6c6564207468726f7567682060408201526b6163746976652070726f787960a01b606082015260800190565b634e487b7160e01b600052601160045260246000fd5b808201808211156106be576106be612863565b60006001820161289e5761289e612863565b5060010190565b634e487b7160e01b600052603260045260246000fd5b6000602082840312156128cd57600080fd5b5051919050565b6020808252602b908201527f496e697469616c697a61626c653a20636f6e7472616374206973206e6f74206960408201526a6e697469616c697a696e6760a81b606082015260800190565b60008261293c57634e487b7160e01b600052601260045260246000fd5b500490565b80820281158282048414176106be576106be612863565b60008161296757612967612863565b506000190190565b60005b8381101561298a578181015183820152602001612972565b50506000910152565b7f416363657373436f6e74726f6c3a206163636f756e74200000000000000000008152600083516129cb81601785016020880161296f565b7001034b99036b4b9b9b4b733903937b6329607d1b60179184019182015283516129fc81602884016020880161296f565b01602801949350505050565b6020815260008251806020840152612a2781604085016020870161296f565b601f01601f19169190910160400192915050565b600060208284031215612a4d57600080fd5b81516121378161278d565b818103818111156106be576106be612863565b634e487b7160e01b600052603160045260246000fd5b60008251612a9381846020870161296f565b919091019291505056fe360894a13ba1a3210667c828492db98dca3e2076cc3735a920a3ca505d382bbc416464726573733a206c6f772d6c6576656c2064656c65676174652063616c6c206661696c6564a26469706673582212200aa5f0ecb81a7ba78cc0bae0fe7ec1345c1e833fd76f6a9c2f3d44c41d1b185964736f6c63430008110033","opcodes":"PUSH1 0xA0 PUSH1 0x40 MSTORE ADDRESS PUSH1 0x80 MSTORE CALLVALUE DUP1 ISZERO PUSH2 0x14 JUMPI PUSH1 0x0 DUP1 REVERT JUMPDEST POP PUSH1 0x80 MLOAD PUSH2 0x2B1A PUSH2 0x4C PUSH1 0x0 CODECOPY PUSH1 0x0 DUP2 DUP2 PUSH2 0x827 ADD MSTORE DUP2 DUP2 PUSH2 0x867 ADD MSTORE DUP2 DUP2 PUSH2 0xB5F ADD MSTORE DUP2 DUP2 PUSH2 0xB9F ADD MSTORE PUSH2 0xC2E ADD MSTORE PUSH2 0x2B1A PUSH1 0x0 RETURN INVALID PUSH1 0x80 PUSH1 0x40 MSTORE PUSH1 0x4 CALLDATASIZE LT PUSH2 0x1B9 JUMPI PUSH1 0x0 CALLDATALOAD PUSH1 0xE0 SHR DUP1 PUSH4 0x6F77926B GT PUSH2 0xEB JUMPI DUP1 PUSH4 0xA217FDDF GT PUSH2 0x8F JUMPI DUP1 PUSH4 0xBEDB86FB GT PUSH2 0x61 JUMPI DUP1 PUSH4 0xBEDB86FB EQ PUSH2 0x5E7 JUMPI DUP1 PUSH4 0xC2412676 EQ PUSH2 0x607 JUMPI DUP1 PUSH4 0xD547741F EQ PUSH2 0x640 JUMPI DUP1 PUSH4 0xE176CE0A EQ PUSH2 0x660 JUMPI STOP JUMPDEST DUP1 PUSH4 0xA217FDDF EQ PUSH2 0x49E JUMPI DUP1 PUSH4 0xA87430BA EQ PUSH2 0x4B3 JUMPI DUP1 PUSH4 0xAB7A6BF1 EQ PUSH2 0x549 JUMPI DUP1 PUSH4 0xB2596A67 EQ PUSH2 0x569 JUMPI STOP JUMPDEST DUP1 PUSH4 0x77A58415 GT PUSH2 0xC8 JUMPI DUP1 PUSH4 0x77A58415 EQ PUSH2 0x40D JUMPI DUP1 PUSH4 0x855B4283 EQ PUSH2 0x42D JUMPI DUP1 PUSH4 0x86481D40 EQ PUSH2 0x44D JUMPI DUP1 PUSH4 0x91D14854 EQ PUSH2 0x47E JUMPI STOP JUMPDEST DUP1 PUSH4 0x6F77926B EQ PUSH2 0x3A4 JUMPI DUP1 PUSH4 0x74A9F9D9 EQ PUSH2 0x3D6 JUMPI DUP1 PUSH4 0x77125CF1 EQ PUSH2 0x3ED JUMPI STOP JUMPDEST DUP1 PUSH4 0x44B0D9D8 GT PUSH2 0x15D JUMPI DUP1 PUSH4 0x52D1902D GT PUSH2 0x12F JUMPI DUP1 PUSH4 0x52D1902D EQ PUSH2 0x336 JUMPI DUP1 PUSH4 0x5C975ABB EQ PUSH2 0x34B JUMPI DUP1 PUSH4 0x64E5322A EQ PUSH2 0x364 JUMPI DUP1 PUSH4 0x66829B16 EQ PUSH2 0x384 JUMPI STOP JUMPDEST DUP1 PUSH4 0x44B0D9D8 EQ PUSH2 0x2CC JUMPI DUP1 PUSH4 0x485CC955 EQ PUSH2 0x2EC JUMPI DUP1 PUSH4 0x4B70E8E7 EQ PUSH2 0x30C JUMPI DUP1 PUSH4 0x4F1EF286 EQ PUSH2 0x323 JUMPI STOP JUMPDEST DUP1 PUSH4 0x2D5339E0 GT PUSH2 0x196 JUMPI DUP1 PUSH4 0x2D5339E0 EQ PUSH2 0x255 JUMPI DUP1 PUSH4 0x2F2FF15D EQ PUSH2 0x26C JUMPI DUP1 PUSH4 0x36568ABE EQ PUSH2 0x28C JUMPI DUP1 PUSH4 0x3659CFE6 EQ PUSH2 0x2AC JUMPI STOP JUMPDEST DUP1 PUSH4 0x1FFC9A7 EQ PUSH2 0x1C2 JUMPI DUP1 PUSH4 0x1CE480F3 EQ PUSH2 0x1F7 JUMPI DUP1 PUSH4 0x248A9CA3 EQ PUSH2 0x225 JUMPI STOP JUMPDEST CALLDATASIZE PUSH2 0x1C0 JUMPI STOP JUMPDEST STOP JUMPDEST CALLVALUE DUP1 ISZERO PUSH2 0x1CE JUMPI PUSH1 0x0 DUP1 REVERT JUMPDEST POP PUSH2 0x1E2 PUSH2 0x1DD CALLDATASIZE PUSH1 0x4 PUSH2 0x24A3 JUMP JUMPDEST PUSH2 0x68D JUMP JUMPDEST PUSH1 0x40 MLOAD SWAP1 ISZERO ISZERO DUP2 MSTORE PUSH1 0x20 ADD JUMPDEST PUSH1 0x40 MLOAD DUP1 SWAP2 SUB SWAP1 RETURN JUMPDEST CALLVALUE DUP1 ISZERO PUSH2 0x203 JUMPI PUSH1 0x0 DUP1 REVERT JUMPDEST POP PUSH2 0x217 PUSH2 0x212 CALLDATASIZE PUSH1 0x4 PUSH2 0x24CD JUMP JUMPDEST PUSH2 0x6C4 JUMP JUMPDEST PUSH1 0x40 MLOAD SWAP1 DUP2 MSTORE PUSH1 0x20 ADD PUSH2 0x1EE JUMP JUMPDEST CALLVALUE DUP1 ISZERO PUSH2 0x231 JUMPI PUSH1 0x0 DUP1 REVERT JUMPDEST POP PUSH2 0x217 PUSH2 0x240 CALLDATASIZE PUSH1 0x4 PUSH2 0x2508 JUMP JUMPDEST PUSH1 0x0 SWAP1 DUP2 MSTORE PUSH1 0xC9 PUSH1 0x20 MSTORE PUSH1 0x40 SWAP1 KECCAK256 PUSH1 0x1 ADD SLOAD SWAP1 JUMP JUMPDEST CALLVALUE DUP1 ISZERO PUSH2 0x261 JUMPI PUSH1 0x0 DUP1 REVERT JUMPDEST POP PUSH2 0x217 PUSH2 0x163 SLOAD DUP2 JUMP JUMPDEST CALLVALUE DUP1 ISZERO PUSH2 0x278 JUMPI PUSH1 0x0 DUP1 REVERT JUMPDEST POP PUSH2 0x1C0 PUSH2 0x287 CALLDATASIZE PUSH1 0x4 PUSH2 0x2536 JUMP JUMPDEST PUSH2 0x770 JUMP JUMPDEST CALLVALUE DUP1 ISZERO PUSH2 0x298 JUMPI PUSH1 0x0 DUP1 REVERT JUMPDEST POP PUSH2 0x1C0 PUSH2 0x2A7 CALLDATASIZE PUSH1 0x4 PUSH2 0x2536 JUMP JUMPDEST PUSH2 0x79A JUMP JUMPDEST CALLVALUE DUP1 ISZERO PUSH2 0x2B8 JUMPI PUSH1 0x0 DUP1 REVERT JUMPDEST POP PUSH2 0x1C0 PUSH2 0x2C7 CALLDATASIZE PUSH1 0x4 PUSH2 0x2566 JUMP JUMPDEST PUSH2 0x81D JUMP JUMPDEST CALLVALUE DUP1 ISZERO PUSH2 0x2D8 JUMPI PUSH1 0x0 DUP1 REVERT JUMPDEST POP PUSH2 0x217 PUSH2 0x2E7 CALLDATASIZE PUSH1 0x4 PUSH2 0x2583 JUMP JUMPDEST PUSH2 0x8FC JUMP JUMPDEST CALLVALUE DUP1 ISZERO PUSH2 0x2F8 JUMPI PUSH1 0x0 DUP1 REVERT JUMPDEST POP PUSH2 0x1C0 PUSH2 0x307 CALLDATASIZE PUSH1 0x4 PUSH2 0x25A5 JUMP JUMPDEST PUSH2 0x92C JUMP JUMPDEST CALLVALUE DUP1 ISZERO PUSH2 0x318 JUMPI PUSH1 0x0 DUP1 REVERT JUMPDEST POP PUSH2 0x217 PUSH2 0x162 SLOAD DUP2 JUMP JUMPDEST PUSH2 0x1C0 PUSH2 0x331 CALLDATASIZE PUSH1 0x4 PUSH2 0x25E9 JUMP JUMPDEST PUSH2 0xB55 JUMP JUMPDEST CALLVALUE DUP1 ISZERO PUSH2 0x342 JUMPI PUSH1 0x0 DUP1 REVERT JUMPDEST POP PUSH2 0x217 PUSH2 0xC21 JUMP JUMPDEST CALLVALUE DUP1 ISZERO PUSH2 0x357 JUMPI PUSH1 0x0 DUP1 REVERT JUMPDEST POP PUSH2 0x12D SLOAD PUSH1 0xFF AND PUSH2 0x1E2 JUMP JUMPDEST CALLVALUE DUP1 ISZERO PUSH2 0x370 JUMPI PUSH1 0x0 DUP1 REVERT JUMPDEST POP PUSH2 0x1C0 PUSH2 0x37F CALLDATASIZE PUSH1 0x4 PUSH2 0x2536 JUMP JUMPDEST PUSH2 0xCD4 JUMP JUMPDEST CALLVALUE DUP1 ISZERO PUSH2 0x390 JUMPI PUSH1 0x0 DUP1 REVERT JUMPDEST POP PUSH2 0x1C0 PUSH2 0x39F CALLDATASIZE PUSH1 0x4 PUSH2 0x2566 JUMP JUMPDEST PUSH2 0xFD4 JUMP JUMPDEST CALLVALUE DUP1 ISZERO PUSH2 0x3B0 JUMPI PUSH1 0x0 DUP1 REVERT JUMPDEST POP PUSH2 0x3C4 PUSH2 0x3BF CALLDATASIZE PUSH1 0x4 PUSH2 0x2566 JUMP JUMPDEST PUSH2 0x100B JUMP JUMPDEST PUSH1 0x40 MLOAD PUSH2 0x1EE SWAP7 SWAP6 SWAP5 SWAP4 SWAP3 SWAP2 SWAP1 PUSH2 0x26F1 JUMP JUMPDEST CALLVALUE DUP1 ISZERO PUSH2 0x3E2 JUMPI PUSH1 0x0 DUP1 REVERT JUMPDEST POP PUSH2 0x217 PUSH2 0x164 SLOAD DUP2 JUMP JUMPDEST CALLVALUE DUP1 ISZERO PUSH2 0x3F9 JUMPI PUSH1 0x0 DUP1 REVERT JUMPDEST POP PUSH2 0x1C0 PUSH2 0x408 CALLDATASIZE PUSH1 0x4 PUSH2 0x2736 JUMP JUMPDEST PUSH2 0x10E1 JUMP JUMPDEST CALLVALUE DUP1 ISZERO PUSH2 0x419 JUMPI PUSH1 0x0 DUP1 REVERT JUMPDEST POP PUSH2 0x1C0 PUSH2 0x428 CALLDATASIZE PUSH1 0x4 PUSH2 0x2736 JUMP JUMPDEST PUSH2 0x10EB JUMP JUMPDEST CALLVALUE DUP1 ISZERO PUSH2 0x439 JUMPI PUSH1 0x0 DUP1 REVERT JUMPDEST POP PUSH2 0x217 PUSH2 0x448 CALLDATASIZE PUSH1 0x4 PUSH2 0x2508 JUMP JUMPDEST PUSH2 0x110A JUMP JUMPDEST CALLVALUE DUP1 ISZERO PUSH2 0x459 JUMPI PUSH1 0x0 DUP1 REVERT JUMPDEST POP PUSH2 0x46D PUSH2 0x468 CALLDATASIZE PUSH1 0x4 PUSH2 0x2508 JUMP JUMPDEST PUSH2 0x112A JUMP JUMPDEST PUSH1 0x40 MLOAD PUSH2 0x1EE SWAP6 SWAP5 SWAP4 SWAP3 SWAP2 SWAP1 PUSH2 0x2762 JUMP JUMPDEST CALLVALUE DUP1 ISZERO PUSH2 0x48A JUMPI PUSH1 0x0 DUP1 REVERT JUMPDEST POP PUSH2 0x1E2 PUSH2 0x499 CALLDATASIZE PUSH1 0x4 PUSH2 0x2536 JUMP JUMPDEST PUSH2 0x11D2 JUMP JUMPDEST CALLVALUE DUP1 ISZERO PUSH2 0x4AA JUMPI PUSH1 0x0 DUP1 REVERT JUMPDEST POP PUSH2 0x217 PUSH1 0x0 DUP2 JUMP JUMPDEST CALLVALUE DUP1 ISZERO PUSH2 0x4BF JUMPI PUSH1 0x0 DUP1 REVERT JUMPDEST POP PUSH2 0x511 PUSH2 0x4CE CALLDATASIZE PUSH1 0x4 PUSH2 0x2566 JUMP JUMPDEST PUSH2 0x160 PUSH1 0x20 MSTORE PUSH1 0x0 SWAP1 DUP2 MSTORE PUSH1 0x40 SWAP1 KECCAK256 DUP1 SLOAD PUSH1 0x1 DUP3 ADD SLOAD PUSH1 0x2 DUP4 ADD SLOAD PUSH1 0x3 DUP5 ADD SLOAD PUSH1 0x4 DUP6 ADD SLOAD PUSH1 0x5 SWAP1 SWAP6 ADD SLOAD PUSH1 0x1 PUSH1 0x1 PUSH1 0xA0 SHL SUB SWAP5 DUP6 AND SWAP6 SWAP4 SWAP1 SWAP5 AND SWAP4 SWAP2 SWAP3 SWAP1 SWAP2 DUP7 JUMP JUMPDEST PUSH1 0x40 DUP1 MLOAD PUSH1 0x1 PUSH1 0x1 PUSH1 0xA0 SHL SUB SWAP8 DUP9 AND DUP2 MSTORE SWAP7 SWAP1 SWAP6 AND PUSH1 0x20 DUP8 ADD MSTORE SWAP4 DUP6 ADD SWAP3 SWAP1 SWAP3 MSTORE PUSH1 0x60 DUP5 ADD MSTORE PUSH1 0x80 DUP4 ADD MSTORE PUSH1 0xA0 DUP3 ADD MSTORE PUSH1 0xC0 ADD PUSH2 0x1EE JUMP JUMPDEST CALLVALUE DUP1 ISZERO PUSH2 0x555 JUMPI PUSH1 0x0 DUP1 REVERT JUMPDEST POP PUSH2 0x1C0 PUSH2 0x564 CALLDATASIZE PUSH1 0x4 PUSH2 0x2508 JUMP JUMPDEST PUSH2 0x11FD JUMP JUMPDEST CALLVALUE DUP1 ISZERO PUSH2 0x575 JUMPI PUSH1 0x0 DUP1 REVERT JUMPDEST POP PUSH2 0x5BA PUSH2 0x584 CALLDATASIZE PUSH1 0x4 PUSH2 0x2508 JUMP JUMPDEST PUSH2 0x161 PUSH1 0x20 MSTORE PUSH1 0x0 SWAP1 DUP2 MSTORE PUSH1 0x40 SWAP1 KECCAK256 DUP1 SLOAD PUSH1 0x1 DUP3 ADD SLOAD PUSH1 0x2 DUP4 ADD SLOAD PUSH1 0x3 DUP5 ADD SLOAD PUSH1 0x4 DUP6 ADD SLOAD PUSH1 0x5 SWAP1 SWAP6 ADD SLOAD SWAP4 SWAP5 SWAP3 SWAP4 SWAP2 SWAP3 SWAP1 SWAP2 DUP7 JUMP JUMPDEST PUSH1 0x40 DUP1 MLOAD SWAP7 DUP8 MSTORE PUSH1 0x20 DUP8 ADD SWAP6 SWAP1 SWAP6 MSTORE SWAP4 DUP6 ADD SWAP3 SWAP1 SWAP3 MSTORE PUSH1 0x60 DUP5 ADD MSTORE PUSH1 0x80 DUP4 ADD MSTORE PUSH1 0xA0 DUP3 ADD MSTORE PUSH1 0xC0 ADD PUSH2 0x1EE JUMP JUMPDEST CALLVALUE DUP1 ISZERO PUSH2 0x5F3 JUMPI PUSH1 0x0 DUP1 REVERT JUMPDEST POP PUSH2 0x1C0 PUSH2 0x602 CALLDATASIZE PUSH1 0x4 PUSH2 0x279B JUMP JUMPDEST PUSH2 0x12EE JUMP JUMPDEST CALLVALUE DUP1 ISZERO PUSH2 0x613 JUMPI PUSH1 0x0 DUP1 REVERT JUMPDEST POP PUSH2 0x15F SLOAD PUSH2 0x628 SWAP1 PUSH1 0x1 PUSH1 0x1 PUSH1 0xA0 SHL SUB AND DUP2 JUMP JUMPDEST PUSH1 0x40 MLOAD PUSH1 0x1 PUSH1 0x1 PUSH1 0xA0 SHL SUB SWAP1 SWAP2 AND DUP2 MSTORE PUSH1 0x20 ADD PUSH2 0x1EE JUMP JUMPDEST CALLVALUE DUP1 ISZERO PUSH2 0x64C JUMPI PUSH1 0x0 DUP1 REVERT JUMPDEST POP PUSH2 0x1C0 PUSH2 0x65B CALLDATASIZE PUSH1 0x4 PUSH2 0x2536 JUMP JUMPDEST PUSH2 0x130E JUMP JUMPDEST CALLVALUE DUP1 ISZERO PUSH2 0x66C JUMPI PUSH1 0x0 DUP1 REVERT JUMPDEST POP PUSH2 0x680 PUSH2 0x67B CALLDATASIZE PUSH1 0x4 PUSH2 0x2508 JUMP JUMPDEST PUSH2 0x1333 JUMP JUMPDEST PUSH1 0x40 MLOAD PUSH2 0x1EE SWAP2 SWAP1 PUSH2 0x27B8 JUMP JUMPDEST PUSH1 0x0 PUSH1 0x1 PUSH1 0x1 PUSH1 0xE0 SHL SUB NOT DUP3 AND PUSH4 0x7965DB0B PUSH1 0xE0 SHL EQ DUP1 PUSH2 0x6BE JUMPI POP PUSH4 0x1FFC9A7 PUSH1 0xE0 SHL PUSH1 0x1 PUSH1 0x1 PUSH1 0xE0 SHL SUB NOT DUP4 AND EQ JUMPDEST SWAP3 SWAP2 POP POP JUMP JUMPDEST PUSH1 0x0 PUSH2 0x6CE PUSH2 0x13A6 JUMP JUMPDEST PUSH1 0x0 PUSH2 0x6D9 DUP2 PUSH2 0x13F2 JUMP JUMPDEST PUSH1 0x0 DUP8 DUP2 MSTORE PUSH2 0x161 PUSH1 0x20 SWAP1 DUP2 MSTORE PUSH1 0x40 SWAP2 DUP3 SWAP1 KECCAK256 DUP10 DUP2 SSTORE PUSH1 0x1 DUP2 ADD DUP10 SWAP1 SSTORE PUSH1 0x2 DUP2 ADD DUP9 SWAP1 SSTORE PUSH1 0x5 DUP2 ADD DUP9 SWAP1 SSTORE PUSH1 0x3 DUP2 ADD DUP8 SWAP1 SSTORE PUSH1 0x4 DUP2 ADD DUP7 SWAP1 SSTORE DUP3 MLOAD DUP11 DUP2 MSTORE SWAP2 DUP3 ADD DUP10 SWAP1 MSTORE SWAP2 DUP2 ADD DUP8 SWAP1 MSTORE PUSH1 0x60 DUP2 ADD DUP7 SWAP1 MSTORE PUSH1 0x80 DUP2 ADD DUP6 SWAP1 MSTORE TIMESTAMP PUSH1 0xA0 DUP3 ADD MSTORE PUSH32 0x8FACAC00B97205D28CED8B122D640ABFDF7AEDC107B011A3009FD0910500925C SWAP1 PUSH1 0xC0 ADD PUSH1 0x40 MLOAD DUP1 SWAP2 SUB SWAP1 LOG1 POP SWAP6 SWAP7 SWAP6 POP POP POP POP POP POP JUMP JUMPDEST PUSH1 0x0 DUP3 DUP2 MSTORE PUSH1 0xC9 PUSH1 0x20 MSTORE PUSH1 0x40 SWAP1 KECCAK256 PUSH1 0x1 ADD SLOAD PUSH2 0x78B DUP2 PUSH2 0x13F2 JUMP JUMPDEST PUSH2 0x795 DUP4 DUP4 PUSH2 0x13FC JUMP JUMPDEST POP POP POP JUMP JUMPDEST PUSH1 0x1 PUSH1 0x1 PUSH1 0xA0 SHL SUB DUP2 AND CALLER EQ PUSH2 0x80F JUMPI PUSH1 0x40 MLOAD PUSH3 0x461BCD PUSH1 0xE5 SHL DUP2 MSTORE PUSH1 0x20 PUSH1 0x4 DUP3 ADD MSTORE PUSH1 0x2F PUSH1 0x24 DUP3 ADD MSTORE PUSH32 0x416363657373436F6E74726F6C3A2063616E206F6E6C792072656E6F756E6365 PUSH1 0x44 DUP3 ADD MSTORE PUSH15 0x103937B632B9903337B91039B2B633 PUSH1 0x89 SHL PUSH1 0x64 DUP3 ADD MSTORE PUSH1 0x84 ADD JUMPDEST PUSH1 0x40 MLOAD DUP1 SWAP2 SUB SWAP1 REVERT JUMPDEST PUSH2 0x819 DUP3 DUP3 PUSH2 0x1482 JUMP JUMPDEST POP POP JUMP JUMPDEST PUSH1 0x1 PUSH1 0x1 PUSH1 0xA0 SHL SUB PUSH32 0x0 AND ADDRESS SUB PUSH2 0x865 JUMPI PUSH1 0x40 MLOAD PUSH3 0x461BCD PUSH1 0xE5 SHL DUP2 MSTORE PUSH1 0x4 ADD PUSH2 0x806 SWAP1 PUSH2 0x27CB JUMP JUMPDEST PUSH32 0x0 PUSH1 0x1 PUSH1 0x1 PUSH1 0xA0 SHL SUB AND PUSH2 0x8AE PUSH1 0x0 DUP1 MLOAD PUSH1 0x20 PUSH2 0x2A9E DUP4 CODECOPY DUP2 MLOAD SWAP2 MSTORE SLOAD PUSH1 0x1 PUSH1 0x1 PUSH1 0xA0 SHL SUB AND SWAP1 JUMP JUMPDEST PUSH1 0x1 PUSH1 0x1 PUSH1 0xA0 SHL SUB AND EQ PUSH2 0x8D4 JUMPI PUSH1 0x40 MLOAD PUSH3 0x461BCD PUSH1 0xE5 SHL DUP2 MSTORE PUSH1 0x4 ADD PUSH2 0x806 SWAP1 PUSH2 0x2817 JUMP JUMPDEST PUSH2 0x8DD DUP2 PUSH2 0x14E9 JUMP JUMPDEST PUSH1 0x40 DUP1 MLOAD PUSH1 0x0 DUP1 DUP3 MSTORE PUSH1 0x20 DUP3 ADD SWAP1 SWAP3 MSTORE PUSH2 0x8F9 SWAP2 DUP4 SWAP2 SWAP1 PUSH2 0x14F4 JUMP JUMPDEST POP JUMP JUMPDEST PUSH1 0x0 PUSH2 0x906 PUSH2 0x13A6 JUMP JUMPDEST PUSH1 0x0 PUSH2 0x911 DUP2 PUSH2 0x13F2 JUMP JUMPDEST POP POP PUSH1 0x0 SWAP2 DUP3 MSTORE PUSH2 0x161 PUSH1 0x20 MSTORE PUSH1 0x40 SWAP1 SWAP2 KECCAK256 PUSH1 0x4 ADD DUP2 SWAP1 SSTORE SWAP1 JUMP JUMPDEST PUSH1 0x0 SLOAD PUSH2 0x100 SWAP1 DIV PUSH1 0xFF AND ISZERO DUP1 DUP1 ISZERO PUSH2 0x94C JUMPI POP PUSH1 0x0 SLOAD PUSH1 0x1 PUSH1 0xFF SWAP1 SWAP2 AND LT JUMPDEST DUP1 PUSH2 0x966 JUMPI POP ADDRESS EXTCODESIZE ISZERO DUP1 ISZERO PUSH2 0x966 JUMPI POP PUSH1 0x0 SLOAD PUSH1 0xFF AND PUSH1 0x1 EQ JUMPDEST PUSH2 0x9C9 JUMPI PUSH1 0x40 MLOAD PUSH3 0x461BCD PUSH1 0xE5 SHL DUP2 MSTORE PUSH1 0x20 PUSH1 0x4 DUP3 ADD MSTORE PUSH1 0x2E PUSH1 0x24 DUP3 ADD MSTORE PUSH32 0x496E697469616C697A61626C653A20636F6E747261637420697320616C726561 PUSH1 0x44 DUP3 ADD MSTORE PUSH14 0x191E481A5B9A5D1A585B1A5E9959 PUSH1 0x92 SHL PUSH1 0x64 DUP3 ADD MSTORE PUSH1 0x84 ADD PUSH2 0x806 JUMP JUMPDEST PUSH1 0x0 DUP1 SLOAD PUSH1 0xFF NOT AND PUSH1 0x1 OR SWAP1 SSTORE DUP1 ISZERO PUSH2 0x9EC JUMPI PUSH1 0x0 DUP1 SLOAD PUSH2 0xFF00 NOT AND PUSH2 0x100 OR SWAP1 SSTORE JUMPDEST PUSH2 0x9F7 PUSH1 0x0 CALLER PUSH2 0x165F JUMP JUMPDEST PUSH2 0xA02 PUSH1 0x0 DUP4 PUSH2 0x165F JUMP JUMPDEST PUSH2 0xA0A PUSH2 0x1669 JUMP JUMPDEST PUSH2 0xA12 PUSH2 0x1698 JUMP JUMPDEST PUSH2 0xA1A PUSH2 0x1698 JUMP JUMPDEST PUSH2 0xA24 PUSH1 0x1 PUSH2 0x12EE JUMP JUMPDEST PUSH2 0xA2E PUSH1 0xA PUSH2 0x110A JUMP JUMPDEST POP PUSH2 0xA38 DUP4 PUSH2 0xFD4 JUMP JUMPDEST PUSH2 0xA4D PUSH1 0x0 PUSH4 0x2625A00 PUSH1 0x3 PUSH1 0xC8 PUSH1 0x2 PUSH2 0x6C4 JUMP JUMPDEST POP PUSH2 0xA63 PUSH1 0x1 PUSH4 0x55D4A80 PUSH1 0x4 PUSH1 0x96 PUSH1 0x1 PUSH2 0x6C4 JUMP JUMPDEST POP PUSH2 0xA79 PUSH1 0x2 PUSH4 0xA21FE80 PUSH1 0x4 PUSH1 0xAF PUSH1 0x1 PUSH2 0x6C4 JUMP JUMPDEST POP PUSH2 0xA8F PUSH1 0x3 PUSH4 0x1017DF80 PUSH1 0x5 PUSH1 0xC8 PUSH1 0x1 PUSH2 0x6C4 JUMP JUMPDEST POP PUSH2 0xAA5 PUSH1 0x4 PUSH4 0x1DCD6500 PUSH1 0x5 PUSH1 0xE1 PUSH1 0x1 PUSH2 0x6C4 JUMP JUMPDEST POP PUSH2 0xABB PUSH1 0x5 PUSH4 0x35A4E900 PUSH1 0x5 PUSH1 0xFA PUSH1 0x1 PUSH2 0x6C4 JUMP JUMPDEST POP PUSH2 0xAD2 PUSH1 0x6 PUSH4 0x59682F00 PUSH1 0x5 PUSH2 0x113 PUSH1 0x1 PUSH2 0x6C4 JUMP JUMPDEST POP PUSH2 0xAE9 PUSH1 0x7 PUSH4 0x77359400 PUSH1 0x7 PUSH2 0x12C PUSH1 0x1 PUSH2 0x6C4 JUMP JUMPDEST POP PUSH2 0xB00 PUSH1 0x8 PUSH4 0xB2D05E00 PUSH1 0x8 PUSH2 0x145 PUSH1 0x1 PUSH2 0x6C4 JUMP JUMPDEST POP PUSH2 0xB0B PUSH1 0x0 PUSH2 0x12EE JUMP JUMPDEST DUP1 ISZERO PUSH2 0x795 JUMPI PUSH1 0x0 DUP1 SLOAD PUSH2 0xFF00 NOT AND SWAP1 SSTORE PUSH1 0x40 MLOAD PUSH1 0x1 DUP2 MSTORE PUSH32 0x7F26B83FF96E1F2B6A682F133852F6798A09C465DA95921460CEFB3847402498 SWAP1 PUSH1 0x20 ADD PUSH1 0x40 MLOAD DUP1 SWAP2 SUB SWAP1 LOG1 POP POP POP JUMP JUMPDEST PUSH1 0x1 PUSH1 0x1 PUSH1 0xA0 SHL SUB PUSH32 0x0 AND ADDRESS SUB PUSH2 0xB9D JUMPI PUSH1 0x40 MLOAD PUSH3 0x461BCD PUSH1 0xE5 SHL DUP2 MSTORE PUSH1 0x4 ADD PUSH2 0x806 SWAP1 PUSH2 0x27CB JUMP JUMPDEST PUSH32 0x0 PUSH1 0x1 PUSH1 0x1 PUSH1 0xA0 SHL SUB AND PUSH2 0xBE6 PUSH1 0x0 DUP1 MLOAD PUSH1 0x20 PUSH2 0x2A9E DUP4 CODECOPY DUP2 MLOAD SWAP2 MSTORE SLOAD PUSH1 0x1 PUSH1 0x1 PUSH1 0xA0 SHL SUB AND SWAP1 JUMP JUMPDEST PUSH1 0x1 PUSH1 0x1 PUSH1 0xA0 SHL SUB AND EQ PUSH2 0xC0C JUMPI PUSH1 0x40 MLOAD PUSH3 0x461BCD PUSH1 0xE5 SHL DUP2 MSTORE PUSH1 0x4 ADD PUSH2 0x806 SWAP1 PUSH2 0x2817 JUMP JUMPDEST PUSH2 0xC15 DUP3 PUSH2 0x14E9 JUMP JUMPDEST PUSH2 0x819 DUP3 DUP3 PUSH1 0x1 PUSH2 0x14F4 JUMP JUMPDEST PUSH1 0x0 ADDRESS PUSH1 0x1 PUSH1 0x1 PUSH1 0xA0 SHL SUB PUSH32 0x0 AND EQ PUSH2 0xCC1 JUMPI PUSH1 0x40 MLOAD PUSH3 0x461BCD PUSH1 0xE5 SHL DUP2 MSTORE PUSH1 0x20 PUSH1 0x4 DUP3 ADD MSTORE PUSH1 0x38 PUSH1 0x24 DUP3 ADD MSTORE PUSH32 0x555550535570677261646561626C653A206D757374206E6F742062652063616C PUSH1 0x44 DUP3 ADD MSTORE PUSH32 0x6C6564207468726F7567682064656C656761746563616C6C0000000000000000 PUSH1 0x64 DUP3 ADD MSTORE PUSH1 0x84 ADD PUSH2 0x806 JUMP JUMPDEST POP PUSH1 0x0 DUP1 MLOAD PUSH1 0x20 PUSH2 0x2A9E DUP4 CODECOPY DUP2 MLOAD SWAP2 MSTORE SWAP1 JUMP JUMPDEST PUSH2 0xCDC PUSH2 0x16BF JUMP JUMPDEST PUSH2 0xCE4 PUSH2 0x1718 JUMP JUMPDEST CALLER PUSH1 0x0 SWAP1 DUP2 MSTORE PUSH2 0x160 PUSH1 0x20 SWAP1 DUP2 MSTORE PUSH1 0x40 DUP1 DUP4 KECCAK256 DUP6 DUP5 MSTORE PUSH2 0x161 SWAP1 SWAP3 MSTORE DUP3 KECCAK256 SWAP1 SWAP2 PUSH1 0x1 PUSH1 0x1 PUSH1 0xA0 SHL SUB DUP5 AND SWAP1 SUB PUSH2 0xD78 JUMPI PUSH1 0x40 MLOAD PUSH3 0x461BCD PUSH1 0xE5 SHL DUP2 MSTORE PUSH1 0x20 PUSH1 0x4 DUP3 ADD MSTORE PUSH1 0x33 PUSH1 0x24 DUP3 ADD MSTORE PUSH32 0x696620796F7520646F6E74206861766520726566666572616C20616464726573 PUSH1 0x44 DUP3 ADD MSTORE PUSH19 0x39903AB9B29030B2323932B9B99037BBB732B9 PUSH1 0x69 SHL PUSH1 0x64 DUP3 ADD MSTORE PUSH1 0x84 ADD PUSH2 0x806 JUMP JUMPDEST PUSH1 0x1 DUP3 DUP2 ADD DUP1 SLOAD PUSH1 0x1 PUSH1 0x1 PUSH1 0xA0 SHL SUB NOT AND PUSH1 0x1 PUSH1 0x1 PUSH1 0xA0 SHL SUB DUP7 AND OR SWAP1 SSTORE PUSH1 0x2 DUP4 ADD SLOAD DUP6 SWAP2 PUSH2 0xDA7 SWAP2 SWAP1 PUSH2 0x2879 JUMP JUMPDEST LT ISZERO PUSH2 0xDF5 JUMPI PUSH1 0x40 MLOAD PUSH3 0x461BCD PUSH1 0xE5 SHL DUP2 MSTORE PUSH1 0x20 PUSH1 0x4 DUP3 ADD MSTORE PUSH1 0x1D PUSH1 0x24 DUP3 ADD MSTORE PUSH32 0x596F75206E65656420746F20627579206561726C696572206C6576656C000000 PUSH1 0x44 DUP3 ADD MSTORE PUSH1 0x64 ADD PUSH2 0x806 JUMP JUMPDEST PUSH2 0xE14 CALLER PUSH1 0x1 DUP4 ADD SLOAD PUSH2 0x15F SLOAD PUSH1 0x1 PUSH1 0x1 PUSH1 0xA0 SHL SUB AND SWAP2 SWAP1 ADDRESS SWAP1 PUSH2 0x175F JUMP JUMPDEST PUSH1 0x2 DUP3 ADD DUP5 SWAP1 SSTORE PUSH1 0x1 DUP2 ADD SLOAD PUSH1 0x3 DUP4 ADD DUP1 SLOAD PUSH1 0x0 SWAP1 PUSH2 0xE34 SWAP1 DUP5 SWAP1 PUSH2 0x2879 JUMP JUMPDEST SWAP1 SWAP2 SSTORE POP POP DUP2 SLOAD PUSH1 0x1 PUSH1 0x1 PUSH1 0xA0 SHL SUB NOT AND CALLER OR DUP3 SSTORE PUSH1 0x5 DUP3 ADD DUP1 SLOAD SWAP1 PUSH1 0x0 PUSH2 0xE5B DUP4 PUSH2 0x288C JUMP JUMPDEST SWAP1 SWAP2 SSTORE POP POP PUSH1 0x0 DUP5 DUP2 MSTORE PUSH1 0x7 DUP4 ADD PUSH1 0x20 MSTORE PUSH1 0x40 DUP2 KECCAK256 DUP1 SLOAD SWAP2 PUSH2 0xE7C DUP4 PUSH2 0x288C JUMP JUMPDEST SWAP2 SWAP1 POP SSTORE POP DUP1 PUSH1 0x1 ADD SLOAD PUSH2 0x164 SLOAD PUSH2 0xE94 SWAP2 SWAP1 PUSH2 0x2879 JUMP JUMPDEST PUSH2 0x164 SSTORE PUSH1 0x4 DUP2 ADD SLOAD PUSH1 0x0 DUP6 DUP2 MSTORE PUSH1 0x7 DUP5 ADD PUSH1 0x20 MSTORE PUSH1 0x40 SWAP1 KECCAK256 SLOAD GT ISZERO PUSH2 0xEFC JUMPI PUSH1 0x40 MLOAD PUSH3 0x461BCD PUSH1 0xE5 SHL DUP2 MSTORE PUSH1 0x20 PUSH1 0x4 DUP3 ADD DUP2 SWAP1 MSTORE PUSH1 0x24 DUP3 ADD MSTORE PUSH32 0x596F752063616E7420627579206D6F72652074686973206C6576656C20796574 PUSH1 0x44 DUP3 ADD MSTORE PUSH1 0x64 ADD PUSH2 0x806 JUMP JUMPDEST PUSH1 0x6 DUP2 ADD DUP1 SLOAD PUSH1 0x5 DUP4 ADD SLOAD SUB PUSH2 0xF38 JUMPI PUSH2 0xF1A PUSH1 0x6 DUP4 ADD CALLER DUP8 PUSH2 0x17D0 JUMP JUMPDEST DUP2 PUSH1 0x2 ADD SLOAD DUP3 PUSH1 0x5 ADD SLOAD PUSH2 0xF2E SWAP2 SWAP1 PUSH2 0x2879 JUMP JUMPDEST PUSH1 0x5 DUP4 ADD SSTORE PUSH2 0xF60 JUMP JUMPDEST PUSH1 0x6 DUP3 ADD DUP1 SLOAD PUSH1 0x1 DUP2 ADD DUP3 SSTORE PUSH1 0x0 SWAP2 DUP3 MSTORE PUSH1 0x20 SWAP1 SWAP2 KECCAK256 ADD DUP1 SLOAD PUSH1 0x1 PUSH1 0x1 PUSH1 0xA0 SHL SUB NOT AND CALLER OR SWAP1 SSTORE JUMPDEST PUSH2 0x163 DUP1 SLOAD SWAP1 PUSH1 0x0 PUSH2 0xF71 DUP4 PUSH2 0x288C JUMP JUMPDEST SWAP2 SWAP1 POP SSTORE POP PUSH32 0x67B7C39DCE5FA35F6A4CBE6EC721B5782CC6B7699BEC93FF0CD066A22A899B39 DUP6 TIMESTAMP PUSH2 0xFA0 CALLER SWAP1 JUMP JUMPDEST PUSH1 0x40 DUP1 MLOAD SWAP4 DUP5 MSTORE PUSH1 0x20 DUP5 ADD SWAP3 SWAP1 SWAP3 MSTORE PUSH1 0x1 PUSH1 0x1 PUSH1 0xA0 SHL SUB AND SWAP1 DUP3 ADD MSTORE PUSH1 0x60 ADD PUSH1 0x40 MLOAD DUP1 SWAP2 SUB SWAP1 LOG1 POP POP POP PUSH2 0x819 PUSH1 0x1 PUSH1 0xFB SSTORE JUMP JUMPDEST PUSH2 0xFDC PUSH2 0x13A6 JUMP JUMPDEST PUSH1 0x0 PUSH2 0xFE7 DUP2 PUSH2 0x13F2 JUMP JUMPDEST POP PUSH2 0x15F DUP1 SLOAD PUSH1 0x1 PUSH1 0x1 PUSH1 0xA0 SHL SUB NOT AND PUSH1 0x1 PUSH1 0x1 PUSH1 0xA0 SHL SUB SWAP3 SWAP1 SWAP3 AND SWAP2 SWAP1 SWAP2 OR SWAP1 SSTORE JUMP JUMPDEST PUSH1 0x0 DUP1 PUSH1 0x0 DUP1 PUSH1 0x0 PUSH1 0x60 PUSH1 0x0 PUSH2 0x160 PUSH1 0x0 DUP10 PUSH1 0x1 PUSH1 0x1 PUSH1 0xA0 SHL SUB AND PUSH1 0x1 PUSH1 0x1 PUSH1 0xA0 SHL SUB AND DUP2 MSTORE PUSH1 0x20 ADD SWAP1 DUP2 MSTORE PUSH1 0x20 ADD PUSH1 0x0 KECCAK256 SWAP1 POP DUP1 PUSH1 0x1 ADD PUSH1 0x0 SWAP1 SLOAD SWAP1 PUSH2 0x100 EXP SWAP1 DIV PUSH1 0x1 PUSH1 0x1 PUSH1 0xA0 SHL SUB AND DUP2 PUSH1 0x2 ADD SLOAD DUP3 PUSH1 0x3 ADD SLOAD DUP4 PUSH1 0x4 ADD SLOAD DUP5 PUSH1 0x5 ADD SLOAD DUP6 PUSH1 0x6 ADD DUP1 DUP1 SLOAD DUP1 PUSH1 0x20 MUL PUSH1 0x20 ADD PUSH1 0x40 MLOAD SWAP1 DUP2 ADD PUSH1 0x40 MSTORE DUP1 SWAP3 SWAP2 SWAP1 DUP2 DUP2 MSTORE PUSH1 0x20 ADD DUP3 DUP1 SLOAD DUP1 ISZERO PUSH2 0x10C4 JUMPI PUSH1 0x20 MUL DUP3 ADD SWAP2 SWAP1 PUSH1 0x0 MSTORE PUSH1 0x20 PUSH1 0x0 KECCAK256 SWAP1 JUMPDEST DUP2 SLOAD PUSH1 0x1 PUSH1 0x1 PUSH1 0xA0 SHL SUB AND DUP2 MSTORE PUSH1 0x1 SWAP1 SWAP2 ADD SWAP1 PUSH1 0x20 ADD DUP1 DUP4 GT PUSH2 0x10A6 JUMPI JUMPDEST POP POP POP POP POP SWAP1 POP SWAP7 POP SWAP7 POP SWAP7 POP SWAP7 POP SWAP7 POP SWAP7 POP POP SWAP2 SWAP4 SWAP6 POP SWAP2 SWAP4 SWAP6 JUMP JUMPDEST PUSH2 0x819 DUP3 DUP3 PUSH2 0x1949 JUMP JUMPDEST PUSH1 0x0 PUSH2 0x10F6 DUP2 PUSH2 0x13F2 JUMP JUMPDEST PUSH2 0x795 PUSH1 0x1 PUSH1 0x1 PUSH1 0xA0 SHL SUB DUP5 AND CALLER DUP5 PUSH2 0x1A62 JUMP JUMPDEST PUSH1 0x0 PUSH2 0x1114 PUSH2 0x13A6 JUMP JUMPDEST PUSH1 0x0 PUSH2 0x111F DUP2 PUSH2 0x13F2 JUMP JUMPDEST POP POP PUSH2 0x162 DUP2 SWAP1 SSTORE SWAP1 JUMP JUMPDEST PUSH1 0x0 DUP1 PUSH1 0x0 DUP1 PUSH1 0x60 PUSH1 0x0 PUSH2 0x161 PUSH1 0x0 DUP9 DUP2 MSTORE PUSH1 0x20 ADD SWAP1 DUP2 MSTORE PUSH1 0x20 ADD PUSH1 0x0 KECCAK256 SWAP1 POP DUP1 PUSH1 0x1 ADD SLOAD DUP2 PUSH1 0x2 ADD SLOAD DUP3 PUSH1 0x3 ADD SLOAD DUP4 PUSH1 0x4 ADD SLOAD DUP5 PUSH1 0x6 ADD DUP1 DUP1 SLOAD DUP1 PUSH1 0x20 MUL PUSH1 0x20 ADD PUSH1 0x40 MLOAD SWAP1 DUP2 ADD PUSH1 0x40 MSTORE DUP1 SWAP3 SWAP2 SWAP1 DUP2 DUP2 MSTORE PUSH1 0x20 ADD DUP3 DUP1 SLOAD DUP1 ISZERO PUSH2 0x11B7 JUMPI PUSH1 0x20 MUL DUP3 ADD SWAP2 SWAP1 PUSH1 0x0 MSTORE PUSH1 0x20 PUSH1 0x0 KECCAK256 SWAP1 JUMPDEST DUP2 SLOAD PUSH1 0x1 PUSH1 0x1 PUSH1 0xA0 SHL SUB AND DUP2 MSTORE PUSH1 0x1 SWAP1 SWAP2 ADD SWAP1 PUSH1 0x20 ADD DUP1 DUP4 GT PUSH2 0x1199 JUMPI JUMPDEST POP POP POP POP POP SWAP1 POP SWAP6 POP SWAP6 POP SWAP6 POP SWAP6 POP SWAP6 POP POP SWAP2 SWAP4 SWAP6 SWAP1 SWAP3 SWAP5 POP JUMP JUMPDEST PUSH1 0x0 SWAP2 DUP3 MSTORE PUSH1 0xC9 PUSH1 0x20 SWAP1 DUP2 MSTORE PUSH1 0x40 DUP1 DUP5 KECCAK256 PUSH1 0x1 PUSH1 0x1 PUSH1 0xA0 SHL SUB SWAP4 SWAP1 SWAP4 AND DUP5 MSTORE SWAP2 SWAP1 MSTORE SWAP1 KECCAK256 SLOAD PUSH1 0xFF AND SWAP1 JUMP JUMPDEST PUSH2 0x1205 PUSH2 0x13A6 JUMP JUMPDEST PUSH1 0x0 PUSH2 0x1210 DUP2 PUSH2 0x13F2 JUMP JUMPDEST PUSH1 0x0 DUP3 DUP2 MSTORE PUSH2 0x161 PUSH1 0x20 MSTORE PUSH1 0x40 DUP2 KECCAK256 SWAP1 PUSH1 0x6 DUP3 ADD DUP2 JUMPDEST DUP2 SLOAD DUP2 LT ISZERO PUSH2 0x12D8 JUMPI DUP2 DUP2 DUP2 SLOAD DUP2 LT PUSH2 0x1241 JUMPI PUSH2 0x1241 PUSH2 0x28A5 JUMP JUMPDEST PUSH1 0x0 SWAP2 DUP3 MSTORE PUSH1 0x20 SWAP1 SWAP2 KECCAK256 ADD SLOAD PUSH1 0x1 DUP6 ADD SLOAD PUSH2 0x15F SLOAD PUSH1 0x1 PUSH1 0x1 PUSH1 0xA0 SHL SUB SWAP3 DUP4 AND SWAP6 POP PUSH2 0x1270 SWAP3 AND SWAP1 DUP6 SWAP1 PUSH2 0x1A62 JUMP JUMPDEST PUSH1 0x1 DUP5 ADD SLOAD DUP5 SLOAD PUSH1 0x40 DUP1 MLOAD PUSH1 0x1 PUSH1 0x1 PUSH1 0xA0 SHL SUB DUP8 AND DUP2 MSTORE TIMESTAMP PUSH1 0x20 DUP3 ADD MSTORE SWAP1 DUP2 ADD SWAP3 SWAP1 SWAP3 MSTORE PUSH1 0x60 DUP3 ADD MSTORE PUSH32 0x2369DB1BAFEE945AEE5630782F4A170682E3F8188D8DC247A4C73EB8C9E692D2 SWAP1 PUSH1 0x80 ADD PUSH1 0x40 MLOAD DUP1 SWAP2 SUB SWAP1 LOG1 DUP1 PUSH2 0x12D0 DUP2 PUSH2 0x288C JUMP JUMPDEST SWAP2 POP POP PUSH2 0x1226 JUMP JUMPDEST POP PUSH2 0x12E7 PUSH1 0x6 DUP5 ADD PUSH1 0x0 PUSH2 0x2420 JUMP JUMPDEST POP POP POP POP POP JUMP JUMPDEST PUSH1 0x0 PUSH2 0x12F9 DUP2 PUSH2 0x13F2 JUMP JUMPDEST DUP2 PUSH2 0x1306 JUMPI PUSH2 0x819 PUSH2 0x1A92 JUMP JUMPDEST PUSH2 0x819 PUSH2 0x1AE5 JUMP JUMPDEST PUSH1 0x0 DUP3 DUP2 MSTORE PUSH1 0xC9 PUSH1 0x20 MSTORE PUSH1 0x40 SWAP1 KECCAK256 PUSH1 0x1 ADD SLOAD PUSH2 0x1329 DUP2 PUSH2 0x13F2 JUMP JUMPDEST PUSH2 0x795 DUP4 DUP4 PUSH2 0x1482 JUMP JUMPDEST PUSH1 0x0 DUP2 DUP2 MSTORE PUSH2 0x161 PUSH1 0x20 SWAP1 DUP2 MSTORE PUSH1 0x40 SWAP2 DUP3 SWAP1 KECCAK256 PUSH1 0x6 DUP2 ADD DUP1 SLOAD DUP5 MLOAD DUP2 DUP6 MUL DUP2 ADD DUP6 ADD SWAP1 SWAP6 MSTORE DUP1 DUP6 MSTORE PUSH1 0x60 SWAP5 SWAP3 SWAP4 DUP4 ADD DUP3 DUP3 DUP1 ISZERO PUSH2 0x1399 JUMPI PUSH1 0x20 MUL DUP3 ADD SWAP2 SWAP1 PUSH1 0x0 MSTORE PUSH1 0x20 PUSH1 0x0 KECCAK256 SWAP1 JUMPDEST DUP2 SLOAD PUSH1 0x1 PUSH1 0x1 PUSH1 0xA0 SHL SUB AND DUP2 MSTORE PUSH1 0x1 SWAP1 SWAP2 ADD SWAP1 PUSH1 0x20 ADD DUP1 DUP4 GT PUSH2 0x137B JUMPI JUMPDEST POP POP POP POP POP SWAP2 POP POP SWAP2 SWAP1 POP JUMP JUMPDEST PUSH2 0x12D SLOAD PUSH1 0xFF AND PUSH2 0x13F0 JUMPI PUSH1 0x40 MLOAD PUSH3 0x461BCD PUSH1 0xE5 SHL DUP2 MSTORE PUSH1 0x20 PUSH1 0x4 DUP3 ADD MSTORE PUSH1 0x14 PUSH1 0x24 DUP3 ADD MSTORE PUSH20 0x14185D5CD8589B194E881B9BDD081C185D5CD959 PUSH1 0x62 SHL PUSH1 0x44 DUP3 ADD MSTORE PUSH1 0x64 ADD PUSH2 0x806 JUMP JUMPDEST JUMP JUMPDEST PUSH2 0x8F9 DUP2 CALLER PUSH2 0x1B23 JUMP JUMPDEST PUSH2 0x1406 DUP3 DUP3 PUSH2 0x11D2 JUMP JUMPDEST PUSH2 0x819 JUMPI PUSH1 0x0 DUP3 DUP2 MSTORE PUSH1 0xC9 PUSH1 0x20 SWAP1 DUP2 MSTORE PUSH1 0x40 DUP1 DUP4 KECCAK256 PUSH1 0x1 PUSH1 0x1 PUSH1 0xA0 SHL SUB DUP6 AND DUP5 MSTORE SWAP1 SWAP2 MSTORE SWAP1 KECCAK256 DUP1 SLOAD PUSH1 0xFF NOT AND PUSH1 0x1 OR SWAP1 SSTORE PUSH2 0x143E CALLER SWAP1 JUMP JUMPDEST PUSH1 0x1 PUSH1 0x1 PUSH1 0xA0 SHL SUB AND DUP2 PUSH1 0x1 PUSH1 0x1 PUSH1 0xA0 SHL SUB AND DUP4 PUSH32 0x2F8788117E7EFF1D82E926EC794901D17C78024A50270940304540A733656F0D PUSH1 0x40 MLOAD PUSH1 0x40 MLOAD DUP1 SWAP2 SUB SWAP1 LOG4 POP POP JUMP JUMPDEST PUSH2 0x148C DUP3 DUP3 PUSH2 0x11D2 JUMP JUMPDEST ISZERO PUSH2 0x819 JUMPI PUSH1 0x0 DUP3 DUP2 MSTORE PUSH1 0xC9 PUSH1 0x20 SWAP1 DUP2 MSTORE PUSH1 0x40 DUP1 DUP4 KECCAK256 PUSH1 0x1 PUSH1 0x1 PUSH1 0xA0 SHL SUB DUP6 AND DUP1 DUP6 MSTORE SWAP3 MSTORE DUP1 DUP4 KECCAK256 DUP1 SLOAD PUSH1 0xFF NOT AND SWAP1 SSTORE MLOAD CALLER SWAP3 DUP6 SWAP2 PUSH32 0xF6391F5C32D9C69D2A47EA670B442974B53935D1EDC7FD64EB21E047A839171B SWAP2 SWAP1 LOG4 POP POP JUMP JUMPDEST PUSH1 0x0 PUSH2 0x819 DUP2 PUSH2 0x13F2 JUMP JUMPDEST PUSH32 0x4910FDFA16FED3260ED0E7147F7CC6DA11A60208B5B9406D12A635614FFD9143 SLOAD PUSH1 0xFF AND ISZERO PUSH2 0x1527 JUMPI PUSH2 0x795 DUP4 PUSH2 0x1B7C JUMP JUMPDEST DUP3 PUSH1 0x1 PUSH1 0x1 PUSH1 0xA0 SHL SUB AND PUSH4 0x52D1902D PUSH1 0x40 MLOAD DUP2 PUSH4 0xFFFFFFFF AND PUSH1 0xE0 SHL DUP2 MSTORE PUSH1 0x4 ADD PUSH1 0x20 PUSH1 0x40 MLOAD DUP1 DUP4 SUB DUP2 DUP7 GAS STATICCALL SWAP3 POP POP POP DUP1 ISZERO PUSH2 0x1581 JUMPI POP PUSH1 0x40 DUP1 MLOAD PUSH1 0x1F RETURNDATASIZE SWAP1 DUP2 ADD PUSH1 0x1F NOT AND DUP3 ADD SWAP1 SWAP3 MSTORE PUSH2 0x157E SWAP2 DUP2 ADD SWAP1 PUSH2 0x28BB JUMP JUMPDEST PUSH1 0x1 JUMPDEST PUSH2 0x15E4 JUMPI PUSH1 0x40 MLOAD PUSH3 0x461BCD PUSH1 0xE5 SHL DUP2 MSTORE PUSH1 0x20 PUSH1 0x4 DUP3 ADD MSTORE PUSH1 0x2E PUSH1 0x24 DUP3 ADD MSTORE PUSH32 0x45524331393637557067726164653A206E657720696D706C656D656E74617469 PUSH1 0x44 DUP3 ADD MSTORE PUSH14 0x6F6E206973206E6F742055555053 PUSH1 0x90 SHL PUSH1 0x64 DUP3 ADD MSTORE PUSH1 0x84 ADD PUSH2 0x806 JUMP JUMPDEST PUSH1 0x0 DUP1 MLOAD PUSH1 0x20 PUSH2 0x2A9E DUP4 CODECOPY DUP2 MLOAD SWAP2 MSTORE DUP2 EQ PUSH2 0x1653 JUMPI PUSH1 0x40 MLOAD PUSH3 0x461BCD PUSH1 0xE5 SHL DUP2 MSTORE PUSH1 0x20 PUSH1 0x4 DUP3 ADD MSTORE PUSH1 0x29 PUSH1 0x24 DUP3 ADD MSTORE PUSH32 0x45524331393637557067726164653A20756E737570706F727465642070726F78 PUSH1 0x44 DUP3 ADD MSTORE PUSH9 0x1A58589B1955555251 PUSH1 0xBA SHL PUSH1 0x64 DUP3 ADD MSTORE PUSH1 0x84 ADD PUSH2 0x806 JUMP JUMPDEST POP PUSH2 0x795 DUP4 DUP4 DUP4 PUSH2 0x1C18 JUMP JUMPDEST PUSH2 0x819 DUP3 DUP3 PUSH2 0x13FC JUMP JUMPDEST PUSH1 0x0 SLOAD PUSH2 0x100 SWAP1 DIV PUSH1 0xFF AND PUSH2 0x1690 JUMPI PUSH1 0x40 MLOAD PUSH3 0x461BCD PUSH1 0xE5 SHL DUP2 MSTORE PUSH1 0x4 ADD PUSH2 0x806 SWAP1 PUSH2 0x28D4 JUMP JUMPDEST PUSH2 0x13F0 PUSH2 0x1C3D JUMP JUMPDEST PUSH1 0x0 SLOAD PUSH2 0x100 SWAP1 DIV PUSH1 0xFF AND PUSH2 0x13F0 JUMPI PUSH1 0x40 MLOAD PUSH3 0x461BCD PUSH1 0xE5 SHL DUP2 MSTORE PUSH1 0x4 ADD PUSH2 0x806 SWAP1 PUSH2 0x28D4 JUMP JUMPDEST PUSH1 0x2 PUSH1 0xFB SLOAD SUB PUSH2 0x1711 JUMPI PUSH1 0x40 MLOAD PUSH3 0x461BCD PUSH1 0xE5 SHL DUP2 MSTORE PUSH1 0x20 PUSH1 0x4 DUP3 ADD MSTORE PUSH1 0x1F PUSH1 0x24 DUP3 ADD MSTORE PUSH32 0x5265656E7472616E637947756172643A207265656E7472616E742063616C6C00 PUSH1 0x44 DUP3 ADD MSTORE PUSH1 0x64 ADD PUSH2 0x806 JUMP JUMPDEST PUSH1 0x2 PUSH1 0xFB SSTORE JUMP JUMPDEST PUSH2 0x12D SLOAD PUSH1 0xFF AND ISZERO PUSH2 0x13F0 JUMPI PUSH1 0x40 MLOAD PUSH3 0x461BCD PUSH1 0xE5 SHL DUP2 MSTORE PUSH1 0x20 PUSH1 0x4 DUP3 ADD MSTORE PUSH1 0x10 PUSH1 0x24 DUP3 ADD MSTORE PUSH16 0x14185D5CD8589B194E881C185D5CD959 PUSH1 0x82 SHL PUSH1 0x44 DUP3 ADD MSTORE PUSH1 0x64 ADD PUSH2 0x806 JUMP JUMPDEST PUSH1 0x40 MLOAD PUSH1 0x1 PUSH1 0x1 PUSH1 0xA0 SHL SUB DUP1 DUP6 AND PUSH1 0x24 DUP4 ADD MSTORE DUP4 AND PUSH1 0x44 DUP3 ADD MSTORE PUSH1 0x64 DUP2 ADD DUP3 SWAP1 MSTORE PUSH2 0x17CA SWAP1 DUP6 SWAP1 PUSH4 0x23B872DD PUSH1 0xE0 SHL SWAP1 PUSH1 0x84 ADD JUMPDEST PUSH1 0x40 DUP1 MLOAD PUSH1 0x1F NOT DUP2 DUP5 SUB ADD DUP2 MSTORE SWAP2 SWAP1 MSTORE PUSH1 0x20 DUP2 ADD DUP1 MLOAD PUSH1 0x1 PUSH1 0x1 PUSH1 0xE0 SHL SUB AND PUSH1 0x1 PUSH1 0x1 PUSH1 0xE0 SHL SUB NOT SWAP1 SWAP4 AND SWAP3 SWAP1 SWAP3 OR SWAP1 SWAP2 MSTORE PUSH2 0x1C71 JUMP JUMPDEST POP POP POP POP JUMP JUMPDEST PUSH1 0x0 DUP2 DUP2 MSTORE PUSH2 0x161 PUSH1 0x20 MSTORE PUSH1 0x40 DUP2 KECCAK256 DUP5 SLOAD SWAP1 SWAP2 SWAP1 DUP6 SWAP1 DUP3 SWAP1 PUSH2 0x17F4 JUMPI PUSH2 0x17F4 PUSH2 0x28A5 JUMP JUMPDEST PUSH1 0x0 SWAP2 DUP3 MSTORE PUSH1 0x20 DUP1 DUP4 KECCAK256 SWAP1 SWAP2 ADD SLOAD PUSH1 0x1 PUSH1 0x1 PUSH1 0xA0 SHL SUB AND DUP1 DUP4 MSTORE PUSH2 0x160 SWAP1 SWAP2 MSTORE PUSH1 0x40 DUP3 KECCAK256 PUSH1 0x3 DUP6 ADD SLOAD PUSH1 0x1 DUP7 ADD SLOAD SWAP3 SWAP5 POP SWAP1 SWAP3 SWAP2 PUSH2 0x1834 SWAP1 PUSH1 0x64 SWAP1 PUSH2 0x291F JUMP JUMPDEST PUSH2 0x183E SWAP2 SWAP1 PUSH2 0x2941 JUMP JUMPDEST SWAP1 POP DUP1 DUP3 PUSH1 0x4 ADD SLOAD PUSH2 0x1850 SWAP2 SWAP1 PUSH2 0x2879 JUMP JUMPDEST PUSH1 0x4 DUP4 ADD SSTORE PUSH2 0x15F SLOAD PUSH2 0x186D SWAP1 PUSH1 0x1 PUSH1 0x1 PUSH1 0xA0 SHL SUB AND DUP5 DUP4 PUSH2 0x1A62 JUMP JUMPDEST PUSH2 0x1878 DUP8 PUSH1 0x0 PUSH2 0x1D43 JUMP JUMPDEST DUP1 SLOAD PUSH1 0x1 DUP2 ADD DUP3 SSTORE PUSH1 0x0 DUP3 DUP2 MSTORE PUSH1 0x20 SWAP1 KECCAK256 ADD DUP1 SLOAD PUSH1 0x1 PUSH1 0x1 PUSH1 0xA0 SHL SUB NOT AND PUSH1 0x1 PUSH1 0x1 PUSH1 0xA0 SHL SUB DUP10 AND OR SWAP1 SSTORE SWAP7 POP PUSH2 0x18AE DUP4 PUSH2 0x1E63 JUMP JUMPDEST PUSH1 0x0 DUP6 DUP2 MSTORE PUSH1 0x7 DUP4 ADD PUSH1 0x20 MSTORE PUSH1 0x40 DUP2 KECCAK256 DUP1 SLOAD SWAP2 PUSH2 0x18CA DUP4 PUSH2 0x2958 JUMP JUMPDEST SWAP1 SWAP2 SSTORE POP POP DUP7 SLOAD PUSH2 0x18E1 SWAP1 PUSH1 0x6 DUP7 ADD SWAP1 DUP10 SWAP1 PUSH2 0x243E JUMP JUMPDEST POP PUSH1 0x1 DUP3 ADD SLOAD DUP3 SLOAD DUP6 SLOAD PUSH1 0x40 DUP1 MLOAD PUSH1 0x1 PUSH1 0x1 PUSH1 0xA0 SHL SUB SWAP5 DUP6 AND DUP2 MSTORE SWAP4 SWAP1 SWAP3 AND PUSH1 0x20 DUP5 ADD MSTORE TIMESTAMP SWAP2 DUP4 ADD SWAP2 SWAP1 SWAP2 MSTORE PUSH1 0x60 DUP3 ADD MSTORE PUSH32 0x2496E048EDDA281349E32D9CCB972DE94737D94C958C5D182A0E1ED90602FD9A SWAP1 PUSH1 0x80 ADD JUMPDEST PUSH1 0x40 MLOAD DUP1 SWAP2 SUB SWAP1 LOG1 POP POP POP POP POP POP POP JUMP JUMPDEST DUP1 SELFBALANCE LT ISZERO PUSH2 0x1999 JUMPI PUSH1 0x40 MLOAD PUSH3 0x461BCD PUSH1 0xE5 SHL DUP2 MSTORE PUSH1 0x20 PUSH1 0x4 DUP3 ADD MSTORE PUSH1 0x1D PUSH1 0x24 DUP3 ADD MSTORE PUSH32 0x416464726573733A20696E73756666696369656E742062616C616E6365000000 PUSH1 0x44 DUP3 ADD MSTORE PUSH1 0x64 ADD PUSH2 0x806 JUMP JUMPDEST PUSH1 0x0 DUP3 PUSH1 0x1 PUSH1 0x1 PUSH1 0xA0 SHL SUB AND DUP3 PUSH1 0x40 MLOAD PUSH1 0x0 PUSH1 0x40 MLOAD DUP1 DUP4 SUB DUP2 DUP6 DUP8 GAS CALL SWAP3 POP POP POP RETURNDATASIZE DUP1 PUSH1 0x0 DUP2 EQ PUSH2 0x19E6 JUMPI PUSH1 0x40 MLOAD SWAP2 POP PUSH1 0x1F NOT PUSH1 0x3F RETURNDATASIZE ADD AND DUP3 ADD PUSH1 0x40 MSTORE RETURNDATASIZE DUP3 MSTORE RETURNDATASIZE PUSH1 0x0 PUSH1 0x20 DUP5 ADD RETURNDATACOPY PUSH2 0x19EB JUMP JUMPDEST PUSH1 0x60 SWAP2 POP JUMPDEST POP POP SWAP1 POP DUP1 PUSH2 0x795 JUMPI PUSH1 0x40 MLOAD PUSH3 0x461BCD PUSH1 0xE5 SHL DUP2 MSTORE PUSH1 0x20 PUSH1 0x4 DUP3 ADD MSTORE PUSH1 0x3A PUSH1 0x24 DUP3 ADD MSTORE PUSH32 0x416464726573733A20756E61626C6520746F2073656E642076616C75652C2072 PUSH1 0x44 DUP3 ADD MSTORE PUSH32 0x6563697069656E74206D61792068617665207265766572746564000000000000 PUSH1 0x64 DUP3 ADD MSTORE PUSH1 0x84 ADD PUSH2 0x806 JUMP JUMPDEST PUSH1 0x40 MLOAD PUSH1 0x1 PUSH1 0x1 PUSH1 0xA0 SHL SUB DUP4 AND PUSH1 0x24 DUP3 ADD MSTORE PUSH1 0x44 DUP2 ADD DUP3 SWAP1 MSTORE PUSH2 0x795 SWAP1 DUP5 SWAP1 PUSH4 0xA9059CBB PUSH1 0xE0 SHL SWAP1 PUSH1 0x64 ADD PUSH2 0x1793 JUMP JUMPDEST PUSH2 0x1A9A PUSH2 0x13A6 JUMP JUMPDEST PUSH2 0x12D DUP1 SLOAD PUSH1 0xFF NOT AND SWAP1 SSTORE PUSH32 0x5DB9EE0A495BF2E6FF9C91A7834C1BA4FDD244A5E8AA4E537BD38AEAE4B073AA CALLER JUMPDEST PUSH1 0x40 MLOAD PUSH1 0x1 PUSH1 0x1 PUSH1 0xA0 SHL SUB SWAP1 SWAP2 AND DUP2 MSTORE PUSH1 0x20 ADD PUSH1 0x40 MLOAD DUP1 SWAP2 SUB SWAP1 LOG1 JUMP JUMPDEST PUSH2 0x1AED PUSH2 0x1718 JUMP JUMPDEST PUSH2 0x12D DUP1 SLOAD PUSH1 0xFF NOT AND PUSH1 0x1 OR SWAP1 SSTORE PUSH32 0x62E78CEA01BEE320CD4E420270B5EA74000D11B0C9F74754EBDBFC544B05A258 PUSH2 0x1AC8 CALLER SWAP1 JUMP JUMPDEST PUSH2 0x1B2D DUP3 DUP3 PUSH2 0x11D2 JUMP JUMPDEST PUSH2 0x819 JUMPI PUSH2 0x1B3A DUP2 PUSH2 0x1F89 JUMP JUMPDEST PUSH2 0x1B45 DUP4 PUSH1 0x20 PUSH2 0x1F9B JUMP JUMPDEST PUSH1 0x40 MLOAD PUSH1 0x20 ADD PUSH2 0x1B56 SWAP3 SWAP2 SWAP1 PUSH2 0x2993 JUMP JUMPDEST PUSH1 0x40 DUP1 MLOAD PUSH1 0x1F NOT DUP2 DUP5 SUB ADD DUP2 MSTORE SWAP1 DUP3 SWAP1 MSTORE PUSH3 0x461BCD PUSH1 0xE5 SHL DUP3 MSTORE PUSH2 0x806 SWAP2 PUSH1 0x4 ADD PUSH2 0x2A08 JUMP JUMPDEST PUSH1 0x1 PUSH1 0x1 PUSH1 0xA0 SHL SUB DUP2 AND EXTCODESIZE PUSH2 0x1BE9 JUMPI PUSH1 0x40 MLOAD PUSH3 0x461BCD PUSH1 0xE5 SHL DUP2 MSTORE PUSH1 0x20 PUSH1 0x4 DUP3 ADD MSTORE PUSH1 0x2D PUSH1 0x24 DUP3 ADD MSTORE PUSH32 0x455243313936373A206E657720696D706C656D656E746174696F6E206973206E PUSH1 0x44 DUP3 ADD MSTORE PUSH13 0x1BDD08184818DBDB9D1C9858DD PUSH1 0x9A SHL PUSH1 0x64 DUP3 ADD MSTORE PUSH1 0x84 ADD PUSH2 0x806 JUMP JUMPDEST PUSH1 0x0 DUP1 MLOAD PUSH1 0x20 PUSH2 0x2A9E DUP4 CODECOPY DUP2 MLOAD SWAP2 MSTORE DUP1 SLOAD PUSH1 0x1 PUSH1 0x1 PUSH1 0xA0 SHL SUB NOT AND PUSH1 0x1 PUSH1 0x1 PUSH1 0xA0 SHL SUB SWAP3 SWAP1 SWAP3 AND SWAP2 SWAP1 SWAP2 OR SWAP1 SSTORE JUMP JUMPDEST PUSH2 0x1C21 DUP4 PUSH2 0x213E JUMP JUMPDEST PUSH1 0x0 DUP3 MLOAD GT DUP1 PUSH2 0x1C2E JUMPI POP DUP1 JUMPDEST ISZERO PUSH2 0x795 JUMPI PUSH2 0x17CA DUP4 DUP4 PUSH2 0x217E JUMP JUMPDEST PUSH1 0x0 SLOAD PUSH2 0x100 SWAP1 DIV PUSH1 0xFF AND PUSH2 0x1C64 JUMPI PUSH1 0x40 MLOAD PUSH3 0x461BCD PUSH1 0xE5 SHL DUP2 MSTORE PUSH1 0x4 ADD PUSH2 0x806 SWAP1 PUSH2 0x28D4 JUMP JUMPDEST PUSH2 0x12D DUP1 SLOAD PUSH1 0xFF NOT AND SWAP1 SSTORE JUMP JUMPDEST PUSH1 0x0 PUSH2 0x1CC6 DUP3 PUSH1 0x40 MLOAD DUP1 PUSH1 0x40 ADD PUSH1 0x40 MSTORE DUP1 PUSH1 0x20 DUP2 MSTORE PUSH1 0x20 ADD PUSH32 0x5361666545524332303A206C6F772D6C6576656C2063616C6C206661696C6564 DUP2 MSTORE POP DUP6 PUSH1 0x1 PUSH1 0x1 PUSH1 0xA0 SHL SUB AND PUSH2 0x2272 SWAP1 SWAP3 SWAP2 SWAP1 PUSH4 0xFFFFFFFF AND JUMP JUMPDEST DUP1 MLOAD SWAP1 SWAP2 POP ISZERO PUSH2 0x795 JUMPI DUP1 DUP1 PUSH1 0x20 ADD SWAP1 MLOAD DUP2 ADD SWAP1 PUSH2 0x1CE4 SWAP2 SWAP1 PUSH2 0x2A3B JUMP JUMPDEST PUSH2 0x795 JUMPI PUSH1 0x40 MLOAD PUSH3 0x461BCD PUSH1 0xE5 SHL DUP2 MSTORE PUSH1 0x20 PUSH1 0x4 DUP3 ADD MSTORE PUSH1 0x2A PUSH1 0x24 DUP3 ADD MSTORE PUSH32 0x5361666545524332303A204552433230206F7065726174696F6E20646964206E PUSH1 0x44 DUP3 ADD MSTORE PUSH10 0x1BDD081CDD58D8D95959 PUSH1 0xB2 SHL PUSH1 0x64 DUP3 ADD MSTORE PUSH1 0x84 ADD PUSH2 0x806 JUMP JUMPDEST DUP2 SLOAD PUSH1 0x0 SWAP1 DUP3 LT PUSH2 0x1D8B JUMPI PUSH1 0x40 MLOAD PUSH3 0x461BCD PUSH1 0xE5 SHL DUP2 MSTORE PUSH1 0x20 PUSH1 0x4 DUP3 ADD MSTORE PUSH1 0x12 PUSH1 0x24 DUP3 ADD MSTORE PUSH18 0x1A5B99195E081BDD5D081BD988189BDD5B99 PUSH1 0x72 SHL PUSH1 0x44 DUP3 ADD MSTORE PUSH1 0x64 ADD PUSH2 0x806 JUMP JUMPDEST DUP2 JUMPDEST DUP4 SLOAD PUSH2 0x1D9B SWAP1 PUSH1 0x1 SWAP1 PUSH2 0x2A58 JUMP JUMPDEST DUP2 LT ISZERO PUSH2 0x1E29 JUMPI DUP4 PUSH2 0x1DAE DUP3 PUSH1 0x1 PUSH2 0x2879 JUMP JUMPDEST DUP2 SLOAD DUP2 LT PUSH2 0x1DBE JUMPI PUSH2 0x1DBE PUSH2 0x28A5 JUMP JUMPDEST SWAP1 PUSH1 0x0 MSTORE PUSH1 0x20 PUSH1 0x0 KECCAK256 ADD PUSH1 0x0 SWAP1 SLOAD SWAP1 PUSH2 0x100 EXP SWAP1 DIV PUSH1 0x1 PUSH1 0x1 PUSH1 0xA0 SHL SUB AND DUP5 DUP3 DUP2 SLOAD DUP2 LT PUSH2 0x1DEE JUMPI PUSH2 0x1DEE PUSH2 0x28A5 JUMP JUMPDEST PUSH1 0x0 SWAP2 DUP3 MSTORE PUSH1 0x20 SWAP1 SWAP2 KECCAK256 ADD DUP1 SLOAD PUSH1 0x1 PUSH1 0x1 PUSH1 0xA0 SHL SUB NOT AND PUSH1 0x1 PUSH1 0x1 PUSH1 0xA0 SHL SUB SWAP3 SWAP1 SWAP3 AND SWAP2 SWAP1 SWAP2 OR SWAP1 SSTORE DUP1 PUSH2 0x1E21 DUP2 PUSH2 0x288C JUMP JUMPDEST SWAP2 POP POP PUSH2 0x1D8D JUMP JUMPDEST POP DUP3 DUP1 SLOAD DUP1 PUSH2 0x1E3A JUMPI PUSH2 0x1E3A PUSH2 0x2A6B JUMP JUMPDEST PUSH1 0x0 DUP3 DUP2 MSTORE PUSH1 0x20 SWAP1 KECCAK256 PUSH1 0x0 NOT SWAP1 DUP3 ADD DUP2 ADD DUP1 SLOAD PUSH1 0x1 PUSH1 0x1 PUSH1 0xA0 SHL SUB NOT AND SWAP1 SSTORE ADD SWAP1 SSTORE POP SWAP1 SWAP2 SWAP1 POP JUMP JUMPDEST PUSH1 0x1 PUSH1 0x1 PUSH1 0xA0 SHL SUB DUP1 DUP3 AND PUSH1 0x0 SWAP1 DUP2 MSTORE PUSH2 0x160 PUSH1 0x20 SWAP1 DUP2 MSTORE PUSH1 0x40 DUP1 DUP4 KECCAK256 PUSH1 0x1 DUP1 DUP3 ADD SLOAD PUSH1 0x2 DUP4 ADD SLOAD DUP1 DUP8 MSTORE PUSH2 0x161 SWAP1 SWAP6 MSTORE SWAP3 DUP6 KECCAK256 PUSH2 0x162 SLOAD SWAP2 DUP2 ADD SLOAD SWAP3 SWAP7 SWAP4 SWAP1 SWAP4 AND SWAP5 SWAP2 PUSH2 0x1EB3 SWAP1 PUSH1 0x64 SWAP1 PUSH2 0x291F JUMP JUMPDEST PUSH2 0x1EBD SWAP2 SWAP1 PUSH2 0x2941 JUMP JUMPDEST PUSH1 0x1 DUP7 ADD SLOAD PUSH1 0x1 PUSH1 0x1 PUSH1 0xA0 SHL SUB AND PUSH1 0x0 SWAP1 DUP2 MSTORE PUSH2 0x160 PUSH1 0x20 MSTORE PUSH1 0x40 SWAP1 KECCAK256 PUSH1 0x4 DUP2 ADD SLOAD SWAP2 SWAP3 POP SWAP1 PUSH2 0x1EEE SWAP1 DUP4 SWAP1 PUSH2 0x2879 JUMP JUMPDEST PUSH1 0x4 DUP3 ADD SSTORE PUSH1 0x6 DUP2 ADD DUP1 SLOAD PUSH1 0x1 DUP2 ADD DUP3 SSTORE PUSH1 0x0 SWAP2 DUP3 MSTORE PUSH1 0x20 SWAP1 SWAP2 KECCAK256 ADD DUP1 SLOAD PUSH1 0x1 PUSH1 0x1 PUSH1 0xA0 SHL SUB NOT AND PUSH1 0x1 PUSH1 0x1 PUSH1 0xA0 SHL SUB DUP10 DUP2 AND SWAP2 SWAP1 SWAP2 OR SWAP1 SWAP2 SSTORE PUSH2 0x15F SLOAD PUSH2 0x1F38 SWAP2 AND DUP7 DUP5 PUSH2 0x1A62 JUMP JUMPDEST PUSH1 0x40 DUP1 MLOAD PUSH1 0x1 PUSH1 0x1 PUSH1 0xA0 SHL SUB DUP1 DUP9 AND DUP3 MSTORE DUP10 AND PUSH1 0x20 DUP3 ADD MSTORE TIMESTAMP SWAP2 DUP2 ADD SWAP2 SWAP1 SWAP2 MSTORE PUSH1 0x60 DUP2 ADD DUP6 SWAP1 MSTORE PUSH32 0x2496E048EDDA281349E32D9CCB972DE94737D94C958C5D182A0E1ED90602FD9A SWAP1 PUSH1 0x80 ADD PUSH2 0x1938 JUMP JUMPDEST PUSH1 0x60 PUSH2 0x6BE PUSH1 0x1 PUSH1 0x1 PUSH1 0xA0 SHL SUB DUP4 AND PUSH1 0x14 JUMPDEST PUSH1 0x60 PUSH1 0x0 PUSH2 0x1FAA DUP4 PUSH1 0x2 PUSH2 0x2941 JUMP JUMPDEST PUSH2 0x1FB5 SWAP1 PUSH1 0x2 PUSH2 0x2879 JUMP JUMPDEST PUSH8 0xFFFFFFFFFFFFFFFF DUP2 GT ISZERO PUSH2 0x1FCD JUMPI PUSH2 0x1FCD PUSH2 0x25D3 JUMP JUMPDEST PUSH1 0x40 MLOAD SWAP1 DUP1 DUP3 MSTORE DUP1 PUSH1 0x1F ADD PUSH1 0x1F NOT AND PUSH1 0x20 ADD DUP3 ADD PUSH1 0x40 MSTORE DUP1 ISZERO PUSH2 0x1FF7 JUMPI PUSH1 0x20 DUP3 ADD DUP2 DUP1 CALLDATASIZE DUP4 CALLDATACOPY ADD SWAP1 POP JUMPDEST POP SWAP1 POP PUSH1 0x3 PUSH1 0xFC SHL DUP2 PUSH1 0x0 DUP2 MLOAD DUP2 LT PUSH2 0x2012 JUMPI PUSH2 0x2012 PUSH2 0x28A5 JUMP JUMPDEST PUSH1 0x20 ADD ADD SWAP1 PUSH1 0x1 PUSH1 0x1 PUSH1 0xF8 SHL SUB NOT AND SWAP1 DUP2 PUSH1 0x0 BYTE SWAP1 MSTORE8 POP PUSH1 0xF PUSH1 0xFB SHL DUP2 PUSH1 0x1 DUP2 MLOAD DUP2 LT PUSH2 0x2041 JUMPI PUSH2 0x2041 PUSH2 0x28A5 JUMP JUMPDEST PUSH1 0x20 ADD ADD SWAP1 PUSH1 0x1 PUSH1 0x1 PUSH1 0xF8 SHL SUB NOT AND SWAP1 DUP2 PUSH1 0x0 BYTE SWAP1 MSTORE8 POP PUSH1 0x0 PUSH2 0x2065 DUP5 PUSH1 0x2 PUSH2 0x2941 JUMP JUMPDEST PUSH2 0x2070 SWAP1 PUSH1 0x1 PUSH2 0x2879 JUMP JUMPDEST SWAP1 POP JUMPDEST PUSH1 0x1 DUP2 GT ISZERO PUSH2 0x20E8 JUMPI PUSH16 0x181899199A1A9B1B9C1CB0B131B232B3 PUSH1 0x81 SHL DUP6 PUSH1 0xF AND PUSH1 0x10 DUP2 LT PUSH2 0x20A4 JUMPI PUSH2 0x20A4 PUSH2 0x28A5 JUMP JUMPDEST BYTE PUSH1 0xF8 SHL DUP3 DUP3 DUP2 MLOAD DUP2 LT PUSH2 0x20BA JUMPI PUSH2 0x20BA PUSH2 0x28A5 JUMP JUMPDEST PUSH1 0x20 ADD ADD SWAP1 PUSH1 0x1 PUSH1 0x1 PUSH1 0xF8 SHL SUB NOT AND SWAP1 DUP2 PUSH1 0x0 BYTE SWAP1 MSTORE8 POP PUSH1 0x4 SWAP5 SWAP1 SWAP5 SHR SWAP4 PUSH2 0x20E1 DUP2 PUSH2 0x2958 JUMP JUMPDEST SWAP1 POP PUSH2 0x2073 JUMP JUMPDEST POP DUP4 ISZERO PUSH2 0x2137 JUMPI PUSH1 0x40 MLOAD PUSH3 0x461BCD PUSH1 0xE5 SHL DUP2 MSTORE PUSH1 0x20 PUSH1 0x4 DUP3 ADD DUP2 SWAP1 MSTORE PUSH1 0x24 DUP3 ADD MSTORE PUSH32 0x537472696E67733A20686578206C656E67746820696E73756666696369656E74 PUSH1 0x44 DUP3 ADD MSTORE PUSH1 0x64 ADD PUSH2 0x806 JUMP JUMPDEST SWAP4 SWAP3 POP POP POP JUMP JUMPDEST PUSH2 0x2147 DUP2 PUSH2 0x1B7C JUMP JUMPDEST PUSH1 0x40 MLOAD PUSH1 0x1 PUSH1 0x1 PUSH1 0xA0 SHL SUB DUP3 AND SWAP1 PUSH32 0xBC7CD75A20EE27FD9ADEBAB32041F755214DBC6BFFA90CC0225B39DA2E5C2D3B SWAP1 PUSH1 0x0 SWAP1 LOG2 POP JUMP JUMPDEST PUSH1 0x60 PUSH1 0x1 PUSH1 0x1 PUSH1 0xA0 SHL SUB DUP4 AND EXTCODESIZE PUSH2 0x21E6 JUMPI PUSH1 0x40 MLOAD PUSH3 0x461BCD PUSH1 0xE5 SHL DUP2 MSTORE PUSH1 0x20 PUSH1 0x4 DUP3 ADD MSTORE PUSH1 0x26 PUSH1 0x24 DUP3 ADD MSTORE PUSH32 0x416464726573733A2064656C65676174652063616C6C20746F206E6F6E2D636F PUSH1 0x44 DUP3 ADD MSTORE PUSH6 0x1B9D1C9858DD PUSH1 0xD2 SHL PUSH1 0x64 DUP3 ADD MSTORE PUSH1 0x84 ADD PUSH2 0x806 JUMP JUMPDEST PUSH1 0x0 DUP1 DUP5 PUSH1 0x1 PUSH1 0x1 PUSH1 0xA0 SHL SUB AND DUP5 PUSH1 0x40 MLOAD PUSH2 0x2201 SWAP2 SWAP1 PUSH2 0x2A81 JUMP JUMPDEST PUSH1 0x0 PUSH1 0x40 MLOAD DUP1 DUP4 SUB DUP2 DUP6 GAS DELEGATECALL SWAP2 POP POP RETURNDATASIZE DUP1 PUSH1 0x0 DUP2 EQ PUSH2 0x223C JUMPI PUSH1 0x40 MLOAD SWAP2 POP PUSH1 0x1F NOT PUSH1 0x3F RETURNDATASIZE ADD AND DUP3 ADD PUSH1 0x40 MSTORE RETURNDATASIZE DUP3 MSTORE RETURNDATASIZE PUSH1 0x0 PUSH1 0x20 DUP5 ADD RETURNDATACOPY PUSH2 0x2241 JUMP JUMPDEST PUSH1 0x60 SWAP2 POP JUMPDEST POP SWAP2 POP SWAP2 POP PUSH2 0x2269 DUP3 DUP3 PUSH1 0x40 MLOAD DUP1 PUSH1 0x60 ADD PUSH1 0x40 MSTORE DUP1 PUSH1 0x27 DUP2 MSTORE PUSH1 0x20 ADD PUSH2 0x2ABE PUSH1 0x27 SWAP2 CODECOPY PUSH2 0x2289 JUMP JUMPDEST SWAP6 SWAP5 POP POP POP POP POP JUMP JUMPDEST PUSH1 0x60 PUSH2 0x2281 DUP5 DUP5 PUSH1 0x0 DUP6 PUSH2 0x22A2 JUMP JUMPDEST SWAP5 SWAP4 POP POP POP POP JUMP JUMPDEST PUSH1 0x60 DUP4 ISZERO PUSH2 0x2298 JUMPI POP DUP2 PUSH2 0x2137 JUMP JUMPDEST PUSH2 0x2137 DUP4 DUP4 PUSH2 0x237D JUMP JUMPDEST PUSH1 0x60 DUP3 SELFBALANCE LT ISZERO PUSH2 0x2303 JUMPI PUSH1 0x40 MLOAD PUSH3 0x461BCD PUSH1 0xE5 SHL DUP2 MSTORE PUSH1 0x20 PUSH1 0x4 DUP3 ADD MSTORE PUSH1 0x26 PUSH1 0x24 DUP3 ADD MSTORE PUSH32 0x416464726573733A20696E73756666696369656E742062616C616E636520666F PUSH1 0x44 DUP3 ADD MSTORE PUSH6 0x1C8818D85B1B PUSH1 0xD2 SHL PUSH1 0x64 DUP3 ADD MSTORE PUSH1 0x84 ADD PUSH2 0x806 JUMP JUMPDEST PUSH1 0x0 DUP1 DUP7 PUSH1 0x1 PUSH1 0x1 PUSH1 0xA0 SHL SUB AND DUP6 DUP8 PUSH1 0x40 MLOAD PUSH2 0x231F SWAP2 SWAP1 PUSH2 0x2A81 JUMP JUMPDEST PUSH1 0x0 PUSH1 0x40 MLOAD DUP1 DUP4 SUB DUP2 DUP6 DUP8 GAS CALL SWAP3 POP POP POP RETURNDATASIZE DUP1 PUSH1 0x0 DUP2 EQ PUSH2 0x235C JUMPI PUSH1 0x40 MLOAD SWAP2 POP PUSH1 0x1F NOT PUSH1 0x3F RETURNDATASIZE ADD AND DUP3 ADD PUSH1 0x40 MSTORE RETURNDATASIZE DUP3 MSTORE RETURNDATASIZE PUSH1 0x0 PUSH1 0x20 DUP5 ADD RETURNDATACOPY PUSH2 0x2361 JUMP JUMPDEST PUSH1 0x60 SWAP2 POP JUMPDEST POP SWAP2 POP SWAP2 POP PUSH2 0x2372 DUP8 DUP4 DUP4 DUP8 PUSH2 0x23A7 JUMP JUMPDEST SWAP8 SWAP7 POP POP POP POP POP POP POP JUMP JUMPDEST DUP2 MLOAD ISZERO PUSH2 0x238D JUMPI DUP2 MLOAD DUP1 DUP4 PUSH1 0x20 ADD REVERT JUMPDEST DUP1 PUSH1 0x40 MLOAD PUSH3 0x461BCD PUSH1 0xE5 SHL DUP2 MSTORE PUSH1 0x4 ADD PUSH2 0x806 SWAP2 SWAP1 PUSH2 0x2A08 JUMP JUMPDEST PUSH1 0x60 DUP4 ISZERO PUSH2 0x2416 JUMPI DUP3 MLOAD PUSH1 0x0 SUB PUSH2 0x240F JUMPI PUSH1 0x1 PUSH1 0x1 PUSH1 0xA0 SHL SUB DUP6 AND EXTCODESIZE PUSH2 0x240F JUMPI PUSH1 0x40 MLOAD PUSH3 0x461BCD PUSH1 0xE5 SHL DUP2 MSTORE PUSH1 0x20 PUSH1 0x4 DUP3 ADD MSTORE PUSH1 0x1D PUSH1 0x24 DUP3 ADD MSTORE PUSH32 0x416464726573733A2063616C6C20746F206E6F6E2D636F6E7472616374000000 PUSH1 0x44 DUP3 ADD MSTORE PUSH1 0x64 ADD PUSH2 0x806 JUMP JUMPDEST POP DUP2 PUSH2 0x2281 JUMP JUMPDEST PUSH2 0x2281 DUP4 DUP4 PUSH2 0x237D JUMP JUMPDEST POP DUP1 SLOAD PUSH1 0x0 DUP3 SSTORE SWAP1 PUSH1 0x0 MSTORE PUSH1 0x20 PUSH1 0x0 KECCAK256 SWAP1 DUP2 ADD SWAP1 PUSH2 0x8F9 SWAP2 SWAP1 PUSH2 0x248E JUMP JUMPDEST DUP3 DUP1 SLOAD DUP3 DUP3 SSTORE SWAP1 PUSH1 0x0 MSTORE PUSH1 0x20 PUSH1 0x0 KECCAK256 SWAP1 DUP2 ADD SWAP3 DUP3 ISZERO PUSH2 0x247E JUMPI PUSH1 0x0 MSTORE PUSH1 0x20 PUSH1 0x0 KECCAK256 SWAP2 DUP3 ADD JUMPDEST DUP3 DUP2 GT ISZERO PUSH2 0x247E JUMPI DUP3 SLOAD DUP3 SSTORE SWAP2 PUSH1 0x1 ADD SWAP2 SWAP1 PUSH1 0x1 ADD SWAP1 PUSH2 0x2463 JUMP JUMPDEST POP PUSH2 0x248A SWAP3 SWAP2 POP PUSH2 0x248E JUMP JUMPDEST POP SWAP1 JUMP JUMPDEST JUMPDEST DUP1 DUP3 GT ISZERO PUSH2 0x248A JUMPI PUSH1 0x0 DUP2 SSTORE PUSH1 0x1 ADD PUSH2 0x248F JUMP JUMPDEST PUSH1 0x0 PUSH1 0x20 DUP3 DUP5 SUB SLT ISZERO PUSH2 0x24B5 JUMPI PUSH1 0x0 DUP1 REVERT JUMPDEST DUP2 CALLDATALOAD PUSH1 0x1 PUSH1 0x1 PUSH1 0xE0 SHL SUB NOT DUP2 AND DUP2 EQ PUSH2 0x2137 JUMPI PUSH1 0x0 DUP1 REVERT JUMPDEST PUSH1 0x0 DUP1 PUSH1 0x0 DUP1 PUSH1 0x0 PUSH1 0xA0 DUP7 DUP9 SUB SLT ISZERO PUSH2 0x24E5 JUMPI PUSH1 0x0 DUP1 REVERT JUMPDEST POP POP DUP4 CALLDATALOAD SWAP6 PUSH1 0x20 DUP6 ADD CALLDATALOAD SWAP6 POP PUSH1 0x40 DUP6 ADD CALLDATALOAD SWAP5 PUSH1 0x60 DUP2 ADD CALLDATALOAD SWAP5 POP PUSH1 0x80 ADD CALLDATALOAD SWAP3 POP SWAP1 POP JUMP JUMPDEST PUSH1 0x0 PUSH1 0x20 DUP3 DUP5 SUB SLT ISZERO PUSH2 0x251A JUMPI PUSH1 0x0 DUP1 REVERT JUMPDEST POP CALLDATALOAD SWAP2 SWAP1 POP JUMP JUMPDEST PUSH1 0x1 PUSH1 0x1 PUSH1 0xA0 SHL SUB DUP2 AND DUP2 EQ PUSH2 0x8F9 JUMPI PUSH1 0x0 DUP1 REVERT JUMPDEST PUSH1 0x0 DUP1 PUSH1 0x40 DUP4 DUP6 SUB SLT ISZERO PUSH2 0x2549 JUMPI PUSH1 0x0 DUP1 REVERT JUMPDEST DUP3 CALLDATALOAD SWAP2 POP PUSH1 0x20 DUP4 ADD CALLDATALOAD PUSH2 0x255B DUP2 PUSH2 0x2521 JUMP JUMPDEST DUP1 SWAP2 POP POP SWAP3 POP SWAP3 SWAP1 POP JUMP JUMPDEST PUSH1 0x0 PUSH1 0x20 DUP3 DUP5 SUB SLT ISZERO PUSH2 0x2578 JUMPI PUSH1 0x0 DUP1 REVERT JUMPDEST DUP2 CALLDATALOAD PUSH2 0x2137 DUP2 PUSH2 0x2521 JUMP JUMPDEST PUSH1 0x0 DUP1 PUSH1 0x40 DUP4 DUP6 SUB SLT ISZERO PUSH2 0x2596 JUMPI PUSH1 0x0 DUP1 REVERT JUMPDEST POP POP DUP1 CALLDATALOAD SWAP3 PUSH1 0x20 SWAP1 SWAP2 ADD CALLDATALOAD SWAP2 POP JUMP JUMPDEST PUSH1 0x0 DUP1 PUSH1 0x40 DUP4 DUP6 SUB SLT ISZERO PUSH2 0x25B8 JUMPI PUSH1 0x0 DUP1 REVERT JUMPDEST DUP3 CALLDATALOAD PUSH2 0x25C3 DUP2 PUSH2 0x2521 JUMP JUMPDEST SWAP2 POP PUSH1 0x20 DUP4 ADD CALLDATALOAD PUSH2 0x255B DUP2 PUSH2 0x2521 JUMP JUMPDEST PUSH4 0x4E487B71 PUSH1 0xE0 SHL PUSH1 0x0 MSTORE PUSH1 0x41 PUSH1 0x4 MSTORE PUSH1 0x24 PUSH1 0x0 REVERT JUMPDEST PUSH1 0x0 DUP1 PUSH1 0x40 DUP4 DUP6 SUB SLT ISZERO PUSH2 0x25FC JUMPI PUSH1 0x0 DUP1 REVERT JUMPDEST DUP3 CALLDATALOAD PUSH2 0x2607 DUP2 PUSH2 0x2521 JUMP JUMPDEST SWAP2 POP PUSH1 0x20 DUP4 ADD CALLDATALOAD PUSH8 0xFFFFFFFFFFFFFFFF DUP1 DUP3 GT ISZERO PUSH2 0x2624 JUMPI PUSH1 0x0 DUP1 REVERT JUMPDEST DUP2 DUP6 ADD SWAP2 POP DUP6 PUSH1 0x1F DUP4 ADD SLT PUSH2 0x2638 JUMPI PUSH1 0x0 DUP1 REVERT JUMPDEST DUP2 CALLDATALOAD DUP2 DUP2 GT ISZERO PUSH2 0x264A JUMPI PUSH2 0x264A PUSH2 0x25D3 JUMP JUMPDEST PUSH1 0x40 MLOAD PUSH1 0x1F DUP3 ADD PUSH1 0x1F NOT SWAP1 DUP2 AND PUSH1 0x3F ADD AND DUP2 ADD SWAP1 DUP4 DUP3 GT DUP2 DUP4 LT OR ISZERO PUSH2 0x2672 JUMPI PUSH2 0x2672 PUSH2 0x25D3 JUMP JUMPDEST DUP2 PUSH1 0x40 MSTORE DUP3 DUP2 MSTORE DUP9 PUSH1 0x20 DUP5 DUP8 ADD ADD GT ISZERO PUSH2 0x268B JUMPI PUSH1 0x0 DUP1 REVERT JUMPDEST DUP3 PUSH1 0x20 DUP7 ADD PUSH1 0x20 DUP4 ADD CALLDATACOPY PUSH1 0x0 PUSH1 0x20 DUP5 DUP4 ADD ADD MSTORE DUP1 SWAP6 POP POP POP POP POP POP SWAP3 POP SWAP3 SWAP1 POP JUMP JUMPDEST PUSH1 0x0 DUP2 MLOAD DUP1 DUP5 MSTORE PUSH1 0x20 DUP1 DUP6 ADD SWAP5 POP DUP1 DUP5 ADD PUSH1 0x0 JUMPDEST DUP4 DUP2 LT ISZERO PUSH2 0x26E6 JUMPI DUP2 MLOAD PUSH1 0x1 PUSH1 0x1 PUSH1 0xA0 SHL SUB AND DUP8 MSTORE SWAP6 DUP3 ADD SWAP6 SWAP1 DUP3 ADD SWAP1 PUSH1 0x1 ADD PUSH2 0x26C1 JUMP JUMPDEST POP SWAP5 SWAP6 SWAP5 POP POP POP POP POP JUMP JUMPDEST PUSH1 0x1 DUP1 PUSH1 0xA0 SHL SUB DUP8 AND DUP2 MSTORE DUP6 PUSH1 0x20 DUP3 ADD MSTORE DUP5 PUSH1 0x40 DUP3 ADD MSTORE DUP4 PUSH1 0x60 DUP3 ADD MSTORE DUP3 PUSH1 0x80 DUP3 ADD MSTORE PUSH1 0xC0 PUSH1 0xA0 DUP3 ADD MSTORE PUSH1 0x0 PUSH2 0x272A PUSH1 0xC0 DUP4 ADD DUP5 PUSH2 0x26AD JUMP JUMPDEST SWAP9 SWAP8 POP POP POP POP POP POP POP POP JUMP JUMPDEST PUSH1 0x0 DUP1 PUSH1 0x40 DUP4 DUP6 SUB SLT ISZERO PUSH2 0x2749 JUMPI PUSH1 0x0 DUP1 REVERT JUMPDEST DUP3 CALLDATALOAD PUSH2 0x2754 DUP2 PUSH2 0x2521 JUMP JUMPDEST SWAP5 PUSH1 0x20 SWAP4 SWAP1 SWAP4 ADD CALLDATALOAD SWAP4 POP POP POP JUMP JUMPDEST DUP6 DUP2 MSTORE DUP5 PUSH1 0x20 DUP3 ADD MSTORE DUP4 PUSH1 0x40 DUP3 ADD MSTORE DUP3 PUSH1 0x60 DUP3 ADD MSTORE PUSH1 0xA0 PUSH1 0x80 DUP3 ADD MSTORE PUSH1 0x0 PUSH2 0x2372 PUSH1 0xA0 DUP4 ADD DUP5 PUSH2 0x26AD JUMP JUMPDEST DUP1 ISZERO ISZERO DUP2 EQ PUSH2 0x8F9 JUMPI PUSH1 0x0 DUP1 REVERT JUMPDEST PUSH1 0x0 PUSH1 0x20 DUP3 DUP5 SUB SLT ISZERO PUSH2 0x27AD JUMPI PUSH1 0x0 DUP1 REVERT JUMPDEST DUP2 CALLDATALOAD PUSH2 0x2137 DUP2 PUSH2 0x278D JUMP JUMPDEST PUSH1 0x20 DUP2 MSTORE PUSH1 0x0 PUSH2 0x2137 PUSH1 0x20 DUP4 ADD DUP5 PUSH2 0x26AD JUMP JUMPDEST PUSH1 0x20 DUP1 DUP3 MSTORE PUSH1 0x2C SWAP1 DUP3 ADD MSTORE PUSH32 0x46756E6374696F6E206D7573742062652063616C6C6564207468726F75676820 PUSH1 0x40 DUP3 ADD MSTORE PUSH12 0x19195B1959D85D1958D85B1B PUSH1 0xA2 SHL PUSH1 0x60 DUP3 ADD MSTORE PUSH1 0x80 ADD SWAP1 JUMP JUMPDEST PUSH1 0x20 DUP1 DUP3 MSTORE PUSH1 0x2C SWAP1 DUP3 ADD MSTORE PUSH32 0x46756E6374696F6E206D7573742062652063616C6C6564207468726F75676820 PUSH1 0x40 DUP3 ADD MSTORE PUSH12 0x6163746976652070726F7879 PUSH1 0xA0 SHL PUSH1 0x60 DUP3 ADD MSTORE PUSH1 0x80 ADD SWAP1 JUMP JUMPDEST PUSH4 0x4E487B71 PUSH1 0xE0 SHL PUSH1 0x0 MSTORE PUSH1 0x11 PUSH1 0x4 MSTORE PUSH1 0x24 PUSH1 0x0 REVERT JUMPDEST DUP1 DUP3 ADD DUP1 DUP3 GT ISZERO PUSH2 0x6BE JUMPI PUSH2 0x6BE PUSH2 0x2863 JUMP JUMPDEST PUSH1 0x0 PUSH1 0x1 DUP3 ADD PUSH2 0x289E JUMPI PUSH2 0x289E PUSH2 0x2863 JUMP JUMPDEST POP PUSH1 0x1 ADD SWAP1 JUMP JUMPDEST PUSH4 0x4E487B71 PUSH1 0xE0 SHL PUSH1 0x0 MSTORE PUSH1 0x32 PUSH1 0x4 MSTORE PUSH1 0x24 PUSH1 0x0 REVERT JUMPDEST PUSH1 0x0 PUSH1 0x20 DUP3 DUP5 SUB SLT ISZERO PUSH2 0x28CD JUMPI PUSH1 0x0 DUP1 REVERT JUMPDEST POP MLOAD SWAP2 SWAP1 POP JUMP JUMPDEST PUSH1 0x20 DUP1 DUP3 MSTORE PUSH1 0x2B SWAP1 DUP3 ADD MSTORE PUSH32 0x496E697469616C697A61626C653A20636F6E7472616374206973206E6F742069 PUSH1 0x40 DUP3 ADD MSTORE PUSH11 0x6E697469616C697A696E67 PUSH1 0xA8 SHL PUSH1 0x60 DUP3 ADD MSTORE PUSH1 0x80 ADD SWAP1 JUMP JUMPDEST PUSH1 0x0 DUP3 PUSH2 0x293C JUMPI PUSH4 0x4E487B71 PUSH1 0xE0 SHL PUSH1 0x0 MSTORE PUSH1 0x12 PUSH1 0x4 MSTORE PUSH1 0x24 PUSH1 0x0 REVERT JUMPDEST POP DIV SWAP1 JUMP JUMPDEST DUP1 DUP3 MUL DUP2 ISZERO DUP3 DUP3 DIV DUP5 EQ OR PUSH2 0x6BE JUMPI PUSH2 0x6BE PUSH2 0x2863 JUMP JUMPDEST PUSH1 0x0 DUP2 PUSH2 0x2967 JUMPI PUSH2 0x2967 PUSH2 0x2863 JUMP JUMPDEST POP PUSH1 0x0 NOT ADD SWAP1 JUMP JUMPDEST PUSH1 0x0 JUMPDEST DUP4 DUP2 LT ISZERO PUSH2 0x298A JUMPI DUP2 DUP2 ADD MLOAD DUP4 DUP3 ADD MSTORE PUSH1 0x20 ADD PUSH2 0x2972 JUMP JUMPDEST POP POP PUSH1 0x0 SWAP2 ADD MSTORE JUMP JUMPDEST PUSH32 0x416363657373436F6E74726F6C3A206163636F756E7420000000000000000000 DUP2 MSTORE PUSH1 0x0 DUP4 MLOAD PUSH2 0x29CB DUP2 PUSH1 0x17 DUP6 ADD PUSH1 0x20 DUP9 ADD PUSH2 0x296F JUMP JUMPDEST PUSH17 0x1034B99036B4B9B9B4B733903937B6329 PUSH1 0x7D SHL PUSH1 0x17 SWAP2 DUP5 ADD SWAP2 DUP3 ADD MSTORE DUP4 MLOAD PUSH2 0x29FC DUP2 PUSH1 0x28 DUP5 ADD PUSH1 0x20 DUP9 ADD PUSH2 0x296F JUMP JUMPDEST ADD PUSH1 0x28 ADD SWAP5 SWAP4 POP POP POP POP JUMP JUMPDEST PUSH1 0x20 DUP2 MSTORE PUSH1 0x0 DUP3 MLOAD DUP1 PUSH1 0x20 DUP5 ADD MSTORE PUSH2 0x2A27 DUP2 PUSH1 0x40 DUP6 ADD PUSH1 0x20 DUP8 ADD PUSH2 0x296F JUMP JUMPDEST PUSH1 0x1F ADD PUSH1 0x1F NOT AND SWAP2 SWAP1 SWAP2 ADD PUSH1 0x40 ADD SWAP3 SWAP2 POP POP JUMP JUMPDEST PUSH1 0x0 PUSH1 0x20 DUP3 DUP5 SUB SLT ISZERO PUSH2 0x2A4D JUMPI PUSH1 0x0 DUP1 REVERT JUMPDEST DUP2 MLOAD PUSH2 0x2137 DUP2 PUSH2 0x278D JUMP JUMPDEST DUP2 DUP2 SUB DUP2 DUP2 GT ISZERO PUSH2 0x6BE JUMPI PUSH2 0x6BE PUSH2 0x2863 JUMP JUMPDEST PUSH4 0x4E487B71 PUSH1 0xE0 SHL PUSH1 0x0 MSTORE PUSH1 0x31 PUSH1 0x4 MSTORE PUSH1 0x24 PUSH1 0x0 REVERT JUMPDEST PUSH1 0x0 DUP3 MLOAD PUSH2 0x2A93 DUP2 DUP5 PUSH1 0x20 DUP8 ADD PUSH2 0x296F JUMP JUMPDEST SWAP2 SWAP1 SWAP2 ADD SWAP3 SWAP2 POP POP JUMP INVALID CALLDATASIZE ADDMOD SWAP5 LOG1 EXTCODESIZE LOG1 LOG3 0x21 MOD PUSH8 0xC828492DB98DCA3E KECCAK256 PUSH23 0xCC3735A920A3CA505D382BBC416464726573733A206C6F PUSH24 0x2D6C6576656C2064656C65676174652063616C6C20666169 PUSH13 0x6564A26469706673582212200A 0xA5 CREATE 0xEC 0xB8 BYTE PUSH28 0xA78CC0BAE0FE7EC1345C1E833FD76F6A9C2F3D44C41D1B185964736F PUSH13 0x63430008110033000000000000 "},"methodIdentifiers":{"DEFAULT_ADMIN_ROLE()":"a217fddf","ReferallBonusPercent()":"4b70e8e7","Token()":"c2412676","TotalBoughtLevels()":"2d5339e0","TotalDepositToken()":"74a9f9d9","buyLevel(uint256,address)":"64e5322a","changeMaxCountBuyLevel(uint256,uint256)":"44b0d9d8","changeReferallPercent(uint256)":"855b4283","changeToken(address)":"66829b16","closeLevelAndSendReward(uint256)":"ab7a6bf1","createNewLvl(uint256,uint256,uint256,uint256,uint256)":"1ce480f3","currentQueueInLevel(uint256)":"e176ce0a","getLevel(uint256)":"86481d40","getRoleAdmin(bytes32)":"248a9ca3","getUser(address)":"6f77926b","grantRole(bytes32,address)":"2f2ff15d","hasRole(bytes32,address)":"91d14854","initialize(address,address)":"485cc955","levels(uint256)":"b2596a67","paused()":"5c975abb","proxiableUUID()":"52d1902d","renounceRole(bytes32,address)":"36568abe","revokeRole(bytes32,address)":"d547741f","setPause(bool)":"bedb86fb","supportsInterface(bytes4)":"01ffc9a7","upgradeTo(address)":"3659cfe6","upgradeToAndCall(address,bytes)":"4f1ef286","users(address)":"a87430ba","witdhraw(address,uint256)":"77a58415","witdhrawETH(address,uint256)":"77125cf1"}},"storageLayout":{"storage":[{"astId":804,"contract":"contracts/SkyMoney.sol:SkyMoney","label":"_initialized","offset":0,"slot":"0","type":"t_uint8"},{"astId":807,"contract":"contracts/SkyMoney.sol:SkyMoney","label":"_initializing","offset":1,"slot":"0","type":"t_bool"},{"astId":786,"contract":"contracts/SkyMoney.sol:SkyMoney","label":"__gap","offset":0,"slot":"1","type":"t_array(t_uint256)50_storage"},{"astId":1101,"contract":"contracts/SkyMoney.sol:SkyMoney","label":"__gap","offset":0,"slot":"51","type":"t_array(t_uint256)50_storage"},{"astId":2022,"contract":"contracts/SkyMoney.sol:SkyMoney","label":"__gap","offset":0,"slot":"101","type":"t_array(t_uint256)50_storage"},{"astId":2301,"contract":"contracts/SkyMoney.sol:SkyMoney","label":"__gap","offset":0,"slot":"151","type":"t_array(t_uint256)50_storage"},{"astId":39,"contract":"contracts/SkyMoney.sol:SkyMoney","label":"_roles","offset":0,"slot":"201","type":"t_mapping(t_bytes32,t_struct(RoleData)34_storage)"},{"astId":334,"contract":"contracts/SkyMoney.sol:SkyMoney","label":"__gap","offset":0,"slot":"202","type":"t_array(t_uint256)49_storage"},{"astId":1243,"contract":"contracts/SkyMoney.sol:SkyMoney","label":"_status","offset":0,"slot":"251","type":"t_uint256"},{"astId":1301,"contract":"contracts/SkyMoney.sol:SkyMoney","label":"__gap","offset":0,"slot":"252","type":"t_array(t_uint256)49_storage"},{"astId":1123,"contract":"contracts/SkyMoney.sol:SkyMoney","label":"_paused","offset":0,"slot":"301","type":"t_bool"},{"astId":1228,"contract":"contracts/SkyMoney.sol:SkyMoney","label":"__gap","offset":0,"slot":"302","type":"t_array(t_uint256)49_storage"},{"astId":4174,"contract":"contracts/SkyMoney.sol:SkyMoney","label":"Token","offset":0,"slot":"351","type":"t_contract(IERC20Upgradeable)1380"},{"astId":4179,"contract":"contracts/SkyMoney.sol:SkyMoney","label":"users","offset":0,"slot":"352","type":"t_mapping(t_address,t_struct(User)4155_storage)"},{"astId":4184,"contract":"contracts/SkyMoney.sol:SkyMoney","label":"levels","offset":0,"slot":"353","type":"t_mapping(t_uint256,t_struct(Level)4171_storage)"},{"astId":4186,"contract":"contracts/SkyMoney.sol:SkyMoney","label":"ReferallBonusPercent","offset":0,"slot":"354","type":"t_uint256"},{"astId":4188,"contract":"contracts/SkyMoney.sol:SkyMoney","label":"TotalBoughtLevels","offset":0,"slot":"355","type":"t_uint256"},{"astId":4190,"contract":"contracts/SkyMoney.sol:SkyMoney","label":"TotalDepositToken","offset":0,"slot":"356","type":"t_uint256"}],"types":{"t_address":{"encoding":"inplace","label":"address","numberOfBytes":"20"},"t_array(t_address)dyn_storage":{"base":"t_address","encoding":"dynamic_array","label":"address[]","numberOfBytes":"32"},"t_array(t_uint256)49_storage":{"base":"t_uint256","encoding":"inplace","label":"uint256[49]","numberOfBytes":"1568"},"t_array(t_uint256)50_storage":{"base":"t_uint256","encoding":"inplace","label":"uint256[50]","numberOfBytes":"1600"},"t_bool":{"encoding":"inplace","label":"bool","numberOfBytes":"1"},"t_bytes32":{"encoding":"inplace","label":"bytes32","numberOfBytes":"32"},"t_contract(IERC20Upgradeable)1380":{"encoding":"inplace","label":"contract IERC20Upgradeable","numberOfBytes":"20"},"t_mapping(t_address,t_bool)":{"encoding":"mapping","key":"t_address","label":"mapping(address => bool)","numberOfBytes":"32","value":"t_bool"},"t_mapping(t_address,t_struct(User)4155_storage)":{"encoding":"mapping","key":"t_address","label":"mapping(address => struct SkyMoney.User)","numberOfBytes":"32","value":"t_struct(User)4155_storage"},"t_mapping(t_bytes32,t_struct(RoleData)34_storage)":{"encoding":"mapping","key":"t_bytes32","label":"mapping(bytes32 => struct AccessControlUpgradeable.RoleData)","numberOfBytes":"32","value":"t_struct(RoleData)34_storage"},"t_mapping(t_uint256,t_struct(Level)4171_storage)":{"encoding":"mapping","key":"t_uint256","label":"mapping(uint256 => struct SkyMoney.Level)","numberOfBytes":"32","value":"t_struct(Level)4171_storage"},"t_mapping(t_uint256,t_uint256)":{"encoding":"mapping","key":"t_uint256","label":"mapping(uint256 => uint256)","numberOfBytes":"32","value":"t_uint256"},"t_struct(Level)4171_storage":{"encoding":"inplace","label":"struct SkyMoney.Level","members":[{"astId":4157,"contract":"contracts/SkyMoney.sol:SkyMoney","label":"numberLvl","offset":0,"slot":"0","type":"t_uint256"},{"astId":4159,"contract":"contracts/SkyMoney.sol:SkyMoney","label":"priceToStart","offset":0,"slot":"1","type":"t_uint256"},{"astId":4161,"contract":"contracts/SkyMoney.sol:SkyMoney","label":"refillCount","offset":0,"slot":"2","type":"t_uint256"},{"astId":4163,"contract":"contracts/SkyMoney.sol:SkyMoney","label":"refillPercent","offset":0,"slot":"3","type":"t_uint256"},{"astId":4165,"contract":"contracts/SkyMoney.sol:SkyMoney","label":"MaxCountToBuyLevelSingleAddress","offset":0,"slot":"4","type":"t_uint256"},{"astId":4167,"contract":"contracts/SkyMoney.sol:SkyMoney","label":"currentSizeArray","offset":0,"slot":"5","type":"t_uint256"},{"astId":4170,"contract":"contracts/SkyMoney.sol:SkyMoney","label":"currentLvlLine","offset":0,"slot":"6","type":"t_array(t_address)dyn_storage"}],"numberOfBytes":"224"},"t_struct(RoleData)34_storage":{"encoding":"inplace","label":"struct AccessControlUpgradeable.RoleData","members":[{"astId":31,"contract":"contracts/SkyMoney.sol:SkyMoney","label":"members","offset":0,"slot":"0","type":"t_mapping(t_address,t_bool)"},{"astId":33,"contract":"contracts/SkyMoney.sol:SkyMoney","label":"adminRole","offset":0,"slot":"1","type":"t_bytes32"}],"numberOfBytes":"64"},"t_struct(User)4155_storage":{"encoding":"inplace","label":"struct SkyMoney.User","members":[{"astId":4137,"contract":"contracts/SkyMoney.sol:SkyMoney","label":"user","offset":0,"slot":"0","type":"t_address"},{"astId":4139,"contract":"contracts/SkyMoney.sol:SkyMoney","label":"referral","offset":0,"slot":"1","type":"t_address"},{"astId":4141,"contract":"contracts/SkyMoney.sol:SkyMoney","label":"currentlvl","offset":0,"slot":"2","type":"t_uint256"},{"astId":4143,"contract":"contracts/SkyMoney.sol:SkyMoney","label":"deposited","offset":0,"slot":"3","type":"t_uint256"},{"astId":4145,"contract":"contracts/SkyMoney.sol:SkyMoney","label":"earned","offset":0,"slot":"4","type":"t_uint256"},{"astId":4147,"contract":"contracts/SkyMoney.sol:SkyMoney","label":"countOfBuyingLevels","offset":0,"slot":"5","type":"t_uint256"},{"astId":4150,"contract":"contracts/SkyMoney.sol:SkyMoney","label":"referals","offset":0,"slot":"6","type":"t_array(t_address)dyn_storage"},{"astId":4154,"contract":"contracts/SkyMoney.sol:SkyMoney","label":"countInLevel","offset":0,"slot":"7","type":"t_mapping(t_uint256,t_uint256)"}],"numberOfBytes":"256"},"t_uint256":{"encoding":"inplace","label":"uint256","numberOfBytes":"32"},"t_uint8":{"encoding":"inplace","label":"uint8","numberOfBytes":"1"}}}}}}