{
  "contracts/SkyMoney.sol": {
    "SkyMoney": {
      "abi": [
        {
          "inputs": [
            {
              "internalType": "contract IERC20",
              "name": "token_",
              "type": "address"
            },
            {
              "internalType": "address",
              "name": "owner_",
              "type": "address"
            }
          ],
          "stateMutability": "nonpayable",
          "type": "constructor"
        },
        {
          "anonymous": false,
          "inputs": [
            {
              "indexed": false,
              "internalType": "uint256",
              "name": "LevelNumber",
              "type": "uint256"
            },
            {
              "indexed": false,
              "internalType": "uint256",
              "name": "PriseToStart",
              "type": "uint256"
            },
            {
              "indexed": false,
              "internalType": "uint256",
              "name": "RefillCount",
              "type": "uint256"
            },
            {
              "indexed": false,
              "internalType": "uint256",
              "name": "RefillPercent",
              "type": "uint256"
            },
            {
              "indexed": false,
              "internalType": "uint256",
              "name": "MaxCountForSingleAddress",
              "type": "uint256"
            },
            {
              "indexed": false,
              "internalType": "uint256",
              "name": "Time",
              "type": "uint256"
            }
          ],
          "name": "CreatedNewLevel",
          "type": "event"
        },
        {
          "anonymous": false,
          "inputs": [
            {
              "indexed": false,
              "internalType": "address",
              "name": "User",
              "type": "address"
            },
            {
              "indexed": false,
              "internalType": "uint256",
              "name": "Time",
              "type": "uint256"
            },
            {
              "indexed": false,
              "internalType": "uint256",
              "name": "amount",
              "type": "uint256"
            },
            {
              "indexed": false,
              "internalType": "uint256",
              "name": "LevelNumber",
              "type": "uint256"
            }
          ],
          "name": "EmergencyWithdraw",
          "type": "event"
        },
        {
          "anonymous": false,
          "inputs": [
            {
              "indexed": false,
              "internalType": "uint256",
              "name": "LevelNumber",
              "type": "uint256"
            },
            {
              "indexed": false,
              "internalType": "uint256",
              "name": "Time",
              "type": "uint256"
            },
            {
              "indexed": false,
              "internalType": "address",
              "name": "User",
              "type": "address"
            }
          ],
          "name": "LevelBought",
          "type": "event"
        },
        {
          "anonymous": false,
          "inputs": [
            {
              "indexed": true,
              "internalType": "address",
              "name": "previousOwner",
              "type": "address"
            },
            {
              "indexed": true,
              "internalType": "address",
              "name": "newOwner",
              "type": "address"
            }
          ],
          "name": "OwnershipTransferred",
          "type": "event"
        },
        {
          "anonymous": false,
          "inputs": [
            {
              "indexed": false,
              "internalType": "address",
              "name": "Referall",
              "type": "address"
            },
            {
              "indexed": false,
              "internalType": "address",
              "name": "User",
              "type": "address"
            },
            {
              "indexed": false,
              "internalType": "uint256",
              "name": "Time",
              "type": "uint256"
            },
            {
              "indexed": false,
              "internalType": "uint256",
              "name": "LevelNumber",
              "type": "uint256"
            }
          ],
          "name": "ReferallGetBonus",
          "type": "event"
        },
        {
          "stateMutability": "nonpayable",
          "type": "fallback"
        },
        {
          "inputs": [],
          "name": "ReferallBonusPercent",
          "outputs": [
            {
              "internalType": "uint256",
              "name": "",
              "type": "uint256"
            }
          ],
          "stateMutability": "view",
          "type": "function"
        },
        {
          "inputs": [],
          "name": "Token",
          "outputs": [
            {
              "internalType": "contract IERC20",
              "name": "",
              "type": "address"
            }
          ],
          "stateMutability": "view",
          "type": "function"
        },
        {
          "inputs": [],
          "name": "TotalBoughtLevels",
          "outputs": [
            {
              "internalType": "uint256",
              "name": "",
              "type": "uint256"
            }
          ],
          "stateMutability": "view",
          "type": "function"
        },
        {
          "inputs": [
            {
              "internalType": "uint256",
              "name": "buyLvl",
              "type": "uint256"
            },
            {
              "internalType": "address",
              "name": "_refferal",
              "type": "address"
            }
          ],
          "name": "buyLevel",
          "outputs": [],
          "stateMutability": "nonpayable",
          "type": "function"
        },
        {
          "inputs": [
            {
              "internalType": "uint256",
              "name": "_level",
              "type": "uint256"
            }
          ],
          "name": "closeLevelAndSendReward",
          "outputs": [],
          "stateMutability": "nonpayable",
          "type": "function"
        },
        {
          "inputs": [
            {
              "internalType": "uint256",
              "name": "_numberLvl",
              "type": "uint256"
            },
            {
              "internalType": "uint256",
              "name": "_priceStart",
              "type": "uint256"
            },
            {
              "internalType": "uint256",
              "name": "_refillCount",
              "type": "uint256"
            },
            {
              "internalType": "uint256",
              "name": "_refillPercent",
              "type": "uint256"
            },
            {
              "internalType": "uint256",
              "name": "_maxCount",
              "type": "uint256"
            }
          ],
          "name": "createNewLvl",
          "outputs": [
            {
              "internalType": "uint256",
              "name": "",
              "type": "uint256"
            }
          ],
          "stateMutability": "nonpayable",
          "type": "function"
        },
        {
          "inputs": [
            {
              "internalType": "uint256",
              "name": "levelNumber",
              "type": "uint256"
            }
          ],
          "name": "currentQueueInLevel",
          "outputs": [
            {
              "internalType": "address[]",
              "name": "",
              "type": "address[]"
            }
          ],
          "stateMutability": "view",
          "type": "function"
        },
        {
          "inputs": [
            {
              "internalType": "uint256",
              "name": "",
              "type": "uint256"
            }
          ],
          "name": "levels",
          "outputs": [
            {
              "internalType": "uint256",
              "name": "numberLvl",
              "type": "uint256"
            },
            {
              "internalType": "uint256",
              "name": "priceToStart",
              "type": "uint256"
            },
            {
              "internalType": "uint256",
              "name": "refillCount",
              "type": "uint256"
            },
            {
              "internalType": "uint256",
              "name": "refillPercent",
              "type": "uint256"
            },
            {
              "internalType": "uint256",
              "name": "MaxCountToBuyLevelSingleAddress",
              "type": "uint256"
            }
          ],
          "stateMutability": "view",
          "type": "function"
        },
        {
          "inputs": [],
          "name": "owner",
          "outputs": [
            {
              "internalType": "address",
              "name": "",
              "type": "address"
            }
          ],
          "stateMutability": "view",
          "type": "function"
        },
        {
          "inputs": [],
          "name": "renounceOwnership",
          "outputs": [],
          "stateMutability": "nonpayable",
          "type": "function"
        },
        {
          "inputs": [
            {
              "internalType": "address",
              "name": "newOwner",
              "type": "address"
            }
          ],
          "name": "transferOwnership",
          "outputs": [],
          "stateMutability": "nonpayable",
          "type": "function"
        },
        {
          "inputs": [
            {
              "internalType": "address",
              "name": "",
              "type": "address"
            }
          ],
          "name": "users",
          "outputs": [
            {
              "internalType": "address",
              "name": "user",
              "type": "address"
            },
            {
              "internalType": "address",
              "name": "referral",
              "type": "address"
            },
            {
              "internalType": "uint256",
              "name": "currentlvl",
              "type": "uint256"
            },
            {
              "internalType": "uint256",
              "name": "deposited",
              "type": "uint256"
            },
            {
              "internalType": "uint256",
              "name": "earned",
              "type": "uint256"
            },
            {
              "internalType": "uint256",
              "name": "countOfBuyingLevels",
              "type": "uint256"
            }
          ],
          "stateMutability": "view",
          "type": "function"
        },
        {
          "stateMutability": "payable",
          "type": "receive"
        }
      ],
      "evm": {
        "bytecode": {
          "linkReferences": {},
          "object": "608060405260036005553480156200001657600080fd5b50604051620019493803806200194983398101604081905262000039916200035b565b62000044336200017a565b60018055600280546001600160a01b0319166001600160a01b0384161790556200006e81620001ca565b6200008a600068022b1c8c1227a00000600360c860026200024d565b50620000a660016804e1003b28d928000060046096836200024d565b50620000c3600268093739534d28680000600460af60016200024d565b50620000e06003680ea300b17a8b780000600560c860016200024d565b50620000fd6004681b1ae4d6e2ef500000600560e160016200024d565b506200011960056830ca024f987b9000008160fa60016200024d565b50620001376006685150ae84a8cdf00000600561011360016200024d565b50620001546007686c6b935b8bbd4000008161012c60016200024d565b5062000171600868a2a15d09519be000008161014560016200024d565b5050506200039a565b600080546001600160a01b038381166001600160a01b0319831681178455604051919092169283917f8be0079c531659141344cd1fd0a4f28419497f9722a3daafe3b4186f6b6457e09190a35050565b620001d4620002e7565b6001600160a01b0381166200023f5760405162461bcd60e51b815260206004820152602660248201527f4f776e61626c653a206e6577206f776e657220697320746865207a65726f206160448201526564647265737360d01b60648201526084015b60405180910390fd5b6200024a816200017a565b50565b600062000259620002e7565b600086815260046020818152604092839020898155600181018990556002810188905560038101879055918201859055825189815290810188905291820186905260608201859052608082018490524260a0830152907f8facac00b97205d28ced8b122d640abfdf7aedc107b011a3009fd0910500925c9060c00160405180910390a1509495945050505050565b6000546001600160a01b03163314620003435760405162461bcd60e51b815260206004820181905260248201527f4f776e61626c653a2063616c6c6572206973206e6f7420746865206f776e6572604482015260640162000236565b565b6001600160a01b03811681146200024a57600080fd5b600080604083850312156200036f57600080fd5b82516200037c8162000345565b60208401519092506200038f8162000345565b809150509250929050565b61159f80620003aa6000396000f3fe6080604052600436106100cb5760003560e01c8063a87430ba11610074578063c24126761161004e578063c241267614610302578063e176ce0a1461032f578063f2fde38b1461035c576100d2565b8063a87430ba146101c0578063ab7a6bf11461026f578063b2596a671461028f576100d2565b806364e5322a116100a557806364e5322a1461013f578063715018a61461015f5780638da5cb5b14610174576100d2565b80631ce480f3146100e05780632d5339e0146101135780634b70e8e714610129576100d2565b366100d257005b3480156100de57600080fd5b005b3480156100ec57600080fd5b506101006100fb36600461128a565b61037c565b6040519081526020015b60405180910390f35b34801561011f57600080fd5b5061010060065481565b34801561013557600080fd5b5061010060055481565b34801561014b57600080fd5b506100de61015a3660046112ee565b610414565b34801561016b57600080fd5b506100de610875565b34801561018057600080fd5b5060005473ffffffffffffffffffffffffffffffffffffffff165b60405173ffffffffffffffffffffffffffffffffffffffff909116815260200161010a565b3480156101cc57600080fd5b5061022a6101db36600461131a565b600360208190526000918252604090912080546001820154600283015493830154600484015460059094015473ffffffffffffffffffffffffffffffffffffffff938416959390921693909186565b6040805173ffffffffffffffffffffffffffffffffffffffff9788168152969095166020870152938501929092526060840152608083015260a082015260c00161010a565b34801561027b57600080fd5b506100de61028a36600461133c565b610889565b34801561029b57600080fd5b506102da6102aa36600461133c565b60046020819052600091825260409091208054600182015460028301546003840154939094015491939092909185565b604080519586526020860194909452928401919091526060830152608082015260a00161010a565b34801561030e57600080fd5b5060025461019b9073ffffffffffffffffffffffffffffffffffffffff1681565b34801561033b57600080fd5b5061034f61034a36600461133c565b6109ff565b60405161010a9190611355565b34801561036857600080fd5b506100de61037736600461131a565b610a7e565b6000610386610b35565b600086815260046020818152604092839020898155600181018990556002810188905560038101879055918201859055825189815290810188905291820186905260608201859052608082018490524260a0830152907f8facac00b97205d28ced8b122d640abfdf7aedc107b011a3009fd0910500925c9060c00160405180910390a1509495945050505050565b600260015403610485576040517f08c379a000000000000000000000000000000000000000000000000000000000815260206004820152601f60248201527f5265656e7472616e637947756172643a207265656e7472616e742063616c6c0060448201526064015b60405180910390fd5b600260015533600090815260036020908152604080832085845260049092528220909173ffffffffffffffffffffffffffffffffffffffff8416900361054d576040517f08c379a000000000000000000000000000000000000000000000000000000000815260206004820152603360248201527f696620796f7520646f6e74206861766520726566666572616c2061646472657360448201527f73207573652061646472657373206f776e657200000000000000000000000000606482015260840161047c565b600182810180547fffffffffffffffffffffffff00000000000000000000000000000000000000001673ffffffffffffffffffffffffffffffffffffffff8616179055600283015485916105a191906113de565b1015610609576040517f08c379a000000000000000000000000000000000000000000000000000000000815260206004820152601d60248201527f596f75206e65656420746f20627579206561726c696572206c6576656c000000604482015260640161047c565b60025460018201546040517f23b872dd000000000000000000000000000000000000000000000000000000008152336004820152306024820152604481019190915273ffffffffffffffffffffffffffffffffffffffff909116906323b872dd906064016020604051808303816000875af115801561068c573d6000803e3d6000fd5b505050506040513d601f19601f820116820180604052508101906106b091906113f1565b506002820184905560018101546003830180546000906106d19084906113de565b909155505081547fffffffffffffffffffffffff0000000000000000000000000000000000000000163317825560058201805490600061071083611413565b90915550506000848152600783016020526040812080549161073183611413565b90915550506004810154600085815260078401602052604090205411156107b4576040517f08c379a000000000000000000000000000000000000000000000000000000000815260206004820181905260248201527f596f752063616e7420627579206d6f72652074686973206c6576656c20796574604482015260640161047c565b6005810180546002830154036107d7576107d2826005013387610bb6565b610817565b600582018054600181018255600091825260209091200180547fffffffffffffffffffffffff000000000000000000000000000000000000000016331790555b6006805490600061082783611413565b909155505060408051868152426020820152338183015290517f67b7c39dce5fa35f6a4cbe6ec721b5782cc6b7699bec93ff0cd066a22a899b399181900360600190a1505060018055505050565b61087d610b35565b6108876000610df8565b565b610891610b35565b60008181526004602052604081209060058201815b81548110156109ea578181815481106108c1576108c161144b565b60009182526020909120015460025460018601546040517fa9059cbb00000000000000000000000000000000000000000000000000000000815273ffffffffffffffffffffffffffffffffffffffff93841660048201819052602482019290925290955091169063a9059cbb906044016020604051808303816000875af1158015610950573d6000803e3d6000fd5b505050506040513d601f19601f8201168201806040525081019061097491906113f1565b50600184015484546040805173ffffffffffffffffffffffffffffffffffffffff871681524260208201529081019290925260608201527f2369db1bafee945aee5630782f4a170682e3f8188d8dc247a4c73eb8c9e692d29060800160405180910390a1806109e281611413565b9150506108a6565b506109f9600584016000611207565b50505050565b6000818152600460209081526040918290206005810180548451818502810185019095528085526060949293830182828015610a7157602002820191906000526020600020905b815473ffffffffffffffffffffffffffffffffffffffff168152600190910190602001808311610a46575b5050505050915050919050565b610a86610b35565b73ffffffffffffffffffffffffffffffffffffffff8116610b29576040517f08c379a000000000000000000000000000000000000000000000000000000000815260206004820152602660248201527f4f776e61626c653a206e6577206f776e657220697320746865207a65726f206160448201527f6464726573730000000000000000000000000000000000000000000000000000606482015260840161047c565b610b3281610df8565b50565b60005473ffffffffffffffffffffffffffffffffffffffff163314610887576040517f08c379a000000000000000000000000000000000000000000000000000000000815260206004820181905260248201527f4f776e61626c653a2063616c6c6572206973206e6f7420746865206f776e6572604482015260640161047c565b6000818152600460205260408120845490919085908290610bd957610bd961144b565b600091825260208083209091015473ffffffffffffffffffffffffffffffffffffffff168083526003918290526040832091850154600186015491945091929190610c269060649061147a565b610c3091906114b5565b9050808260040154610c4291906113de565b6004838101919091556002546040517fa9059cbb00000000000000000000000000000000000000000000000000000000815273ffffffffffffffffffffffffffffffffffffffff868116938201939093526024810184905291169063a9059cbb906044016020604051808303816000875af1158015610cc5573d6000803e3d6000fd5b505050506040513d601f19601f82011682018060405250810190610ce991906113f1565b50610cf5876000610e6d565b80546001810182556000828152602090200180547fffffffffffffffffffffffff00000000000000000000000000000000000000001673ffffffffffffffffffffffffffffffffffffffff89161790559650610d508361101c565b60008581526007830160205260408120805491610d6c836114f2565b90915550508654610d839060058601908990611225565b506001820154825485546040805173ffffffffffffffffffffffffffffffffffffffff9485168152939092166020840152429183019190915260608201527f2496e048edda281349e32d9ccb972de94737d94c958c5d182a0e1ed90602fd9a906080015b60405180910390a150505050505050565b6000805473ffffffffffffffffffffffffffffffffffffffff8381167fffffffffffffffffffffffff0000000000000000000000000000000000000000831681178455604051919092169283917f8be0079c531659141344cd1fd0a4f28419497f9722a3daafe3b4186f6b6457e09190a35050565b81546000908210610eda576040517f08c379a000000000000000000000000000000000000000000000000000000000815260206004820152601260248201527f696e646578206f7574206f6620626f756e640000000000000000000000000000604482015260640161047c565b815b8354610eea90600190611527565b811015610faa5783610efd8260016113de565b81548110610f0d57610f0d61144b565b9060005260206000200160009054906101000a900473ffffffffffffffffffffffffffffffffffffffff16848281548110610f4a57610f4a61144b565b600091825260209091200180547fffffffffffffffffffffffff00000000000000000000000000000000000000001673ffffffffffffffffffffffffffffffffffffffff9290921691909117905580610fa281611413565b915050610edc565b5082805480610fbb57610fbb61153a565b60008281526020902081017fffffffffffffffffffffffffffffffffffffffffffffffffffffffffffffffff90810180547fffffffffffffffffffffffff000000000000000000000000000000000000000016905501905550815b92915050565b73ffffffffffffffffffffffffffffffffffffffff8082166000908152600360209081526040808320600180820154600283015480875260049095529285206005549181015492969390931694916110769060649061147a565b61108091906114b5565b600186015473ffffffffffffffffffffffffffffffffffffffff1660009081526003602052604090206004810154919250906110bd9083906113de565b600482810191909155600682018054600181018255600091825260209091200180547fffffffffffffffffffffffff00000000000000000000000000000000000000001673ffffffffffffffffffffffffffffffffffffffff8a8116919091179091556002546040517fa9059cbb0000000000000000000000000000000000000000000000000000000081528883169381019390935260248301859052169063a9059cbb906044016020604051808303816000875af1158015611184573d6000803e3d6000fd5b505050506040513d601f19601f820116820180604052508101906111a891906113f1565b506040805173ffffffffffffffffffffffffffffffffffffffff8088168252891660208201524291810191909152606081018590527f2496e048edda281349e32d9ccb972de94737d94c958c5d182a0e1ed90602fd9a90608001610de7565b5080546000825590600052602060002090810190610b329190611275565b8280548282559060005260206000209081019282156112655760005260206000209182015b8281111561126557825482559160010191906001019061124a565b50611271929150611275565b5090565b5b808211156112715760008155600101611276565b600080600080600060a086880312156112a257600080fd5b505083359560208501359550604085013594606081013594506080013592509050565b803573ffffffffffffffffffffffffffffffffffffffff811681146112e957600080fd5b919050565b6000806040838503121561130157600080fd5b82359150611311602084016112c5565b90509250929050565b60006020828403121561132c57600080fd5b611335826112c5565b9392505050565b60006020828403121561134e57600080fd5b5035919050565b6020808252825182820181905260009190848201906040850190845b818110156113a357835173ffffffffffffffffffffffffffffffffffffffff1683529284019291840191600101611371565b50909695505050505050565b7f4e487b7100000000000000000000000000000000000000000000000000000000600052601160045260246000fd5b80820180821115611016576110166113af565b60006020828403121561140357600080fd5b8151801515811461133557600080fd5b60007fffffffffffffffffffffffffffffffffffffffffffffffffffffffffffffffff8203611444576114446113af565b5060010190565b7f4e487b7100000000000000000000000000000000000000000000000000000000600052603260045260246000fd5b6000826114b0577f4e487b7100000000000000000000000000000000000000000000000000000000600052601260045260246000fd5b500490565b6000817fffffffffffffffffffffffffffffffffffffffffffffffffffffffffffffffff04831182151516156114ed576114ed6113af565b500290565b600081611501576115016113af565b507fffffffffffffffffffffffffffffffffffffffffffffffffffffffffffffffff0190565b81810381811115611016576110166113af565b7f4e487b7100000000000000000000000000000000000000000000000000000000600052603160045260246000fdfea264697066735822122017b1d7b2e9b6a79d3792a9d5819479e40d44b22b2ab083381b71622fdcb1085864736f6c63430008100033",
          "opcodes": "PUSH1 0x80 PUSH1 0x40 MSTORE PUSH1 0x3 PUSH1 0x5 SSTORE CALLVALUE DUP1 ISZERO PUSH3 0x16 JUMPI PUSH1 0x0 DUP1 REVERT JUMPDEST POP PUSH1 0x40 MLOAD PUSH3 0x1949 CODESIZE SUB DUP1 PUSH3 0x1949 DUP4 CODECOPY DUP2 ADD PUSH1 0x40 DUP2 SWAP1 MSTORE PUSH3 0x39 SWAP2 PUSH3 0x35B JUMP JUMPDEST PUSH3 0x44 CALLER PUSH3 0x17A JUMP JUMPDEST PUSH1 0x1 DUP1 SSTORE PUSH1 0x2 DUP1 SLOAD PUSH1 0x1 PUSH1 0x1 PUSH1 0xA0 SHL SUB NOT AND PUSH1 0x1 PUSH1 0x1 PUSH1 0xA0 SHL SUB DUP5 AND OR SWAP1 SSTORE PUSH3 0x6E DUP2 PUSH3 0x1CA JUMP JUMPDEST PUSH3 0x8A PUSH1 0x0 PUSH9 0x22B1C8C1227A00000 PUSH1 0x3 PUSH1 0xC8 PUSH1 0x2 PUSH3 0x24D JUMP JUMPDEST POP PUSH3 0xA6 PUSH1 0x1 PUSH9 0x4E1003B28D9280000 PUSH1 0x4 PUSH1 0x96 DUP4 PUSH3 0x24D JUMP JUMPDEST POP PUSH3 0xC3 PUSH1 0x2 PUSH9 0x93739534D28680000 PUSH1 0x4 PUSH1 0xAF PUSH1 0x1 PUSH3 0x24D JUMP JUMPDEST POP PUSH3 0xE0 PUSH1 0x3 PUSH9 0xEA300B17A8B780000 PUSH1 0x5 PUSH1 0xC8 PUSH1 0x1 PUSH3 0x24D JUMP JUMPDEST POP PUSH3 0xFD PUSH1 0x4 PUSH9 0x1B1AE4D6E2EF500000 PUSH1 0x5 PUSH1 0xE1 PUSH1 0x1 PUSH3 0x24D JUMP JUMPDEST POP PUSH3 0x119 PUSH1 0x5 PUSH9 0x30CA024F987B900000 DUP2 PUSH1 0xFA PUSH1 0x1 PUSH3 0x24D JUMP JUMPDEST POP PUSH3 0x137 PUSH1 0x6 PUSH9 0x5150AE84A8CDF00000 PUSH1 0x5 PUSH2 0x113 PUSH1 0x1 PUSH3 0x24D JUMP JUMPDEST POP PUSH3 0x154 PUSH1 0x7 PUSH9 0x6C6B935B8BBD400000 DUP2 PUSH2 0x12C PUSH1 0x1 PUSH3 0x24D JUMP JUMPDEST POP PUSH3 0x171 PUSH1 0x8 PUSH9 0xA2A15D09519BE00000 DUP2 PUSH2 0x145 PUSH1 0x1 PUSH3 0x24D JUMP JUMPDEST POP POP POP PUSH3 0x39A JUMP JUMPDEST PUSH1 0x0 DUP1 SLOAD PUSH1 0x1 PUSH1 0x1 PUSH1 0xA0 SHL SUB DUP4 DUP2 AND PUSH1 0x1 PUSH1 0x1 PUSH1 0xA0 SHL SUB NOT DUP4 AND DUP2 OR DUP5 SSTORE PUSH1 0x40 MLOAD SWAP2 SWAP1 SWAP3 AND SWAP3 DUP4 SWAP2 PUSH32 0x8BE0079C531659141344CD1FD0A4F28419497F9722A3DAAFE3B4186F6B6457E0 SWAP2 SWAP1 LOG3 POP POP JUMP JUMPDEST PUSH3 0x1D4 PUSH3 0x2E7 JUMP JUMPDEST PUSH1 0x1 PUSH1 0x1 PUSH1 0xA0 SHL SUB DUP2 AND PUSH3 0x23F JUMPI PUSH1 0x40 MLOAD PUSH3 0x461BCD PUSH1 0xE5 SHL DUP2 MSTORE PUSH1 0x20 PUSH1 0x4 DUP3 ADD MSTORE PUSH1 0x26 PUSH1 0x24 DUP3 ADD MSTORE PUSH32 0x4F776E61626C653A206E6577206F776E657220697320746865207A65726F2061 PUSH1 0x44 DUP3 ADD MSTORE PUSH6 0x646472657373 PUSH1 0xD0 SHL PUSH1 0x64 DUP3 ADD MSTORE PUSH1 0x84 ADD JUMPDEST PUSH1 0x40 MLOAD DUP1 SWAP2 SUB SWAP1 REVERT JUMPDEST PUSH3 0x24A DUP2 PUSH3 0x17A JUMP JUMPDEST POP JUMP JUMPDEST PUSH1 0x0 PUSH3 0x259 PUSH3 0x2E7 JUMP JUMPDEST PUSH1 0x0 DUP7 DUP2 MSTORE PUSH1 0x4 PUSH1 0x20 DUP2 DUP2 MSTORE PUSH1 0x40 SWAP3 DUP4 SWAP1 KECCAK256 DUP10 DUP2 SSTORE PUSH1 0x1 DUP2 ADD DUP10 SWAP1 SSTORE PUSH1 0x2 DUP2 ADD DUP9 SWAP1 SSTORE PUSH1 0x3 DUP2 ADD DUP8 SWAP1 SSTORE SWAP2 DUP3 ADD DUP6 SWAP1 SSTORE DUP3 MLOAD DUP10 DUP2 MSTORE SWAP1 DUP2 ADD DUP9 SWAP1 MSTORE SWAP2 DUP3 ADD DUP7 SWAP1 MSTORE PUSH1 0x60 DUP3 ADD DUP6 SWAP1 MSTORE PUSH1 0x80 DUP3 ADD DUP5 SWAP1 MSTORE TIMESTAMP PUSH1 0xA0 DUP4 ADD MSTORE SWAP1 PUSH32 0x8FACAC00B97205D28CED8B122D640ABFDF7AEDC107B011A3009FD0910500925C SWAP1 PUSH1 0xC0 ADD PUSH1 0x40 MLOAD DUP1 SWAP2 SUB SWAP1 LOG1 POP SWAP5 SWAP6 SWAP5 POP POP POP POP POP JUMP JUMPDEST PUSH1 0x0 SLOAD PUSH1 0x1 PUSH1 0x1 PUSH1 0xA0 SHL SUB AND CALLER EQ PUSH3 0x343 JUMPI PUSH1 0x40 MLOAD PUSH3 0x461BCD PUSH1 0xE5 SHL DUP2 MSTORE PUSH1 0x20 PUSH1 0x4 DUP3 ADD DUP2 SWAP1 MSTORE PUSH1 0x24 DUP3 ADD MSTORE PUSH32 0x4F776E61626C653A2063616C6C6572206973206E6F7420746865206F776E6572 PUSH1 0x44 DUP3 ADD MSTORE PUSH1 0x64 ADD PUSH3 0x236 JUMP JUMPDEST JUMP JUMPDEST PUSH1 0x1 PUSH1 0x1 PUSH1 0xA0 SHL SUB DUP2 AND DUP2 EQ PUSH3 0x24A JUMPI PUSH1 0x0 DUP1 REVERT JUMPDEST PUSH1 0x0 DUP1 PUSH1 0x40 DUP4 DUP6 SUB SLT ISZERO PUSH3 0x36F JUMPI PUSH1 0x0 DUP1 REVERT JUMPDEST DUP3 MLOAD PUSH3 0x37C DUP2 PUSH3 0x345 JUMP JUMPDEST PUSH1 0x20 DUP5 ADD MLOAD SWAP1 SWAP3 POP PUSH3 0x38F DUP2 PUSH3 0x345 JUMP JUMPDEST DUP1 SWAP2 POP POP SWAP3 POP SWAP3 SWAP1 POP JUMP JUMPDEST PUSH2 0x159F DUP1 PUSH3 0x3AA PUSH1 0x0 CODECOPY PUSH1 0x0 RETURN INVALID PUSH1 0x80 PUSH1 0x40 MSTORE PUSH1 0x4 CALLDATASIZE LT PUSH2 0xCB JUMPI PUSH1 0x0 CALLDATALOAD PUSH1 0xE0 SHR DUP1 PUSH4 0xA87430BA GT PUSH2 0x74 JUMPI DUP1 PUSH4 0xC2412676 GT PUSH2 0x4E JUMPI DUP1 PUSH4 0xC2412676 EQ PUSH2 0x302 JUMPI DUP1 PUSH4 0xE176CE0A EQ PUSH2 0x32F JUMPI DUP1 PUSH4 0xF2FDE38B EQ PUSH2 0x35C JUMPI PUSH2 0xD2 JUMP JUMPDEST DUP1 PUSH4 0xA87430BA EQ PUSH2 0x1C0 JUMPI DUP1 PUSH4 0xAB7A6BF1 EQ PUSH2 0x26F JUMPI DUP1 PUSH4 0xB2596A67 EQ PUSH2 0x28F JUMPI PUSH2 0xD2 JUMP JUMPDEST DUP1 PUSH4 0x64E5322A GT PUSH2 0xA5 JUMPI DUP1 PUSH4 0x64E5322A EQ PUSH2 0x13F JUMPI DUP1 PUSH4 0x715018A6 EQ PUSH2 0x15F JUMPI DUP1 PUSH4 0x8DA5CB5B EQ PUSH2 0x174 JUMPI PUSH2 0xD2 JUMP JUMPDEST DUP1 PUSH4 0x1CE480F3 EQ PUSH2 0xE0 JUMPI DUP1 PUSH4 0x2D5339E0 EQ PUSH2 0x113 JUMPI DUP1 PUSH4 0x4B70E8E7 EQ PUSH2 0x129 JUMPI PUSH2 0xD2 JUMP JUMPDEST CALLDATASIZE PUSH2 0xD2 JUMPI STOP JUMPDEST CALLVALUE DUP1 ISZERO PUSH2 0xDE JUMPI PUSH1 0x0 DUP1 REVERT JUMPDEST STOP JUMPDEST CALLVALUE DUP1 ISZERO PUSH2 0xEC JUMPI PUSH1 0x0 DUP1 REVERT JUMPDEST POP PUSH2 0x100 PUSH2 0xFB CALLDATASIZE PUSH1 0x4 PUSH2 0x128A JUMP JUMPDEST PUSH2 0x37C JUMP JUMPDEST PUSH1 0x40 MLOAD SWAP1 DUP2 MSTORE PUSH1 0x20 ADD JUMPDEST PUSH1 0x40 MLOAD DUP1 SWAP2 SUB SWAP1 RETURN JUMPDEST CALLVALUE DUP1 ISZERO PUSH2 0x11F JUMPI PUSH1 0x0 DUP1 REVERT JUMPDEST POP PUSH2 0x100 PUSH1 0x6 SLOAD DUP2 JUMP JUMPDEST CALLVALUE DUP1 ISZERO PUSH2 0x135 JUMPI PUSH1 0x0 DUP1 REVERT JUMPDEST POP PUSH2 0x100 PUSH1 0x5 SLOAD DUP2 JUMP JUMPDEST CALLVALUE DUP1 ISZERO PUSH2 0x14B JUMPI PUSH1 0x0 DUP1 REVERT JUMPDEST POP PUSH2 0xDE PUSH2 0x15A CALLDATASIZE PUSH1 0x4 PUSH2 0x12EE JUMP JUMPDEST PUSH2 0x414 JUMP JUMPDEST CALLVALUE DUP1 ISZERO PUSH2 0x16B JUMPI PUSH1 0x0 DUP1 REVERT JUMPDEST POP PUSH2 0xDE PUSH2 0x875 JUMP JUMPDEST CALLVALUE DUP1 ISZERO PUSH2 0x180 JUMPI PUSH1 0x0 DUP1 REVERT JUMPDEST POP PUSH1 0x0 SLOAD PUSH20 0xFFFFFFFFFFFFFFFFFFFFFFFFFFFFFFFFFFFFFFFF AND JUMPDEST PUSH1 0x40 MLOAD PUSH20 0xFFFFFFFFFFFFFFFFFFFFFFFFFFFFFFFFFFFFFFFF SWAP1 SWAP2 AND DUP2 MSTORE PUSH1 0x20 ADD PUSH2 0x10A JUMP JUMPDEST CALLVALUE DUP1 ISZERO PUSH2 0x1CC JUMPI PUSH1 0x0 DUP1 REVERT JUMPDEST POP PUSH2 0x22A PUSH2 0x1DB CALLDATASIZE PUSH1 0x4 PUSH2 0x131A JUMP JUMPDEST PUSH1 0x3 PUSH1 0x20 DUP2 SWAP1 MSTORE PUSH1 0x0 SWAP2 DUP3 MSTORE PUSH1 0x40 SWAP1 SWAP2 KECCAK256 DUP1 SLOAD PUSH1 0x1 DUP3 ADD SLOAD PUSH1 0x2 DUP4 ADD SLOAD SWAP4 DUP4 ADD SLOAD PUSH1 0x4 DUP5 ADD SLOAD PUSH1 0x5 SWAP1 SWAP5 ADD SLOAD PUSH20 0xFFFFFFFFFFFFFFFFFFFFFFFFFFFFFFFFFFFFFFFF SWAP4 DUP5 AND SWAP6 SWAP4 SWAP1 SWAP3 AND SWAP4 SWAP1 SWAP2 DUP7 JUMP JUMPDEST PUSH1 0x40 DUP1 MLOAD PUSH20 0xFFFFFFFFFFFFFFFFFFFFFFFFFFFFFFFFFFFFFFFF SWAP8 DUP9 AND DUP2 MSTORE SWAP7 SWAP1 SWAP6 AND PUSH1 0x20 DUP8 ADD MSTORE SWAP4 DUP6 ADD SWAP3 SWAP1 SWAP3 MSTORE PUSH1 0x60 DUP5 ADD MSTORE PUSH1 0x80 DUP4 ADD MSTORE PUSH1 0xA0 DUP3 ADD MSTORE PUSH1 0xC0 ADD PUSH2 0x10A JUMP JUMPDEST CALLVALUE DUP1 ISZERO PUSH2 0x27B JUMPI PUSH1 0x0 DUP1 REVERT JUMPDEST POP PUSH2 0xDE PUSH2 0x28A CALLDATASIZE PUSH1 0x4 PUSH2 0x133C JUMP JUMPDEST PUSH2 0x889 JUMP JUMPDEST CALLVALUE DUP1 ISZERO PUSH2 0x29B JUMPI PUSH1 0x0 DUP1 REVERT JUMPDEST POP PUSH2 0x2DA PUSH2 0x2AA CALLDATASIZE PUSH1 0x4 PUSH2 0x133C JUMP JUMPDEST PUSH1 0x4 PUSH1 0x20 DUP2 SWAP1 MSTORE PUSH1 0x0 SWAP2 DUP3 MSTORE PUSH1 0x40 SWAP1 SWAP2 KECCAK256 DUP1 SLOAD PUSH1 0x1 DUP3 ADD SLOAD PUSH1 0x2 DUP4 ADD SLOAD PUSH1 0x3 DUP5 ADD SLOAD SWAP4 SWAP1 SWAP5 ADD SLOAD SWAP2 SWAP4 SWAP1 SWAP3 SWAP1 SWAP2 DUP6 JUMP JUMPDEST PUSH1 0x40 DUP1 MLOAD SWAP6 DUP7 MSTORE PUSH1 0x20 DUP7 ADD SWAP5 SWAP1 SWAP5 MSTORE SWAP3 DUP5 ADD SWAP2 SWAP1 SWAP2 MSTORE PUSH1 0x60 DUP4 ADD MSTORE PUSH1 0x80 DUP3 ADD MSTORE PUSH1 0xA0 ADD PUSH2 0x10A JUMP JUMPDEST CALLVALUE DUP1 ISZERO PUSH2 0x30E JUMPI PUSH1 0x0 DUP1 REVERT JUMPDEST POP PUSH1 0x2 SLOAD PUSH2 0x19B SWAP1 PUSH20 0xFFFFFFFFFFFFFFFFFFFFFFFFFFFFFFFFFFFFFFFF AND DUP2 JUMP JUMPDEST CALLVALUE DUP1 ISZERO PUSH2 0x33B JUMPI PUSH1 0x0 DUP1 REVERT JUMPDEST POP PUSH2 0x34F PUSH2 0x34A CALLDATASIZE PUSH1 0x4 PUSH2 0x133C JUMP JUMPDEST PUSH2 0x9FF JUMP JUMPDEST PUSH1 0x40 MLOAD PUSH2 0x10A SWAP2 SWAP1 PUSH2 0x1355 JUMP JUMPDEST CALLVALUE DUP1 ISZERO PUSH2 0x368 JUMPI PUSH1 0x0 DUP1 REVERT JUMPDEST POP PUSH2 0xDE PUSH2 0x377 CALLDATASIZE PUSH1 0x4 PUSH2 0x131A JUMP JUMPDEST PUSH2 0xA7E JUMP JUMPDEST PUSH1 0x0 PUSH2 0x386 PUSH2 0xB35 JUMP JUMPDEST PUSH1 0x0 DUP7 DUP2 MSTORE PUSH1 0x4 PUSH1 0x20 DUP2 DUP2 MSTORE PUSH1 0x40 SWAP3 DUP4 SWAP1 KECCAK256 DUP10 DUP2 SSTORE PUSH1 0x1 DUP2 ADD DUP10 SWAP1 SSTORE PUSH1 0x2 DUP2 ADD DUP9 SWAP1 SSTORE PUSH1 0x3 DUP2 ADD DUP8 SWAP1 SSTORE SWAP2 DUP3 ADD DUP6 SWAP1 SSTORE DUP3 MLOAD DUP10 DUP2 MSTORE SWAP1 DUP2 ADD DUP9 SWAP1 MSTORE SWAP2 DUP3 ADD DUP7 SWAP1 MSTORE PUSH1 0x60 DUP3 ADD DUP6 SWAP1 MSTORE PUSH1 0x80 DUP3 ADD DUP5 SWAP1 MSTORE TIMESTAMP PUSH1 0xA0 DUP4 ADD MSTORE SWAP1 PUSH32 0x8FACAC00B97205D28CED8B122D640ABFDF7AEDC107B011A3009FD0910500925C SWAP1 PUSH1 0xC0 ADD PUSH1 0x40 MLOAD DUP1 SWAP2 SUB SWAP1 LOG1 POP SWAP5 SWAP6 SWAP5 POP POP POP POP POP JUMP JUMPDEST PUSH1 0x2 PUSH1 0x1 SLOAD SUB PUSH2 0x485 JUMPI PUSH1 0x40 MLOAD PUSH32 0x8C379A000000000000000000000000000000000000000000000000000000000 DUP2 MSTORE PUSH1 0x20 PUSH1 0x4 DUP3 ADD MSTORE PUSH1 0x1F PUSH1 0x24 DUP3 ADD MSTORE PUSH32 0x5265656E7472616E637947756172643A207265656E7472616E742063616C6C00 PUSH1 0x44 DUP3 ADD MSTORE PUSH1 0x64 ADD JUMPDEST PUSH1 0x40 MLOAD DUP1 SWAP2 SUB SWAP1 REVERT JUMPDEST PUSH1 0x2 PUSH1 0x1 SSTORE CALLER PUSH1 0x0 SWAP1 DUP2 MSTORE PUSH1 0x3 PUSH1 0x20 SWAP1 DUP2 MSTORE PUSH1 0x40 DUP1 DUP4 KECCAK256 DUP6 DUP5 MSTORE PUSH1 0x4 SWAP1 SWAP3 MSTORE DUP3 KECCAK256 SWAP1 SWAP2 PUSH20 0xFFFFFFFFFFFFFFFFFFFFFFFFFFFFFFFFFFFFFFFF DUP5 AND SWAP1 SUB PUSH2 0x54D JUMPI PUSH1 0x40 MLOAD PUSH32 0x8C379A000000000000000000000000000000000000000000000000000000000 DUP2 MSTORE PUSH1 0x20 PUSH1 0x4 DUP3 ADD MSTORE PUSH1 0x33 PUSH1 0x24 DUP3 ADD MSTORE PUSH32 0x696620796F7520646F6E74206861766520726566666572616C20616464726573 PUSH1 0x44 DUP3 ADD MSTORE PUSH32 0x73207573652061646472657373206F776E657200000000000000000000000000 PUSH1 0x64 DUP3 ADD MSTORE PUSH1 0x84 ADD PUSH2 0x47C JUMP JUMPDEST PUSH1 0x1 DUP3 DUP2 ADD DUP1 SLOAD PUSH32 0xFFFFFFFFFFFFFFFFFFFFFFFF0000000000000000000000000000000000000000 AND PUSH20 0xFFFFFFFFFFFFFFFFFFFFFFFFFFFFFFFFFFFFFFFF DUP7 AND OR SWAP1 SSTORE PUSH1 0x2 DUP4 ADD SLOAD DUP6 SWAP2 PUSH2 0x5A1 SWAP2 SWAP1 PUSH2 0x13DE JUMP JUMPDEST LT ISZERO PUSH2 0x609 JUMPI PUSH1 0x40 MLOAD PUSH32 0x8C379A000000000000000000000000000000000000000000000000000000000 DUP2 MSTORE PUSH1 0x20 PUSH1 0x4 DUP3 ADD MSTORE PUSH1 0x1D PUSH1 0x24 DUP3 ADD MSTORE PUSH32 0x596F75206E65656420746F20627579206561726C696572206C6576656C000000 PUSH1 0x44 DUP3 ADD MSTORE PUSH1 0x64 ADD PUSH2 0x47C JUMP JUMPDEST PUSH1 0x2 SLOAD PUSH1 0x1 DUP3 ADD SLOAD PUSH1 0x40 MLOAD PUSH32 0x23B872DD00000000000000000000000000000000000000000000000000000000 DUP2 MSTORE CALLER PUSH1 0x4 DUP3 ADD MSTORE ADDRESS PUSH1 0x24 DUP3 ADD MSTORE PUSH1 0x44 DUP2 ADD SWAP2 SWAP1 SWAP2 MSTORE PUSH20 0xFFFFFFFFFFFFFFFFFFFFFFFFFFFFFFFFFFFFFFFF SWAP1 SWAP2 AND SWAP1 PUSH4 0x23B872DD SWAP1 PUSH1 0x64 ADD PUSH1 0x20 PUSH1 0x40 MLOAD DUP1 DUP4 SUB DUP2 PUSH1 0x0 DUP8 GAS CALL ISZERO DUP1 ISZERO PUSH2 0x68C JUMPI RETURNDATASIZE PUSH1 0x0 DUP1 RETURNDATACOPY RETURNDATASIZE PUSH1 0x0 REVERT JUMPDEST POP POP POP POP PUSH1 0x40 MLOAD RETURNDATASIZE PUSH1 0x1F NOT PUSH1 0x1F DUP3 ADD AND DUP3 ADD DUP1 PUSH1 0x40 MSTORE POP DUP2 ADD SWAP1 PUSH2 0x6B0 SWAP2 SWAP1 PUSH2 0x13F1 JUMP JUMPDEST POP PUSH1 0x2 DUP3 ADD DUP5 SWAP1 SSTORE PUSH1 0x1 DUP2 ADD SLOAD PUSH1 0x3 DUP4 ADD DUP1 SLOAD PUSH1 0x0 SWAP1 PUSH2 0x6D1 SWAP1 DUP5 SWAP1 PUSH2 0x13DE JUMP JUMPDEST SWAP1 SWAP2 SSTORE POP POP DUP2 SLOAD PUSH32 0xFFFFFFFFFFFFFFFFFFFFFFFF0000000000000000000000000000000000000000 AND CALLER OR DUP3 SSTORE PUSH1 0x5 DUP3 ADD DUP1 SLOAD SWAP1 PUSH1 0x0 PUSH2 0x710 DUP4 PUSH2 0x1413 JUMP JUMPDEST SWAP1 SWAP2 SSTORE POP POP PUSH1 0x0 DUP5 DUP2 MSTORE PUSH1 0x7 DUP4 ADD PUSH1 0x20 MSTORE PUSH1 0x40 DUP2 KECCAK256 DUP1 SLOAD SWAP2 PUSH2 0x731 DUP4 PUSH2 0x1413 JUMP JUMPDEST SWAP1 SWAP2 SSTORE POP POP PUSH1 0x4 DUP2 ADD SLOAD PUSH1 0x0 DUP6 DUP2 MSTORE PUSH1 0x7 DUP5 ADD PUSH1 0x20 MSTORE PUSH1 0x40 SWAP1 KECCAK256 SLOAD GT ISZERO PUSH2 0x7B4 JUMPI PUSH1 0x40 MLOAD PUSH32 0x8C379A000000000000000000000000000000000000000000000000000000000 DUP2 MSTORE PUSH1 0x20 PUSH1 0x4 DUP3 ADD DUP2 SWAP1 MSTORE PUSH1 0x24 DUP3 ADD MSTORE PUSH32 0x596F752063616E7420627579206D6F72652074686973206C6576656C20796574 PUSH1 0x44 DUP3 ADD MSTORE PUSH1 0x64 ADD PUSH2 0x47C JUMP JUMPDEST PUSH1 0x5 DUP2 ADD DUP1 SLOAD PUSH1 0x2 DUP4 ADD SLOAD SUB PUSH2 0x7D7 JUMPI PUSH2 0x7D2 DUP3 PUSH1 0x5 ADD CALLER DUP8 PUSH2 0xBB6 JUMP JUMPDEST PUSH2 0x817 JUMP JUMPDEST PUSH1 0x5 DUP3 ADD DUP1 SLOAD PUSH1 0x1 DUP2 ADD DUP3 SSTORE PUSH1 0x0 SWAP2 DUP3 MSTORE PUSH1 0x20 SWAP1 SWAP2 KECCAK256 ADD DUP1 SLOAD PUSH32 0xFFFFFFFFFFFFFFFFFFFFFFFF0000000000000000000000000000000000000000 AND CALLER OR SWAP1 SSTORE JUMPDEST PUSH1 0x6 DUP1 SLOAD SWAP1 PUSH1 0x0 PUSH2 0x827 DUP4 PUSH2 0x1413 JUMP JUMPDEST SWAP1 SWAP2 SSTORE POP POP PUSH1 0x40 DUP1 MLOAD DUP7 DUP2 MSTORE TIMESTAMP PUSH1 0x20 DUP3 ADD MSTORE CALLER DUP2 DUP4 ADD MSTORE SWAP1 MLOAD PUSH32 0x67B7C39DCE5FA35F6A4CBE6EC721B5782CC6B7699BEC93FF0CD066A22A899B39 SWAP2 DUP2 SWAP1 SUB PUSH1 0x60 ADD SWAP1 LOG1 POP POP PUSH1 0x1 DUP1 SSTORE POP POP POP JUMP JUMPDEST PUSH2 0x87D PUSH2 0xB35 JUMP JUMPDEST PUSH2 0x887 PUSH1 0x0 PUSH2 0xDF8 JUMP JUMPDEST JUMP JUMPDEST PUSH2 0x891 PUSH2 0xB35 JUMP JUMPDEST PUSH1 0x0 DUP2 DUP2 MSTORE PUSH1 0x4 PUSH1 0x20 MSTORE PUSH1 0x40 DUP2 KECCAK256 SWAP1 PUSH1 0x5 DUP3 ADD DUP2 JUMPDEST DUP2 SLOAD DUP2 LT ISZERO PUSH2 0x9EA JUMPI DUP2 DUP2 DUP2 SLOAD DUP2 LT PUSH2 0x8C1 JUMPI PUSH2 0x8C1 PUSH2 0x144B JUMP JUMPDEST PUSH1 0x0 SWAP2 DUP3 MSTORE PUSH1 0x20 SWAP1 SWAP2 KECCAK256 ADD SLOAD PUSH1 0x2 SLOAD PUSH1 0x1 DUP7 ADD SLOAD PUSH1 0x40 MLOAD PUSH32 0xA9059CBB00000000000000000000000000000000000000000000000000000000 DUP2 MSTORE PUSH20 0xFFFFFFFFFFFFFFFFFFFFFFFFFFFFFFFFFFFFFFFF SWAP4 DUP5 AND PUSH1 0x4 DUP3 ADD DUP2 SWAP1 MSTORE PUSH1 0x24 DUP3 ADD SWAP3 SWAP1 SWAP3 MSTORE SWAP1 SWAP6 POP SWAP2 AND SWAP1 PUSH4 0xA9059CBB SWAP1 PUSH1 0x44 ADD PUSH1 0x20 PUSH1 0x40 MLOAD DUP1 DUP4 SUB DUP2 PUSH1 0x0 DUP8 GAS CALL ISZERO DUP1 ISZERO PUSH2 0x950 JUMPI RETURNDATASIZE PUSH1 0x0 DUP1 RETURNDATACOPY RETURNDATASIZE PUSH1 0x0 REVERT JUMPDEST POP POP POP POP PUSH1 0x40 MLOAD RETURNDATASIZE PUSH1 0x1F NOT PUSH1 0x1F DUP3 ADD AND DUP3 ADD DUP1 PUSH1 0x40 MSTORE POP DUP2 ADD SWAP1 PUSH2 0x974 SWAP2 SWAP1 PUSH2 0x13F1 JUMP JUMPDEST POP PUSH1 0x1 DUP5 ADD SLOAD DUP5 SLOAD PUSH1 0x40 DUP1 MLOAD PUSH20 0xFFFFFFFFFFFFFFFFFFFFFFFFFFFFFFFFFFFFFFFF DUP8 AND DUP2 MSTORE TIMESTAMP PUSH1 0x20 DUP3 ADD MSTORE SWAP1 DUP2 ADD SWAP3 SWAP1 SWAP3 MSTORE PUSH1 0x60 DUP3 ADD MSTORE PUSH32 0x2369DB1BAFEE945AEE5630782F4A170682E3F8188D8DC247A4C73EB8C9E692D2 SWAP1 PUSH1 0x80 ADD PUSH1 0x40 MLOAD DUP1 SWAP2 SUB SWAP1 LOG1 DUP1 PUSH2 0x9E2 DUP2 PUSH2 0x1413 JUMP JUMPDEST SWAP2 POP POP PUSH2 0x8A6 JUMP JUMPDEST POP PUSH2 0x9F9 PUSH1 0x5 DUP5 ADD PUSH1 0x0 PUSH2 0x1207 JUMP JUMPDEST POP POP POP POP JUMP JUMPDEST PUSH1 0x0 DUP2 DUP2 MSTORE PUSH1 0x4 PUSH1 0x20 SWAP1 DUP2 MSTORE PUSH1 0x40 SWAP2 DUP3 SWAP1 KECCAK256 PUSH1 0x5 DUP2 ADD DUP1 SLOAD DUP5 MLOAD DUP2 DUP6 MUL DUP2 ADD DUP6 ADD SWAP1 SWAP6 MSTORE DUP1 DUP6 MSTORE PUSH1 0x60 SWAP5 SWAP3 SWAP4 DUP4 ADD DUP3 DUP3 DUP1 ISZERO PUSH2 0xA71 JUMPI PUSH1 0x20 MUL DUP3 ADD SWAP2 SWAP1 PUSH1 0x0 MSTORE PUSH1 0x20 PUSH1 0x0 KECCAK256 SWAP1 JUMPDEST DUP2 SLOAD PUSH20 0xFFFFFFFFFFFFFFFFFFFFFFFFFFFFFFFFFFFFFFFF AND DUP2 MSTORE PUSH1 0x1 SWAP1 SWAP2 ADD SWAP1 PUSH1 0x20 ADD DUP1 DUP4 GT PUSH2 0xA46 JUMPI JUMPDEST POP POP POP POP POP SWAP2 POP POP SWAP2 SWAP1 POP JUMP JUMPDEST PUSH2 0xA86 PUSH2 0xB35 JUMP JUMPDEST PUSH20 0xFFFFFFFFFFFFFFFFFFFFFFFFFFFFFFFFFFFFFFFF DUP2 AND PUSH2 0xB29 JUMPI PUSH1 0x40 MLOAD PUSH32 0x8C379A000000000000000000000000000000000000000000000000000000000 DUP2 MSTORE PUSH1 0x20 PUSH1 0x4 DUP3 ADD MSTORE PUSH1 0x26 PUSH1 0x24 DUP3 ADD MSTORE PUSH32 0x4F776E61626C653A206E6577206F776E657220697320746865207A65726F2061 PUSH1 0x44 DUP3 ADD MSTORE PUSH32 0x6464726573730000000000000000000000000000000000000000000000000000 PUSH1 0x64 DUP3 ADD MSTORE PUSH1 0x84 ADD PUSH2 0x47C JUMP JUMPDEST PUSH2 0xB32 DUP2 PUSH2 0xDF8 JUMP JUMPDEST POP JUMP JUMPDEST PUSH1 0x0 SLOAD PUSH20 0xFFFFFFFFFFFFFFFFFFFFFFFFFFFFFFFFFFFFFFFF AND CALLER EQ PUSH2 0x887 JUMPI PUSH1 0x40 MLOAD PUSH32 0x8C379A000000000000000000000000000000000000000000000000000000000 DUP2 MSTORE PUSH1 0x20 PUSH1 0x4 DUP3 ADD DUP2 SWAP1 MSTORE PUSH1 0x24 DUP3 ADD MSTORE PUSH32 0x4F776E61626C653A2063616C6C6572206973206E6F7420746865206F776E6572 PUSH1 0x44 DUP3 ADD MSTORE PUSH1 0x64 ADD PUSH2 0x47C JUMP JUMPDEST PUSH1 0x0 DUP2 DUP2 MSTORE PUSH1 0x4 PUSH1 0x20 MSTORE PUSH1 0x40 DUP2 KECCAK256 DUP5 SLOAD SWAP1 SWAP2 SWAP1 DUP6 SWAP1 DUP3 SWAP1 PUSH2 0xBD9 JUMPI PUSH2 0xBD9 PUSH2 0x144B JUMP JUMPDEST PUSH1 0x0 SWAP2 DUP3 MSTORE PUSH1 0x20 DUP1 DUP4 KECCAK256 SWAP1 SWAP2 ADD SLOAD PUSH20 0xFFFFFFFFFFFFFFFFFFFFFFFFFFFFFFFFFFFFFFFF AND DUP1 DUP4 MSTORE PUSH1 0x3 SWAP2 DUP3 SWAP1 MSTORE PUSH1 0x40 DUP4 KECCAK256 SWAP2 DUP6 ADD SLOAD PUSH1 0x1 DUP7 ADD SLOAD SWAP2 SWAP5 POP SWAP2 SWAP3 SWAP2 SWAP1 PUSH2 0xC26 SWAP1 PUSH1 0x64 SWAP1 PUSH2 0x147A JUMP JUMPDEST PUSH2 0xC30 SWAP2 SWAP1 PUSH2 0x14B5 JUMP JUMPDEST SWAP1 POP DUP1 DUP3 PUSH1 0x4 ADD SLOAD PUSH2 0xC42 SWAP2 SWAP1 PUSH2 0x13DE JUMP JUMPDEST PUSH1 0x4 DUP4 DUP2 ADD SWAP2 SWAP1 SWAP2 SSTORE PUSH1 0x2 SLOAD PUSH1 0x40 MLOAD PUSH32 0xA9059CBB00000000000000000000000000000000000000000000000000000000 DUP2 MSTORE PUSH20 0xFFFFFFFFFFFFFFFFFFFFFFFFFFFFFFFFFFFFFFFF DUP7 DUP2 AND SWAP4 DUP3 ADD SWAP4 SWAP1 SWAP4 MSTORE PUSH1 0x24 DUP2 ADD DUP5 SWAP1 MSTORE SWAP2 AND SWAP1 PUSH4 0xA9059CBB SWAP1 PUSH1 0x44 ADD PUSH1 0x20 PUSH1 0x40 MLOAD DUP1 DUP4 SUB DUP2 PUSH1 0x0 DUP8 GAS CALL ISZERO DUP1 ISZERO PUSH2 0xCC5 JUMPI RETURNDATASIZE PUSH1 0x0 DUP1 RETURNDATACOPY RETURNDATASIZE PUSH1 0x0 REVERT JUMPDEST POP POP POP POP PUSH1 0x40 MLOAD RETURNDATASIZE PUSH1 0x1F NOT PUSH1 0x1F DUP3 ADD AND DUP3 ADD DUP1 PUSH1 0x40 MSTORE POP DUP2 ADD SWAP1 PUSH2 0xCE9 SWAP2 SWAP1 PUSH2 0x13F1 JUMP JUMPDEST POP PUSH2 0xCF5 DUP8 PUSH1 0x0 PUSH2 0xE6D JUMP JUMPDEST DUP1 SLOAD PUSH1 0x1 DUP2 ADD DUP3 SSTORE PUSH1 0x0 DUP3 DUP2 MSTORE PUSH1 0x20 SWAP1 KECCAK256 ADD DUP1 SLOAD PUSH32 0xFFFFFFFFFFFFFFFFFFFFFFFF0000000000000000000000000000000000000000 AND PUSH20 0xFFFFFFFFFFFFFFFFFFFFFFFFFFFFFFFFFFFFFFFF DUP10 AND OR SWAP1 SSTORE SWAP7 POP PUSH2 0xD50 DUP4 PUSH2 0x101C JUMP JUMPDEST PUSH1 0x0 DUP6 DUP2 MSTORE PUSH1 0x7 DUP4 ADD PUSH1 0x20 MSTORE PUSH1 0x40 DUP2 KECCAK256 DUP1 SLOAD SWAP2 PUSH2 0xD6C DUP4 PUSH2 0x14F2 JUMP JUMPDEST SWAP1 SWAP2 SSTORE POP POP DUP7 SLOAD PUSH2 0xD83 SWAP1 PUSH1 0x5 DUP7 ADD SWAP1 DUP10 SWAP1 PUSH2 0x1225 JUMP JUMPDEST POP PUSH1 0x1 DUP3 ADD SLOAD DUP3 SLOAD DUP6 SLOAD PUSH1 0x40 DUP1 MLOAD PUSH20 0xFFFFFFFFFFFFFFFFFFFFFFFFFFFFFFFFFFFFFFFF SWAP5 DUP6 AND DUP2 MSTORE SWAP4 SWAP1 SWAP3 AND PUSH1 0x20 DUP5 ADD MSTORE TIMESTAMP SWAP2 DUP4 ADD SWAP2 SWAP1 SWAP2 MSTORE PUSH1 0x60 DUP3 ADD MSTORE PUSH32 0x2496E048EDDA281349E32D9CCB972DE94737D94C958C5D182A0E1ED90602FD9A SWAP1 PUSH1 0x80 ADD JUMPDEST PUSH1 0x40 MLOAD DUP1 SWAP2 SUB SWAP1 LOG1 POP POP POP POP POP POP POP JUMP JUMPDEST PUSH1 0x0 DUP1 SLOAD PUSH20 0xFFFFFFFFFFFFFFFFFFFFFFFFFFFFFFFFFFFFFFFF DUP4 DUP2 AND PUSH32 0xFFFFFFFFFFFFFFFFFFFFFFFF0000000000000000000000000000000000000000 DUP4 AND DUP2 OR DUP5 SSTORE PUSH1 0x40 MLOAD SWAP2 SWAP1 SWAP3 AND SWAP3 DUP4 SWAP2 PUSH32 0x8BE0079C531659141344CD1FD0A4F28419497F9722A3DAAFE3B4186F6B6457E0 SWAP2 SWAP1 LOG3 POP POP JUMP JUMPDEST DUP2 SLOAD PUSH1 0x0 SWAP1 DUP3 LT PUSH2 0xEDA JUMPI PUSH1 0x40 MLOAD PUSH32 0x8C379A000000000000000000000000000000000000000000000000000000000 DUP2 MSTORE PUSH1 0x20 PUSH1 0x4 DUP3 ADD MSTORE PUSH1 0x12 PUSH1 0x24 DUP3 ADD MSTORE PUSH32 0x696E646578206F7574206F6620626F756E640000000000000000000000000000 PUSH1 0x44 DUP3 ADD MSTORE PUSH1 0x64 ADD PUSH2 0x47C JUMP JUMPDEST DUP2 JUMPDEST DUP4 SLOAD PUSH2 0xEEA SWAP1 PUSH1 0x1 SWAP1 PUSH2 0x1527 JUMP JUMPDEST DUP2 LT ISZERO PUSH2 0xFAA JUMPI DUP4 PUSH2 0xEFD DUP3 PUSH1 0x1 PUSH2 0x13DE JUMP JUMPDEST DUP2 SLOAD DUP2 LT PUSH2 0xF0D JUMPI PUSH2 0xF0D PUSH2 0x144B JUMP JUMPDEST SWAP1 PUSH1 0x0 MSTORE PUSH1 0x20 PUSH1 0x0 KECCAK256 ADD PUSH1 0x0 SWAP1 SLOAD SWAP1 PUSH2 0x100 EXP SWAP1 DIV PUSH20 0xFFFFFFFFFFFFFFFFFFFFFFFFFFFFFFFFFFFFFFFF AND DUP5 DUP3 DUP2 SLOAD DUP2 LT PUSH2 0xF4A JUMPI PUSH2 0xF4A PUSH2 0x144B JUMP JUMPDEST PUSH1 0x0 SWAP2 DUP3 MSTORE PUSH1 0x20 SWAP1 SWAP2 KECCAK256 ADD DUP1 SLOAD PUSH32 0xFFFFFFFFFFFFFFFFFFFFFFFF0000000000000000000000000000000000000000 AND PUSH20 0xFFFFFFFFFFFFFFFFFFFFFFFFFFFFFFFFFFFFFFFF SWAP3 SWAP1 SWAP3 AND SWAP2 SWAP1 SWAP2 OR SWAP1 SSTORE DUP1 PUSH2 0xFA2 DUP2 PUSH2 0x1413 JUMP JUMPDEST SWAP2 POP POP PUSH2 0xEDC JUMP JUMPDEST POP DUP3 DUP1 SLOAD DUP1 PUSH2 0xFBB JUMPI PUSH2 0xFBB PUSH2 0x153A JUMP JUMPDEST PUSH1 0x0 DUP3 DUP2 MSTORE PUSH1 0x20 SWAP1 KECCAK256 DUP2 ADD PUSH32 0xFFFFFFFFFFFFFFFFFFFFFFFFFFFFFFFFFFFFFFFFFFFFFFFFFFFFFFFFFFFFFFFF SWAP1 DUP2 ADD DUP1 SLOAD PUSH32 0xFFFFFFFFFFFFFFFFFFFFFFFF0000000000000000000000000000000000000000 AND SWAP1 SSTORE ADD SWAP1 SSTORE POP DUP2 JUMPDEST SWAP3 SWAP2 POP POP JUMP JUMPDEST PUSH20 0xFFFFFFFFFFFFFFFFFFFFFFFFFFFFFFFFFFFFFFFF DUP1 DUP3 AND PUSH1 0x0 SWAP1 DUP2 MSTORE PUSH1 0x3 PUSH1 0x20 SWAP1 DUP2 MSTORE PUSH1 0x40 DUP1 DUP4 KECCAK256 PUSH1 0x1 DUP1 DUP3 ADD SLOAD PUSH1 0x2 DUP4 ADD SLOAD DUP1 DUP8 MSTORE PUSH1 0x4 SWAP1 SWAP6 MSTORE SWAP3 DUP6 KECCAK256 PUSH1 0x5 SLOAD SWAP2 DUP2 ADD SLOAD SWAP3 SWAP7 SWAP4 SWAP1 SWAP4 AND SWAP5 SWAP2 PUSH2 0x1076 SWAP1 PUSH1 0x64 SWAP1 PUSH2 0x147A JUMP JUMPDEST PUSH2 0x1080 SWAP2 SWAP1 PUSH2 0x14B5 JUMP JUMPDEST PUSH1 0x1 DUP7 ADD SLOAD PUSH20 0xFFFFFFFFFFFFFFFFFFFFFFFFFFFFFFFFFFFFFFFF AND PUSH1 0x0 SWAP1 DUP2 MSTORE PUSH1 0x3 PUSH1 0x20 MSTORE PUSH1 0x40 SWAP1 KECCAK256 PUSH1 0x4 DUP2 ADD SLOAD SWAP2 SWAP3 POP SWAP1 PUSH2 0x10BD SWAP1 DUP4 SWAP1 PUSH2 0x13DE JUMP JUMPDEST PUSH1 0x4 DUP3 DUP2 ADD SWAP2 SWAP1 SWAP2 SSTORE PUSH1 0x6 DUP3 ADD DUP1 SLOAD PUSH1 0x1 DUP2 ADD DUP3 SSTORE PUSH1 0x0 SWAP2 DUP3 MSTORE PUSH1 0x20 SWAP1 SWAP2 KECCAK256 ADD DUP1 SLOAD PUSH32 0xFFFFFFFFFFFFFFFFFFFFFFFF0000000000000000000000000000000000000000 AND PUSH20 0xFFFFFFFFFFFFFFFFFFFFFFFFFFFFFFFFFFFFFFFF DUP11 DUP2 AND SWAP2 SWAP1 SWAP2 OR SWAP1 SWAP2 SSTORE PUSH1 0x2 SLOAD PUSH1 0x40 MLOAD PUSH32 0xA9059CBB00000000000000000000000000000000000000000000000000000000 DUP2 MSTORE DUP9 DUP4 AND SWAP4 DUP2 ADD SWAP4 SWAP1 SWAP4 MSTORE PUSH1 0x24 DUP4 ADD DUP6 SWAP1 MSTORE AND SWAP1 PUSH4 0xA9059CBB SWAP1 PUSH1 0x44 ADD PUSH1 0x20 PUSH1 0x40 MLOAD DUP1 DUP4 SUB DUP2 PUSH1 0x0 DUP8 GAS CALL ISZERO DUP1 ISZERO PUSH2 0x1184 JUMPI RETURNDATASIZE PUSH1 0x0 DUP1 RETURNDATACOPY RETURNDATASIZE PUSH1 0x0 REVERT JUMPDEST POP POP POP POP PUSH1 0x40 MLOAD RETURNDATASIZE PUSH1 0x1F NOT PUSH1 0x1F DUP3 ADD AND DUP3 ADD DUP1 PUSH1 0x40 MSTORE POP DUP2 ADD SWAP1 PUSH2 0x11A8 SWAP2 SWAP1 PUSH2 0x13F1 JUMP JUMPDEST POP PUSH1 0x40 DUP1 MLOAD PUSH20 0xFFFFFFFFFFFFFFFFFFFFFFFFFFFFFFFFFFFFFFFF DUP1 DUP9 AND DUP3 MSTORE DUP10 AND PUSH1 0x20 DUP3 ADD MSTORE TIMESTAMP SWAP2 DUP2 ADD SWAP2 SWAP1 SWAP2 MSTORE PUSH1 0x60 DUP2 ADD DUP6 SWAP1 MSTORE PUSH32 0x2496E048EDDA281349E32D9CCB972DE94737D94C958C5D182A0E1ED90602FD9A SWAP1 PUSH1 0x80 ADD PUSH2 0xDE7 JUMP JUMPDEST POP DUP1 SLOAD PUSH1 0x0 DUP3 SSTORE SWAP1 PUSH1 0x0 MSTORE PUSH1 0x20 PUSH1 0x0 KECCAK256 SWAP1 DUP2 ADD SWAP1 PUSH2 0xB32 SWAP2 SWAP1 PUSH2 0x1275 JUMP JUMPDEST DUP3 DUP1 SLOAD DUP3 DUP3 SSTORE SWAP1 PUSH1 0x0 MSTORE PUSH1 0x20 PUSH1 0x0 KECCAK256 SWAP1 DUP2 ADD SWAP3 DUP3 ISZERO PUSH2 0x1265 JUMPI PUSH1 0x0 MSTORE PUSH1 0x20 PUSH1 0x0 KECCAK256 SWAP2 DUP3 ADD JUMPDEST DUP3 DUP2 GT ISZERO PUSH2 0x1265 JUMPI DUP3 SLOAD DUP3 SSTORE SWAP2 PUSH1 0x1 ADD SWAP2 SWAP1 PUSH1 0x1 ADD SWAP1 PUSH2 0x124A JUMP JUMPDEST POP PUSH2 0x1271 SWAP3 SWAP2 POP PUSH2 0x1275 JUMP JUMPDEST POP SWAP1 JUMP JUMPDEST JUMPDEST DUP1 DUP3 GT ISZERO PUSH2 0x1271 JUMPI PUSH1 0x0 DUP2 SSTORE PUSH1 0x1 ADD PUSH2 0x1276 JUMP JUMPDEST PUSH1 0x0 DUP1 PUSH1 0x0 DUP1 PUSH1 0x0 PUSH1 0xA0 DUP7 DUP9 SUB SLT ISZERO PUSH2 0x12A2 JUMPI PUSH1 0x0 DUP1 REVERT JUMPDEST POP POP DUP4 CALLDATALOAD SWAP6 PUSH1 0x20 DUP6 ADD CALLDATALOAD SWAP6 POP PUSH1 0x40 DUP6 ADD CALLDATALOAD SWAP5 PUSH1 0x60 DUP2 ADD CALLDATALOAD SWAP5 POP PUSH1 0x80 ADD CALLDATALOAD SWAP3 POP SWAP1 POP JUMP JUMPDEST DUP1 CALLDATALOAD PUSH20 0xFFFFFFFFFFFFFFFFFFFFFFFFFFFFFFFFFFFFFFFF DUP2 AND DUP2 EQ PUSH2 0x12E9 JUMPI PUSH1 0x0 DUP1 REVERT JUMPDEST SWAP2 SWAP1 POP JUMP JUMPDEST PUSH1 0x0 DUP1 PUSH1 0x40 DUP4 DUP6 SUB SLT ISZERO PUSH2 0x1301 JUMPI PUSH1 0x0 DUP1 REVERT JUMPDEST DUP3 CALLDATALOAD SWAP2 POP PUSH2 0x1311 PUSH1 0x20 DUP5 ADD PUSH2 0x12C5 JUMP JUMPDEST SWAP1 POP SWAP3 POP SWAP3 SWAP1 POP JUMP JUMPDEST PUSH1 0x0 PUSH1 0x20 DUP3 DUP5 SUB SLT ISZERO PUSH2 0x132C JUMPI PUSH1 0x0 DUP1 REVERT JUMPDEST PUSH2 0x1335 DUP3 PUSH2 0x12C5 JUMP JUMPDEST SWAP4 SWAP3 POP POP POP JUMP JUMPDEST PUSH1 0x0 PUSH1 0x20 DUP3 DUP5 SUB SLT ISZERO PUSH2 0x134E JUMPI PUSH1 0x0 DUP1 REVERT JUMPDEST POP CALLDATALOAD SWAP2 SWAP1 POP JUMP JUMPDEST PUSH1 0x20 DUP1 DUP3 MSTORE DUP3 MLOAD DUP3 DUP3 ADD DUP2 SWAP1 MSTORE PUSH1 0x0 SWAP2 SWAP1 DUP5 DUP3 ADD SWAP1 PUSH1 0x40 DUP6 ADD SWAP1 DUP5 JUMPDEST DUP2 DUP2 LT ISZERO PUSH2 0x13A3 JUMPI DUP4 MLOAD PUSH20 0xFFFFFFFFFFFFFFFFFFFFFFFFFFFFFFFFFFFFFFFF AND DUP4 MSTORE SWAP3 DUP5 ADD SWAP3 SWAP2 DUP5 ADD SWAP2 PUSH1 0x1 ADD PUSH2 0x1371 JUMP JUMPDEST POP SWAP1 SWAP7 SWAP6 POP POP POP POP POP POP JUMP JUMPDEST PUSH32 0x4E487B7100000000000000000000000000000000000000000000000000000000 PUSH1 0x0 MSTORE PUSH1 0x11 PUSH1 0x4 MSTORE PUSH1 0x24 PUSH1 0x0 REVERT JUMPDEST DUP1 DUP3 ADD DUP1 DUP3 GT ISZERO PUSH2 0x1016 JUMPI PUSH2 0x1016 PUSH2 0x13AF JUMP JUMPDEST PUSH1 0x0 PUSH1 0x20 DUP3 DUP5 SUB SLT ISZERO PUSH2 0x1403 JUMPI PUSH1 0x0 DUP1 REVERT JUMPDEST DUP2 MLOAD DUP1 ISZERO ISZERO DUP2 EQ PUSH2 0x1335 JUMPI PUSH1 0x0 DUP1 REVERT JUMPDEST PUSH1 0x0 PUSH32 0xFFFFFFFFFFFFFFFFFFFFFFFFFFFFFFFFFFFFFFFFFFFFFFFFFFFFFFFFFFFFFFFF DUP3 SUB PUSH2 0x1444 JUMPI PUSH2 0x1444 PUSH2 0x13AF JUMP JUMPDEST POP PUSH1 0x1 ADD SWAP1 JUMP JUMPDEST PUSH32 0x4E487B7100000000000000000000000000000000000000000000000000000000 PUSH1 0x0 MSTORE PUSH1 0x32 PUSH1 0x4 MSTORE PUSH1 0x24 PUSH1 0x0 REVERT JUMPDEST PUSH1 0x0 DUP3 PUSH2 0x14B0 JUMPI PUSH32 0x4E487B7100000000000000000000000000000000000000000000000000000000 PUSH1 0x0 MSTORE PUSH1 0x12 PUSH1 0x4 MSTORE PUSH1 0x24 PUSH1 0x0 REVERT JUMPDEST POP DIV SWAP1 JUMP JUMPDEST PUSH1 0x0 DUP2 PUSH32 0xFFFFFFFFFFFFFFFFFFFFFFFFFFFFFFFFFFFFFFFFFFFFFFFFFFFFFFFFFFFFFFFF DIV DUP4 GT DUP3 ISZERO ISZERO AND ISZERO PUSH2 0x14ED JUMPI PUSH2 0x14ED PUSH2 0x13AF JUMP JUMPDEST POP MUL SWAP1 JUMP JUMPDEST PUSH1 0x0 DUP2 PUSH2 0x1501 JUMPI PUSH2 0x1501 PUSH2 0x13AF JUMP JUMPDEST POP PUSH32 0xFFFFFFFFFFFFFFFFFFFFFFFFFFFFFFFFFFFFFFFFFFFFFFFFFFFFFFFFFFFFFFFF ADD SWAP1 JUMP JUMPDEST DUP2 DUP2 SUB DUP2 DUP2 GT ISZERO PUSH2 0x1016 JUMPI PUSH2 0x1016 PUSH2 0x13AF JUMP JUMPDEST PUSH32 0x4E487B7100000000000000000000000000000000000000000000000000000000 PUSH1 0x0 MSTORE PUSH1 0x31 PUSH1 0x4 MSTORE PUSH1 0x24 PUSH1 0x0 REVERT INVALID LOG2 PUSH5 0x6970667358 0x22 SLT KECCAK256 OR 0xB1 0xD7 0xB2 0xE9 0xB6 0xA7 SWAP14 CALLDATACOPY SWAP3 0xA9 0xD5 DUP2 SWAP5 PUSH26 0xE40D44B22B2AB083381B71622FDCB1085864736F6C6343000810 STOP CALLER "
        },
        "methodIdentifiers": {
          "ReferallBonusPercent()": "4b70e8e7",
          "Token()": "c2412676",
          "TotalBoughtLevels()": "2d5339e0",
          "buyLevel(uint256,address)": "64e5322a",
          "closeLevelAndSendReward(uint256)": "ab7a6bf1",
          "createNewLvl(uint256,uint256,uint256,uint256,uint256)": "1ce480f3",
          "currentQueueInLevel(uint256)": "e176ce0a",
          "levels(uint256)": "b2596a67",
          "owner()": "8da5cb5b",
          "renounceOwnership()": "715018a6",
          "transferOwnership(address)": "f2fde38b",
          "users(address)": "a87430ba"
        }
      },
      "storageLayout": {
        "storage": [
          {
            "astId": 7,
            "contract": "contracts/SkyMoney.sol:SkyMoney",
            "label": "_owner",
            "offset": 0,
            "slot": "0",
            "type": "t_address"
          },
          {
            "astId": 123,
            "contract": "contracts/SkyMoney.sol:SkyMoney",
            "label": "_status",
            "offset": 0,
            "slot": "1",
            "type": "t_uint256"
          },
          {
            "astId": 1521,
            "contract": "contracts/SkyMoney.sol:SkyMoney",
            "label": "Token",
            "offset": 0,
            "slot": "2",
            "type": "t_contract(IERC20)816"
          },
          {
            "astId": 1526,
            "contract": "contracts/SkyMoney.sol:SkyMoney",
            "label": "users",
            "offset": 0,
            "slot": "3",
            "type": "t_mapping(t_address,t_struct(User)1504_storage)"
          },
          {
            "astId": 1531,
            "contract": "contracts/SkyMoney.sol:SkyMoney",
            "label": "levels",
            "offset": 0,
            "slot": "4",
            "type": "t_mapping(t_uint256,t_struct(Level)1518_storage)"
          },
          {
            "astId": 1534,
            "contract": "contracts/SkyMoney.sol:SkyMoney",
            "label": "ReferallBonusPercent",
            "offset": 0,
            "slot": "5",
            "type": "t_uint256"
          },
          {
            "astId": 1536,
            "contract": "contracts/SkyMoney.sol:SkyMoney",
            "label": "TotalBoughtLevels",
            "offset": 0,
            "slot": "6",
            "type": "t_uint256"
          }
        ],
        "types": {
          "t_address": {
            "encoding": "inplace",
            "label": "address",
            "numberOfBytes": "20"
          },
          "t_array(t_address)dyn_storage": {
            "base": "t_address",
            "encoding": "dynamic_array",
            "label": "address[]",
            "numberOfBytes": "32"
          },
          "t_contract(IERC20)816": {
            "encoding": "inplace",
            "label": "contract IERC20",
            "numberOfBytes": "20"
          },
          "t_mapping(t_address,t_struct(User)1504_storage)": {
            "encoding": "mapping",
            "key": "t_address",
            "label": "mapping(address => struct SkyMoney.User)",
            "numberOfBytes": "32",
            "value": "t_struct(User)1504_storage"
          },
          "t_mapping(t_uint256,t_struct(Level)1518_storage)": {
            "encoding": "mapping",
            "key": "t_uint256",
            "label": "mapping(uint256 => struct SkyMoney.Level)",
            "numberOfBytes": "32",
            "value": "t_struct(Level)1518_storage"
          },
          "t_mapping(t_uint256,t_uint256)": {
            "encoding": "mapping",
            "key": "t_uint256",
            "label": "mapping(uint256 => uint256)",
            "numberOfBytes": "32",
            "value": "t_uint256"
          },
          "t_struct(Level)1518_storage": {
            "encoding": "inplace",
            "label": "struct SkyMoney.Level",
            "members": [
              {
                "astId": 1506,
                "contract": "contracts/SkyMoney.sol:SkyMoney",
                "label": "numberLvl",
                "offset": 0,
                "slot": "0",
                "type": "t_uint256"
              },
              {
                "astId": 1508,
                "contract": "contracts/SkyMoney.sol:SkyMoney",
                "label": "priceToStart",
                "offset": 0,
                "slot": "1",
                "type": "t_uint256"
              },
              {
                "astId": 1510,
                "contract": "contracts/SkyMoney.sol:SkyMoney",
                "label": "refillCount",
                "offset": 0,
                "slot": "2",
                "type": "t_uint256"
              },
              {
                "astId": 1512,
                "contract": "contracts/SkyMoney.sol:SkyMoney",
                "label": "refillPercent",
                "offset": 0,
                "slot": "3",
                "type": "t_uint256"
              },
              {
                "astId": 1514,
                "contract": "contracts/SkyMoney.sol:SkyMoney",
                "label": "MaxCountToBuyLevelSingleAddress",
                "offset": 0,
                "slot": "4",
                "type": "t_uint256"
              },
              {
                "astId": 1517,
                "contract": "contracts/SkyMoney.sol:SkyMoney",
                "label": "currentLvlLine",
                "offset": 0,
                "slot": "5",
                "type": "t_array(t_address)dyn_storage"
              }
            ],
            "numberOfBytes": "192"
          },
          "t_struct(User)1504_storage": {
            "encoding": "inplace",
            "label": "struct SkyMoney.User",
            "members": [
              {
                "astId": 1486,
                "contract": "contracts/SkyMoney.sol:SkyMoney",
                "label": "user",
                "offset": 0,
                "slot": "0",
                "type": "t_address"
              },
              {
                "astId": 1488,
                "contract": "contracts/SkyMoney.sol:SkyMoney",
                "label": "referral",
                "offset": 0,
                "slot": "1",
                "type": "t_address"
              },
              {
                "astId": 1490,
                "contract": "contracts/SkyMoney.sol:SkyMoney",
                "label": "currentlvl",
                "offset": 0,
                "slot": "2",
                "type": "t_uint256"
              },
              {
                "astId": 1492,
                "contract": "contracts/SkyMoney.sol:SkyMoney",
                "label": "deposited",
                "offset": 0,
                "slot": "3",
                "type": "t_uint256"
              },
              {
                "astId": 1494,
                "contract": "contracts/SkyMoney.sol:SkyMoney",
                "label": "earned",
                "offset": 0,
                "slot": "4",
                "type": "t_uint256"
              },
              {
                "astId": 1496,
                "contract": "contracts/SkyMoney.sol:SkyMoney",
                "label": "countOfBuyingLevels",
                "offset": 0,
                "slot": "5",
                "type": "t_uint256"
              },
              {
                "astId": 1499,
                "contract": "contracts/SkyMoney.sol:SkyMoney",
                "label": "referals",
                "offset": 0,
                "slot": "6",
                "type": "t_array(t_address)dyn_storage"
              },
              {
                "astId": 1503,
                "contract": "contracts/SkyMoney.sol:SkyMoney",
                "label": "countInLevel",
                "offset": 0,
                "slot": "7",
                "type": "t_mapping(t_uint256,t_uint256)"
              }
            ],
            "numberOfBytes": "256"
          },
          "t_uint256": {
            "encoding": "inplace",
            "label": "uint256",
            "numberOfBytes": "32"
          }
        }
      }
    }
  }
}