{
    "contractName": "SkyMoney",
    "abi": [
        {
            "inputs": [
                {
                    "internalType": "contract IERC20",
                    "name": "token_",
                    "type": "address"
                },
                {
                    "internalType": "address",
                    "name": "owner_",
                    "type": "address"
                }
            ],
            "stateMutability": "nonpayable",
            "type": "constructor"
        },
        {
            "anonymous": false,
            "inputs": [
                {
                    "indexed": false,
                    "internalType": "uint256",
                    "name": "LevelNumber",
                    "type": "uint256"
                },
                {
                    "indexed": false,
                    "internalType": "uint256",
                    "name": "PriseToStart",
                    "type": "uint256"
                },
                {
                    "indexed": false,
                    "internalType": "uint256",
                    "name": "RefillCount",
                    "type": "uint256"
                },
                {
                    "indexed": false,
                    "internalType": "uint256",
                    "name": "RefillPercent",
                    "type": "uint256"
                },
                {
                    "indexed": false,
                    "internalType": "uint256",
                    "name": "MaxCountForSingleAddress",
                    "type": "uint256"
                },
                {
                    "indexed": false,
                    "internalType": "uint256",
                    "name": "Time",
                    "type": "uint256"
                }
            ],
            "name": "CreatedNewLevel",
            "type": "event"
        },
        {
            "anonymous": false,
            "inputs": [
                {
                    "indexed": false,
                    "internalType": "address",
                    "name": "User",
                    "type": "address"
                },
                {
                    "indexed": false,
                    "internalType": "uint256",
                    "name": "Time",
                    "type": "uint256"
                },
                {
                    "indexed": false,
                    "internalType": "uint256",
                    "name": "amount",
                    "type": "uint256"
                },
                {
                    "indexed": false,
                    "internalType": "uint256",
                    "name": "LevelNumber",
                    "type": "uint256"
                }
            ],
            "name": "EmergencyWithdraw",
            "type": "event"
        },
        {
            "anonymous": false,
            "inputs": [
                {
                    "indexed": false,
                    "internalType": "uint256",
                    "name": "LevelNumber",
                    "type": "uint256"
                },
                {
                    "indexed": false,
                    "internalType": "uint256",
                    "name": "Time",
                    "type": "uint256"
                },
                {
                    "indexed": false,
                    "internalType": "address",
                    "name": "User",
                    "type": "address"
                }
            ],
            "name": "LevelBought",
            "type": "event"
        },
        {
            "anonymous": false,
            "inputs": [
                {
                    "indexed": true,
                    "internalType": "address",
                    "name": "previousOwner",
                    "type": "address"
                },
                {
                    "indexed": true,
                    "internalType": "address",
                    "name": "newOwner",
                    "type": "address"
                }
            ],
            "name": "OwnershipTransferred",
            "type": "event"
        },
        {
            "anonymous": false,
            "inputs": [
                {
                    "indexed": false,
                    "internalType": "address",
                    "name": "account",
                    "type": "address"
                }
            ],
            "name": "Paused",
            "type": "event"
        },
        {
            "anonymous": false,
            "inputs": [
                {
                    "indexed": false,
                    "internalType": "address",
                    "name": "Referall",
                    "type": "address"
                },
                {
                    "indexed": false,
                    "internalType": "address",
                    "name": "User",
                    "type": "address"
                },
                {
                    "indexed": false,
                    "internalType": "uint256",
                    "name": "Time",
                    "type": "uint256"
                },
                {
                    "indexed": false,
                    "internalType": "uint256",
                    "name": "LevelNumber",
                    "type": "uint256"
                }
            ],
            "name": "ReferallGetBonus",
            "type": "event"
        },
        {
            "anonymous": false,
            "inputs": [
                {
                    "indexed": false,
                    "internalType": "address",
                    "name": "account",
                    "type": "address"
                }
            ],
            "name": "Unpaused",
            "type": "event"
        },
        {
            "stateMutability": "nonpayable",
            "type": "fallback"
        },
        {
            "inputs": [],
            "name": "ReferallBonusPercent",
            "outputs": [
                {
                    "internalType": "uint256",
                    "name": "",
                    "type": "uint256"
                }
            ],
            "stateMutability": "view",
            "type": "function"
        },
        {
            "inputs": [],
            "name": "Token",
            "outputs": [
                {
                    "internalType": "contract IERC20",
                    "name": "",
                    "type": "address"
                }
            ],
            "stateMutability": "view",
            "type": "function"
        },
        {
            "inputs": [],
            "name": "TotalBoughtLevels",
            "outputs": [
                {
                    "internalType": "uint256",
                    "name": "",
                    "type": "uint256"
                }
            ],
            "stateMutability": "view",
            "type": "function"
        },
        {
            "inputs": [
                {
                    "internalType": "uint256",
                    "name": "buyLvl",
                    "type": "uint256"
                },
                {
                    "internalType": "address",
                    "name": "_refferal",
                    "type": "address"
                }
            ],
            "name": "buyLevel",
            "outputs": [],
            "stateMutability": "nonpayable",
            "type": "function"
        },
        {
            "inputs": [
                {
                    "internalType": "uint256",
                    "name": "_level",
                    "type": "uint256"
                },
                {
                    "internalType": "uint256",
                    "name": "_count",
                    "type": "uint256"
                }
            ],
            "name": "changeMaxCountBuyLevel",
            "outputs": [
                {
                    "internalType": "uint256",
                    "name": "",
                    "type": "uint256"
                }
            ],
            "stateMutability": "nonpayable",
            "type": "function"
        },
        {
            "inputs": [
                {
                    "internalType": "uint256",
                    "name": "percent",
                    "type": "uint256"
                }
            ],
            "name": "changeReferallPercent",
            "outputs": [
                {
                    "internalType": "uint256",
                    "name": "",
                    "type": "uint256"
                }
            ],
            "stateMutability": "nonpayable",
            "type": "function"
        },
        {
            "inputs": [
                {
                    "internalType": "contract IERC20",
                    "name": "_token",
                    "type": "address"
                }
            ],
            "name": "changeToken",
            "outputs": [],
            "stateMutability": "nonpayable",
            "type": "function"
        },
        {
            "inputs": [
                {
                    "internalType": "uint256",
                    "name": "_level",
                    "type": "uint256"
                }
            ],
            "name": "closeLevelAndSendReward",
            "outputs": [],
            "stateMutability": "nonpayable",
            "type": "function"
        },
        {
            "inputs": [
                {
                    "internalType": "uint256",
                    "name": "_numberLvl",
                    "type": "uint256"
                },
                {
                    "internalType": "uint256",
                    "name": "_priceStart",
                    "type": "uint256"
                },
                {
                    "internalType": "uint256",
                    "name": "_refillCount",
                    "type": "uint256"
                },
                {
                    "internalType": "uint256",
                    "name": "_refillPercent",
                    "type": "uint256"
                },
                {
                    "internalType": "uint256",
                    "name": "_maxCount",
                    "type": "uint256"
                }
            ],
            "name": "createNewLvl",
            "outputs": [
                {
                    "internalType": "uint256",
                    "name": "",
                    "type": "uint256"
                }
            ],
            "stateMutability": "nonpayable",
            "type": "function"
        },
        {
            "inputs": [
                {
                    "internalType": "uint256",
                    "name": "levelNumber",
                    "type": "uint256"
                }
            ],
            "name": "currentQueueInLevel",
            "outputs": [
                {
                    "internalType": "address[]",
                    "name": "",
                    "type": "address[]"
                }
            ],
            "stateMutability": "view",
            "type": "function"
        },
        {
            "inputs": [
                {
                    "internalType": "address",
                    "name": "_user",
                    "type": "address"
                }
            ],
            "name": "getLevel",
            "outputs": [
                {
                    "internalType": "address",
                    "name": "",
                    "type": "address"
                },
                {
                    "internalType": "uint256",
                    "name": "",
                    "type": "uint256"
                },
                {
                    "internalType": "uint256",
                    "name": "",
                    "type": "uint256"
                },
                {
                    "internalType": "uint256",
                    "name": "",
                    "type": "uint256"
                },
                {
                    "internalType": "uint256",
                    "name": "",
                    "type": "uint256"
                },
                {
                    "internalType": "address[]",
                    "name": "",
                    "type": "address[]"
                }
            ],
            "stateMutability": "view",
            "type": "function"
        },
        {
            "inputs": [
                {
                    "internalType": "uint256",
                    "name": "_level",
                    "type": "uint256"
                }
            ],
            "name": "getLevel",
            "outputs": [
                {
                    "internalType": "uint256",
                    "name": "",
                    "type": "uint256"
                },
                {
                    "internalType": "uint256",
                    "name": "",
                    "type": "uint256"
                },
                {
                    "internalType": "uint256",
                    "name": "",
                    "type": "uint256"
                },
                {
                    "internalType": "uint256",
                    "name": "",
                    "type": "uint256"
                },
                {
                    "internalType": "address[]",
                    "name": "",
                    "type": "address[]"
                }
            ],
            "stateMutability": "view",
            "type": "function"
        },
        {
            "inputs": [
                {
                    "internalType": "uint256",
                    "name": "",
                    "type": "uint256"
                }
            ],
            "name": "levels",
            "outputs": [
                {
                    "internalType": "uint256",
                    "name": "numberLvl",
                    "type": "uint256"
                },
                {
                    "internalType": "uint256",
                    "name": "priceToStart",
                    "type": "uint256"
                },
                {
                    "internalType": "uint256",
                    "name": "refillCount",
                    "type": "uint256"
                },
                {
                    "internalType": "uint256",
                    "name": "refillPercent",
                    "type": "uint256"
                },
                {
                    "internalType": "uint256",
                    "name": "MaxCountToBuyLevelSingleAddress",
                    "type": "uint256"
                }
            ],
            "stateMutability": "view",
            "type": "function"
        },
        {
            "inputs": [],
            "name": "owner",
            "outputs": [
                {
                    "internalType": "address",
                    "name": "",
                    "type": "address"
                }
            ],
            "stateMutability": "view",
            "type": "function"
        },
        {
            "inputs": [],
            "name": "paused",
            "outputs": [
                {
                    "internalType": "bool",
                    "name": "",
                    "type": "bool"
                }
            ],
            "stateMutability": "view",
            "type": "function"
        },
        {
            "inputs": [],
            "name": "renounceOwnership",
            "outputs": [],
            "stateMutability": "nonpayable",
            "type": "function"
        },
        {
            "inputs": [
                {
                    "internalType": "address",
                    "name": "newOwner",
                    "type": "address"
                }
            ],
            "name": "transferOwnership",
            "outputs": [],
            "stateMutability": "nonpayable",
            "type": "function"
        },
        {
            "inputs": [
                {
                    "internalType": "address",
                    "name": "",
                    "type": "address"
                }
            ],
            "name": "users",
            "outputs": [
                {
                    "internalType": "address",
                    "name": "user",
                    "type": "address"
                },
                {
                    "internalType": "address",
                    "name": "referral",
                    "type": "address"
                },
                {
                    "internalType": "uint256",
                    "name": "currentlvl",
                    "type": "uint256"
                },
                {
                    "internalType": "uint256",
                    "name": "deposited",
                    "type": "uint256"
                },
                {
                    "internalType": "uint256",
                    "name": "earned",
                    "type": "uint256"
                },
                {
                    "internalType": "uint256",
                    "name": "countOfBuyingLevels",
                    "type": "uint256"
                }
            ],
            "stateMutability": "view",
            "type": "function"
        },
        {
            "inputs": [
                {
                    "internalType": "address",
                    "name": "token",
                    "type": "address"
                },
                {
                    "internalType": "uint256",
                    "name": "amount",
                    "type": "uint256"
                }
            ],
            "name": "witdhraw",
            "outputs": [],
            "stateMutability": "nonpayable",
            "type": "function"
        },
        {
            "stateMutability": "payable",
            "type": "receive"
        }
    ],
    "bytecode": "6080604052600a6005553480156200001657600080fd5b5060405162001ad938038062001ad98339810160408190526200003991620003bd565b62000044336200017e565b60018055600280546001600160a81b0319166101006001600160a01b038516021790556200007281620001ce565b6200008e600068022b1c8c1227a00000600360c8600262000251565b50620000aa60016804e1003b28d9280000600460968362000251565b50620000c7600268093739534d28680000600460af600162000251565b50620000e46003680ea300b17a8b780000600560c8600162000251565b50620001016004681b1ae4d6e2ef500000600560e1600162000251565b506200011d60056830ca024f987b9000008160fa600162000251565b506200013b6006685150ae84a8cdf000006005610113600162000251565b50620001586007686c6b935b8bbd4000008161012c600162000251565b5062000175600868a2a15d09519be0000081610145600162000251565b505050620003fc565b600080546001600160a01b038381166001600160a01b0319831681178455604051919092169283917f8be0079c531659141344cd1fd0a4f28419497f9722a3daafe3b4186f6b6457e09190a35050565b620001d8620002f5565b6001600160a01b038116620002435760405162461bcd60e51b815260206004820152602660248201527f4f776e61626c653a206e6577206f776e657220697320746865207a65726f206160448201526564647265737360d01b60648201526084015b60405180910390fd5b6200024e816200017e565b50565b60006200025d620002f5565b6200026762000353565b600086815260046020818152604092839020898155600181018990556002810188905560038101879055918201859055825189815290810188905291820186905260608201859052608082018490524260a0830152907f8facac00b97205d28ced8b122d640abfdf7aedc107b011a3009fd0910500925c9060c00160405180910390a1509495945050505050565b6000546001600160a01b03163314620003515760405162461bcd60e51b815260206004820181905260248201527f4f776e61626c653a2063616c6c6572206973206e6f7420746865206f776e657260448201526064016200023a565b565b60025460ff16620003515760405162461bcd60e51b815260206004820152601460248201527f5061757361626c653a206e6f742070617573656400000000000000000000000060448201526064016200023a565b6001600160a01b03811681146200024e57600080fd5b60008060408385031215620003d157600080fd5b8251620003de81620003a7565b6020840151909250620003f181620003a7565b809150509250929050565b6116cd806200040c6000396000f3fe6080604052600436106101185760003560e01c8063817c8966116100a0578063ab7a6bf111610064578063ab7a6bf11461038e578063b2596a67146103ae578063c241267614610421578063e176ce0a14610446578063f2fde38b146104735761011f565b8063817c896614610244578063855b42831461027657806386481d40146102965780638da5cb5b146102c7578063a87430ba146102f95761011f565b80635c975abb116100e75780635c975abb146101ac57806364e5322a146101cf57806366829b16146101ef578063715018a61461020f57806377a58415146102245761011f565b80631ce480f31461012d5780632d5339e01461016057806344b0d9d8146101765780634b70e8e7146101965761011f565b3661011f57005b34801561012b57600080fd5b005b34801561013957600080fd5b5061014d6101483660046113bf565b610493565b6040519081526020015b60405180910390f35b34801561016c57600080fd5b5061014d60065481565b34801561018257600080fd5b5061014d6101913660046113fa565b610533565b3480156101a257600080fd5b5061014d60055481565b3480156101b857600080fd5b5060025460ff166040519015158152602001610157565b3480156101db57600080fd5b5061012b6101ea366004611431565b610563565b3480156101fb57600080fd5b5061012b61020a366004611461565b6108d6565b34801561021b57600080fd5b5061012b61090e565b34801561023057600080fd5b5061012b61023f366004611485565b610922565b34801561025057600080fd5b5061026461025f366004611461565b6109a0565b604051610157969594939291906114f5565b34801561028257600080fd5b5061014d61029136600461153a565b610a75565b3480156102a257600080fd5b506102b66102b136600461153a565b610a90565b604051610157959493929190611553565b3480156102d357600080fd5b506000546001600160a01b03165b6040516001600160a01b039091168152602001610157565b34801561030557600080fd5b50610356610314366004611461565b60036020819052600091825260409091208054600182015460028301549383015460048401546005909401546001600160a01b03938416959390921693909186565b604080516001600160a01b039788168152969095166020870152938501929092526060840152608083015260a082015260c001610157565b34801561039a57600080fd5b5061012b6103a936600461153a565b610b37565b3480156103ba57600080fd5b506103f96103c936600461153a565b60046020819052600091825260409091208054600182015460028301546003840154939094015491939092909185565b604080519586526020860194909452928401919091526060830152608082015260a001610157565b34801561042d57600080fd5b506002546102e19061010090046001600160a01b031681565b34801561045257600080fd5b5061046661046136600461153a565b610c89565b6040516101579190611589565b34801561047f57600080fd5b5061012b61048e366004611461565b610cfb565b600061049d610d74565b6104a5610dce565b600086815260046020818152604092839020898155600181018990556002810188905560038101879055918201859055825189815290810188905291820186905260608201859052608082018490524260a0830152907f8facac00b97205d28ced8b122d640abfdf7aedc107b011a3009fd0910500925c9060c00160405180910390a1509495945050505050565b600061053d610d74565b610545610dce565b50600082815260046020819052604090912001819055805b92915050565b6002600154036105ba5760405162461bcd60e51b815260206004820152601f60248201527f5265656e7472616e637947756172643a207265656e7472616e742063616c6c0060448201526064015b60405180910390fd5b60026001556105c7610e17565b3360009081526003602090815260408083208584526004909252822090916001600160a01b03841690036106595760405162461bcd60e51b815260206004820152603360248201527f696620796f7520646f6e74206861766520726566666572616c2061646472657360448201527239903ab9b29030b2323932b9b99037bbb732b960691b60648201526084016105b1565b600182810180546001600160a01b0319166001600160a01b0386161790556002830154859161068891906115b2565b10156106d65760405162461bcd60e51b815260206004820152601d60248201527f596f75206e65656420746f20627579206561726c696572206c6576656c00000060448201526064016105b1565b60025460018201546040516323b872dd60e01b815233600482015230602482015260448101919091526101009091046001600160a01b0316906323b872dd906064016020604051808303816000875af1158015610737573d6000803e3d6000fd5b505050506040513d601f19601f8201168201806040525081019061075b91906115c5565b5060028201849055600181015460038301805460009061077c9084906115b2565b909155505081546001600160a01b031916331782556005820180549060006107a3836115e7565b9091555050600084815260078301602052604081208054916107c4836115e7565b909155505060048101546000858152600784016020526040902054111561082d5760405162461bcd60e51b815260206004820181905260248201527f596f752063616e7420627579206d6f72652074686973206c6576656c2079657460448201526064016105b1565b6005810180546002830154036108505761084b826005013387610e5d565b610878565b600582018054600181018255600091825260209091200180546001600160a01b031916331790555b60068054906000610888836115e7565b909155505060408051868152426020820152338183015290517f67b7c39dce5fa35f6a4cbe6ec721b5782cc6b7699bec93ff0cd066a22a899b399181900360600190a1505060018055505050565b6108de610d74565b6108e6610dce565b600280546001600160a01b0390921661010002610100600160a81b0319909216919091179055565b610916610d74565b6109206000611041565b565b61092a610d74565b60405163a9059cbb60e01b8152336004820152602481018290526001600160a01b0383169063a9059cbb906044016020604051808303816000875af1158015610977573d6000803e3d6000fd5b505050506040513d601f19601f8201168201806040525081019061099b91906115c5565b505050565b60008060008060006060600060036000896001600160a01b03166001600160a01b0316815260200190815260200160002090508060010160009054906101000a90046001600160a01b031681600201548260030154836004015484600501548560060180805480602002602001604051908101604052809291908181526020018280548015610a5857602002820191906000526020600020905b81546001600160a01b03168152600190910190602001808311610a3a575b505050505090509650965096509650965096505091939550919395565b6000610a7f610d74565b610a87610dce565b50600581905590565b6000806000806060600060046000888152602001908152602001600020905080600101548160020154826003015483600401548460050180805480602002602001604051908101604052809291908181526020018280548015610b1c57602002820191906000526020600020905b81546001600160a01b03168152600190910190602001808311610afe575b50505050509050955095509550955095505091939590929450565b610b3f610d74565b610b47610dce565b60008181526004602052604081209060058201815b8154811015610c7457818181548110610b7757610b77611600565b600091825260209091200154600254600186015460405163a9059cbb60e01b81526001600160a01b039384166004820181905260248201929092529095506101009091049091169063a9059cbb906044016020604051808303816000875af1158015610be7573d6000803e3d6000fd5b505050506040513d601f19601f82011682018060405250810190610c0b91906115c5565b5060018401548454604080516001600160a01b03871681524260208201529081019290925260608201527f2369db1bafee945aee5630782f4a170682e3f8188d8dc247a4c73eb8c9e692d29060800160405180910390a180610c6c816115e7565b915050610b5c565b50610c8360058401600061133c565b50505050565b6000818152600460209081526040918290206005810180548451818502810185019095528085526060949293830182828015610cee57602002820191906000526020600020905b81546001600160a01b03168152600190910190602001808311610cd0575b5050505050915050919050565b610d03610d74565b6001600160a01b038116610d685760405162461bcd60e51b815260206004820152602660248201527f4f776e61626c653a206e6577206f776e657220697320746865207a65726f206160448201526564647265737360d01b60648201526084016105b1565b610d7181611041565b50565b6000546001600160a01b031633146109205760405162461bcd60e51b815260206004820181905260248201527f4f776e61626c653a2063616c6c6572206973206e6f7420746865206f776e657260448201526064016105b1565b60025460ff166109205760405162461bcd60e51b815260206004820152601460248201527314185d5cd8589b194e881b9bdd081c185d5cd95960621b60448201526064016105b1565b60025460ff16156109205760405162461bcd60e51b815260206004820152601060248201526f14185d5cd8589b194e881c185d5cd95960821b60448201526064016105b1565b6000818152600460205260408120845490919085908290610e8057610e80611600565b60009182526020808320909101546001600160a01b03168083526003918290526040832091850154600186015491945091929190610ec090606490611616565b610eca9190611638565b9050808260040154610edc91906115b2565b60048381019190915560025460405163a9059cbb60e01b81526001600160a01b0386811693820193909352602481018490526101009091049091169063a9059cbb906044016020604051808303816000875af1158015610f40573d6000803e3d6000fd5b505050506040513d601f19601f82011682018060405250810190610f6491906115c5565b50610f70876000611091565b80546001810182556000828152602090200180546001600160a01b0319166001600160a01b0389161790559650610fa6836111b1565b60008581526007830160205260408120805491610fc283611657565b90915550508654610fd9906005860190899061135a565b50600182015482548554604080516001600160a01b039485168152939092166020840152429183019190915260608201527f2496e048edda281349e32d9ccb972de94737d94c958c5d182a0e1ed90602fd9a906080015b60405180910390a150505050505050565b600080546001600160a01b038381166001600160a01b0319831681178455604051919092169283917f8be0079c531659141344cd1fd0a4f28419497f9722a3daafe3b4186f6b6457e09190a35050565b815460009082106110d95760405162461bcd60e51b81526020600482015260126024820152711a5b99195e081bdd5d081bd988189bdd5b9960721b60448201526064016105b1565b815b83546110e99060019061166e565b81101561117757836110fc8260016115b2565b8154811061110c5761110c611600565b9060005260206000200160009054906101000a90046001600160a01b031684828154811061113c5761113c611600565b600091825260209091200180546001600160a01b0319166001600160a01b03929092169190911790558061116f816115e7565b9150506110db565b508280548061118857611188611681565b600082815260209020600019908201810180546001600160a01b03191690550190555090919050565b6001600160a01b038082166000908152600360209081526040808320600180820154600283015480875260049095529285206005549181015492969390931694916111fe90606490611616565b6112089190611638565b60018601546001600160a01b031660009081526003602052604090206004810154919250906112389083906115b2565b600482810191909155600682018054600181018255600091825260209091200180546001600160a01b0319166001600160a01b038a81169190911790915560025460405163a9059cbb60e01b815288831693810193909352602483018590526101009004169063a9059cbb906044016020604051808303816000875af11580156112c6573d6000803e3d6000fd5b505050506040513d601f19601f820116820180604052508101906112ea91906115c5565b50604080516001600160a01b038088168252891660208201524291810191909152606081018590527f2496e048edda281349e32d9ccb972de94737d94c958c5d182a0e1ed90602fd9a90608001611030565b5080546000825590600052602060002090810190610d7191906113aa565b82805482825590600052602060002090810192821561139a5760005260206000209182015b8281111561139a57825482559160010191906001019061137f565b506113a69291506113aa565b5090565b5b808211156113a657600081556001016113ab565b600080600080600060a086880312156113d757600080fd5b505083359560208501359550604085013594606081013594506080013592509050565b6000806040838503121561140d57600080fd5b50508035926020909101359150565b6001600160a01b0381168114610d7157600080fd5b6000806040838503121561144457600080fd5b8235915060208301356114568161141c565b809150509250929050565b60006020828403121561147357600080fd5b813561147e8161141c565b9392505050565b6000806040838503121561149857600080fd5b82356114a38161141c565b946020939093013593505050565b600081518084526020808501945080840160005b838110156114ea5781516001600160a01b0316875295820195908201906001016114c5565b509495945050505050565b60018060a01b038716815285602082015284604082015283606082015282608082015260c060a0820152600061152e60c08301846114b1565b98975050505050505050565b60006020828403121561154c57600080fd5b5035919050565b85815284602082015283604082015282606082015260a06080820152600061157e60a08301846114b1565b979650505050505050565b60208152600061147e60208301846114b1565b634e487b7160e01b600052601160045260246000fd5b8082018082111561055d5761055d61159c565b6000602082840312156115d757600080fd5b8151801515811461147e57600080fd5b6000600182016115f9576115f961159c565b5060010190565b634e487b7160e01b600052603260045260246000fd5b60008261163357634e487b7160e01b600052601260045260246000fd5b500490565b60008160001904831182151516156116525761165261159c565b500290565b6000816116665761166661159c565b506000190190565b8181038181111561055d5761055d61159c565b634e487b7160e01b600052603160045260246000fdfea2646970667358221220e6f30e69bc7d0d776f3dc477c71b12d56c8e411a64ddb081b7251db29234b42764736f6c63430008100033",
    "sourcePath": "c:/Users/kolam/Desktop/expressgame/contracts/Skymoney.sol",
    "compiler": {
        "name": "solc",
        "version": "0.8.16+commit.07a7930e"
    },
    "functionHashes": {
        "ReferallBonusPercent()": "4b70e8e7",
        "Token()": "c2412676",
        "TotalBoughtLevels()": "2d5339e0",
        "buyLevel(uint256,address)": "64e5322a",
        "changeMaxCountBuyLevel(uint256,uint256)": "44b0d9d8",
        "changeReferallPercent(uint256)": "855b4283",
        "changeToken(address)": "66829b16",
        "closeLevelAndSendReward(uint256)": "ab7a6bf1",
        "createNewLvl(uint256,uint256,uint256,uint256,uint256)": "1ce480f3",
        "currentQueueInLevel(uint256)": "e176ce0a",
        "getLevel(address)": "817c8966",
        "getLevel(uint256)": "86481d40",
        "levels(uint256)": "b2596a67",
        "owner()": "8da5cb5b",
        "paused()": "5c975abb",
        "renounceOwnership()": "715018a6",
        "transferOwnership(address)": "f2fde38b",
        "users(address)": "a87430ba",
        "witdhraw(address,uint256)": "77a58415"
    },
    "gasEstimates": {
        "creation": {
            "codeDepositCost": "1167400",
            "executionCost": "infinite",
            "totalCost": "infinite"
        },
        "external": {
            "": "224",
            "ReferallBonusPercent()": "2374",
            "Token()": "2414",
            "TotalBoughtLevels()": "2330",
            "buyLevel(uint256,address)": "infinite",
            "changeMaxCountBuyLevel(uint256,uint256)": "infinite",
            "changeReferallPercent(uint256)": "infinite",
            "changeToken(address)": "infinite",
            "closeLevelAndSendReward(uint256)": "infinite",
            "createNewLvl(uint256,uint256,uint256,uint256,uint256)": "infinite",
            "currentQueueInLevel(uint256)": "infinite",
            "getLevel(address)": "infinite",
            "getLevel(uint256)": "infinite",
            "levels(uint256)": "11032",
            "owner()": "2409",
            "paused()": "2315",
            "renounceOwnership()": "infinite",
            "transferOwnership(address)": "infinite",
            "users(address)": "13352",
            "witdhraw(address,uint256)": "infinite"
        },
        "internal": {
            "_remove(address[] storage pointer,uint256)": "infinite",
            "_sendPaymentAndPushInQueue(address[] storage pointer,address,uint256)": "infinite",
            "_sendToRefferalPercent(address)": "infinite",
            "pause()": "infinite",
            "unpause()": "infinite"
        }
    }
}