{
    "contractName": "SkyMoney",
    "abi": [
        {
            "inputs": [
                {
                    "internalType": "contract IERC20",
                    "name": "token_",
                    "type": "address"
                },
                {
                    "internalType": "address",
                    "name": "owner_",
                    "type": "address"
                }
            ],
            "stateMutability": "nonpayable",
            "type": "constructor"
        },
        {
            "anonymous": false,
            "inputs": [
                {
                    "indexed": false,
                    "internalType": "uint256",
                    "name": "LevelNumber",
                    "type": "uint256"
                },
                {
                    "indexed": false,
                    "internalType": "uint256",
                    "name": "PriseToStart",
                    "type": "uint256"
                },
                {
                    "indexed": false,
                    "internalType": "uint256",
                    "name": "RefillCount",
                    "type": "uint256"
                },
                {
                    "indexed": false,
                    "internalType": "uint256",
                    "name": "RefillPercent",
                    "type": "uint256"
                },
                {
                    "indexed": false,
                    "internalType": "uint256",
                    "name": "Time",
                    "type": "uint256"
                }
            ],
            "name": "CreatedNewLevel",
            "type": "event"
        },
        {
            "anonymous": false,
            "inputs": [
                {
                    "indexed": false,
                    "internalType": "address",
                    "name": "User",
                    "type": "address"
                },
                {
                    "indexed": false,
                    "internalType": "uint256",
                    "name": "Time",
                    "type": "uint256"
                },
                {
                    "indexed": false,
                    "internalType": "uint256",
                    "name": "amount",
                    "type": "uint256"
                },
                {
                    "indexed": false,
                    "internalType": "uint256",
                    "name": "LevelNumber",
                    "type": "uint256"
                }
            ],
            "name": "EmergencyWithdraw",
            "type": "event"
        },
        {
            "anonymous": false,
            "inputs": [
                {
                    "indexed": false,
                    "internalType": "uint256",
                    "name": "LevelNumber",
                    "type": "uint256"
                },
                {
                    "indexed": false,
                    "internalType": "uint256",
                    "name": "Time",
                    "type": "uint256"
                },
                {
                    "indexed": false,
                    "internalType": "address",
                    "name": "User",
                    "type": "address"
                }
            ],
            "name": "LevelBought",
            "type": "event"
        },
        {
            "anonymous": false,
            "inputs": [
                {
                    "indexed": true,
                    "internalType": "address",
                    "name": "previousOwner",
                    "type": "address"
                },
                {
                    "indexed": true,
                    "internalType": "address",
                    "name": "newOwner",
                    "type": "address"
                }
            ],
            "name": "OwnershipTransferred",
            "type": "event"
        },
        {
            "anonymous": false,
            "inputs": [
                {
                    "indexed": false,
                    "internalType": "address",
                    "name": "Referall",
                    "type": "address"
                },
                {
                    "indexed": false,
                    "internalType": "address",
                    "name": "User",
                    "type": "address"
                },
                {
                    "indexed": false,
                    "internalType": "uint256",
                    "name": "Time",
                    "type": "uint256"
                },
                {
                    "indexed": false,
                    "internalType": "uint256",
                    "name": "LevelNumber",
                    "type": "uint256"
                }
            ],
            "name": "ReferallGetBonus",
            "type": "event"
        },
        {
            "inputs": [],
            "name": "ReferallBonusPercent",
            "outputs": [
                {
                    "internalType": "uint256",
                    "name": "",
                    "type": "uint256"
                }
            ],
            "stateMutability": "view",
            "type": "function"
        },
        {
            "inputs": [],
            "name": "Token",
            "outputs": [
                {
                    "internalType": "contract IERC20",
                    "name": "",
                    "type": "address"
                }
            ],
            "stateMutability": "view",
            "type": "function"
        },
        {
            "inputs": [],
            "name": "TotalUsers",
            "outputs": [
                {
                    "internalType": "uint256",
                    "name": "",
                    "type": "uint256"
                }
            ],
            "stateMutability": "view",
            "type": "function"
        },
        {
            "inputs": [
                {
                    "internalType": "uint256",
                    "name": "buyLvl",
                    "type": "uint256"
                },
                {
                    "internalType": "address",
                    "name": "_refferal",
                    "type": "address"
                }
            ],
            "name": "buyLevel",
            "outputs": [],
            "stateMutability": "nonpayable",
            "type": "function"
        },
        {
            "inputs": [
                {
                    "internalType": "uint256",
                    "name": "percent",
                    "type": "uint256"
                }
            ],
            "name": "changeReferallPercent",
            "outputs": [
                {
                    "internalType": "uint256",
                    "name": "",
                    "type": "uint256"
                }
            ],
            "stateMutability": "nonpayable",
            "type": "function"
        },
        {
            "inputs": [
                {
                    "internalType": "contract IERC20",
                    "name": "_token",
                    "type": "address"
                }
            ],
            "name": "changeToken",
            "outputs": [],
            "stateMutability": "nonpayable",
            "type": "function"
        },
        {
            "inputs": [
                {
                    "internalType": "uint256",
                    "name": "_level",
                    "type": "uint256"
                }
            ],
            "name": "closeLevelAndSendReward",
            "outputs": [],
            "stateMutability": "nonpayable",
            "type": "function"
        },
        {
            "inputs": [
                {
                    "internalType": "uint256",
                    "name": "_numberLvl",
                    "type": "uint256"
                },
                {
                    "internalType": "uint256",
                    "name": "_priceStart",
                    "type": "uint256"
                },
                {
                    "internalType": "uint256",
                    "name": "_refillCount",
                    "type": "uint256"
                },
                {
                    "internalType": "uint256",
                    "name": "_refillPercent",
                    "type": "uint256"
                }
            ],
            "name": "createNewLvl",
            "outputs": [
                {
                    "internalType": "uint256",
                    "name": "",
                    "type": "uint256"
                }
            ],
            "stateMutability": "nonpayable",
            "type": "function"
        },
        {
            "inputs": [
                {
                    "internalType": "uint256",
                    "name": "levelNumber",
                    "type": "uint256"
                }
            ],
            "name": "currentQueueInLevel",
            "outputs": [
                {
                    "internalType": "address[]",
                    "name": "",
                    "type": "address[]"
                }
            ],
            "stateMutability": "view",
            "type": "function"
        },
        {
            "inputs": [
                {
                    "internalType": "uint256",
                    "name": "",
                    "type": "uint256"
                }
            ],
            "name": "levels",
            "outputs": [
                {
                    "internalType": "uint256",
                    "name": "numberLvl",
                    "type": "uint256"
                },
                {
                    "internalType": "uint256",
                    "name": "priceToStart",
                    "type": "uint256"
                },
                {
                    "internalType": "uint256",
                    "name": "refillCount",
                    "type": "uint256"
                },
                {
                    "internalType": "uint256",
                    "name": "refillPercent",
                    "type": "uint256"
                }
            ],
            "stateMutability": "view",
            "type": "function"
        },
        {
            "inputs": [],
            "name": "owner",
            "outputs": [
                {
                    "internalType": "address",
                    "name": "",
                    "type": "address"
                }
            ],
            "stateMutability": "view",
            "type": "function"
        },
        {
            "inputs": [],
            "name": "renounceOwnership",
            "outputs": [],
            "stateMutability": "nonpayable",
            "type": "function"
        },
        {
            "inputs": [
                {
                    "internalType": "address",
                    "name": "newOwner",
                    "type": "address"
                }
            ],
            "name": "transferOwnership",
            "outputs": [],
            "stateMutability": "nonpayable",
            "type": "function"
        },
        {
            "inputs": [
                {
                    "internalType": "address",
                    "name": "",
                    "type": "address"
                }
            ],
            "name": "users",
            "outputs": [
                {
                    "internalType": "address",
                    "name": "user",
                    "type": "address"
                },
                {
                    "internalType": "address",
                    "name": "referral",
                    "type": "address"
                },
                {
                    "internalType": "uint256",
                    "name": "currentlvl",
                    "type": "uint256"
                },
                {
                    "internalType": "uint256",
                    "name": "deposited",
                    "type": "uint256"
                },
                {
                    "internalType": "uint256",
                    "name": "earned",
                    "type": "uint256"
                },
                {
                    "internalType": "uint256",
                    "name": "countOfBuyingLevels",
                    "type": "uint256"
                }
            ],
            "stateMutability": "view",
            "type": "function"
        }
    ],
    "bytecode": "608060405260036005553480156200001657600080fd5b50604051620013d2380380620013d2833981016040819052620000399162000322565b620000443362000150565b60018055600280546001600160a01b0319166001600160a01b0384161790556200006e81620001a0565b6200008860006801a055690d9db80000600560c862000223565b50620000a360016803cb71f51fc55800006004609662000223565b50620000be600268070c1cc73b00c80000600560af62000223565b50620000d960036809c2007651b2500000600660c862000223565b50620000f46004680ad78ebc5ac6200000600660e162000223565b506200010f6005680bed1d0263d9f00000600860fa62000223565b506200012b6006680d8d726b7177a80000600861011362000223565b5062000147600768119e47f21381f40000600961012c62000223565b50505062000361565b600080546001600160a01b038381166001600160a01b0319831681178455604051919092169283917f8be0079c531659141344cd1fd0a4f28419497f9722a3daafe3b4186f6b6457e09190a35050565b620001aa620002ae565b6001600160a01b038116620002155760405162461bcd60e51b815260206004820152602660248201527f4f776e61626c653a206e6577206f776e657220697320746865207a65726f206160448201526564647265737360d01b60648201526084015b60405180910390fd5b620002208162000150565b50565b60006200022f620002ae565b6000858152600460209081526040918290208781556001810187905560028101869055600381018590558251888152918201879052918101859052606081018490524260808201527f35fa5cc0e4b24f8b04552ff8f26ee1322d1c61dff5e2b52d87abb1282e10dc799060a00160405180910390a15093949350505050565b6000546001600160a01b031633146200030a5760405162461bcd60e51b815260206004820181905260248201527f4f776e61626c653a2063616c6c6572206973206e6f7420746865206f776e657260448201526064016200020c565b565b6001600160a01b03811681146200022057600080fd5b600080604083850312156200033657600080fd5b825162000343816200030c565b602084015190925062000356816200030c565b809150509250929050565b61106180620003716000396000f3fe608060405234801561001057600080fd5b50600436106100ea5760003560e01c80638da5cb5b1161008c578063b2596a6711610066578063b2596a671461022a578063c24126761461027f578063e176ce0a14610292578063f2fde38b146102b257600080fd5b80638da5cb5b1461016a578063a87430ba1461018f578063ab7a6bf11461021757600080fd5b806366829b16116100c857806366829b1614610129578063715018a61461013c57806380891cf114610144578063855b42831461015757600080fd5b80634b70e8e7146100ef578063641fba961461010b57806364e5322a14610114575b600080fd5b6100f860055481565b6040519081526020015b60405180910390f35b6100f860065481565b610127610122366004610e52565b6102c5565b005b610127610137366004610e82565b6105a7565b6101276105d1565b6100f8610152366004610ea6565b6105e5565b6100f8610165366004610ed8565b61066e565b6000546001600160a01b03165b6040516001600160a01b039091168152602001610102565b6101df61019d366004610e82565b60036020819052600091825260409091208054600182015460028301549383015460048401546005909401546001600160a01b03938416959390921693909186565b604080516001600160a01b039788168152969095166020870152938501929092526060840152608083015260a082015260c001610102565b610127610225366004610ed8565b610681565b61025f610238366004610ed8565b60046020526000908152604090208054600182015460028301546003909301549192909184565b604080519485526020850193909352918301526060820152608001610102565b600254610177906001600160a01b031681565b6102a56102a0366004610ed8565b6107c5565b6040516101029190610ef1565b6101276102c0366004610e82565b610835565b60026001540361031c5760405162461bcd60e51b815260206004820152601f60248201527f5265656e7472616e637947756172643a207265656e7472616e742063616c6c0060448201526064015b60405180910390fd5b60026001553360009081526003602090815260408083208584526004909252822090916001600160a01b03841690036103b35760405162461bcd60e51b815260206004820152603360248201527f696620796f7520646f6e74206861766520726566666572616c2061646472657360448201527239903ab9b29030b2323932b9b99037bbb732b960691b6064820152608401610313565b600182810180546001600160a01b0319166001600160a01b038616179055600283015485916103e29190610f54565b10156104305760405162461bcd60e51b815260206004820152601d60248201527f596f75206e65656420746f20627579206561726c696572206c6576656c0000006044820152606401610313565b60025460018201546040516323b872dd60e01b815233600482015230602482015260448101919091526001600160a01b03909116906323b872dd906064016020604051808303816000875af115801561048d573d6000803e3d6000fd5b505050506040513d601f19601f820116820180604052508101906104b19190610f6c565b506002820184905560018101546003830180546000906104d2908490610f54565b909155505081546001600160a01b031916331782556005820180549060006104f983610f8e565b90915550506004810180546002830154036105215761051c8260040133876108ae565b610549565b600482018054600181018255600091825260209091200180546001600160a01b031916331790555b6006805490600061055983610f8e565b909155505060408051868152426020820152338183015290517f67b7c39dce5fa35f6a4cbe6ec721b5782cc6b7699bec93ff0cd066a22a899b399181900360600190a1505060018055505050565b6105af610a6a565b600280546001600160a01b0319166001600160a01b0392909216919091179055565b6105d9610a6a565b6105e36000610ac4565b565b60006105ef610a6a565b6000858152600460209081526040918290208781556001810187905560028101869055600381018590558251888152918201879052918101859052606081018490524260808201527f35fa5cc0e4b24f8b04552ff8f26ee1322d1c61dff5e2b52d87abb1282e10dc799060a00160405180910390a15093949350505050565b6000610678610a6a565b50600581905590565b610689610a6a565b6000818152600460208190526040822091908201815b81548110156107b0578181815481106106ba576106ba610fa7565b600091825260209091200154600254600186015460405163a9059cbb60e01b81526001600160a01b0393841660048201819052602482019290925290955091169063a9059cbb906044016020604051808303816000875af1158015610723573d6000803e3d6000fd5b505050506040513d601f19601f820116820180604052508101906107479190610f6c565b5060018401548454604080516001600160a01b03871681524260208201529081019290925260608201527f2369db1bafee945aee5630782f4a170682e3f8188d8dc247a4c73eb8c9e692d29060800160405180910390a1806107a881610f8e565b91505061069f565b506107bf600484016000610dba565b50505050565b60008181526004602081815260409283902091820180548451818402810184019095528085526060949283018282801561082857602002820191906000526020600020905b81546001600160a01b0316815260019091019060200180831161080a575b5050505050915050919050565b61083d610a6a565b6001600160a01b0381166108a25760405162461bcd60e51b815260206004820152602660248201527f4f776e61626c653a206e6577206f776e657220697320746865207a65726f206160448201526564647265737360d01b6064820152608401610313565b6108ab81610ac4565b50565b60008181526004602052604081208454909190859082906108d1576108d1610fa7565b60009182526020808320909101546001600160a01b0316808352600391829052604083209185015460018601549194509192919061091190606490610fbd565b61091b9190610fdf565b905080826004015461092d9190610f54565b60048381019190915560025460405163a9059cbb60e01b81526001600160a01b03868116938201939093526024810184905291169063a9059cbb906044016020604051808303816000875af115801561098a573d6000803e3d6000fd5b505050506040513d601f19601f820116820180604052508101906109ae9190610f6c565b506109ba876000610b14565b80546001810182556000828152602090200180546001600160a01b0319166001600160a01b03891617905596506109f083610c34565b8654610a029060048601908990610dd8565b50600182015482548554604080516001600160a01b039485168152939092166020840152429183019190915260608201527f2496e048edda281349e32d9ccb972de94737d94c958c5d182a0e1ed90602fd9a906080015b60405180910390a150505050505050565b6000546001600160a01b031633146105e35760405162461bcd60e51b815260206004820181905260248201527f4f776e61626c653a2063616c6c6572206973206e6f7420746865206f776e65726044820152606401610313565b600080546001600160a01b038381166001600160a01b0319831681178455604051919092169283917f8be0079c531659141344cd1fd0a4f28419497f9722a3daafe3b4186f6b6457e09190a35050565b81546000908210610b5c5760405162461bcd60e51b81526020600482015260126024820152711a5b99195e081bdd5d081bd988189bdd5b9960721b6044820152606401610313565b815b8354610b6c90600190610ffe565b811015610bfa5783610b7f826001610f54565b81548110610b8f57610b8f610fa7565b9060005260206000200160009054906101000a90046001600160a01b0316848281548110610bbf57610bbf610fa7565b600091825260209091200180546001600160a01b0319166001600160a01b039290921691909117905580610bf281610f8e565b915050610b5e565b5082805480610c0b57610c0b611015565b600082815260209020600019908201810180546001600160a01b03191690550190555090919050565b6001600160a01b03808216600090815260036020908152604080832060018082015460028301548087526004909552928520600554918101549296939093169491610c8190606490610fbd565b610c8b9190610fdf565b60018601546001600160a01b03166000908152600360205260409020600481015491925090610cbb908390610f54565b600482810191909155600682018054600181018255600091825260209091200180546001600160a01b0319166001600160a01b038a81169190911790915560025460405163a9059cbb60e01b81528883169381019390935260248301859052169063a9059cbb906044016020604051808303816000875af1158015610d44573d6000803e3d6000fd5b505050506040513d601f19601f82011682018060405250810190610d689190610f6c565b50604080516001600160a01b038088168252891660208201524291810191909152606081018590527f2496e048edda281349e32d9ccb972de94737d94c958c5d182a0e1ed90602fd9a90608001610a59565b50805460008255906000526020600020908101906108ab9190610e28565b828054828255906000526020600020908101928215610e185760005260206000209182015b82811115610e18578254825591600101919060010190610dfd565b50610e24929150610e28565b5090565b5b80821115610e245760008155600101610e29565b6001600160a01b03811681146108ab57600080fd5b60008060408385031215610e6557600080fd5b823591506020830135610e7781610e3d565b809150509250929050565b600060208284031215610e9457600080fd5b8135610e9f81610e3d565b9392505050565b60008060008060808587031215610ebc57600080fd5b5050823594602084013594506040840135936060013592509050565b600060208284031215610eea57600080fd5b5035919050565b6020808252825182820181905260009190848201906040850190845b81811015610f325783516001600160a01b031683529284019291840191600101610f0d565b50909695505050505050565b634e487b7160e01b600052601160045260246000fd5b60008219821115610f6757610f67610f3e565b500190565b600060208284031215610f7e57600080fd5b81518015158114610e9f57600080fd5b600060018201610fa057610fa0610f3e565b5060010190565b634e487b7160e01b600052603260045260246000fd5b600082610fda57634e487b7160e01b600052601260045260246000fd5b500490565b6000816000190483118215151615610ff957610ff9610f3e565b500290565b60008282101561101057611010610f3e565b500390565b634e487b7160e01b600052603160045260246000fdfea26469706673582212200f9dc24a8a8d192a9194ff00ca61c8ed6959324ecf56625b5000dcfdee2993e764736f6c634300080f0033",
    "sourcePath": "c:/Users/kolam/Desktop/expressgame/contracts/Skymoney.sol",
    "compiler": {
        "name": "solc",
        "version": "0.8.15+commit.e14f2714"
    },
    "functionHashes": {
        "ReferallBonusPercent()": "4b70e8e7",
        "Token()": "c2412676",
        "TotalUsers()": "641fba96",
        "buyLevel(uint256,address)": "64e5322a",
        "changeReferallPercent(uint256)": "855b4283",
        "changeToken(address)": "66829b16",
        "closeLevelAndSendReward(uint256)": "ab7a6bf1",
        "createNewLvl(uint256,uint256,uint256,uint256)": "80891cf1",
        "currentQueueInLevel(uint256)": "e176ce0a",
        "levels(uint256)": "b2596a67",
        "owner()": "8da5cb5b",
        "renounceOwnership()": "715018a6",
        "transferOwnership(address)": "f2fde38b",
        "users(address)": "a87430ba"
    },
    "gasEstimates": {
        "creation": {
            "codeDepositCost": "838600",
            "executionCost": "infinite",
            "totalCost": "infinite"
        },
        "external": {
            "ReferallBonusPercent()": "2308",
            "Token()": "2381",
            "TotalUsers()": "2330",
            "buyLevel(uint256,address)": "infinite",
            "changeReferallPercent(uint256)": "24637",
            "changeToken(address)": "26752",
            "closeLevelAndSendReward(uint256)": "infinite",
            "createNewLvl(uint256,uint256,uint256,uint256)": "93267",
            "currentQueueInLevel(uint256)": "infinite",
            "levels(uint256)": "8862",
            "owner()": "2343",
            "renounceOwnership()": "infinite",
            "transferOwnership(address)": "infinite",
            "users(address)": "13286"
        },
        "internal": {
            "_remove(address[] storage pointer,uint256)": "infinite",
            "_sendPaymentaAndPushInQueue(address[] storage pointer,address,uint256)": "infinite",
            "_sendToRefferalPercent(address)": "infinite",
            "witdhraw(address,uint256)": "infinite"
        }
    }
}