{
  "_format": "hh-sol-artifact-1",
  "contractName": "SkyMoney",
  "sourceName": "contracts/SkyMoney.sol",
  "abi": [
    {
      "inputs": [
        {
          "internalType": "contract IERC20",
          "name": "token_",
          "type": "address"
        },
        {
          "internalType": "address",
          "name": "owner_",
          "type": "address"
        }
      ],
      "stateMutability": "nonpayable",
      "type": "constructor"
    },
    {
      "anonymous": false,
      "inputs": [
        {
          "indexed": false,
          "internalType": "uint256",
          "name": "LevelNumber",
          "type": "uint256"
        },
        {
          "indexed": false,
          "internalType": "uint256",
          "name": "PriseToStart",
          "type": "uint256"
        },
        {
          "indexed": false,
          "internalType": "uint256",
          "name": "RefillCount",
          "type": "uint256"
        },
        {
          "indexed": false,
          "internalType": "uint256",
          "name": "RefillPercent",
          "type": "uint256"
        },
        {
          "indexed": false,
          "internalType": "uint256",
          "name": "MaxCountForSingleAddress",
          "type": "uint256"
        },
        {
          "indexed": false,
          "internalType": "uint256",
          "name": "Time",
          "type": "uint256"
        }
      ],
      "name": "CreatedNewLevel",
      "type": "event"
    },
    {
      "anonymous": false,
      "inputs": [
        {
          "indexed": false,
          "internalType": "address",
          "name": "User",
          "type": "address"
        },
        {
          "indexed": false,
          "internalType": "uint256",
          "name": "Time",
          "type": "uint256"
        },
        {
          "indexed": false,
          "internalType": "uint256",
          "name": "amount",
          "type": "uint256"
        },
        {
          "indexed": false,
          "internalType": "uint256",
          "name": "LevelNumber",
          "type": "uint256"
        }
      ],
      "name": "EmergencyWithdraw",
      "type": "event"
    },
    {
      "anonymous": false,
      "inputs": [
        {
          "indexed": false,
          "internalType": "uint256",
          "name": "LevelNumber",
          "type": "uint256"
        },
        {
          "indexed": false,
          "internalType": "uint256",
          "name": "Time",
          "type": "uint256"
        },
        {
          "indexed": false,
          "internalType": "address",
          "name": "User",
          "type": "address"
        }
      ],
      "name": "LevelBought",
      "type": "event"
    },
    {
      "anonymous": false,
      "inputs": [
        {
          "indexed": true,
          "internalType": "address",
          "name": "previousOwner",
          "type": "address"
        },
        {
          "indexed": true,
          "internalType": "address",
          "name": "newOwner",
          "type": "address"
        }
      ],
      "name": "OwnershipTransferred",
      "type": "event"
    },
    {
      "anonymous": false,
      "inputs": [
        {
          "indexed": false,
          "internalType": "address",
          "name": "account",
          "type": "address"
        }
      ],
      "name": "Paused",
      "type": "event"
    },
    {
      "anonymous": false,
      "inputs": [
        {
          "indexed": false,
          "internalType": "address",
          "name": "Referall",
          "type": "address"
        },
        {
          "indexed": false,
          "internalType": "address",
          "name": "User",
          "type": "address"
        },
        {
          "indexed": false,
          "internalType": "uint256",
          "name": "Time",
          "type": "uint256"
        },
        {
          "indexed": false,
          "internalType": "uint256",
          "name": "LevelNumber",
          "type": "uint256"
        }
      ],
      "name": "ReferallGetBonus",
      "type": "event"
    },
    {
      "anonymous": false,
      "inputs": [
        {
          "indexed": false,
          "internalType": "address",
          "name": "account",
          "type": "address"
        }
      ],
      "name": "Unpaused",
      "type": "event"
    },
    {
      "stateMutability": "nonpayable",
      "type": "fallback"
    },
    {
      "inputs": [],
      "name": "ReferallBonusPercent",
      "outputs": [
        {
          "internalType": "uint256",
          "name": "",
          "type": "uint256"
        }
      ],
      "stateMutability": "view",
      "type": "function"
    },
    {
      "inputs": [],
      "name": "Token",
      "outputs": [
        {
          "internalType": "contract IERC20",
          "name": "",
          "type": "address"
        }
      ],
      "stateMutability": "view",
      "type": "function"
    },
    {
      "inputs": [],
      "name": "TotalBoughtLevels",
      "outputs": [
        {
          "internalType": "uint256",
          "name": "",
          "type": "uint256"
        }
      ],
      "stateMutability": "view",
      "type": "function"
    },
    {
      "inputs": [
        {
          "internalType": "uint256",
          "name": "buyLvl",
          "type": "uint256"
        },
        {
          "internalType": "address",
          "name": "_refferal",
          "type": "address"
        }
      ],
      "name": "buyLevel",
      "outputs": [],
      "stateMutability": "nonpayable",
      "type": "function"
    },
    {
      "inputs": [
        {
          "internalType": "uint256",
          "name": "_level",
          "type": "uint256"
        },
        {
          "internalType": "uint256",
          "name": "_count",
          "type": "uint256"
        }
      ],
      "name": "changeMaxCountBuyLevel",
      "outputs": [
        {
          "internalType": "uint256",
          "name": "",
          "type": "uint256"
        }
      ],
      "stateMutability": "nonpayable",
      "type": "function"
    },
    {
      "inputs": [
        {
          "internalType": "uint256",
          "name": "percent",
          "type": "uint256"
        }
      ],
      "name": "changeReferallPercent",
      "outputs": [
        {
          "internalType": "uint256",
          "name": "",
          "type": "uint256"
        }
      ],
      "stateMutability": "nonpayable",
      "type": "function"
    },
    {
      "inputs": [
        {
          "internalType": "contract IERC20",
          "name": "_token",
          "type": "address"
        }
      ],
      "name": "changeToken",
      "outputs": [],
      "stateMutability": "nonpayable",
      "type": "function"
    },
    {
      "inputs": [
        {
          "internalType": "uint256",
          "name": "_level",
          "type": "uint256"
        }
      ],
      "name": "closeLevelAndSendReward",
      "outputs": [],
      "stateMutability": "nonpayable",
      "type": "function"
    },
    {
      "inputs": [
        {
          "internalType": "uint256",
          "name": "_numberLvl",
          "type": "uint256"
        },
        {
          "internalType": "uint256",
          "name": "_priceStart",
          "type": "uint256"
        },
        {
          "internalType": "uint256",
          "name": "_refillCount",
          "type": "uint256"
        },
        {
          "internalType": "uint256",
          "name": "_refillPercent",
          "type": "uint256"
        },
        {
          "internalType": "uint256",
          "name": "_maxCount",
          "type": "uint256"
        }
      ],
      "name": "createNewLvl",
      "outputs": [
        {
          "internalType": "uint256",
          "name": "",
          "type": "uint256"
        }
      ],
      "stateMutability": "nonpayable",
      "type": "function"
    },
    {
      "inputs": [
        {
          "internalType": "uint256",
          "name": "levelNumber",
          "type": "uint256"
        }
      ],
      "name": "currentQueueInLevel",
      "outputs": [
        {
          "internalType": "address[]",
          "name": "",
          "type": "address[]"
        }
      ],
      "stateMutability": "view",
      "type": "function"
    },
    {
      "inputs": [
        {
          "internalType": "address",
          "name": "_user",
          "type": "address"
        }
      ],
      "name": "getLevel",
      "outputs": [
        {
          "internalType": "address",
          "name": "",
          "type": "address"
        },
        {
          "internalType": "uint256",
          "name": "",
          "type": "uint256"
        },
        {
          "internalType": "uint256",
          "name": "",
          "type": "uint256"
        },
        {
          "internalType": "uint256",
          "name": "",
          "type": "uint256"
        },
        {
          "internalType": "uint256",
          "name": "",
          "type": "uint256"
        },
        {
          "internalType": "address[]",
          "name": "",
          "type": "address[]"
        }
      ],
      "stateMutability": "view",
      "type": "function"
    },
    {
      "inputs": [
        {
          "internalType": "uint256",
          "name": "_level",
          "type": "uint256"
        }
      ],
      "name": "getLevel",
      "outputs": [
        {
          "internalType": "uint256",
          "name": "",
          "type": "uint256"
        },
        {
          "internalType": "uint256",
          "name": "",
          "type": "uint256"
        },
        {
          "internalType": "uint256",
          "name": "",
          "type": "uint256"
        },
        {
          "internalType": "uint256",
          "name": "",
          "type": "uint256"
        },
        {
          "internalType": "address[]",
          "name": "",
          "type": "address[]"
        }
      ],
      "stateMutability": "view",
      "type": "function"
    },
    {
      "inputs": [
        {
          "internalType": "uint256",
          "name": "",
          "type": "uint256"
        }
      ],
      "name": "levels",
      "outputs": [
        {
          "internalType": "uint256",
          "name": "numberLvl",
          "type": "uint256"
        },
        {
          "internalType": "uint256",
          "name": "priceToStart",
          "type": "uint256"
        },
        {
          "internalType": "uint256",
          "name": "refillCount",
          "type": "uint256"
        },
        {
          "internalType": "uint256",
          "name": "refillPercent",
          "type": "uint256"
        },
        {
          "internalType": "uint256",
          "name": "MaxCountToBuyLevelSingleAddress",
          "type": "uint256"
        }
      ],
      "stateMutability": "view",
      "type": "function"
    },
    {
      "inputs": [],
      "name": "owner",
      "outputs": [
        {
          "internalType": "address",
          "name": "",
          "type": "address"
        }
      ],
      "stateMutability": "view",
      "type": "function"
    },
    {
      "inputs": [],
      "name": "paused",
      "outputs": [
        {
          "internalType": "bool",
          "name": "",
          "type": "bool"
        }
      ],
      "stateMutability": "view",
      "type": "function"
    },
    {
      "inputs": [],
      "name": "renounceOwnership",
      "outputs": [],
      "stateMutability": "nonpayable",
      "type": "function"
    },
    {
      "inputs": [
        {
          "internalType": "address",
          "name": "newOwner",
          "type": "address"
        }
      ],
      "name": "transferOwnership",
      "outputs": [],
      "stateMutability": "nonpayable",
      "type": "function"
    },
    {
      "inputs": [
        {
          "internalType": "address",
          "name": "",
          "type": "address"
        }
      ],
      "name": "users",
      "outputs": [
        {
          "internalType": "address",
          "name": "user",
          "type": "address"
        },
        {
          "internalType": "address",
          "name": "referral",
          "type": "address"
        },
        {
          "internalType": "uint256",
          "name": "currentlvl",
          "type": "uint256"
        },
        {
          "internalType": "uint256",
          "name": "deposited",
          "type": "uint256"
        },
        {
          "internalType": "uint256",
          "name": "earned",
          "type": "uint256"
        },
        {
          "internalType": "uint256",
          "name": "countOfBuyingLevels",
          "type": "uint256"
        }
      ],
      "stateMutability": "view",
      "type": "function"
    },
    {
      "inputs": [
        {
          "internalType": "address",
          "name": "token",
          "type": "address"
        },
        {
          "internalType": "uint256",
          "name": "amount",
          "type": "uint256"
        }
      ],
      "name": "witdhraw",
      "outputs": [],
      "stateMutability": "nonpayable",
      "type": "function"
    },
    {
      "stateMutability": "payable",
      "type": "receive"
    }
  ],
  "bytecode": "0x6080604052600a6005553480156200001657600080fd5b5060405162002021380380620020218339810160408190526200003991620003bd565b62000044336200017e565b60018055600280546001600160a81b0319166101006001600160a01b038516021790556200007281620001ce565b6200008e600068022b1c8c1227a00000600360c8600262000251565b50620000aa60016804e1003b28d9280000600460968362000251565b50620000c7600268093739534d28680000600460af600162000251565b50620000e46003680ea300b17a8b780000600560c8600162000251565b50620001016004681b1ae4d6e2ef500000600560e1600162000251565b506200011d60056830ca024f987b9000008160fa600162000251565b506200013b6006685150ae84a8cdf000006005610113600162000251565b50620001586007686c6b935b8bbd4000008161012c600162000251565b5062000175600868a2a15d09519be0000081610145600162000251565b505050620003fc565b600080546001600160a01b038381166001600160a01b0319831681178455604051919092169283917f8be0079c531659141344cd1fd0a4f28419497f9722a3daafe3b4186f6b6457e09190a35050565b620001d8620002f5565b6001600160a01b038116620002435760405162461bcd60e51b815260206004820152602660248201527f4f776e61626c653a206e6577206f776e657220697320746865207a65726f206160448201526564647265737360d01b60648201526084015b60405180910390fd5b6200024e816200017e565b50565b60006200025d620002f5565b6200026762000353565b600086815260046020818152604092839020898155600181018990556002810188905560038101879055918201859055825189815290810188905291820186905260608201859052608082018490524260a0830152907f8facac00b97205d28ced8b122d640abfdf7aedc107b011a3009fd0910500925c9060c00160405180910390a1509495945050505050565b6000546001600160a01b03163314620003515760405162461bcd60e51b815260206004820181905260248201527f4f776e61626c653a2063616c6c6572206973206e6f7420746865206f776e657260448201526064016200023a565b565b60025460ff16620003515760405162461bcd60e51b815260206004820152601460248201527f5061757361626c653a206e6f742070617573656400000000000000000000000060448201526064016200023a565b6001600160a01b03811681146200024e57600080fd5b60008060408385031215620003d157600080fd5b8251620003de81620003a7565b6020840151909250620003f181620003a7565b809150509250929050565b611c15806200040c6000396000f3fe6080604052600436106101485760003560e01c8063817c8966116100c0578063ab7a6bf111610074578063c241267611610059578063c241267614610485578063e176ce0a146104b7578063f2fde38b146104e45761014f565b8063ab7a6bf1146103f2578063b2596a67146104125761014f565b806386481d40116100a557806386481d40146102c65780638da5cb5b146102f7578063a87430ba146103435761014f565b8063817c896614610274578063855b4283146102a65761014f565b80635c975abb1161011757806366829b16116100fc57806366829b161461021f578063715018a61461023f57806377a58415146102545761014f565b80635c975abb146101dc57806364e5322a146101ff5761014f565b80631ce480f31461015d5780632d5339e01461019057806344b0d9d8146101a65780634b70e8e7146101c65761014f565b3661014f57005b34801561015b57600080fd5b005b34801561016957600080fd5b5061017d610178366004611820565b610504565b6040519081526020015b60405180910390f35b34801561019c57600080fd5b5061017d60065481565b3480156101b257600080fd5b5061017d6101c136600461185b565b6105a4565b3480156101d257600080fd5b5061017d60055481565b3480156101e857600080fd5b5060025460ff166040519015158152602001610187565b34801561020b57600080fd5b5061015b61021a36600461189f565b6105d4565b34801561022b57600080fd5b5061015b61023a3660046118cf565b610a41565b34801561024b57600080fd5b5061015b610a9d565b34801561026057600080fd5b5061015b61026f3660046118f3565b610ab1565b34801561028057600080fd5b5061029461028f3660046118cf565b610b55565b60405161018796959493929190611970565b3480156102b257600080fd5b5061017d6102c13660046119c3565b610c5e565b3480156102d257600080fd5b506102e66102e13660046119c3565b610c79565b6040516101879594939291906119dc565b34801561030357600080fd5b5060005473ffffffffffffffffffffffffffffffffffffffff165b60405173ffffffffffffffffffffffffffffffffffffffff9091168152602001610187565b34801561034f57600080fd5b506103ad61035e3660046118cf565b600360208190526000918252604090912080546001820154600283015493830154600484015460059094015473ffffffffffffffffffffffffffffffffffffffff938416959390921693909186565b6040805173ffffffffffffffffffffffffffffffffffffffff9788168152969095166020870152938501929092526060840152608083015260a082015260c001610187565b3480156103fe57600080fd5b5061015b61040d3660046119c3565b610d2d565b34801561041e57600080fd5b5061045d61042d3660046119c3565b60046020819052600091825260409091208054600182015460028301546003840154939094015491939092909185565b604080519586526020860194909452928401919091526060830152608082015260a001610187565b34801561049157600080fd5b5060025461031e90610100900473ffffffffffffffffffffffffffffffffffffffff1681565b3480156104c357600080fd5b506104d76104d23660046119c3565b610eb2565b6040516101879190611a12565b3480156104f057600080fd5b5061015b6104ff3660046118cf565b610f31565b600061050e610fe8565b610516611069565b600086815260046020818152604092839020898155600181018990556002810188905560038101879055918201859055825189815290810188905291820186905260608201859052608082018490524260a0830152907f8facac00b97205d28ced8b122d640abfdf7aedc107b011a3009fd0910500925c9060c00160405180910390a1509495945050505050565b60006105ae610fe8565b6105b6611069565b50600082815260046020819052604090912001819055805b92915050565b600260015403610645576040517f08c379a000000000000000000000000000000000000000000000000000000000815260206004820152601f60248201527f5265656e7472616e637947756172643a207265656e7472616e742063616c6c0060448201526064015b60405180910390fd5b60026001556106526110d5565b33600090815260036020908152604080832085845260049092528220909173ffffffffffffffffffffffffffffffffffffffff84169003610715576040517f08c379a000000000000000000000000000000000000000000000000000000000815260206004820152603360248201527f696620796f7520646f6e74206861766520726566666572616c2061646472657360448201527f73207573652061646472657373206f776e657200000000000000000000000000606482015260840161063c565b600182810180547fffffffffffffffffffffffff00000000000000000000000000000000000000001673ffffffffffffffffffffffffffffffffffffffff8616179055600283015485916107699190611a54565b10156107d1576040517f08c379a000000000000000000000000000000000000000000000000000000000815260206004820152601d60248201527f596f75206e65656420746f20627579206561726c696572206c6576656c000000604482015260640161063c565b60025460018201546040517f23b872dd000000000000000000000000000000000000000000000000000000008152336004820152306024820152604481019190915261010090910473ffffffffffffffffffffffffffffffffffffffff16906323b872dd906064016020604051808303816000875af1158015610858573d6000803e3d6000fd5b505050506040513d601f19601f8201168201806040525081019061087c9190611a67565b5060028201849055600181015460038301805460009061089d908490611a54565b909155505081547fffffffffffffffffffffffff000000000000000000000000000000000000000016331782556005820180549060006108dc83611a89565b9091555050600084815260078301602052604081208054916108fd83611a89565b9091555050600481015460008581526007840160205260409020541115610980576040517f08c379a000000000000000000000000000000000000000000000000000000000815260206004820181905260248201527f596f752063616e7420627579206d6f72652074686973206c6576656c20796574604482015260640161063c565b6005810180546002830154036109a35761099e826005013387611142565b6109e3565b600582018054600181018255600091825260209091200180547fffffffffffffffffffffffff000000000000000000000000000000000000000016331790555b600680549060006109f383611a89565b909155505060408051868152426020820152338183015290517f67b7c39dce5fa35f6a4cbe6ec721b5782cc6b7699bec93ff0cd066a22a899b399181900360600190a1505060018055505050565b610a49610fe8565b610a51611069565b6002805473ffffffffffffffffffffffffffffffffffffffff909216610100027fffffffffffffffffffffff0000000000000000000000000000000000000000ff909216919091179055565b610aa5610fe8565b610aaf600061138b565b565b610ab9610fe8565b6040517fa9059cbb0000000000000000000000000000000000000000000000000000000081523360048201526024810182905273ffffffffffffffffffffffffffffffffffffffff83169063a9059cbb906044016020604051808303816000875af1158015610b2c573d6000803e3d6000fd5b505050506040513d601f19601f82011682018060405250810190610b509190611a67565b505050565b600080600080600060606000600360008973ffffffffffffffffffffffffffffffffffffffff1673ffffffffffffffffffffffffffffffffffffffff16815260200190815260200160002090508060010160009054906101000a900473ffffffffffffffffffffffffffffffffffffffff1681600201548260030154836004015484600501548560060180805480602002602001604051908101604052809291908181526020018280548015610c4157602002820191906000526020600020905b815473ffffffffffffffffffffffffffffffffffffffff168152600190910190602001808311610c16575b505050505090509650965096509650965096505091939550919395565b6000610c68610fe8565b610c70611069565b50600581905590565b6000806000806060600060046000888152602001908152602001600020905080600101548160020154826003015483600401548460050180805480602002602001604051908101604052809291908181526020018280548015610d1257602002820191906000526020600020905b815473ffffffffffffffffffffffffffffffffffffffff168152600190910190602001808311610ce7575b50505050509050955095509550955095505091939590929450565b610d35610fe8565b610d3d611069565b60008181526004602052604081209060058201815b8154811015610e9d57818181548110610d6d57610d6d611ac1565b60009182526020909120015460025460018601546040517fa9059cbb00000000000000000000000000000000000000000000000000000000815273ffffffffffffffffffffffffffffffffffffffff9384166004820181905260248201929092529095506101009091049091169063a9059cbb906044016020604051808303816000875af1158015610e03573d6000803e3d6000fd5b505050506040513d601f19601f82011682018060405250810190610e279190611a67565b50600184015484546040805173ffffffffffffffffffffffffffffffffffffffff871681524260208201529081019290925260608201527f2369db1bafee945aee5630782f4a170682e3f8188d8dc247a4c73eb8c9e692d29060800160405180910390a180610e9581611a89565b915050610d52565b50610eac60058401600061179d565b50505050565b6000818152600460209081526040918290206005810180548451818502810185019095528085526060949293830182828015610f2457602002820191906000526020600020905b815473ffffffffffffffffffffffffffffffffffffffff168152600190910190602001808311610ef9575b5050505050915050919050565b610f39610fe8565b73ffffffffffffffffffffffffffffffffffffffff8116610fdc576040517f08c379a000000000000000000000000000000000000000000000000000000000815260206004820152602660248201527f4f776e61626c653a206e6577206f776e657220697320746865207a65726f206160448201527f6464726573730000000000000000000000000000000000000000000000000000606482015260840161063c565b610fe58161138b565b50565b60005473ffffffffffffffffffffffffffffffffffffffff163314610aaf576040517f08c379a000000000000000000000000000000000000000000000000000000000815260206004820181905260248201527f4f776e61626c653a2063616c6c6572206973206e6f7420746865206f776e6572604482015260640161063c565b60025460ff16610aaf576040517f08c379a000000000000000000000000000000000000000000000000000000000815260206004820152601460248201527f5061757361626c653a206e6f7420706175736564000000000000000000000000604482015260640161063c565b60025460ff1615610aaf576040517f08c379a000000000000000000000000000000000000000000000000000000000815260206004820152601060248201527f5061757361626c653a2070617573656400000000000000000000000000000000604482015260640161063c565b600081815260046020526040812084549091908590829061116557611165611ac1565b600091825260208083209091015473ffffffffffffffffffffffffffffffffffffffff1680835260039182905260408320918501546001860154919450919291906111b290606490611af0565b6111bc9190611b2b565b90508082600401546111ce9190611a54565b6004838101919091556002546040517fa9059cbb00000000000000000000000000000000000000000000000000000000815273ffffffffffffffffffffffffffffffffffffffff86811693820193909352602481018490526101009091049091169063a9059cbb906044016020604051808303816000875af1158015611258573d6000803e3d6000fd5b505050506040513d601f19601f8201168201806040525081019061127c9190611a67565b50611288876000611400565b80546001810182556000828152602090200180547fffffffffffffffffffffffff00000000000000000000000000000000000000001673ffffffffffffffffffffffffffffffffffffffff891617905596506112e3836115ad565b600085815260078301602052604081208054916112ff83611b68565b9091555050865461131690600586019089906117bb565b506001820154825485546040805173ffffffffffffffffffffffffffffffffffffffff9485168152939092166020840152429183019190915260608201527f2496e048edda281349e32d9ccb972de94737d94c958c5d182a0e1ed90602fd9a906080015b60405180910390a150505050505050565b6000805473ffffffffffffffffffffffffffffffffffffffff8381167fffffffffffffffffffffffff0000000000000000000000000000000000000000831681178455604051919092169283917f8be0079c531659141344cd1fd0a4f28419497f9722a3daafe3b4186f6b6457e09190a35050565b8154600090821061146d576040517f08c379a000000000000000000000000000000000000000000000000000000000815260206004820152601260248201527f696e646578206f7574206f6620626f756e640000000000000000000000000000604482015260640161063c565b815b835461147d90600190611b9d565b81101561153d5783611490826001611a54565b815481106114a0576114a0611ac1565b9060005260206000200160009054906101000a900473ffffffffffffffffffffffffffffffffffffffff168482815481106114dd576114dd611ac1565b600091825260209091200180547fffffffffffffffffffffffff00000000000000000000000000000000000000001673ffffffffffffffffffffffffffffffffffffffff929092169190911790558061153581611a89565b91505061146f565b508280548061154e5761154e611bb0565b6000828152602090207fffffffffffffffffffffffffffffffffffffffffffffffffffffffffffffffff908201810180547fffffffffffffffffffffffff00000000000000000000000000000000000000001690550190555090919050565b73ffffffffffffffffffffffffffffffffffffffff80821660009081526003602090815260408083206001808201546002830154808752600490955292852060055491810154929693909316949161160790606490611af0565b6116119190611b2b565b600186015473ffffffffffffffffffffffffffffffffffffffff16600090815260036020526040902060048101549192509061164e908390611a54565b600482810191909155600682018054600181018255600091825260209091200180547fffffffffffffffffffffffff00000000000000000000000000000000000000001673ffffffffffffffffffffffffffffffffffffffff8a8116919091179091556002546040517fa9059cbb00000000000000000000000000000000000000000000000000000000815288831693810193909352602483018590526101009004169063a9059cbb906044016020604051808303816000875af115801561171a573d6000803e3d6000fd5b505050506040513d601f19601f8201168201806040525081019061173e9190611a67565b506040805173ffffffffffffffffffffffffffffffffffffffff8088168252891660208201524291810191909152606081018590527f2496e048edda281349e32d9ccb972de94737d94c958c5d182a0e1ed90602fd9a9060800161137a565b5080546000825590600052602060002090810190610fe5919061180b565b8280548282559060005260206000209081019282156117fb5760005260206000209182015b828111156117fb5782548255916001019190600101906117e0565b5061180792915061180b565b5090565b5b80821115611807576000815560010161180c565b600080600080600060a0868803121561183857600080fd5b505083359560208501359550604085013594606081013594506080013592509050565b6000806040838503121561186e57600080fd5b50508035926020909101359150565b73ffffffffffffffffffffffffffffffffffffffff81168114610fe557600080fd5b600080604083850312156118b257600080fd5b8235915060208301356118c48161187d565b809150509250929050565b6000602082840312156118e157600080fd5b81356118ec8161187d565b9392505050565b6000806040838503121561190657600080fd5b82356119118161187d565b946020939093013593505050565b600081518084526020808501945080840160005b8381101561196557815173ffffffffffffffffffffffffffffffffffffffff1687529582019590820190600101611933565b509495945050505050565b73ffffffffffffffffffffffffffffffffffffffff8716815285602082015284604082015283606082015282608082015260c060a082015260006119b760c083018461191f565b98975050505050505050565b6000602082840312156119d557600080fd5b5035919050565b85815284602082015283604082015282606082015260a060808201526000611a0760a083018461191f565b979650505050505050565b6020815260006118ec602083018461191f565b7f4e487b7100000000000000000000000000000000000000000000000000000000600052601160045260246000fd5b808201808211156105ce576105ce611a25565b600060208284031215611a7957600080fd5b815180151581146118ec57600080fd5b60007fffffffffffffffffffffffffffffffffffffffffffffffffffffffffffffffff8203611aba57611aba611a25565b5060010190565b7f4e487b7100000000000000000000000000000000000000000000000000000000600052603260045260246000fd5b600082611b26577f4e487b7100000000000000000000000000000000000000000000000000000000600052601260045260246000fd5b500490565b6000817fffffffffffffffffffffffffffffffffffffffffffffffffffffffffffffffff0483118215151615611b6357611b63611a25565b500290565b600081611b7757611b77611a25565b507fffffffffffffffffffffffffffffffffffffffffffffffffffffffffffffffff0190565b818103818111156105ce576105ce611a25565b7f4e487b7100000000000000000000000000000000000000000000000000000000600052603160045260246000fdfea2646970667358221220e9ee5d8b3202a46d65eb927e385e52ef9ec8806c8805975aff0a857cf42abf0364736f6c63430008100033",
  "linkReferences": {},
  "deployedLinkReferences": {}
}