{
  "_format": "hh-sol-artifact-1",
  "contractName": "SkyMoney",
  "sourceName": "contracts/SkyMoney.sol",
  "abi": [
    {
      "inputs": [
        {
          "internalType": "contract IERC20",
          "name": "token_",
          "type": "address"
        },
        {
          "internalType": "address",
          "name": "owner_",
          "type": "address"
        }
      ],
      "stateMutability": "nonpayable",
      "type": "constructor"
    },
    {
      "anonymous": false,
      "inputs": [
        {
          "indexed": false,
          "internalType": "uint256",
          "name": "LevelNumber",
          "type": "uint256"
        },
        {
          "indexed": false,
          "internalType": "uint256",
          "name": "PriseToStart",
          "type": "uint256"
        },
        {
          "indexed": false,
          "internalType": "uint256",
          "name": "RefillCount",
          "type": "uint256"
        },
        {
          "indexed": false,
          "internalType": "uint256",
          "name": "RefillPercent",
          "type": "uint256"
        },
        {
          "indexed": false,
          "internalType": "uint256",
          "name": "MaxCountForSingleAddress",
          "type": "uint256"
        },
        {
          "indexed": false,
          "internalType": "uint256",
          "name": "Time",
          "type": "uint256"
        }
      ],
      "name": "CreatedNewLevel",
      "type": "event"
    },
    {
      "anonymous": false,
      "inputs": [
        {
          "indexed": false,
          "internalType": "address",
          "name": "User",
          "type": "address"
        },
        {
          "indexed": false,
          "internalType": "uint256",
          "name": "Time",
          "type": "uint256"
        },
        {
          "indexed": false,
          "internalType": "uint256",
          "name": "amount",
          "type": "uint256"
        },
        {
          "indexed": false,
          "internalType": "uint256",
          "name": "LevelNumber",
          "type": "uint256"
        }
      ],
      "name": "EmergencyWithdraw",
      "type": "event"
    },
    {
      "anonymous": false,
      "inputs": [
        {
          "indexed": false,
          "internalType": "uint256",
          "name": "LevelNumber",
          "type": "uint256"
        },
        {
          "indexed": false,
          "internalType": "uint256",
          "name": "Time",
          "type": "uint256"
        },
        {
          "indexed": false,
          "internalType": "address",
          "name": "User",
          "type": "address"
        }
      ],
      "name": "LevelBought",
      "type": "event"
    },
    {
      "anonymous": false,
      "inputs": [
        {
          "indexed": true,
          "internalType": "address",
          "name": "previousOwner",
          "type": "address"
        },
        {
          "indexed": true,
          "internalType": "address",
          "name": "newOwner",
          "type": "address"
        }
      ],
      "name": "OwnershipTransferred",
      "type": "event"
    },
    {
      "anonymous": false,
      "inputs": [
        {
          "indexed": false,
          "internalType": "address",
          "name": "account",
          "type": "address"
        }
      ],
      "name": "Paused",
      "type": "event"
    },
    {
      "anonymous": false,
      "inputs": [
        {
          "indexed": false,
          "internalType": "address",
          "name": "Referall",
          "type": "address"
        },
        {
          "indexed": false,
          "internalType": "address",
          "name": "User",
          "type": "address"
        },
        {
          "indexed": false,
          "internalType": "uint256",
          "name": "Time",
          "type": "uint256"
        },
        {
          "indexed": false,
          "internalType": "uint256",
          "name": "LevelNumber",
          "type": "uint256"
        }
      ],
      "name": "ReferallGetBonus",
      "type": "event"
    },
    {
      "anonymous": false,
      "inputs": [
        {
          "indexed": false,
          "internalType": "address",
          "name": "account",
          "type": "address"
        }
      ],
      "name": "Unpaused",
      "type": "event"
    },
    {
      "stateMutability": "nonpayable",
      "type": "fallback"
    },
    {
      "inputs": [],
      "name": "ReferallBonusPercent",
      "outputs": [
        {
          "internalType": "uint256",
          "name": "",
          "type": "uint256"
        }
      ],
      "stateMutability": "view",
      "type": "function"
    },
    {
      "inputs": [],
      "name": "Token",
      "outputs": [
        {
          "internalType": "contract IERC20",
          "name": "",
          "type": "address"
        }
      ],
      "stateMutability": "view",
      "type": "function"
    },
    {
      "inputs": [],
      "name": "TotalBoughtLevels",
      "outputs": [
        {
          "internalType": "uint256",
          "name": "",
          "type": "uint256"
        }
      ],
      "stateMutability": "view",
      "type": "function"
    },
    {
      "inputs": [
        {
          "internalType": "uint256",
          "name": "buyLvl",
          "type": "uint256"
        },
        {
          "internalType": "address",
          "name": "_refferal",
          "type": "address"
        }
      ],
      "name": "buyLevel",
      "outputs": [],
      "stateMutability": "nonpayable",
      "type": "function"
    },
    {
      "inputs": [
        {
          "internalType": "uint256",
          "name": "_level",
          "type": "uint256"
        },
        {
          "internalType": "uint256",
          "name": "_count",
          "type": "uint256"
        }
      ],
      "name": "changeMaxCountBuyLevel",
      "outputs": [
        {
          "internalType": "uint256",
          "name": "",
          "type": "uint256"
        }
      ],
      "stateMutability": "nonpayable",
      "type": "function"
    },
    {
      "inputs": [
        {
          "internalType": "uint256",
          "name": "percent",
          "type": "uint256"
        }
      ],
      "name": "changeReferallPercent",
      "outputs": [
        {
          "internalType": "uint256",
          "name": "",
          "type": "uint256"
        }
      ],
      "stateMutability": "nonpayable",
      "type": "function"
    },
    {
      "inputs": [
        {
          "internalType": "contract IERC20",
          "name": "_token",
          "type": "address"
        }
      ],
      "name": "changeToken",
      "outputs": [],
      "stateMutability": "nonpayable",
      "type": "function"
    },
    {
      "inputs": [
        {
          "internalType": "uint256",
          "name": "_level",
          "type": "uint256"
        }
      ],
      "name": "closeLevelAndSendReward",
      "outputs": [],
      "stateMutability": "nonpayable",
      "type": "function"
    },
    {
      "inputs": [
        {
          "internalType": "uint256",
          "name": "_numberLvl",
          "type": "uint256"
        },
        {
          "internalType": "uint256",
          "name": "_priceStart",
          "type": "uint256"
        },
        {
          "internalType": "uint256",
          "name": "_refillCount",
          "type": "uint256"
        },
        {
          "internalType": "uint256",
          "name": "_refillPercent",
          "type": "uint256"
        },
        {
          "internalType": "uint256",
          "name": "_maxCount",
          "type": "uint256"
        }
      ],
      "name": "createNewLvl",
      "outputs": [
        {
          "internalType": "uint256",
          "name": "",
          "type": "uint256"
        }
      ],
      "stateMutability": "nonpayable",
      "type": "function"
    },
    {
      "inputs": [
        {
          "internalType": "uint256",
          "name": "levelNumber",
          "type": "uint256"
        }
      ],
      "name": "currentQueueInLevel",
      "outputs": [
        {
          "internalType": "address[]",
          "name": "",
          "type": "address[]"
        }
      ],
      "stateMutability": "view",
      "type": "function"
    },
    {
      "inputs": [
        {
          "internalType": "uint256",
          "name": "",
          "type": "uint256"
        }
      ],
      "name": "levels",
      "outputs": [
        {
          "internalType": "uint256",
          "name": "numberLvl",
          "type": "uint256"
        },
        {
          "internalType": "uint256",
          "name": "priceToStart",
          "type": "uint256"
        },
        {
          "internalType": "uint256",
          "name": "refillCount",
          "type": "uint256"
        },
        {
          "internalType": "uint256",
          "name": "refillPercent",
          "type": "uint256"
        },
        {
          "internalType": "uint256",
          "name": "MaxCountToBuyLevelSingleAddress",
          "type": "uint256"
        }
      ],
      "stateMutability": "view",
      "type": "function"
    },
    {
      "inputs": [],
      "name": "owner",
      "outputs": [
        {
          "internalType": "address",
          "name": "",
          "type": "address"
        }
      ],
      "stateMutability": "view",
      "type": "function"
    },
    {
      "inputs": [],
      "name": "paused",
      "outputs": [
        {
          "internalType": "bool",
          "name": "",
          "type": "bool"
        }
      ],
      "stateMutability": "view",
      "type": "function"
    },
    {
      "inputs": [],
      "name": "renounceOwnership",
      "outputs": [],
      "stateMutability": "nonpayable",
      "type": "function"
    },
    {
      "inputs": [
        {
          "internalType": "address",
          "name": "newOwner",
          "type": "address"
        }
      ],
      "name": "transferOwnership",
      "outputs": [],
      "stateMutability": "nonpayable",
      "type": "function"
    },
    {
      "inputs": [
        {
          "internalType": "address",
          "name": "",
          "type": "address"
        }
      ],
      "name": "users",
      "outputs": [
        {
          "internalType": "address",
          "name": "user",
          "type": "address"
        },
        {
          "internalType": "address",
          "name": "referral",
          "type": "address"
        },
        {
          "internalType": "uint256",
          "name": "currentlvl",
          "type": "uint256"
        },
        {
          "internalType": "uint256",
          "name": "deposited",
          "type": "uint256"
        },
        {
          "internalType": "uint256",
          "name": "earned",
          "type": "uint256"
        },
        {
          "internalType": "uint256",
          "name": "countOfBuyingLevels",
          "type": "uint256"
        }
      ],
      "stateMutability": "view",
      "type": "function"
    },
    {
      "inputs": [
        {
          "internalType": "address",
          "name": "token",
          "type": "address"
        },
        {
          "internalType": "uint256",
          "name": "amount",
          "type": "uint256"
        }
      ],
      "name": "witdhraw",
      "outputs": [],
      "stateMutability": "nonpayable",
      "type": "function"
    },
    {
      "stateMutability": "payable",
      "type": "receive"
    }
  ],
  "bytecode": "0x6080604052600a6005553480156200001657600080fd5b5060405162001d3838038062001d388339810160408190526200003991620003bd565b62000044336200017e565b60018055600280546001600160a81b0319166101006001600160a01b038516021790556200007281620001ce565b6200008e600068022b1c8c1227a00000600360c8600262000251565b50620000aa60016804e1003b28d9280000600460968362000251565b50620000c7600268093739534d28680000600460af600162000251565b50620000e46003680ea300b17a8b780000600560c8600162000251565b50620001016004681b1ae4d6e2ef500000600560e1600162000251565b506200011d60056830ca024f987b9000008160fa600162000251565b506200013b6006685150ae84a8cdf000006005610113600162000251565b50620001586007686c6b935b8bbd4000008161012c600162000251565b5062000175600868a2a15d09519be0000081610145600162000251565b505050620003fc565b600080546001600160a01b038381166001600160a01b0319831681178455604051919092169283917f8be0079c531659141344cd1fd0a4f28419497f9722a3daafe3b4186f6b6457e09190a35050565b620001d8620002f5565b6001600160a01b038116620002435760405162461bcd60e51b815260206004820152602660248201527f4f776e61626c653a206e6577206f776e657220697320746865207a65726f206160448201526564647265737360d01b60648201526084015b60405180910390fd5b6200024e816200017e565b50565b60006200025d620002f5565b6200026762000353565b600086815260046020818152604092839020898155600181018990556002810188905560038101879055918201859055825189815290810188905291820186905260608201859052608082018490524260a0830152907f8facac00b97205d28ced8b122d640abfdf7aedc107b011a3009fd0910500925c9060c00160405180910390a1509495945050505050565b6000546001600160a01b03163314620003515760405162461bcd60e51b815260206004820181905260248201527f4f776e61626c653a2063616c6c6572206973206e6f7420746865206f776e657260448201526064016200023a565b565b60025460ff16620003515760405162461bcd60e51b815260206004820152601460248201527f5061757361626c653a206e6f742070617573656400000000000000000000000060448201526064016200023a565b6001600160a01b03811681146200024e57600080fd5b60008060408385031215620003d157600080fd5b8251620003de81620003a7565b6020840151909250620003f181620003a7565b809150509250929050565b61192c806200040c6000396000f3fe6080604052600436106101125760003560e01c806377a58415116100a5578063ab7a6bf111610074578063c241267611610059578063c2412676146103ec578063e176ce0a1461041e578063f2fde38b1461044b57610119565b8063ab7a6bf114610359578063b2596a671461037957610119565b806377a584151461021e578063855b42831461023e5780638da5cb5b1461025e578063a87430ba146102aa57610119565b80635c975abb116100e15780635c975abb146101a657806364e5322a146101c957806366829b16146101e9578063715018a61461020957610119565b80631ce480f3146101275780632d5339e01461015a57806344b0d9d8146101705780634b70e8e71461019057610119565b3661011957005b34801561012557600080fd5b005b34801561013357600080fd5b506101476101423660046115ca565b61046b565b6040519081526020015b60405180910390f35b34801561016657600080fd5b5061014760065481565b34801561017c57600080fd5b5061014761018b366004611605565b61050b565b34801561019c57600080fd5b5061014760055481565b3480156101b257600080fd5b5060025460ff166040519015158152602001610151565b3480156101d557600080fd5b506101256101e4366004611649565b61053b565b3480156101f557600080fd5b50610125610204366004611679565b6109a8565b34801561021557600080fd5b50610125610a04565b34801561022a57600080fd5b5061012561023936600461169d565b610a18565b34801561024a57600080fd5b506101476102593660046116c9565b610abc565b34801561026a57600080fd5b5060005473ffffffffffffffffffffffffffffffffffffffff165b60405173ffffffffffffffffffffffffffffffffffffffff9091168152602001610151565b3480156102b657600080fd5b506103146102c5366004611679565b600360208190526000918252604090912080546001820154600283015493830154600484015460059094015473ffffffffffffffffffffffffffffffffffffffff938416959390921693909186565b6040805173ffffffffffffffffffffffffffffffffffffffff9788168152969095166020870152938501929092526060840152608083015260a082015260c001610151565b34801561036557600080fd5b506101256103743660046116c9565b610ad7565b34801561038557600080fd5b506103c46103943660046116c9565b60046020819052600091825260409091208054600182015460028301546003840154939094015491939092909185565b604080519586526020860194909452928401919091526060830152608082015260a001610151565b3480156103f857600080fd5b5060025461028590610100900473ffffffffffffffffffffffffffffffffffffffff1681565b34801561042a57600080fd5b5061043e6104393660046116c9565b610c5c565b60405161015191906116e2565b34801561045757600080fd5b50610125610466366004611679565b610cdb565b6000610475610d92565b61047d610e13565b600086815260046020818152604092839020898155600181018990556002810188905560038101879055918201859055825189815290810188905291820186905260608201859052608082018490524260a0830152907f8facac00b97205d28ced8b122d640abfdf7aedc107b011a3009fd0910500925c9060c00160405180910390a1509495945050505050565b6000610515610d92565b61051d610e13565b50600082815260046020819052604090912001819055805b92915050565b6002600154036105ac576040517f08c379a000000000000000000000000000000000000000000000000000000000815260206004820152601f60248201527f5265656e7472616e637947756172643a207265656e7472616e742063616c6c0060448201526064015b60405180910390fd5b60026001556105b9610e7f565b33600090815260036020908152604080832085845260049092528220909173ffffffffffffffffffffffffffffffffffffffff8416900361067c576040517f08c379a000000000000000000000000000000000000000000000000000000000815260206004820152603360248201527f696620796f7520646f6e74206861766520726566666572616c2061646472657360448201527f73207573652061646472657373206f776e65720000000000000000000000000060648201526084016105a3565b600182810180547fffffffffffffffffffffffff00000000000000000000000000000000000000001673ffffffffffffffffffffffffffffffffffffffff8616179055600283015485916106d0919061176b565b1015610738576040517f08c379a000000000000000000000000000000000000000000000000000000000815260206004820152601d60248201527f596f75206e65656420746f20627579206561726c696572206c6576656c00000060448201526064016105a3565b60025460018201546040517f23b872dd000000000000000000000000000000000000000000000000000000008152336004820152306024820152604481019190915261010090910473ffffffffffffffffffffffffffffffffffffffff16906323b872dd906064016020604051808303816000875af11580156107bf573d6000803e3d6000fd5b505050506040513d601f19601f820116820180604052508101906107e3919061177e565b5060028201849055600181015460038301805460009061080490849061176b565b909155505081547fffffffffffffffffffffffff00000000000000000000000000000000000000001633178255600582018054906000610843836117a0565b909155505060008481526007830160205260408120805491610864836117a0565b90915550506004810154600085815260078401602052604090205411156108e7576040517f08c379a000000000000000000000000000000000000000000000000000000000815260206004820181905260248201527f596f752063616e7420627579206d6f72652074686973206c6576656c2079657460448201526064016105a3565b60058101805460028301540361090a57610905826005013387610eec565b61094a565b600582018054600181018255600091825260209091200180547fffffffffffffffffffffffff000000000000000000000000000000000000000016331790555b6006805490600061095a836117a0565b909155505060408051868152426020820152338183015290517f67b7c39dce5fa35f6a4cbe6ec721b5782cc6b7699bec93ff0cd066a22a899b399181900360600190a1505060018055505050565b6109b0610d92565b6109b8610e13565b6002805473ffffffffffffffffffffffffffffffffffffffff909216610100027fffffffffffffffffffffff0000000000000000000000000000000000000000ff909216919091179055565b610a0c610d92565b610a166000611135565b565b610a20610d92565b6040517fa9059cbb0000000000000000000000000000000000000000000000000000000081523360048201526024810182905273ffffffffffffffffffffffffffffffffffffffff83169063a9059cbb906044016020604051808303816000875af1158015610a93573d6000803e3d6000fd5b505050506040513d601f19601f82011682018060405250810190610ab7919061177e565b505050565b6000610ac6610d92565b610ace610e13565b50600581905590565b610adf610d92565b610ae7610e13565b60008181526004602052604081209060058201815b8154811015610c4757818181548110610b1757610b176117d8565b60009182526020909120015460025460018601546040517fa9059cbb00000000000000000000000000000000000000000000000000000000815273ffffffffffffffffffffffffffffffffffffffff9384166004820181905260248201929092529095506101009091049091169063a9059cbb906044016020604051808303816000875af1158015610bad573d6000803e3d6000fd5b505050506040513d601f19601f82011682018060405250810190610bd1919061177e565b50600184015484546040805173ffffffffffffffffffffffffffffffffffffffff871681524260208201529081019290925260608201527f2369db1bafee945aee5630782f4a170682e3f8188d8dc247a4c73eb8c9e692d29060800160405180910390a180610c3f816117a0565b915050610afc565b50610c56600584016000611547565b50505050565b6000818152600460209081526040918290206005810180548451818502810185019095528085526060949293830182828015610cce57602002820191906000526020600020905b815473ffffffffffffffffffffffffffffffffffffffff168152600190910190602001808311610ca3575b5050505050915050919050565b610ce3610d92565b73ffffffffffffffffffffffffffffffffffffffff8116610d86576040517f08c379a000000000000000000000000000000000000000000000000000000000815260206004820152602660248201527f4f776e61626c653a206e6577206f776e657220697320746865207a65726f206160448201527f646472657373000000000000000000000000000000000000000000000000000060648201526084016105a3565b610d8f81611135565b50565b60005473ffffffffffffffffffffffffffffffffffffffff163314610a16576040517f08c379a000000000000000000000000000000000000000000000000000000000815260206004820181905260248201527f4f776e61626c653a2063616c6c6572206973206e6f7420746865206f776e657260448201526064016105a3565b60025460ff16610a16576040517f08c379a000000000000000000000000000000000000000000000000000000000815260206004820152601460248201527f5061757361626c653a206e6f742070617573656400000000000000000000000060448201526064016105a3565b60025460ff1615610a16576040517f08c379a000000000000000000000000000000000000000000000000000000000815260206004820152601060248201527f5061757361626c653a207061757365640000000000000000000000000000000060448201526064016105a3565b6000818152600460205260408120845490919085908290610f0f57610f0f6117d8565b600091825260208083209091015473ffffffffffffffffffffffffffffffffffffffff168083526003918290526040832091850154600186015491945091929190610f5c90606490611807565b610f669190611842565b9050808260040154610f78919061176b565b6004838101919091556002546040517fa9059cbb00000000000000000000000000000000000000000000000000000000815273ffffffffffffffffffffffffffffffffffffffff86811693820193909352602481018490526101009091049091169063a9059cbb906044016020604051808303816000875af1158015611002573d6000803e3d6000fd5b505050506040513d601f19601f82011682018060405250810190611026919061177e565b506110328760006111aa565b80546001810182556000828152602090200180547fffffffffffffffffffffffff00000000000000000000000000000000000000001673ffffffffffffffffffffffffffffffffffffffff8916179055965061108d83611357565b600085815260078301602052604081208054916110a98361187f565b909155505086546110c09060058601908990611565565b506001820154825485546040805173ffffffffffffffffffffffffffffffffffffffff9485168152939092166020840152429183019190915260608201527f2496e048edda281349e32d9ccb972de94737d94c958c5d182a0e1ed90602fd9a906080015b60405180910390a150505050505050565b6000805473ffffffffffffffffffffffffffffffffffffffff8381167fffffffffffffffffffffffff0000000000000000000000000000000000000000831681178455604051919092169283917f8be0079c531659141344cd1fd0a4f28419497f9722a3daafe3b4186f6b6457e09190a35050565b81546000908210611217576040517f08c379a000000000000000000000000000000000000000000000000000000000815260206004820152601260248201527f696e646578206f7574206f6620626f756e64000000000000000000000000000060448201526064016105a3565b815b8354611227906001906118b4565b8110156112e7578361123a82600161176b565b8154811061124a5761124a6117d8565b9060005260206000200160009054906101000a900473ffffffffffffffffffffffffffffffffffffffff16848281548110611287576112876117d8565b600091825260209091200180547fffffffffffffffffffffffff00000000000000000000000000000000000000001673ffffffffffffffffffffffffffffffffffffffff92909216919091179055806112df816117a0565b915050611219565b50828054806112f8576112f86118c7565b6000828152602090207fffffffffffffffffffffffffffffffffffffffffffffffffffffffffffffffff908201810180547fffffffffffffffffffffffff00000000000000000000000000000000000000001690550190555090919050565b73ffffffffffffffffffffffffffffffffffffffff8082166000908152600360209081526040808320600180820154600283015480875260049095529285206005549181015492969390931694916113b190606490611807565b6113bb9190611842565b600186015473ffffffffffffffffffffffffffffffffffffffff1660009081526003602052604090206004810154919250906113f890839061176b565b600482810191909155600682018054600181018255600091825260209091200180547fffffffffffffffffffffffff00000000000000000000000000000000000000001673ffffffffffffffffffffffffffffffffffffffff8a8116919091179091556002546040517fa9059cbb00000000000000000000000000000000000000000000000000000000815288831693810193909352602483018590526101009004169063a9059cbb906044016020604051808303816000875af11580156114c4573d6000803e3d6000fd5b505050506040513d601f19601f820116820180604052508101906114e8919061177e565b506040805173ffffffffffffffffffffffffffffffffffffffff8088168252891660208201524291810191909152606081018590527f2496e048edda281349e32d9ccb972de94737d94c958c5d182a0e1ed90602fd9a90608001611124565b5080546000825590600052602060002090810190610d8f91906115b5565b8280548282559060005260206000209081019282156115a55760005260206000209182015b828111156115a557825482559160010191906001019061158a565b506115b19291506115b5565b5090565b5b808211156115b157600081556001016115b6565b600080600080600060a086880312156115e257600080fd5b505083359560208501359550604085013594606081013594506080013592509050565b6000806040838503121561161857600080fd5b50508035926020909101359150565b73ffffffffffffffffffffffffffffffffffffffff81168114610d8f57600080fd5b6000806040838503121561165c57600080fd5b82359150602083013561166e81611627565b809150509250929050565b60006020828403121561168b57600080fd5b813561169681611627565b9392505050565b600080604083850312156116b057600080fd5b82356116bb81611627565b946020939093013593505050565b6000602082840312156116db57600080fd5b5035919050565b6020808252825182820181905260009190848201906040850190845b8181101561173057835173ffffffffffffffffffffffffffffffffffffffff16835292840192918401916001016116fe565b50909695505050505050565b7f4e487b7100000000000000000000000000000000000000000000000000000000600052601160045260246000fd5b808201808211156105355761053561173c565b60006020828403121561179057600080fd5b8151801515811461169657600080fd5b60007fffffffffffffffffffffffffffffffffffffffffffffffffffffffffffffffff82036117d1576117d161173c565b5060010190565b7f4e487b7100000000000000000000000000000000000000000000000000000000600052603260045260246000fd5b60008261183d577f4e487b7100000000000000000000000000000000000000000000000000000000600052601260045260246000fd5b500490565b6000817fffffffffffffffffffffffffffffffffffffffffffffffffffffffffffffffff048311821515161561187a5761187a61173c565b500290565b60008161188e5761188e61173c565b507fffffffffffffffffffffffffffffffffffffffffffffffffffffffffffffffff0190565b818103818111156105355761053561173c565b7f4e487b7100000000000000000000000000000000000000000000000000000000600052603160045260246000fdfea26469706673582212200675f01544b1bd030cbccc51b0beee751ca3e2f5ebd9b2158eef5540c98d527d64736f6c63430008100033",
  "linkReferences": {},
  "deployedLinkReferences": {}
}