{
  "_format": "hh-sol-artifact-1",
  "contractName": "SkyMoney",
  "sourceName": "contracts/SkyMoney.sol",
  "abi": [
    {
      "inputs": [
        {
          "internalType": "contract IERC20",
          "name": "token_",
          "type": "address"
        },
        {
          "internalType": "address",
          "name": "owner_",
          "type": "address"
        }
      ],
      "stateMutability": "nonpayable",
      "type": "constructor"
    },
    {
      "anonymous": false,
      "inputs": [
        {
          "indexed": false,
          "internalType": "uint256",
          "name": "LevelNumber",
          "type": "uint256"
        },
        {
          "indexed": false,
          "internalType": "uint256",
          "name": "PriseToStart",
          "type": "uint256"
        },
        {
          "indexed": false,
          "internalType": "uint256",
          "name": "RefillCount",
          "type": "uint256"
        },
        {
          "indexed": false,
          "internalType": "uint256",
          "name": "RefillPercent",
          "type": "uint256"
        },
        {
          "indexed": false,
          "internalType": "uint256",
          "name": "MaxCountForSingleAddress",
          "type": "uint256"
        },
        {
          "indexed": false,
          "internalType": "uint256",
          "name": "Time",
          "type": "uint256"
        }
      ],
      "name": "CreatedNewLevel",
      "type": "event"
    },
    {
      "anonymous": false,
      "inputs": [
        {
          "indexed": false,
          "internalType": "address",
          "name": "User",
          "type": "address"
        },
        {
          "indexed": false,
          "internalType": "uint256",
          "name": "Time",
          "type": "uint256"
        },
        {
          "indexed": false,
          "internalType": "uint256",
          "name": "amount",
          "type": "uint256"
        },
        {
          "indexed": false,
          "internalType": "uint256",
          "name": "LevelNumber",
          "type": "uint256"
        }
      ],
      "name": "EmergencyWithdraw",
      "type": "event"
    },
    {
      "anonymous": false,
      "inputs": [
        {
          "indexed": false,
          "internalType": "uint256",
          "name": "LevelNumber",
          "type": "uint256"
        },
        {
          "indexed": false,
          "internalType": "uint256",
          "name": "Time",
          "type": "uint256"
        },
        {
          "indexed": false,
          "internalType": "address",
          "name": "User",
          "type": "address"
        }
      ],
      "name": "LevelBought",
      "type": "event"
    },
    {
      "anonymous": false,
      "inputs": [
        {
          "indexed": true,
          "internalType": "address",
          "name": "previousOwner",
          "type": "address"
        },
        {
          "indexed": true,
          "internalType": "address",
          "name": "newOwner",
          "type": "address"
        }
      ],
      "name": "OwnershipTransferred",
      "type": "event"
    },
    {
      "anonymous": false,
      "inputs": [
        {
          "indexed": false,
          "internalType": "address",
          "name": "Referall",
          "type": "address"
        },
        {
          "indexed": false,
          "internalType": "address",
          "name": "User",
          "type": "address"
        },
        {
          "indexed": false,
          "internalType": "uint256",
          "name": "Time",
          "type": "uint256"
        },
        {
          "indexed": false,
          "internalType": "uint256",
          "name": "LevelNumber",
          "type": "uint256"
        }
      ],
      "name": "ReferallGetBonus",
      "type": "event"
    },
    {
      "stateMutability": "nonpayable",
      "type": "fallback"
    },
    {
      "inputs": [],
      "name": "ReferallBonusPercent",
      "outputs": [
        {
          "internalType": "uint256",
          "name": "",
          "type": "uint256"
        }
      ],
      "stateMutability": "view",
      "type": "function"
    },
    {
      "inputs": [],
      "name": "Token",
      "outputs": [
        {
          "internalType": "contract IERC20",
          "name": "",
          "type": "address"
        }
      ],
      "stateMutability": "view",
      "type": "function"
    },
    {
      "inputs": [],
      "name": "TotalBoughtLevels",
      "outputs": [
        {
          "internalType": "uint256",
          "name": "",
          "type": "uint256"
        }
      ],
      "stateMutability": "view",
      "type": "function"
    },
    {
      "inputs": [
        {
          "internalType": "uint256",
          "name": "buyLvl",
          "type": "uint256"
        },
        {
          "internalType": "address",
          "name": "_refferal",
          "type": "address"
        }
      ],
      "name": "buyLevel",
      "outputs": [],
      "stateMutability": "nonpayable",
      "type": "function"
    },
    {
      "inputs": [
        {
          "internalType": "uint256",
          "name": "_level",
          "type": "uint256"
        }
      ],
      "name": "closeLevelAndSendReward",
      "outputs": [],
      "stateMutability": "nonpayable",
      "type": "function"
    },
    {
      "inputs": [
        {
          "internalType": "uint256",
          "name": "_numberLvl",
          "type": "uint256"
        },
        {
          "internalType": "uint256",
          "name": "_priceStart",
          "type": "uint256"
        },
        {
          "internalType": "uint256",
          "name": "_refillCount",
          "type": "uint256"
        },
        {
          "internalType": "uint256",
          "name": "_refillPercent",
          "type": "uint256"
        },
        {
          "internalType": "uint256",
          "name": "_maxCount",
          "type": "uint256"
        }
      ],
      "name": "createNewLvl",
      "outputs": [
        {
          "internalType": "uint256",
          "name": "",
          "type": "uint256"
        }
      ],
      "stateMutability": "nonpayable",
      "type": "function"
    },
    {
      "inputs": [
        {
          "internalType": "uint256",
          "name": "levelNumber",
          "type": "uint256"
        }
      ],
      "name": "currentQueueInLevel",
      "outputs": [
        {
          "internalType": "address[]",
          "name": "",
          "type": "address[]"
        }
      ],
      "stateMutability": "view",
      "type": "function"
    },
    {
      "inputs": [
        {
          "internalType": "uint256",
          "name": "",
          "type": "uint256"
        }
      ],
      "name": "levels",
      "outputs": [
        {
          "internalType": "uint256",
          "name": "numberLvl",
          "type": "uint256"
        },
        {
          "internalType": "uint256",
          "name": "priceToStart",
          "type": "uint256"
        },
        {
          "internalType": "uint256",
          "name": "refillCount",
          "type": "uint256"
        },
        {
          "internalType": "uint256",
          "name": "refillPercent",
          "type": "uint256"
        },
        {
          "internalType": "uint256",
          "name": "MaxCountToBuyLevelSingleAddress",
          "type": "uint256"
        }
      ],
      "stateMutability": "view",
      "type": "function"
    },
    {
      "inputs": [],
      "name": "owner",
      "outputs": [
        {
          "internalType": "address",
          "name": "",
          "type": "address"
        }
      ],
      "stateMutability": "view",
      "type": "function"
    },
    {
      "inputs": [],
      "name": "renounceOwnership",
      "outputs": [],
      "stateMutability": "nonpayable",
      "type": "function"
    },
    {
      "inputs": [
        {
          "internalType": "address",
          "name": "newOwner",
          "type": "address"
        }
      ],
      "name": "transferOwnership",
      "outputs": [],
      "stateMutability": "nonpayable",
      "type": "function"
    },
    {
      "inputs": [
        {
          "internalType": "address",
          "name": "",
          "type": "address"
        }
      ],
      "name": "users",
      "outputs": [
        {
          "internalType": "address",
          "name": "user",
          "type": "address"
        },
        {
          "internalType": "address",
          "name": "referral",
          "type": "address"
        },
        {
          "internalType": "uint256",
          "name": "currentlvl",
          "type": "uint256"
        },
        {
          "internalType": "uint256",
          "name": "deposited",
          "type": "uint256"
        },
        {
          "internalType": "uint256",
          "name": "earned",
          "type": "uint256"
        },
        {
          "internalType": "uint256",
          "name": "countOfBuyingLevels",
          "type": "uint256"
        }
      ],
      "stateMutability": "view",
      "type": "function"
    },
    {
      "stateMutability": "payable",
      "type": "receive"
    }
  ],
  "bytecode": "0x608060405260036005553480156200001657600080fd5b50604051620019493803806200194983398101604081905262000039916200035b565b62000044336200017a565b60018055600280546001600160a01b0319166001600160a01b0384161790556200006e81620001ca565b6200008a600068022b1c8c1227a00000600360c860026200024d565b50620000a660016804e1003b28d928000060046096836200024d565b50620000c3600268093739534d28680000600460af60016200024d565b50620000e06003680ea300b17a8b780000600560c860016200024d565b50620000fd6004681b1ae4d6e2ef500000600560e160016200024d565b506200011960056830ca024f987b9000008160fa60016200024d565b50620001376006685150ae84a8cdf00000600561011360016200024d565b50620001546007686c6b935b8bbd4000008161012c60016200024d565b5062000171600868a2a15d09519be000008161014560016200024d565b5050506200039a565b600080546001600160a01b038381166001600160a01b0319831681178455604051919092169283917f8be0079c531659141344cd1fd0a4f28419497f9722a3daafe3b4186f6b6457e09190a35050565b620001d4620002e7565b6001600160a01b0381166200023f5760405162461bcd60e51b815260206004820152602660248201527f4f776e61626c653a206e6577206f776e657220697320746865207a65726f206160448201526564647265737360d01b60648201526084015b60405180910390fd5b6200024a816200017a565b50565b600062000259620002e7565b600086815260046020818152604092839020898155600181018990556002810188905560038101879055918201859055825189815290810188905291820186905260608201859052608082018490524260a0830152907f8facac00b97205d28ced8b122d640abfdf7aedc107b011a3009fd0910500925c9060c00160405180910390a1509495945050505050565b6000546001600160a01b03163314620003435760405162461bcd60e51b815260206004820181905260248201527f4f776e61626c653a2063616c6c6572206973206e6f7420746865206f776e6572604482015260640162000236565b565b6001600160a01b03811681146200024a57600080fd5b600080604083850312156200036f57600080fd5b82516200037c8162000345565b60208401519092506200038f8162000345565b809150509250929050565b61159f80620003aa6000396000f3fe6080604052600436106100cb5760003560e01c8063a87430ba11610074578063c24126761161004e578063c241267614610302578063e176ce0a1461032f578063f2fde38b1461035c576100d2565b8063a87430ba146101c0578063ab7a6bf11461026f578063b2596a671461028f576100d2565b806364e5322a116100a557806364e5322a1461013f578063715018a61461015f5780638da5cb5b14610174576100d2565b80631ce480f3146100e05780632d5339e0146101135780634b70e8e714610129576100d2565b366100d257005b3480156100de57600080fd5b005b3480156100ec57600080fd5b506101006100fb36600461128a565b61037c565b6040519081526020015b60405180910390f35b34801561011f57600080fd5b5061010060065481565b34801561013557600080fd5b5061010060055481565b34801561014b57600080fd5b506100de61015a3660046112ee565b610414565b34801561016b57600080fd5b506100de610875565b34801561018057600080fd5b5060005473ffffffffffffffffffffffffffffffffffffffff165b60405173ffffffffffffffffffffffffffffffffffffffff909116815260200161010a565b3480156101cc57600080fd5b5061022a6101db36600461131a565b600360208190526000918252604090912080546001820154600283015493830154600484015460059094015473ffffffffffffffffffffffffffffffffffffffff938416959390921693909186565b6040805173ffffffffffffffffffffffffffffffffffffffff9788168152969095166020870152938501929092526060840152608083015260a082015260c00161010a565b34801561027b57600080fd5b506100de61028a36600461133c565b610889565b34801561029b57600080fd5b506102da6102aa36600461133c565b60046020819052600091825260409091208054600182015460028301546003840154939094015491939092909185565b604080519586526020860194909452928401919091526060830152608082015260a00161010a565b34801561030e57600080fd5b5060025461019b9073ffffffffffffffffffffffffffffffffffffffff1681565b34801561033b57600080fd5b5061034f61034a36600461133c565b6109ff565b60405161010a9190611355565b34801561036857600080fd5b506100de61037736600461131a565b610a7e565b6000610386610b35565b600086815260046020818152604092839020898155600181018990556002810188905560038101879055918201859055825189815290810188905291820186905260608201859052608082018490524260a0830152907f8facac00b97205d28ced8b122d640abfdf7aedc107b011a3009fd0910500925c9060c00160405180910390a1509495945050505050565b600260015403610485576040517f08c379a000000000000000000000000000000000000000000000000000000000815260206004820152601f60248201527f5265656e7472616e637947756172643a207265656e7472616e742063616c6c0060448201526064015b60405180910390fd5b600260015533600090815260036020908152604080832085845260049092528220909173ffffffffffffffffffffffffffffffffffffffff8416900361054d576040517f08c379a000000000000000000000000000000000000000000000000000000000815260206004820152603360248201527f696620796f7520646f6e74206861766520726566666572616c2061646472657360448201527f73207573652061646472657373206f776e657200000000000000000000000000606482015260840161047c565b600182810180547fffffffffffffffffffffffff00000000000000000000000000000000000000001673ffffffffffffffffffffffffffffffffffffffff8616179055600283015485916105a191906113de565b1015610609576040517f08c379a000000000000000000000000000000000000000000000000000000000815260206004820152601d60248201527f596f75206e65656420746f20627579206561726c696572206c6576656c000000604482015260640161047c565b60025460018201546040517f23b872dd000000000000000000000000000000000000000000000000000000008152336004820152306024820152604481019190915273ffffffffffffffffffffffffffffffffffffffff909116906323b872dd906064016020604051808303816000875af115801561068c573d6000803e3d6000fd5b505050506040513d601f19601f820116820180604052508101906106b091906113f1565b506002820184905560018101546003830180546000906106d19084906113de565b909155505081547fffffffffffffffffffffffff0000000000000000000000000000000000000000163317825560058201805490600061071083611413565b90915550506000848152600783016020526040812080549161073183611413565b90915550506004810154600085815260078401602052604090205411156107b4576040517f08c379a000000000000000000000000000000000000000000000000000000000815260206004820181905260248201527f596f752063616e7420627579206d6f72652074686973206c6576656c20796574604482015260640161047c565b6005810180546002830154036107d7576107d2826005013387610bb6565b610817565b600582018054600181018255600091825260209091200180547fffffffffffffffffffffffff000000000000000000000000000000000000000016331790555b6006805490600061082783611413565b909155505060408051868152426020820152338183015290517f67b7c39dce5fa35f6a4cbe6ec721b5782cc6b7699bec93ff0cd066a22a899b399181900360600190a1505060018055505050565b61087d610b35565b6108876000610df8565b565b610891610b35565b60008181526004602052604081209060058201815b81548110156109ea578181815481106108c1576108c161144b565b60009182526020909120015460025460018601546040517fa9059cbb00000000000000000000000000000000000000000000000000000000815273ffffffffffffffffffffffffffffffffffffffff93841660048201819052602482019290925290955091169063a9059cbb906044016020604051808303816000875af1158015610950573d6000803e3d6000fd5b505050506040513d601f19601f8201168201806040525081019061097491906113f1565b50600184015484546040805173ffffffffffffffffffffffffffffffffffffffff871681524260208201529081019290925260608201527f2369db1bafee945aee5630782f4a170682e3f8188d8dc247a4c73eb8c9e692d29060800160405180910390a1806109e281611413565b9150506108a6565b506109f9600584016000611207565b50505050565b6000818152600460209081526040918290206005810180548451818502810185019095528085526060949293830182828015610a7157602002820191906000526020600020905b815473ffffffffffffffffffffffffffffffffffffffff168152600190910190602001808311610a46575b5050505050915050919050565b610a86610b35565b73ffffffffffffffffffffffffffffffffffffffff8116610b29576040517f08c379a000000000000000000000000000000000000000000000000000000000815260206004820152602660248201527f4f776e61626c653a206e6577206f776e657220697320746865207a65726f206160448201527f6464726573730000000000000000000000000000000000000000000000000000606482015260840161047c565b610b3281610df8565b50565b60005473ffffffffffffffffffffffffffffffffffffffff163314610887576040517f08c379a000000000000000000000000000000000000000000000000000000000815260206004820181905260248201527f4f776e61626c653a2063616c6c6572206973206e6f7420746865206f776e6572604482015260640161047c565b6000818152600460205260408120845490919085908290610bd957610bd961144b565b600091825260208083209091015473ffffffffffffffffffffffffffffffffffffffff168083526003918290526040832091850154600186015491945091929190610c269060649061147a565b610c3091906114b5565b9050808260040154610c4291906113de565b6004838101919091556002546040517fa9059cbb00000000000000000000000000000000000000000000000000000000815273ffffffffffffffffffffffffffffffffffffffff868116938201939093526024810184905291169063a9059cbb906044016020604051808303816000875af1158015610cc5573d6000803e3d6000fd5b505050506040513d601f19601f82011682018060405250810190610ce991906113f1565b50610cf5876000610e6d565b80546001810182556000828152602090200180547fffffffffffffffffffffffff00000000000000000000000000000000000000001673ffffffffffffffffffffffffffffffffffffffff89161790559650610d508361101c565b60008581526007830160205260408120805491610d6c836114f2565b90915550508654610d839060058601908990611225565b506001820154825485546040805173ffffffffffffffffffffffffffffffffffffffff9485168152939092166020840152429183019190915260608201527f2496e048edda281349e32d9ccb972de94737d94c958c5d182a0e1ed90602fd9a906080015b60405180910390a150505050505050565b6000805473ffffffffffffffffffffffffffffffffffffffff8381167fffffffffffffffffffffffff0000000000000000000000000000000000000000831681178455604051919092169283917f8be0079c531659141344cd1fd0a4f28419497f9722a3daafe3b4186f6b6457e09190a35050565b81546000908210610eda576040517f08c379a000000000000000000000000000000000000000000000000000000000815260206004820152601260248201527f696e646578206f7574206f6620626f756e640000000000000000000000000000604482015260640161047c565b815b8354610eea90600190611527565b811015610faa5783610efd8260016113de565b81548110610f0d57610f0d61144b565b9060005260206000200160009054906101000a900473ffffffffffffffffffffffffffffffffffffffff16848281548110610f4a57610f4a61144b565b600091825260209091200180547fffffffffffffffffffffffff00000000000000000000000000000000000000001673ffffffffffffffffffffffffffffffffffffffff9290921691909117905580610fa281611413565b915050610edc565b5082805480610fbb57610fbb61153a565b60008281526020902081017fffffffffffffffffffffffffffffffffffffffffffffffffffffffffffffffff90810180547fffffffffffffffffffffffff000000000000000000000000000000000000000016905501905550815b92915050565b73ffffffffffffffffffffffffffffffffffffffff8082166000908152600360209081526040808320600180820154600283015480875260049095529285206005549181015492969390931694916110769060649061147a565b61108091906114b5565b600186015473ffffffffffffffffffffffffffffffffffffffff1660009081526003602052604090206004810154919250906110bd9083906113de565b600482810191909155600682018054600181018255600091825260209091200180547fffffffffffffffffffffffff00000000000000000000000000000000000000001673ffffffffffffffffffffffffffffffffffffffff8a8116919091179091556002546040517fa9059cbb0000000000000000000000000000000000000000000000000000000081528883169381019390935260248301859052169063a9059cbb906044016020604051808303816000875af1158015611184573d6000803e3d6000fd5b505050506040513d601f19601f820116820180604052508101906111a891906113f1565b506040805173ffffffffffffffffffffffffffffffffffffffff8088168252891660208201524291810191909152606081018590527f2496e048edda281349e32d9ccb972de94737d94c958c5d182a0e1ed90602fd9a90608001610de7565b5080546000825590600052602060002090810190610b329190611275565b8280548282559060005260206000209081019282156112655760005260206000209182015b8281111561126557825482559160010191906001019061124a565b50611271929150611275565b5090565b5b808211156112715760008155600101611276565b600080600080600060a086880312156112a257600080fd5b505083359560208501359550604085013594606081013594506080013592509050565b803573ffffffffffffffffffffffffffffffffffffffff811681146112e957600080fd5b919050565b6000806040838503121561130157600080fd5b82359150611311602084016112c5565b90509250929050565b60006020828403121561132c57600080fd5b611335826112c5565b9392505050565b60006020828403121561134e57600080fd5b5035919050565b6020808252825182820181905260009190848201906040850190845b818110156113a357835173ffffffffffffffffffffffffffffffffffffffff1683529284019291840191600101611371565b50909695505050505050565b7f4e487b7100000000000000000000000000000000000000000000000000000000600052601160045260246000fd5b80820180821115611016576110166113af565b60006020828403121561140357600080fd5b8151801515811461133557600080fd5b60007fffffffffffffffffffffffffffffffffffffffffffffffffffffffffffffffff8203611444576114446113af565b5060010190565b7f4e487b7100000000000000000000000000000000000000000000000000000000600052603260045260246000fd5b6000826114b0577f4e487b7100000000000000000000000000000000000000000000000000000000600052601260045260246000fd5b500490565b6000817fffffffffffffffffffffffffffffffffffffffffffffffffffffffffffffffff04831182151516156114ed576114ed6113af565b500290565b600081611501576115016113af565b507fffffffffffffffffffffffffffffffffffffffffffffffffffffffffffffffff0190565b81810381811115611016576110166113af565b7f4e487b7100000000000000000000000000000000000000000000000000000000600052603160045260246000fdfea264697066735822122017b1d7b2e9b6a79d3792a9d5819479e40d44b22b2ab083381b71622fdcb1085864736f6c63430008100033",
  "linkReferences": {},
  "deployedLinkReferences": {}
}