{
  "_format": "hh-sol-artifact-1",
  "contractName": "SkyMoney",
  "sourceName": "contracts/SkyMoney.sol",
  "abi": [
    {
      "inputs": [
        {
          "internalType": "contract IERC20",
          "name": "token_",
          "type": "address"
        },
        {
          "internalType": "address",
          "name": "owner_",
          "type": "address"
        }
      ],
      "stateMutability": "nonpayable",
      "type": "constructor"
    },
    {
      "anonymous": false,
      "inputs": [
        {
          "indexed": false,
          "internalType": "uint256",
          "name": "LevelNumber",
          "type": "uint256"
        },
        {
          "indexed": false,
          "internalType": "uint256",
          "name": "PriseToStart",
          "type": "uint256"
        },
        {
          "indexed": false,
          "internalType": "uint256",
          "name": "RefillCount",
          "type": "uint256"
        },
        {
          "indexed": false,
          "internalType": "uint256",
          "name": "RefillPercent",
          "type": "uint256"
        },
        {
          "indexed": false,
          "internalType": "uint256",
          "name": "MaxCountForSingleAddress",
          "type": "uint256"
        },
        {
          "indexed": false,
          "internalType": "uint256",
          "name": "Time",
          "type": "uint256"
        }
      ],
      "name": "CreatedNewLevel",
      "type": "event"
    },
    {
      "anonymous": false,
      "inputs": [
        {
          "indexed": false,
          "internalType": "address",
          "name": "User",
          "type": "address"
        },
        {
          "indexed": false,
          "internalType": "uint256",
          "name": "Time",
          "type": "uint256"
        },
        {
          "indexed": false,
          "internalType": "uint256",
          "name": "amount",
          "type": "uint256"
        },
        {
          "indexed": false,
          "internalType": "uint256",
          "name": "LevelNumber",
          "type": "uint256"
        }
      ],
      "name": "EmergencyWithdraw",
      "type": "event"
    },
    {
      "anonymous": false,
      "inputs": [
        {
          "indexed": false,
          "internalType": "uint256",
          "name": "LevelNumber",
          "type": "uint256"
        },
        {
          "indexed": false,
          "internalType": "uint256",
          "name": "Time",
          "type": "uint256"
        },
        {
          "indexed": false,
          "internalType": "address",
          "name": "User",
          "type": "address"
        }
      ],
      "name": "LevelBought",
      "type": "event"
    },
    {
      "anonymous": false,
      "inputs": [
        {
          "indexed": true,
          "internalType": "address",
          "name": "previousOwner",
          "type": "address"
        },
        {
          "indexed": true,
          "internalType": "address",
          "name": "newOwner",
          "type": "address"
        }
      ],
      "name": "OwnershipTransferred",
      "type": "event"
    },
    {
      "anonymous": false,
      "inputs": [
        {
          "indexed": false,
          "internalType": "address",
          "name": "account",
          "type": "address"
        }
      ],
      "name": "Paused",
      "type": "event"
    },
    {
      "anonymous": false,
      "inputs": [
        {
          "indexed": false,
          "internalType": "address",
          "name": "Referall",
          "type": "address"
        },
        {
          "indexed": false,
          "internalType": "address",
          "name": "User",
          "type": "address"
        },
        {
          "indexed": false,
          "internalType": "uint256",
          "name": "Time",
          "type": "uint256"
        },
        {
          "indexed": false,
          "internalType": "uint256",
          "name": "LevelNumber",
          "type": "uint256"
        }
      ],
      "name": "ReferallGetBonus",
      "type": "event"
    },
    {
      "anonymous": false,
      "inputs": [
        {
          "indexed": false,
          "internalType": "address",
          "name": "account",
          "type": "address"
        }
      ],
      "name": "Unpaused",
      "type": "event"
    },
    {
      "stateMutability": "payable",
      "type": "fallback"
    },
    {
      "inputs": [],
      "name": "ReferallBonusPercent",
      "outputs": [
        {
          "internalType": "uint256",
          "name": "",
          "type": "uint256"
        }
      ],
      "stateMutability": "view",
      "type": "function"
    },
    {
      "inputs": [],
      "name": "Token",
      "outputs": [
        {
          "internalType": "contract IERC20",
          "name": "",
          "type": "address"
        }
      ],
      "stateMutability": "view",
      "type": "function"
    },
    {
      "inputs": [],
      "name": "TotalBoughtLevels",
      "outputs": [
        {
          "internalType": "uint256",
          "name": "",
          "type": "uint256"
        }
      ],
      "stateMutability": "view",
      "type": "function"
    },
    {
      "inputs": [],
      "name": "TotalDepositToken",
      "outputs": [
        {
          "internalType": "uint256",
          "name": "",
          "type": "uint256"
        }
      ],
      "stateMutability": "view",
      "type": "function"
    },
    {
      "inputs": [
        {
          "internalType": "uint256",
          "name": "buyLvl",
          "type": "uint256"
        },
        {
          "internalType": "address",
          "name": "_refferal",
          "type": "address"
        }
      ],
      "name": "buyLevel",
      "outputs": [],
      "stateMutability": "nonpayable",
      "type": "function"
    },
    {
      "inputs": [
        {
          "internalType": "uint256",
          "name": "_level",
          "type": "uint256"
        },
        {
          "internalType": "uint256",
          "name": "_count",
          "type": "uint256"
        }
      ],
      "name": "changeMaxCountBuyLevel",
      "outputs": [
        {
          "internalType": "uint256",
          "name": "",
          "type": "uint256"
        }
      ],
      "stateMutability": "nonpayable",
      "type": "function"
    },
    {
      "inputs": [
        {
          "internalType": "uint256",
          "name": "percent",
          "type": "uint256"
        }
      ],
      "name": "changeReferallPercent",
      "outputs": [
        {
          "internalType": "uint256",
          "name": "",
          "type": "uint256"
        }
      ],
      "stateMutability": "nonpayable",
      "type": "function"
    },
    {
      "inputs": [
        {
          "internalType": "contract IERC20",
          "name": "_token",
          "type": "address"
        }
      ],
      "name": "changeToken",
      "outputs": [],
      "stateMutability": "nonpayable",
      "type": "function"
    },
    {
      "inputs": [
        {
          "internalType": "uint256",
          "name": "_level",
          "type": "uint256"
        }
      ],
      "name": "closeLevelAndSendReward",
      "outputs": [],
      "stateMutability": "nonpayable",
      "type": "function"
    },
    {
      "inputs": [
        {
          "internalType": "uint256",
          "name": "_numberLvl",
          "type": "uint256"
        },
        {
          "internalType": "uint256",
          "name": "_priceStart",
          "type": "uint256"
        },
        {
          "internalType": "uint256",
          "name": "_refillCount",
          "type": "uint256"
        },
        {
          "internalType": "uint256",
          "name": "_refillPercent",
          "type": "uint256"
        },
        {
          "internalType": "uint256",
          "name": "_maxCount",
          "type": "uint256"
        }
      ],
      "name": "createNewLvl",
      "outputs": [
        {
          "internalType": "uint256",
          "name": "",
          "type": "uint256"
        }
      ],
      "stateMutability": "nonpayable",
      "type": "function"
    },
    {
      "inputs": [
        {
          "internalType": "uint256",
          "name": "levelNumber",
          "type": "uint256"
        }
      ],
      "name": "currentQueueInLevel",
      "outputs": [
        {
          "internalType": "address[]",
          "name": "",
          "type": "address[]"
        }
      ],
      "stateMutability": "view",
      "type": "function"
    },
    {
      "inputs": [
        {
          "internalType": "uint256",
          "name": "_level",
          "type": "uint256"
        }
      ],
      "name": "getLevel",
      "outputs": [
        {
          "internalType": "uint256",
          "name": "",
          "type": "uint256"
        },
        {
          "internalType": "uint256",
          "name": "",
          "type": "uint256"
        },
        {
          "internalType": "uint256",
          "name": "",
          "type": "uint256"
        },
        {
          "internalType": "uint256",
          "name": "",
          "type": "uint256"
        },
        {
          "internalType": "address[]",
          "name": "",
          "type": "address[]"
        }
      ],
      "stateMutability": "view",
      "type": "function"
    },
    {
      "inputs": [
        {
          "internalType": "address",
          "name": "_user",
          "type": "address"
        }
      ],
      "name": "getUser",
      "outputs": [
        {
          "internalType": "address",
          "name": "",
          "type": "address"
        },
        {
          "internalType": "uint256",
          "name": "",
          "type": "uint256"
        },
        {
          "internalType": "uint256",
          "name": "",
          "type": "uint256"
        },
        {
          "internalType": "uint256",
          "name": "",
          "type": "uint256"
        },
        {
          "internalType": "uint256",
          "name": "",
          "type": "uint256"
        },
        {
          "internalType": "address[]",
          "name": "",
          "type": "address[]"
        }
      ],
      "stateMutability": "view",
      "type": "function"
    },
    {
      "inputs": [
        {
          "internalType": "uint256",
          "name": "",
          "type": "uint256"
        }
      ],
      "name": "levels",
      "outputs": [
        {
          "internalType": "uint256",
          "name": "numberLvl",
          "type": "uint256"
        },
        {
          "internalType": "uint256",
          "name": "priceToStart",
          "type": "uint256"
        },
        {
          "internalType": "uint256",
          "name": "refillCount",
          "type": "uint256"
        },
        {
          "internalType": "uint256",
          "name": "refillPercent",
          "type": "uint256"
        },
        {
          "internalType": "uint256",
          "name": "MaxCountToBuyLevelSingleAddress",
          "type": "uint256"
        },
        {
          "internalType": "uint256",
          "name": "currentSizeArray",
          "type": "uint256"
        }
      ],
      "stateMutability": "view",
      "type": "function"
    },
    {
      "inputs": [],
      "name": "owner",
      "outputs": [
        {
          "internalType": "address",
          "name": "",
          "type": "address"
        }
      ],
      "stateMutability": "view",
      "type": "function"
    },
    {
      "inputs": [],
      "name": "paused",
      "outputs": [
        {
          "internalType": "bool",
          "name": "",
          "type": "bool"
        }
      ],
      "stateMutability": "view",
      "type": "function"
    },
    {
      "inputs": [],
      "name": "renounceOwnership",
      "outputs": [],
      "stateMutability": "nonpayable",
      "type": "function"
    },
    {
      "inputs": [
        {
          "internalType": "address",
          "name": "newOwner",
          "type": "address"
        }
      ],
      "name": "transferOwnership",
      "outputs": [],
      "stateMutability": "nonpayable",
      "type": "function"
    },
    {
      "inputs": [
        {
          "internalType": "address",
          "name": "",
          "type": "address"
        }
      ],
      "name": "users",
      "outputs": [
        {
          "internalType": "address",
          "name": "user",
          "type": "address"
        },
        {
          "internalType": "address",
          "name": "referral",
          "type": "address"
        },
        {
          "internalType": "uint256",
          "name": "currentlvl",
          "type": "uint256"
        },
        {
          "internalType": "uint256",
          "name": "deposited",
          "type": "uint256"
        },
        {
          "internalType": "uint256",
          "name": "earned",
          "type": "uint256"
        },
        {
          "internalType": "uint256",
          "name": "countOfBuyingLevels",
          "type": "uint256"
        }
      ],
      "stateMutability": "view",
      "type": "function"
    },
    {
      "inputs": [
        {
          "internalType": "address",
          "name": "token",
          "type": "address"
        },
        {
          "internalType": "uint256",
          "name": "amount",
          "type": "uint256"
        }
      ],
      "name": "witdhraw",
      "outputs": [],
      "stateMutability": "nonpayable",
      "type": "function"
    },
    {
      "stateMutability": "payable",
      "type": "receive"
    }
  ],
  "bytecode": "0x6080604052600a6005553480156200001657600080fd5b50604051620021a7380380620021a78339810160408190526200003991620004f5565b620000443362000192565b60018055600280546001600160a81b0319166101006001600160a01b038516021790556200007281620001e2565b6200007c62000265565b62000098600068022b1c8c1227a00000600360c8600262000285565b50620000b460016804e1003b28d9280000600460968362000285565b50620000d1600268093739534d28680000600460af600162000285565b50620000ee6003680ea300b17a8b780000600560c8600162000285565b506200010b6004681b1ae4d6e2ef500000600560e1600162000285565b506200012760056830ca024f987b9000008160fa600162000285565b50620001456006685150ae84a8cdf000006005610113600162000285565b50620001626007686c6b935b8bbd4000008161012c600162000285565b506200017f600868a2a15d09519be0000081610145600162000285565b506200018a62000330565b505062000534565b600080546001600160a01b038381166001600160a01b0319831681178455604051919092169283917f8be0079c531659141344cd1fd0a4f28419497f9722a3daafe3b4186f6b6457e09190a35050565b620001ec6200034e565b6001600160a01b038116620002575760405162461bcd60e51b815260206004820152602660248201527f4f776e61626c653a206e6577206f776e657220697320746865207a65726f206160448201526564647265737360d01b60648201526084015b60405180910390fd5b620002628162000192565b50565b6200026f620003aa565b620002796200034e565b62000283620003f2565b565b6000620002916200034e565b6200029b6200044f565b60008681526004602081815260409283902089815560018101899055600281018890556005810188905560038101879055918201859055825189815290810188905291820186905260608201859052608082018490524260a0830152907f8facac00b97205d28ced8b122d640abfdf7aedc107b011a3009fd0910500925c9060c00160405180910390a1509495945050505050565b6200033a6200044f565b620003446200034e565b62000283620004a3565b6000546001600160a01b03163314620002835760405162461bcd60e51b815260206004820181905260248201527f4f776e61626c653a2063616c6c6572206973206e6f7420746865206f776e657260448201526064016200024e565b60025460ff1615620002835760405162461bcd60e51b815260206004820152601060248201526f14185d5cd8589b194e881c185d5cd95960821b60448201526064016200024e565b620003fc620003aa565b6002805460ff191660011790557f62e78cea01bee320cd4e420270b5ea74000d11b0c9f74754ebdbfc544b05a258620004323390565b6040516001600160a01b03909116815260200160405180910390a1565b60025460ff16620002835760405162461bcd60e51b815260206004820152601460248201527f5061757361626c653a206e6f742070617573656400000000000000000000000060448201526064016200024e565b620004ad6200044f565b6002805460ff191690557f5db9ee0a495bf2e6ff9c91a7834c1ba4fdd244a5e8aa4e537bd38aeae4b073aa3362000432565b6001600160a01b03811681146200026257600080fd5b600080604083850312156200050957600080fd5b82516200051681620004df565b60208401519092506200052981620004df565b809150509250929050565b611c6380620005446000396000f3fe60806040526004361061014b5760003560e01c806377a58415116100b4578063ab7a6bf11161006e578063c241267611610056578063c24126761461049c578063e176ce0a146104ce578063f2fde38b146104fb57005b8063ab7a6bf1146103ff578063b2596a671461041f57005b806386481d401161009c57806386481d40146102d35780638da5cb5b14610304578063a87430ba1461035057005b806377a5841514610293578063855b4283146102b357005b806364e5322a116101055780636f77926b116100ed5780636f77926b14610236578063715018a61461026857806374a9f9d91461027d57005b806364e5322a146101f657806366829b161461021657005b806344b0d9d81161013357806344b0d9d81461019d5780634b70e8e7146101bd5780635c975abb146101d357005b80631ce480f3146101545780632d5339e01461018757005b3661015257005b005b34801561016057600080fd5b5061017461016f36600461186e565b61051b565b6040519081526020015b60405180910390f35b34801561019357600080fd5b5061017460065481565b3480156101a957600080fd5b506101746101b83660046118a9565b6105c2565b3480156101c957600080fd5b5061017460055481565b3480156101df57600080fd5b5060025460ff16604051901515815260200161017e565b34801561020257600080fd5b506101526102113660046118ed565b6105f2565b34801561022257600080fd5b5061015261023136600461191d565b610a8f565b34801561024257600080fd5b5061025661025136600461191d565b610aeb565b60405161017e96959493929190611992565b34801561027457600080fd5b50610152610bf4565b34801561028957600080fd5b5061017460075481565b34801561029f57600080fd5b506101526102ae3660046119e5565b610c08565b3480156102bf57600080fd5b506101746102ce366004611a11565b610cac565b3480156102df57600080fd5b506102f36102ee366004611a11565b610cc7565b60405161017e959493929190611a2a565b34801561031057600080fd5b5060005473ffffffffffffffffffffffffffffffffffffffff165b60405173ffffffffffffffffffffffffffffffffffffffff909116815260200161017e565b34801561035c57600080fd5b506103ba61036b36600461191d565b600360208190526000918252604090912080546001820154600283015493830154600484015460059094015473ffffffffffffffffffffffffffffffffffffffff938416959390921693909186565b6040805173ffffffffffffffffffffffffffffffffffffffff9788168152969095166020870152938501929092526060840152608083015260a082015260c00161017e565b34801561040b57600080fd5b5061015261041a366004611a11565b610d7b565b34801561042b57600080fd5b5061046f61043a366004611a11565b600460208190526000918252604090912080546001820154600283015460038401549484015460059094015492949193909286565b604080519687526020870195909552938501929092526060840152608083015260a082015260c00161017e565b3480156104a857600080fd5b5060025461032b90610100900473ffffffffffffffffffffffffffffffffffffffff1681565b3480156104da57600080fd5b506104ee6104e9366004611a11565b610f00565b60405161017e9190611a60565b34801561050757600080fd5b5061015261051636600461191d565b610f7f565b6000610525611036565b61052d6110b7565b60008681526004602081815260409283902089815560018101899055600281018890556005810188905560038101879055918201859055825189815290810188905291820186905260608201859052608082018490524260a0830152907f8facac00b97205d28ced8b122d640abfdf7aedc107b011a3009fd0910500925c9060c00160405180910390a1509495945050505050565b60006105cc611036565b6105d46110b7565b50600082815260046020819052604090912001819055805b92915050565b600260015403610663576040517f08c379a000000000000000000000000000000000000000000000000000000000815260206004820152601f60248201527f5265656e7472616e637947756172643a207265656e7472616e742063616c6c0060448201526064015b60405180910390fd5b6002600155610670611123565b33600090815260036020908152604080832085845260049092528220909173ffffffffffffffffffffffffffffffffffffffff84169003610733576040517f08c379a000000000000000000000000000000000000000000000000000000000815260206004820152603360248201527f696620796f7520646f6e74206861766520726566666572616c2061646472657360448201527f73207573652061646472657373206f776e657200000000000000000000000000606482015260840161065a565b600182810180547fffffffffffffffffffffffff00000000000000000000000000000000000000001673ffffffffffffffffffffffffffffffffffffffff8616179055600283015485916107879190611aa2565b10156107ef576040517f08c379a000000000000000000000000000000000000000000000000000000000815260206004820152601d60248201527f596f75206e65656420746f20627579206561726c696572206c6576656c000000604482015260640161065a565b60025460018201546040517f23b872dd000000000000000000000000000000000000000000000000000000008152336004820152306024820152604481019190915261010090910473ffffffffffffffffffffffffffffffffffffffff16906323b872dd906064016020604051808303816000875af1158015610876573d6000803e3d6000fd5b505050506040513d601f19601f8201168201806040525081019061089a9190611ab5565b506002820184905560018101546003830180546000906108bb908490611aa2565b909155505081547fffffffffffffffffffffffff000000000000000000000000000000000000000016331782556005820180549060006108fa83611ad7565b90915550506000848152600783016020526040812080549161091b83611ad7565b919050555080600101546007546109329190611aa2565b60079081556004820154600086815291840160205260409091205411156109b5576040517f08c379a000000000000000000000000000000000000000000000000000000000815260206004820181905260248201527f596f752063616e7420627579206d6f72652074686973206c6576656c20796574604482015260640161065a565b6006810180546005830154036109f1576109d3826006013387611190565b816002015482600501546109e79190611aa2565b6005830155610a31565b600682018054600181018255600091825260209091200180547fffffffffffffffffffffffff000000000000000000000000000000000000000016331790555b60068054906000610a4183611ad7565b909155505060408051868152426020820152338183015290517f67b7c39dce5fa35f6a4cbe6ec721b5782cc6b7699bec93ff0cd066a22a899b399181900360600190a1505060018055505050565b610a97611036565b610a9f6110b7565b6002805473ffffffffffffffffffffffffffffffffffffffff909216610100027fffffffffffffffffffffff0000000000000000000000000000000000000000ff909216919091179055565b600080600080600060606000600360008973ffffffffffffffffffffffffffffffffffffffff1673ffffffffffffffffffffffffffffffffffffffff16815260200190815260200160002090508060010160009054906101000a900473ffffffffffffffffffffffffffffffffffffffff1681600201548260030154836004015484600501548560060180805480602002602001604051908101604052809291908181526020018280548015610bd757602002820191906000526020600020905b815473ffffffffffffffffffffffffffffffffffffffff168152600190910190602001808311610bac575b505050505090509650965096509650965096505091939550919395565b610bfc611036565b610c0660006113d9565b565b610c10611036565b6040517fa9059cbb0000000000000000000000000000000000000000000000000000000081523360048201526024810182905273ffffffffffffffffffffffffffffffffffffffff83169063a9059cbb906044016020604051808303816000875af1158015610c83573d6000803e3d6000fd5b505050506040513d601f19601f82011682018060405250810190610ca79190611ab5565b505050565b6000610cb6611036565b610cbe6110b7565b50600581905590565b6000806000806060600060046000888152602001908152602001600020905080600101548160020154826003015483600401548460060180805480602002602001604051908101604052809291908181526020018280548015610d6057602002820191906000526020600020905b815473ffffffffffffffffffffffffffffffffffffffff168152600190910190602001808311610d35575b50505050509050955095509550955095505091939590929450565b610d83611036565b610d8b6110b7565b60008181526004602052604081209060068201815b8154811015610eeb57818181548110610dbb57610dbb611b0f565b60009182526020909120015460025460018601546040517fa9059cbb00000000000000000000000000000000000000000000000000000000815273ffffffffffffffffffffffffffffffffffffffff9384166004820181905260248201929092529095506101009091049091169063a9059cbb906044016020604051808303816000875af1158015610e51573d6000803e3d6000fd5b505050506040513d601f19601f82011682018060405250810190610e759190611ab5565b50600184015484546040805173ffffffffffffffffffffffffffffffffffffffff871681524260208201529081019290925260608201527f2369db1bafee945aee5630782f4a170682e3f8188d8dc247a4c73eb8c9e692d29060800160405180910390a180610ee381611ad7565b915050610da0565b50610efa6006840160006117eb565b50505050565b6000818152600460209081526040918290206006810180548451818502810185019095528085526060949293830182828015610f7257602002820191906000526020600020905b815473ffffffffffffffffffffffffffffffffffffffff168152600190910190602001808311610f47575b5050505050915050919050565b610f87611036565b73ffffffffffffffffffffffffffffffffffffffff811661102a576040517f08c379a000000000000000000000000000000000000000000000000000000000815260206004820152602660248201527f4f776e61626c653a206e6577206f776e657220697320746865207a65726f206160448201527f6464726573730000000000000000000000000000000000000000000000000000606482015260840161065a565b611033816113d9565b50565b60005473ffffffffffffffffffffffffffffffffffffffff163314610c06576040517f08c379a000000000000000000000000000000000000000000000000000000000815260206004820181905260248201527f4f776e61626c653a2063616c6c6572206973206e6f7420746865206f776e6572604482015260640161065a565b60025460ff16610c06576040517f08c379a000000000000000000000000000000000000000000000000000000000815260206004820152601460248201527f5061757361626c653a206e6f7420706175736564000000000000000000000000604482015260640161065a565b60025460ff1615610c06576040517f08c379a000000000000000000000000000000000000000000000000000000000815260206004820152601060248201527f5061757361626c653a2070617573656400000000000000000000000000000000604482015260640161065a565b60008181526004602052604081208454909190859082906111b3576111b3611b0f565b600091825260208083209091015473ffffffffffffffffffffffffffffffffffffffff16808352600391829052604083209185015460018601549194509192919061120090606490611b3e565b61120a9190611b79565b905080826004015461121c9190611aa2565b6004838101919091556002546040517fa9059cbb00000000000000000000000000000000000000000000000000000000815273ffffffffffffffffffffffffffffffffffffffff86811693820193909352602481018490526101009091049091169063a9059cbb906044016020604051808303816000875af11580156112a6573d6000803e3d6000fd5b505050506040513d601f19601f820116820180604052508101906112ca9190611ab5565b506112d687600061144e565b80546001810182556000828152602090200180547fffffffffffffffffffffffff00000000000000000000000000000000000000001673ffffffffffffffffffffffffffffffffffffffff89161790559650611331836115fb565b6000858152600783016020526040812080549161134d83611bb6565b909155505086546113649060068601908990611809565b506001820154825485546040805173ffffffffffffffffffffffffffffffffffffffff9485168152939092166020840152429183019190915260608201527f2496e048edda281349e32d9ccb972de94737d94c958c5d182a0e1ed90602fd9a906080015b60405180910390a150505050505050565b6000805473ffffffffffffffffffffffffffffffffffffffff8381167fffffffffffffffffffffffff0000000000000000000000000000000000000000831681178455604051919092169283917f8be0079c531659141344cd1fd0a4f28419497f9722a3daafe3b4186f6b6457e09190a35050565b815460009082106114bb576040517f08c379a000000000000000000000000000000000000000000000000000000000815260206004820152601260248201527f696e646578206f7574206f6620626f756e640000000000000000000000000000604482015260640161065a565b815b83546114cb90600190611beb565b81101561158b57836114de826001611aa2565b815481106114ee576114ee611b0f565b9060005260206000200160009054906101000a900473ffffffffffffffffffffffffffffffffffffffff1684828154811061152b5761152b611b0f565b600091825260209091200180547fffffffffffffffffffffffff00000000000000000000000000000000000000001673ffffffffffffffffffffffffffffffffffffffff929092169190911790558061158381611ad7565b9150506114bd565b508280548061159c5761159c611bfe565b6000828152602090207fffffffffffffffffffffffffffffffffffffffffffffffffffffffffffffffff908201810180547fffffffffffffffffffffffff00000000000000000000000000000000000000001690550190555090919050565b73ffffffffffffffffffffffffffffffffffffffff80821660009081526003602090815260408083206001808201546002830154808752600490955292852060055491810154929693909316949161165590606490611b3e565b61165f9190611b79565b600186015473ffffffffffffffffffffffffffffffffffffffff16600090815260036020526040902060048101549192509061169c908390611aa2565b600482810191909155600682018054600181018255600091825260209091200180547fffffffffffffffffffffffff00000000000000000000000000000000000000001673ffffffffffffffffffffffffffffffffffffffff8a8116919091179091556002546040517fa9059cbb00000000000000000000000000000000000000000000000000000000815288831693810193909352602483018590526101009004169063a9059cbb906044016020604051808303816000875af1158015611768573d6000803e3d6000fd5b505050506040513d601f19601f8201168201806040525081019061178c9190611ab5565b506040805173ffffffffffffffffffffffffffffffffffffffff8088168252891660208201524291810191909152606081018590527f2496e048edda281349e32d9ccb972de94737d94c958c5d182a0e1ed90602fd9a906080016113c8565b50805460008255906000526020600020908101906110339190611859565b8280548282559060005260206000209081019282156118495760005260206000209182015b8281111561184957825482559160010191906001019061182e565b50611855929150611859565b5090565b5b80821115611855576000815560010161185a565b600080600080600060a0868803121561188657600080fd5b505083359560208501359550604085013594606081013594506080013592509050565b600080604083850312156118bc57600080fd5b50508035926020909101359150565b73ffffffffffffffffffffffffffffffffffffffff8116811461103357600080fd5b6000806040838503121561190057600080fd5b823591506020830135611912816118cb565b809150509250929050565b60006020828403121561192f57600080fd5b813561193a816118cb565b9392505050565b600081518084526020808501945080840160005b8381101561198757815173ffffffffffffffffffffffffffffffffffffffff1687529582019590820190600101611955565b509495945050505050565b73ffffffffffffffffffffffffffffffffffffffff8716815285602082015284604082015283606082015282608082015260c060a082015260006119d960c0830184611941565b98975050505050505050565b600080604083850312156119f857600080fd5b8235611a03816118cb565b946020939093013593505050565b600060208284031215611a2357600080fd5b5035919050565b85815284602082015283604082015282606082015260a060808201526000611a5560a0830184611941565b979650505050505050565b60208152600061193a6020830184611941565b7f4e487b7100000000000000000000000000000000000000000000000000000000600052601160045260246000fd5b808201808211156105ec576105ec611a73565b600060208284031215611ac757600080fd5b8151801515811461193a57600080fd5b60007fffffffffffffffffffffffffffffffffffffffffffffffffffffffffffffffff8203611b0857611b08611a73565b5060010190565b7f4e487b7100000000000000000000000000000000000000000000000000000000600052603260045260246000fd5b600082611b74577f4e487b7100000000000000000000000000000000000000000000000000000000600052601260045260246000fd5b500490565b6000817fffffffffffffffffffffffffffffffffffffffffffffffffffffffffffffffff0483118215151615611bb157611bb1611a73565b500290565b600081611bc557611bc5611a73565b507fffffffffffffffffffffffffffffffffffffffffffffffffffffffffffffffff0190565b818103818111156105ec576105ec611a73565b7f4e487b7100000000000000000000000000000000000000000000000000000000600052603160045260246000fdfea26469706673582212206124f00b6eaf2e49a42bd87826d94f093dc89ab737317bfb528fa118db1a69a364736f6c63430008100033",
  "linkReferences": {},
  "deployedLinkReferences": {}
}