{
  "_format": "hh-sol-artifact-1",
  "contractName": "SkyMoney",
  "sourceName": "contracts/SkyMoney.sol",
  "abi": [
    {
      "inputs": [
        {
          "internalType": "contract IERC20",
          "name": "token_",
          "type": "address"
        },
        {
          "internalType": "address",
          "name": "owner_",
          "type": "address"
        }
      ],
      "stateMutability": "nonpayable",
      "type": "constructor"
    },
    {
      "anonymous": false,
      "inputs": [
        {
          "indexed": false,
          "internalType": "uint256",
          "name": "LevelNumber",
          "type": "uint256"
        },
        {
          "indexed": false,
          "internalType": "uint256",
          "name": "PriseToStart",
          "type": "uint256"
        },
        {
          "indexed": false,
          "internalType": "uint256",
          "name": "RefillCount",
          "type": "uint256"
        },
        {
          "indexed": false,
          "internalType": "uint256",
          "name": "RefillPercent",
          "type": "uint256"
        },
        {
          "indexed": false,
          "internalType": "uint256",
          "name": "Time",
          "type": "uint256"
        }
      ],
      "name": "CreatedNewLevel",
      "type": "event"
    },
    {
      "anonymous": false,
      "inputs": [
        {
          "indexed": false,
          "internalType": "address",
          "name": "User",
          "type": "address"
        },
        {
          "indexed": false,
          "internalType": "uint256",
          "name": "Time",
          "type": "uint256"
        },
        {
          "indexed": false,
          "internalType": "uint256",
          "name": "amount",
          "type": "uint256"
        },
        {
          "indexed": false,
          "internalType": "uint256",
          "name": "LevelNumber",
          "type": "uint256"
        }
      ],
      "name": "EmergencyWithdraw",
      "type": "event"
    },
    {
      "anonymous": false,
      "inputs": [
        {
          "indexed": false,
          "internalType": "uint256",
          "name": "LevelNumber",
          "type": "uint256"
        },
        {
          "indexed": false,
          "internalType": "uint256",
          "name": "Time",
          "type": "uint256"
        },
        {
          "indexed": false,
          "internalType": "address",
          "name": "User",
          "type": "address"
        }
      ],
      "name": "LevelBought",
      "type": "event"
    },
    {
      "anonymous": false,
      "inputs": [
        {
          "indexed": true,
          "internalType": "address",
          "name": "previousOwner",
          "type": "address"
        },
        {
          "indexed": true,
          "internalType": "address",
          "name": "newOwner",
          "type": "address"
        }
      ],
      "name": "OwnershipTransferred",
      "type": "event"
    },
    {
      "anonymous": false,
      "inputs": [
        {
          "indexed": false,
          "internalType": "address",
          "name": "Referall",
          "type": "address"
        },
        {
          "indexed": false,
          "internalType": "address",
          "name": "User",
          "type": "address"
        },
        {
          "indexed": false,
          "internalType": "uint256",
          "name": "Time",
          "type": "uint256"
        },
        {
          "indexed": false,
          "internalType": "uint256",
          "name": "LevelNumber",
          "type": "uint256"
        }
      ],
      "name": "ReferallGetBonus",
      "type": "event"
    },
    {
      "stateMutability": "nonpayable",
      "type": "fallback"
    },
    {
      "inputs": [],
      "name": "ReferallBonusPercent",
      "outputs": [
        {
          "internalType": "uint256",
          "name": "",
          "type": "uint256"
        }
      ],
      "stateMutability": "view",
      "type": "function"
    },
    {
      "inputs": [],
      "name": "Token",
      "outputs": [
        {
          "internalType": "contract IERC20",
          "name": "",
          "type": "address"
        }
      ],
      "stateMutability": "view",
      "type": "function"
    },
    {
      "inputs": [],
      "name": "TotalBoughtLevels",
      "outputs": [
        {
          "internalType": "uint256",
          "name": "",
          "type": "uint256"
        }
      ],
      "stateMutability": "view",
      "type": "function"
    },
    {
      "inputs": [
        {
          "internalType": "uint256",
          "name": "buyLvl",
          "type": "uint256"
        },
        {
          "internalType": "address",
          "name": "_refferal",
          "type": "address"
        }
      ],
      "name": "buyLevel",
      "outputs": [],
      "stateMutability": "nonpayable",
      "type": "function"
    },
    {
      "inputs": [
        {
          "internalType": "uint256",
          "name": "_level",
          "type": "uint256"
        }
      ],
      "name": "closeLevelAndSendReward",
      "outputs": [],
      "stateMutability": "nonpayable",
      "type": "function"
    },
    {
      "inputs": [
        {
          "internalType": "uint256",
          "name": "_numberLvl",
          "type": "uint256"
        },
        {
          "internalType": "uint256",
          "name": "_priceStart",
          "type": "uint256"
        },
        {
          "internalType": "uint256",
          "name": "_refillCount",
          "type": "uint256"
        },
        {
          "internalType": "uint256",
          "name": "_refillPercent",
          "type": "uint256"
        }
      ],
      "name": "createNewLvl",
      "outputs": [
        {
          "internalType": "uint256",
          "name": "",
          "type": "uint256"
        }
      ],
      "stateMutability": "nonpayable",
      "type": "function"
    },
    {
      "inputs": [
        {
          "internalType": "uint256",
          "name": "levelNumber",
          "type": "uint256"
        }
      ],
      "name": "currentQueueInLevel",
      "outputs": [
        {
          "internalType": "address[]",
          "name": "",
          "type": "address[]"
        }
      ],
      "stateMutability": "view",
      "type": "function"
    },
    {
      "inputs": [
        {
          "internalType": "uint256",
          "name": "",
          "type": "uint256"
        }
      ],
      "name": "levels",
      "outputs": [
        {
          "internalType": "uint256",
          "name": "numberLvl",
          "type": "uint256"
        },
        {
          "internalType": "uint256",
          "name": "priceToStart",
          "type": "uint256"
        },
        {
          "internalType": "uint256",
          "name": "refillCount",
          "type": "uint256"
        },
        {
          "internalType": "uint256",
          "name": "refillPercent",
          "type": "uint256"
        }
      ],
      "stateMutability": "view",
      "type": "function"
    },
    {
      "inputs": [],
      "name": "owner",
      "outputs": [
        {
          "internalType": "address",
          "name": "",
          "type": "address"
        }
      ],
      "stateMutability": "view",
      "type": "function"
    },
    {
      "inputs": [],
      "name": "renounceOwnership",
      "outputs": [],
      "stateMutability": "nonpayable",
      "type": "function"
    },
    {
      "inputs": [
        {
          "internalType": "address",
          "name": "newOwner",
          "type": "address"
        }
      ],
      "name": "transferOwnership",
      "outputs": [],
      "stateMutability": "nonpayable",
      "type": "function"
    },
    {
      "inputs": [
        {
          "internalType": "address",
          "name": "",
          "type": "address"
        }
      ],
      "name": "users",
      "outputs": [
        {
          "internalType": "address",
          "name": "user",
          "type": "address"
        },
        {
          "internalType": "address",
          "name": "referral",
          "type": "address"
        },
        {
          "internalType": "uint256",
          "name": "currentlvl",
          "type": "uint256"
        },
        {
          "internalType": "uint256",
          "name": "deposited",
          "type": "uint256"
        },
        {
          "internalType": "uint256",
          "name": "earned",
          "type": "uint256"
        },
        {
          "internalType": "uint256",
          "name": "countOfBuyingLevels",
          "type": "uint256"
        }
      ],
      "stateMutability": "view",
      "type": "function"
    },
    {
      "stateMutability": "payable",
      "type": "receive"
    }
  ],
  "bytecode": "0x6080604052600360055560026007553480156200001b57600080fd5b5060405162001905380380620019058339810160408190526200003e9162000342565b620000493362000170565b60018055600280546001600160a01b0319166001600160a01b0384161790556200007381620001c0565b6200008d600068022b1c8c1227a00000600360c862000243565b50620000a860016804e1003b28d92800006004609662000243565b50620000c3600268093739534d28680000600460af62000243565b50620000de6003680ea300b17a8b780000600560c862000243565b50620000f96004681b1ae4d6e2ef500000600560e162000243565b506200011360056830ca024f987b9000008160fa62000243565b506200012f6006685150ae84a8cdf00000600561011362000243565b506200014b6007686c6b935b8bbd400000600961012c62000243565b5062000167600868a2a15d09519be00000600a61014562000243565b50505062000381565b600080546001600160a01b038381166001600160a01b0319831681178455604051919092169283917f8be0079c531659141344cd1fd0a4f28419497f9722a3daafe3b4186f6b6457e09190a35050565b620001ca620002ce565b6001600160a01b038116620002355760405162461bcd60e51b815260206004820152602660248201527f4f776e61626c653a206e6577206f776e657220697320746865207a65726f206160448201526564647265737360d01b60648201526084015b60405180910390fd5b620002408162000170565b50565b60006200024f620002ce565b6000858152600460209081526040918290208781556001810187905560028101869055600381018590558251888152918201879052918101859052606081018490524260808201527f35fa5cc0e4b24f8b04552ff8f26ee1322d1c61dff5e2b52d87abb1282e10dc799060a00160405180910390a15093949350505050565b6000546001600160a01b031633146200032a5760405162461bcd60e51b815260206004820181905260248201527f4f776e61626c653a2063616c6c6572206973206e6f7420746865206f776e657260448201526064016200022c565b565b6001600160a01b03811681146200024057600080fd5b600080604083850312156200035657600080fd5b825162000363816200032c565b602084015190925062000376816200032c565b809150509250929050565b61157480620003916000396000f3fe6080604052600436106100cb5760003560e01c8063a87430ba11610074578063c24126761161004e578063c2412676146102f1578063e176ce0a1461031e578063f2fde38b1461034b576100d2565b8063a87430ba146101c0578063ab7a6bf11461026f578063b2596a671461028f576100d2565b8063715018a6116100a5578063715018a61461013f57806380891cf1146101545780638da5cb5b14610174576100d2565b80632d5339e0146100e05780634b70e8e71461010957806364e5322a1461011f576100d2565b366100d257005b3480156100de57600080fd5b005b3480156100ec57600080fd5b506100f660065481565b6040519081526020015b60405180910390f35b34801561011557600080fd5b506100f660055481565b34801561012b57600080fd5b506100de61013a366004611291565b61036b565b34801561014b57600080fd5b506100de6107cb565b34801561016057600080fd5b506100f661016f3660046112bd565b6107df565b34801561018057600080fd5b5060005473ffffffffffffffffffffffffffffffffffffffff165b60405173ffffffffffffffffffffffffffffffffffffffff9091168152602001610100565b3480156101cc57600080fd5b5061022a6101db3660046112ef565b600360208190526000918252604090912080546001820154600283015493830154600484015460059094015473ffffffffffffffffffffffffffffffffffffffff938416959390921693909186565b6040805173ffffffffffffffffffffffffffffffffffffffff9788168152969095166020870152938501929092526060840152608083015260a082015260c001610100565b34801561027b57600080fd5b506100de61028a366004611311565b610868565b34801561029b57600080fd5b506102d16102aa366004611311565b60046020526000908152604090208054600182015460028301546003909301549192909184565b604080519485526020850193909352918301526060820152608001610100565b3480156102fd57600080fd5b5060025461019b9073ffffffffffffffffffffffffffffffffffffffff1681565b34801561032a57600080fd5b5061033e610339366004611311565b6109df565b604051610100919061132a565b34801561035757600080fd5b506100de6103663660046112ef565b610a5c565b6002600154036103dc576040517f08c379a000000000000000000000000000000000000000000000000000000000815260206004820152601f60248201527f5265656e7472616e637947756172643a207265656e7472616e742063616c6c0060448201526064015b60405180910390fd5b600260015533600090815260036020908152604080832085845260049092528220909173ffffffffffffffffffffffffffffffffffffffff841690036104a4576040517f08c379a000000000000000000000000000000000000000000000000000000000815260206004820152603360248201527f696620796f7520646f6e74206861766520726566666572616c2061646472657360448201527f73207573652061646472657373206f776e65720000000000000000000000000060648201526084016103d3565b600182810180547fffffffffffffffffffffffff00000000000000000000000000000000000000001673ffffffffffffffffffffffffffffffffffffffff8616179055600283015485916104f891906113b3565b1015610560576040517f08c379a000000000000000000000000000000000000000000000000000000000815260206004820152601d60248201527f596f75206e65656420746f20627579206561726c696572206c6576656c00000060448201526064016103d3565b60025460018201546040517f23b872dd000000000000000000000000000000000000000000000000000000008152336004820152306024820152604481019190915273ffffffffffffffffffffffffffffffffffffffff909116906323b872dd906064016020604051808303816000875af11580156105e3573d6000803e3d6000fd5b505050506040513d601f19601f8201168201806040525081019061060791906113c6565b506002820184905560018101546003830180546000906106289084906113b3565b909155505081547fffffffffffffffffffffffff00000000000000000000000000000000000000001633178255600582018054906000610667836113e8565b909155505060008481526007830160205260408120805491610688836113e8565b9091555050600780546000868152918401602052604090912054111561070a576040517f08c379a000000000000000000000000000000000000000000000000000000000815260206004820181905260248201527f596f752063616e7420627579206d6f72652074686973206c6576656c2079657460448201526064016103d3565b60048101805460028301540361072d57610728826004013387610b13565b61076d565b600482018054600181018255600091825260209091200180547fffffffffffffffffffffffff000000000000000000000000000000000000000016331790555b6006805490600061077d836113e8565b909155505060408051868152426020820152338183015290517f67b7c39dce5fa35f6a4cbe6ec721b5782cc6b7699bec93ff0cd066a22a899b399181900360600190a1505060018055505050565b6107d3610d55565b6107dd6000610dd6565b565b60006107e9610d55565b6000858152600460209081526040918290208781556001810187905560028101869055600381018590558251888152918201879052918101859052606081018490524260808201527f35fa5cc0e4b24f8b04552ff8f26ee1322d1c61dff5e2b52d87abb1282e10dc799060a00160405180910390a15093949350505050565b610870610d55565b6000818152600460208190526040822091908201815b81548110156109ca578181815481106108a1576108a1611420565b60009182526020909120015460025460018601546040517fa9059cbb00000000000000000000000000000000000000000000000000000000815273ffffffffffffffffffffffffffffffffffffffff93841660048201819052602482019290925290955091169063a9059cbb906044016020604051808303816000875af1158015610930573d6000803e3d6000fd5b505050506040513d601f19601f8201168201806040525081019061095491906113c6565b50600184015484546040805173ffffffffffffffffffffffffffffffffffffffff871681524260208201529081019290925260608201527f2369db1bafee945aee5630782f4a170682e3f8188d8dc247a4c73eb8c9e692d29060800160405180910390a1806109c2816113e8565b915050610886565b506109d96004840160006111e5565b50505050565b600081815260046020818152604092839020918201805484518184028101840190955280855260609492830182828015610a4f57602002820191906000526020600020905b815473ffffffffffffffffffffffffffffffffffffffff168152600190910190602001808311610a24575b5050505050915050919050565b610a64610d55565b73ffffffffffffffffffffffffffffffffffffffff8116610b07576040517f08c379a000000000000000000000000000000000000000000000000000000000815260206004820152602660248201527f4f776e61626c653a206e6577206f776e657220697320746865207a65726f206160448201527f646472657373000000000000000000000000000000000000000000000000000060648201526084016103d3565b610b1081610dd6565b50565b6000818152600460205260408120845490919085908290610b3657610b36611420565b600091825260208083209091015473ffffffffffffffffffffffffffffffffffffffff168083526003918290526040832091850154600186015491945091929190610b839060649061144f565b610b8d919061148a565b9050808260040154610b9f91906113b3565b6004838101919091556002546040517fa9059cbb00000000000000000000000000000000000000000000000000000000815273ffffffffffffffffffffffffffffffffffffffff868116938201939093526024810184905291169063a9059cbb906044016020604051808303816000875af1158015610c22573d6000803e3d6000fd5b505050506040513d601f19601f82011682018060405250810190610c4691906113c6565b50610c52876000610e4b565b80546001810182556000828152602090200180547fffffffffffffffffffffffff00000000000000000000000000000000000000001673ffffffffffffffffffffffffffffffffffffffff89161790559650610cad83610ffa565b60008581526007830160205260408120805491610cc9836114c7565b90915550508654610ce09060048601908990611203565b506001820154825485546040805173ffffffffffffffffffffffffffffffffffffffff9485168152939092166020840152429183019190915260608201527f2496e048edda281349e32d9ccb972de94737d94c958c5d182a0e1ed90602fd9a906080015b60405180910390a150505050505050565b60005473ffffffffffffffffffffffffffffffffffffffff1633146107dd576040517f08c379a000000000000000000000000000000000000000000000000000000000815260206004820181905260248201527f4f776e61626c653a2063616c6c6572206973206e6f7420746865206f776e657260448201526064016103d3565b6000805473ffffffffffffffffffffffffffffffffffffffff8381167fffffffffffffffffffffffff0000000000000000000000000000000000000000831681178455604051919092169283917f8be0079c531659141344cd1fd0a4f28419497f9722a3daafe3b4186f6b6457e09190a35050565b81546000908210610eb8576040517f08c379a000000000000000000000000000000000000000000000000000000000815260206004820152601260248201527f696e646578206f7574206f6620626f756e64000000000000000000000000000060448201526064016103d3565b815b8354610ec8906001906114fc565b811015610f885783610edb8260016113b3565b81548110610eeb57610eeb611420565b9060005260206000200160009054906101000a900473ffffffffffffffffffffffffffffffffffffffff16848281548110610f2857610f28611420565b600091825260209091200180547fffffffffffffffffffffffff00000000000000000000000000000000000000001673ffffffffffffffffffffffffffffffffffffffff9290921691909117905580610f80816113e8565b915050610eba565b5082805480610f9957610f9961150f565b60008281526020902081017fffffffffffffffffffffffffffffffffffffffffffffffffffffffffffffffff90810180547fffffffffffffffffffffffff000000000000000000000000000000000000000016905501905550815b92915050565b73ffffffffffffffffffffffffffffffffffffffff8082166000908152600360209081526040808320600180820154600283015480875260049095529285206005549181015492969390931694916110549060649061144f565b61105e919061148a565b600186015473ffffffffffffffffffffffffffffffffffffffff16600090815260036020526040902060048101549192509061109b9083906113b3565b600482810191909155600682018054600181018255600091825260209091200180547fffffffffffffffffffffffff00000000000000000000000000000000000000001673ffffffffffffffffffffffffffffffffffffffff8a8116919091179091556002546040517fa9059cbb0000000000000000000000000000000000000000000000000000000081528883169381019390935260248301859052169063a9059cbb906044016020604051808303816000875af1158015611162573d6000803e3d6000fd5b505050506040513d601f19601f8201168201806040525081019061118691906113c6565b506040805173ffffffffffffffffffffffffffffffffffffffff8088168252891660208201524291810191909152606081018590527f2496e048edda281349e32d9ccb972de94737d94c958c5d182a0e1ed90602fd9a90608001610d44565b5080546000825590600052602060002090810190610b109190611253565b8280548282559060005260206000209081019282156112435760005260206000209182015b82811115611243578254825591600101919060010190611228565b5061124f929150611253565b5090565b5b8082111561124f5760008155600101611254565b803573ffffffffffffffffffffffffffffffffffffffff8116811461128c57600080fd5b919050565b600080604083850312156112a457600080fd5b823591506112b460208401611268565b90509250929050565b600080600080608085870312156112d357600080fd5b5050823594602084013594506040840135936060013592509050565b60006020828403121561130157600080fd5b61130a82611268565b9392505050565b60006020828403121561132357600080fd5b5035919050565b6020808252825182820181905260009190848201906040850190845b8181101561137857835173ffffffffffffffffffffffffffffffffffffffff1683529284019291840191600101611346565b50909695505050505050565b7f4e487b7100000000000000000000000000000000000000000000000000000000600052601160045260246000fd5b80820180821115610ff457610ff4611384565b6000602082840312156113d857600080fd5b8151801515811461130a57600080fd5b60007fffffffffffffffffffffffffffffffffffffffffffffffffffffffffffffffff820361141957611419611384565b5060010190565b7f4e487b7100000000000000000000000000000000000000000000000000000000600052603260045260246000fd5b600082611485577f4e487b7100000000000000000000000000000000000000000000000000000000600052601260045260246000fd5b500490565b6000817fffffffffffffffffffffffffffffffffffffffffffffffffffffffffffffffff04831182151516156114c2576114c2611384565b500290565b6000816114d6576114d6611384565b507fffffffffffffffffffffffffffffffffffffffffffffffffffffffffffffffff0190565b81810381811115610ff457610ff4611384565b7f4e487b7100000000000000000000000000000000000000000000000000000000600052603160045260246000fdfea2646970667358221220db740c12040183d2d0bb068537129952478c96a40e394be3c1f9e2cabe32498b64736f6c63430008100033",
  "linkReferences": {},
  "deployedLinkReferences": {}
}