{
  "_format": "hh-sol-artifact-1",
  "contractName": "SkyMoney",
  "sourceName": "contracts/SkyMoney.sol",
  "abi": [
    {
      "anonymous": false,
      "inputs": [
        {
          "indexed": false,
          "internalType": "address",
          "name": "previousAdmin",
          "type": "address"
        },
        {
          "indexed": false,
          "internalType": "address",
          "name": "newAdmin",
          "type": "address"
        }
      ],
      "name": "AdminChanged",
      "type": "event"
    },
    {
      "anonymous": false,
      "inputs": [
        {
          "indexed": true,
          "internalType": "address",
          "name": "beacon",
          "type": "address"
        }
      ],
      "name": "BeaconUpgraded",
      "type": "event"
    },
    {
      "anonymous": false,
      "inputs": [
        {
          "indexed": false,
          "internalType": "uint256",
          "name": "LevelNumber",
          "type": "uint256"
        },
        {
          "indexed": false,
          "internalType": "uint256",
          "name": "PriseToStart",
          "type": "uint256"
        },
        {
          "indexed": false,
          "internalType": "uint256",
          "name": "RefillCount",
          "type": "uint256"
        },
        {
          "indexed": false,
          "internalType": "uint256",
          "name": "RefillPercent",
          "type": "uint256"
        },
        {
          "indexed": false,
          "internalType": "uint256",
          "name": "MaxCountForSingleAddress",
          "type": "uint256"
        },
        {
          "indexed": false,
          "internalType": "uint256",
          "name": "Time",
          "type": "uint256"
        }
      ],
      "name": "CreatedNewLevel",
      "type": "event"
    },
    {
      "anonymous": false,
      "inputs": [
        {
          "indexed": false,
          "internalType": "address",
          "name": "User",
          "type": "address"
        },
        {
          "indexed": false,
          "internalType": "uint256",
          "name": "Time",
          "type": "uint256"
        },
        {
          "indexed": false,
          "internalType": "uint256",
          "name": "amount",
          "type": "uint256"
        },
        {
          "indexed": false,
          "internalType": "uint256",
          "name": "LevelNumber",
          "type": "uint256"
        }
      ],
      "name": "EmergencyWithdraw",
      "type": "event"
    },
    {
      "anonymous": false,
      "inputs": [
        {
          "indexed": false,
          "internalType": "uint8",
          "name": "version",
          "type": "uint8"
        }
      ],
      "name": "Initialized",
      "type": "event"
    },
    {
      "anonymous": false,
      "inputs": [
        {
          "indexed": false,
          "internalType": "uint256",
          "name": "LevelNumber",
          "type": "uint256"
        },
        {
          "indexed": false,
          "internalType": "uint256",
          "name": "Time",
          "type": "uint256"
        },
        {
          "indexed": false,
          "internalType": "address",
          "name": "User",
          "type": "address"
        }
      ],
      "name": "LevelBought",
      "type": "event"
    },
    {
      "anonymous": false,
      "inputs": [
        {
          "indexed": false,
          "internalType": "address",
          "name": "account",
          "type": "address"
        }
      ],
      "name": "Paused",
      "type": "event"
    },
    {
      "anonymous": false,
      "inputs": [
        {
          "indexed": false,
          "internalType": "address",
          "name": "Referall",
          "type": "address"
        },
        {
          "indexed": false,
          "internalType": "address",
          "name": "User",
          "type": "address"
        },
        {
          "indexed": false,
          "internalType": "uint256",
          "name": "Time",
          "type": "uint256"
        },
        {
          "indexed": false,
          "internalType": "uint256",
          "name": "LevelNumber",
          "type": "uint256"
        }
      ],
      "name": "ReferallGetBonus",
      "type": "event"
    },
    {
      "anonymous": false,
      "inputs": [
        {
          "indexed": true,
          "internalType": "bytes32",
          "name": "role",
          "type": "bytes32"
        },
        {
          "indexed": true,
          "internalType": "bytes32",
          "name": "previousAdminRole",
          "type": "bytes32"
        },
        {
          "indexed": true,
          "internalType": "bytes32",
          "name": "newAdminRole",
          "type": "bytes32"
        }
      ],
      "name": "RoleAdminChanged",
      "type": "event"
    },
    {
      "anonymous": false,
      "inputs": [
        {
          "indexed": true,
          "internalType": "bytes32",
          "name": "role",
          "type": "bytes32"
        },
        {
          "indexed": true,
          "internalType": "address",
          "name": "account",
          "type": "address"
        },
        {
          "indexed": true,
          "internalType": "address",
          "name": "sender",
          "type": "address"
        }
      ],
      "name": "RoleGranted",
      "type": "event"
    },
    {
      "anonymous": false,
      "inputs": [
        {
          "indexed": true,
          "internalType": "bytes32",
          "name": "role",
          "type": "bytes32"
        },
        {
          "indexed": true,
          "internalType": "address",
          "name": "account",
          "type": "address"
        },
        {
          "indexed": true,
          "internalType": "address",
          "name": "sender",
          "type": "address"
        }
      ],
      "name": "RoleRevoked",
      "type": "event"
    },
    {
      "anonymous": false,
      "inputs": [
        {
          "indexed": false,
          "internalType": "address",
          "name": "account",
          "type": "address"
        }
      ],
      "name": "Unpaused",
      "type": "event"
    },
    {
      "anonymous": false,
      "inputs": [
        {
          "indexed": true,
          "internalType": "address",
          "name": "implementation",
          "type": "address"
        }
      ],
      "name": "Upgraded",
      "type": "event"
    },
    {
      "stateMutability": "payable",
      "type": "fallback"
    },
    {
      "inputs": [],
      "name": "DEFAULT_ADMIN_ROLE",
      "outputs": [
        {
          "internalType": "bytes32",
          "name": "",
          "type": "bytes32"
        }
      ],
      "stateMutability": "view",
      "type": "function"
    },
    {
      "inputs": [],
      "name": "ReferallBonusPercent",
      "outputs": [
        {
          "internalType": "uint256",
          "name": "",
          "type": "uint256"
        }
      ],
      "stateMutability": "view",
      "type": "function"
    },
    {
      "inputs": [],
      "name": "Token",
      "outputs": [
        {
          "internalType": "contract IERC20Upgradeable",
          "name": "",
          "type": "address"
        }
      ],
      "stateMutability": "view",
      "type": "function"
    },
    {
      "inputs": [],
      "name": "TotalBoughtLevels",
      "outputs": [
        {
          "internalType": "uint256",
          "name": "",
          "type": "uint256"
        }
      ],
      "stateMutability": "view",
      "type": "function"
    },
    {
      "inputs": [],
      "name": "TotalDepositToken",
      "outputs": [
        {
          "internalType": "uint256",
          "name": "",
          "type": "uint256"
        }
      ],
      "stateMutability": "view",
      "type": "function"
    },
    {
      "inputs": [
        {
          "internalType": "uint256",
          "name": "buyLvl",
          "type": "uint256"
        },
        {
          "internalType": "address",
          "name": "_refferal",
          "type": "address"
        }
      ],
      "name": "buyLevel",
      "outputs": [],
      "stateMutability": "nonpayable",
      "type": "function"
    },
    {
      "inputs": [
        {
          "internalType": "uint256",
          "name": "_level",
          "type": "uint256"
        },
        {
          "internalType": "uint256",
          "name": "_count",
          "type": "uint256"
        }
      ],
      "name": "changeMaxCountBuyLevel",
      "outputs": [
        {
          "internalType": "uint256",
          "name": "",
          "type": "uint256"
        }
      ],
      "stateMutability": "nonpayable",
      "type": "function"
    },
    {
      "inputs": [
        {
          "internalType": "uint256",
          "name": "percent",
          "type": "uint256"
        }
      ],
      "name": "changeReferallPercent",
      "outputs": [
        {
          "internalType": "uint256",
          "name": "",
          "type": "uint256"
        }
      ],
      "stateMutability": "nonpayable",
      "type": "function"
    },
    {
      "inputs": [
        {
          "internalType": "contract IERC20Upgradeable",
          "name": "_token",
          "type": "address"
        }
      ],
      "name": "changeToken",
      "outputs": [],
      "stateMutability": "nonpayable",
      "type": "function"
    },
    {
      "inputs": [
        {
          "internalType": "uint256",
          "name": "_level",
          "type": "uint256"
        }
      ],
      "name": "closeLevelAndSendReward",
      "outputs": [],
      "stateMutability": "nonpayable",
      "type": "function"
    },
    {
      "inputs": [
        {
          "internalType": "uint256",
          "name": "_numberLvl",
          "type": "uint256"
        },
        {
          "internalType": "uint256",
          "name": "_priceStart",
          "type": "uint256"
        },
        {
          "internalType": "uint256",
          "name": "_refillCount",
          "type": "uint256"
        },
        {
          "internalType": "uint256",
          "name": "_refillPercent",
          "type": "uint256"
        },
        {
          "internalType": "uint256",
          "name": "_maxCount",
          "type": "uint256"
        }
      ],
      "name": "createNewLvl",
      "outputs": [
        {
          "internalType": "uint256",
          "name": "",
          "type": "uint256"
        }
      ],
      "stateMutability": "nonpayable",
      "type": "function"
    },
    {
      "inputs": [
        {
          "internalType": "uint256",
          "name": "levelNumber",
          "type": "uint256"
        }
      ],
      "name": "currentQueueInLevel",
      "outputs": [
        {
          "internalType": "address[]",
          "name": "",
          "type": "address[]"
        }
      ],
      "stateMutability": "view",
      "type": "function"
    },
    {
      "inputs": [
        {
          "internalType": "uint256",
          "name": "_level",
          "type": "uint256"
        }
      ],
      "name": "getLevel",
      "outputs": [
        {
          "internalType": "uint256",
          "name": "",
          "type": "uint256"
        },
        {
          "internalType": "uint256",
          "name": "",
          "type": "uint256"
        },
        {
          "internalType": "uint256",
          "name": "",
          "type": "uint256"
        },
        {
          "internalType": "uint256",
          "name": "",
          "type": "uint256"
        },
        {
          "internalType": "address[]",
          "name": "",
          "type": "address[]"
        }
      ],
      "stateMutability": "view",
      "type": "function"
    },
    {
      "inputs": [
        {
          "internalType": "bytes32",
          "name": "role",
          "type": "bytes32"
        }
      ],
      "name": "getRoleAdmin",
      "outputs": [
        {
          "internalType": "bytes32",
          "name": "",
          "type": "bytes32"
        }
      ],
      "stateMutability": "view",
      "type": "function"
    },
    {
      "inputs": [
        {
          "internalType": "address",
          "name": "_user",
          "type": "address"
        }
      ],
      "name": "getUser",
      "outputs": [
        {
          "internalType": "address",
          "name": "",
          "type": "address"
        },
        {
          "internalType": "uint256",
          "name": "",
          "type": "uint256"
        },
        {
          "internalType": "uint256",
          "name": "",
          "type": "uint256"
        },
        {
          "internalType": "uint256",
          "name": "",
          "type": "uint256"
        },
        {
          "internalType": "uint256",
          "name": "",
          "type": "uint256"
        },
        {
          "internalType": "address[]",
          "name": "",
          "type": "address[]"
        }
      ],
      "stateMutability": "view",
      "type": "function"
    },
    {
      "inputs": [
        {
          "internalType": "bytes32",
          "name": "role",
          "type": "bytes32"
        },
        {
          "internalType": "address",
          "name": "account",
          "type": "address"
        }
      ],
      "name": "grantRole",
      "outputs": [],
      "stateMutability": "nonpayable",
      "type": "function"
    },
    {
      "inputs": [
        {
          "internalType": "bytes32",
          "name": "role",
          "type": "bytes32"
        },
        {
          "internalType": "address",
          "name": "account",
          "type": "address"
        }
      ],
      "name": "hasRole",
      "outputs": [
        {
          "internalType": "bool",
          "name": "",
          "type": "bool"
        }
      ],
      "stateMutability": "view",
      "type": "function"
    },
    {
      "inputs": [
        {
          "internalType": "contract IERC20Upgradeable",
          "name": "token_",
          "type": "address"
        },
        {
          "internalType": "address",
          "name": "owner_",
          "type": "address"
        }
      ],
      "name": "initialize",
      "outputs": [],
      "stateMutability": "nonpayable",
      "type": "function"
    },
    {
      "inputs": [
        {
          "internalType": "uint256",
          "name": "",
          "type": "uint256"
        }
      ],
      "name": "levels",
      "outputs": [
        {
          "internalType": "uint256",
          "name": "numberLvl",
          "type": "uint256"
        },
        {
          "internalType": "uint256",
          "name": "priceToStart",
          "type": "uint256"
        },
        {
          "internalType": "uint256",
          "name": "refillCount",
          "type": "uint256"
        },
        {
          "internalType": "uint256",
          "name": "refillPercent",
          "type": "uint256"
        },
        {
          "internalType": "uint256",
          "name": "MaxCountToBuyLevelSingleAddress",
          "type": "uint256"
        },
        {
          "internalType": "uint256",
          "name": "currentSizeArray",
          "type": "uint256"
        }
      ],
      "stateMutability": "view",
      "type": "function"
    },
    {
      "inputs": [],
      "name": "paused",
      "outputs": [
        {
          "internalType": "bool",
          "name": "",
          "type": "bool"
        }
      ],
      "stateMutability": "view",
      "type": "function"
    },
    {
      "inputs": [],
      "name": "proxiableUUID",
      "outputs": [
        {
          "internalType": "bytes32",
          "name": "",
          "type": "bytes32"
        }
      ],
      "stateMutability": "view",
      "type": "function"
    },
    {
      "inputs": [
        {
          "internalType": "bytes32",
          "name": "role",
          "type": "bytes32"
        },
        {
          "internalType": "address",
          "name": "account",
          "type": "address"
        }
      ],
      "name": "renounceRole",
      "outputs": [],
      "stateMutability": "nonpayable",
      "type": "function"
    },
    {
      "inputs": [
        {
          "internalType": "bytes32",
          "name": "role",
          "type": "bytes32"
        },
        {
          "internalType": "address",
          "name": "account",
          "type": "address"
        }
      ],
      "name": "revokeRole",
      "outputs": [],
      "stateMutability": "nonpayable",
      "type": "function"
    },
    {
      "inputs": [
        {
          "internalType": "bool",
          "name": "_newPauseState",
          "type": "bool"
        }
      ],
      "name": "setPause",
      "outputs": [],
      "stateMutability": "nonpayable",
      "type": "function"
    },
    {
      "inputs": [
        {
          "internalType": "bytes4",
          "name": "interfaceId",
          "type": "bytes4"
        }
      ],
      "name": "supportsInterface",
      "outputs": [
        {
          "internalType": "bool",
          "name": "",
          "type": "bool"
        }
      ],
      "stateMutability": "view",
      "type": "function"
    },
    {
      "inputs": [
        {
          "internalType": "address",
          "name": "newImplementation",
          "type": "address"
        }
      ],
      "name": "upgradeTo",
      "outputs": [],
      "stateMutability": "nonpayable",
      "type": "function"
    },
    {
      "inputs": [
        {
          "internalType": "address",
          "name": "newImplementation",
          "type": "address"
        },
        {
          "internalType": "bytes",
          "name": "data",
          "type": "bytes"
        }
      ],
      "name": "upgradeToAndCall",
      "outputs": [],
      "stateMutability": "payable",
      "type": "function"
    },
    {
      "inputs": [
        {
          "internalType": "address",
          "name": "",
          "type": "address"
        }
      ],
      "name": "users",
      "outputs": [
        {
          "internalType": "address",
          "name": "user",
          "type": "address"
        },
        {
          "internalType": "address",
          "name": "referral",
          "type": "address"
        },
        {
          "internalType": "uint256",
          "name": "currentlvl",
          "type": "uint256"
        },
        {
          "internalType": "uint256",
          "name": "deposited",
          "type": "uint256"
        },
        {
          "internalType": "uint256",
          "name": "earned",
          "type": "uint256"
        },
        {
          "internalType": "uint256",
          "name": "countOfBuyingLevels",
          "type": "uint256"
        }
      ],
      "stateMutability": "view",
      "type": "function"
    },
    {
      "inputs": [
        {
          "internalType": "address",
          "name": "token",
          "type": "address"
        },
        {
          "internalType": "uint256",
          "name": "amount",
          "type": "uint256"
        }
      ],
      "name": "witdhraw",
      "outputs": [],
      "stateMutability": "nonpayable",
      "type": "function"
    },
    {
      "stateMutability": "payable",
      "type": "receive"
    }
  ],
  "bytecode": "0x60a06040523060805234801561001457600080fd5b5060805161290061004c600039600081816107fc0152818161083c01528181610b6101528181610ba10152610c3001526129006000f3fe6080604052600436106101ae5760003560e01c806366829b16116100eb578063a217fddf1161008f578063bedb86fb11610061578063bedb86fb146105bc578063c2412676146105dc578063d547741f14610615578063e176ce0a1461063557005b8063a217fddf14610473578063a87430ba14610488578063ab7a6bf11461051e578063b2596a671461053e57005b806377a58415116100c857806377a58415146103e2578063855b42831461040257806386481d401461042257806391d148541461045357005b806366829b16146103795780636f77926b1461039957806374a9f9d9146103cb57005b806344b0d9d8116101525780634f1ef2861161012f5780634f1ef2861461031857806352d1902d1461032b5780635c975abb1461034057806364e5322a1461035957005b806344b0d9d8146102c1578063485cc955146102e15780634b70e8e71461030157005b80632d5339e01161018b5780632d5339e01461024a5780632f2ff15d1461026157806336568abe146102815780633659cfe6146102a157005b806301ffc9a7146101b75780631ce480f3146101ec578063248a9ca31461021a57005b366101b557005b005b3480156101c357600080fd5b506101d76101d236600461227e565b610662565b60405190151581526020015b60405180910390f35b3480156101f857600080fd5b5061020c6102073660046122a8565b610699565b6040519081526020016101e3565b34801561022657600080fd5b5061020c6102353660046122e3565b600090815260c9602052604090206001015490565b34801561025657600080fd5b5061020c6101635481565b34801561026d57600080fd5b506101b561027c366004612311565b610745565b34801561028d57600080fd5b506101b561029c366004612311565b61076f565b3480156102ad57600080fd5b506101b56102bc366004612341565b6107f2565b3480156102cd57600080fd5b5061020c6102dc36600461235e565b6108d1565b3480156102ed57600080fd5b506101b56102fc366004612380565b610901565b34801561030d57600080fd5b5061020c6101625481565b6101b56103263660046123c4565b610b57565b34801561033757600080fd5b5061020c610c23565b34801561034c57600080fd5b5061012d5460ff166101d7565b34801561036557600080fd5b506101b5610374366004612311565b610cd6565b34801561038557600080fd5b506101b5610394366004612341565b611027565b3480156103a557600080fd5b506103b96103b4366004612341565b61105e565b6040516101e3969594939291906124cc565b3480156103d757600080fd5b5061020c6101645481565b3480156103ee57600080fd5b506101b56103fd366004612511565b611134565b34801561040e57600080fd5b5061020c61041d3660046122e3565b6111b6565b34801561042e57600080fd5b5061044261043d3660046122e3565b6111d6565b6040516101e395949392919061253d565b34801561045f57600080fd5b506101d761046e366004612311565b61127e565b34801561047f57600080fd5b5061020c600081565b34801561049457600080fd5b506104e66104a3366004612341565b610160602052600090815260409020805460018201546002830154600384015460048501546005909501546001600160a01b039485169593909416939192909186565b604080516001600160a01b039788168152969095166020870152938501929092526060840152608083015260a082015260c0016101e3565b34801561052a57600080fd5b506101b56105393660046122e3565b6112a9565b34801561054a57600080fd5b5061058f6105593660046122e3565b61016160205260009081526040902080546001820154600283015460038401546004850154600590950154939492939192909186565b604080519687526020870195909552938501929092526060840152608083015260a082015260c0016101e3565b3480156105c857600080fd5b506101b56105d7366004612581565b6113fa565b3480156105e857600080fd5b5061015f546105fd906001600160a01b031681565b6040516001600160a01b0390911681526020016101e3565b34801561062157600080fd5b506101b5610630366004612311565b61141a565b34801561064157600080fd5b506106556106503660046122e3565b61143f565b6040516101e3919061259e565b60006001600160e01b03198216637965db0b60e01b148061069357506301ffc9a760e01b6001600160e01b03198316145b92915050565b60006106a36114b2565b60006106ae816114fe565b60008781526101616020908152604091829020898155600181018990556002810188905560058101889055600381018790556004810186905582518a815291820189905291810187905260608101869052608081018590524260a08201527f8facac00b97205d28ced8b122d640abfdf7aedc107b011a3009fd0910500925c9060c00160405180910390a150959695505050505050565b600082815260c96020526040902060010154610760816114fe565b61076a8383611508565b505050565b6001600160a01b03811633146107e45760405162461bcd60e51b815260206004820152602f60248201527f416363657373436f6e74726f6c3a2063616e206f6e6c792072656e6f756e636560448201526e103937b632b9903337b91039b2b63360891b60648201526084015b60405180910390fd5b6107ee828261158e565b5050565b6001600160a01b037f000000000000000000000000000000000000000000000000000000000000000016300361083a5760405162461bcd60e51b81526004016107db906125b1565b7f00000000000000000000000000000000000000000000000000000000000000006001600160a01b0316610883600080516020612884833981519152546001600160a01b031690565b6001600160a01b0316146108a95760405162461bcd60e51b81526004016107db906125fd565b6108b2816115f5565b604080516000808252602082019092526108ce91839190611600565b50565b60006108db6114b2565b60006108e6816114fe565b50506000918252610161602052604090912060040181905590565b600054610100900460ff16158080156109215750600054600160ff909116105b8061093b5750303b15801561093b575060005460ff166001145b61099e5760405162461bcd60e51b815260206004820152602e60248201527f496e697469616c697a61626c653a20636f6e747261637420697320616c72656160448201526d191e481a5b9a5d1a585b1a5e995960921b60648201526084016107db565b6000805460ff1916600117905580156109c1576000805461ff0019166101001790555b6109cc60003361176b565b6109d760008361176b565b6109df611775565b6109e76117a4565b6109ef6117a4565b6109f960016113fa565b610a03600a6111b6565b50610a0d83611027565b610a27600068022b1c8c1227a00000600360c86002610699565b50610a4260016804e1003b28d9280000600460966001610699565b50610a5d600268093739534d28680000600460af6001610699565b50610a786003680ea300b17a8b780000600560c86001610699565b50610a936004681b1ae4d6e2ef500000600560e16001610699565b50610aae60056830ca024f987b900000600560fa6001610699565b50610aca6006685150ae84a8cdf0000060056101136001610699565b50610ae66007686c6b935b8bbd400000600761012c6001610699565b50610b02600868a2a15d09519be0000060086101456001610699565b50610b0d60006113fa565b801561076a576000805461ff0019169055604051600181527f7f26b83ff96e1f2b6a682f133852f6798a09c465da95921460cefb38474024989060200160405180910390a1505050565b6001600160a01b037f0000000000000000000000000000000000000000000000000000000000000000163003610b9f5760405162461bcd60e51b81526004016107db906125b1565b7f00000000000000000000000000000000000000000000000000000000000000006001600160a01b0316610be8600080516020612884833981519152546001600160a01b031690565b6001600160a01b031614610c0e5760405162461bcd60e51b81526004016107db906125fd565b610c17826115f5565b6107ee82826001611600565b6000306001600160a01b037f00000000000000000000000000000000000000000000000000000000000000001614610cc35760405162461bcd60e51b815260206004820152603860248201527f555550535570677261646561626c653a206d757374206e6f742062652063616c60448201527f6c6564207468726f7567682064656c656761746563616c6c000000000000000060648201526084016107db565b5060008051602061288483398151915290565b610cde6117cb565b610ce6611824565b33600090815261016060209081526040808320858452610161909252822090916001600160a01b0384169003610d7a5760405162461bcd60e51b815260206004820152603360248201527f696620796f7520646f6e74206861766520726566666572616c2061646472657360448201527239903ab9b29030b2323932b9b99037bbb732b960691b60648201526084016107db565b600182810180546001600160a01b0319166001600160a01b03861617905560028301548591610da9919061265f565b1015610df75760405162461bcd60e51b815260206004820152601d60248201527f596f75206e65656420746f20627579206561726c696572206c6576656c00000060448201526064016107db565b61015f5460018201546040516323b872dd60e01b815233600482015230602482015260448101919091526001600160a01b03909116906323b872dd906064016020604051808303816000875af1158015610e55573d6000803e3d6000fd5b505050506040513d601f19601f82011682018060405250810190610e799190612672565b50600282018490556001810154600383018054600090610e9a90849061265f565b909155505081546001600160a01b03191633178255600582018054906000610ec18361268f565b909155505060008481526007830160205260408120805491610ee28361268f565b9190505550806001015461016454610efa919061265f565b61016455600481015460008581526007840160205260409020541115610f625760405162461bcd60e51b815260206004820181905260248201527f596f752063616e7420627579206d6f72652074686973206c6576656c2079657460448201526064016107db565b600681018054600583015403610f9e57610f8082600601338761186b565b81600201548260050154610f94919061265f565b6005830155610fc6565b600682018054600181018255600091825260209091200180546001600160a01b031916331790555b6101638054906000610fd78361268f565b909155505060408051868152426020820152338183015290517f67b7c39dce5fa35f6a4cbe6ec721b5782cc6b7699bec93ff0cd066a22a899b399181900360600190a15050506107ee600160fb55565b61102f6114b2565b600061103a816114fe565b5061015f80546001600160a01b0319166001600160a01b0392909216919091179055565b6000806000806000606060006101606000896001600160a01b03166001600160a01b0316815260200190815260200160002090508060010160009054906101000a90046001600160a01b03168160020154826003015483600401548460050154856006018080548060200260200160405190810160405280929190818152602001828054801561111757602002820191906000526020600020905b81546001600160a01b031681526001909101906020018083116110f9575b505050505090509650965096509650965096505091939550919395565b600061113f816114fe565b60405163a9059cbb60e01b8152336004820152602481018390526001600160a01b0384169063a9059cbb906044016020604051808303816000875af115801561118c573d6000803e3d6000fd5b505050506040513d601f19601f820116820180604052508101906111b09190612672565b50505050565b60006111c06114b2565b60006111cb816114fe565b505061016281905590565b60008060008060606000610161600088815260200190815260200160002090508060010154816002015482600301548360040154846006018080548060200260200160405190810160405280929190818152602001828054801561126357602002820191906000526020600020905b81546001600160a01b03168152600190910190602001808311611245575b50505050509050955095509550955095505091939590929450565b600091825260c9602090815260408084206001600160a01b0393909316845291905290205460ff1690565b6112b16114b2565b60006112bc816114fe565b6000828152610161602052604081209060068201815b81548110156113e4578181815481106112ed576112ed6126a8565b60009182526020909120015461015f54600186015460405163a9059cbb60e01b81526001600160a01b0393841660048201819052602482019290925290955091169063a9059cbb906044016020604051808303816000875af1158015611357573d6000803e3d6000fd5b505050506040513d601f19601f8201168201806040525081019061137b9190612672565b5060018401548454604080516001600160a01b03871681524260208201529081019290925260608201527f2369db1bafee945aee5630782f4a170682e3f8188d8dc247a4c73eb8c9e692d29060800160405180910390a1806113dc8161268f565b9150506112d2565b506113f36006840160006121fb565b5050505050565b6000611405816114fe565b81611412576107ee611a4a565b6107ee611a9d565b600082815260c96020526040902060010154611435816114fe565b61076a838361158e565b6000818152610161602090815260409182902060068101805484518185028101850190955280855260609492938301828280156114a557602002820191906000526020600020905b81546001600160a01b03168152600190910190602001808311611487575b5050505050915050919050565b61012d5460ff166114fc5760405162461bcd60e51b815260206004820152601460248201527314185d5cd8589b194e881b9bdd081c185d5cd95960621b60448201526064016107db565b565b6108ce8133611adb565b611512828261127e565b6107ee57600082815260c9602090815260408083206001600160a01b03851684529091529020805460ff1916600117905561154a3390565b6001600160a01b0316816001600160a01b0316837f2f8788117e7eff1d82e926ec794901d17c78024a50270940304540a733656f0d60405160405180910390a45050565b611598828261127e565b156107ee57600082815260c9602090815260408083206001600160a01b0385168085529252808320805460ff1916905551339285917ff6391f5c32d9c69d2a47ea670b442974b53935d1edc7fd64eb21e047a839171b9190a45050565b60006107ee816114fe565b7f4910fdfa16fed3260ed0e7147f7cc6da11a60208b5b9406d12a635614ffd91435460ff16156116335761076a83611b34565b826001600160a01b03166352d1902d6040518163ffffffff1660e01b8152600401602060405180830381865afa92505050801561168d575060408051601f3d908101601f1916820190925261168a918101906126be565b60015b6116f05760405162461bcd60e51b815260206004820152602e60248201527f45524331393637557067726164653a206e657720696d706c656d656e7461746960448201526d6f6e206973206e6f74205555505360901b60648201526084016107db565b600080516020612884833981519152811461175f5760405162461bcd60e51b815260206004820152602960248201527f45524331393637557067726164653a20756e737570706f727465642070726f786044820152681a58589b195555525160ba1b60648201526084016107db565b5061076a838383611bd0565b6107ee8282611508565b600054610100900460ff1661179c5760405162461bcd60e51b81526004016107db906126d7565b6114fc611bf5565b600054610100900460ff166114fc5760405162461bcd60e51b81526004016107db906126d7565b600260fb540361181d5760405162461bcd60e51b815260206004820152601f60248201527f5265656e7472616e637947756172643a207265656e7472616e742063616c6c0060448201526064016107db565b600260fb55565b61012d5460ff16156114fc5760405162461bcd60e51b815260206004820152601060248201526f14185d5cd8589b194e881c185d5cd95960821b60448201526064016107db565b60008181526101616020526040812084549091908590829061188f5761188f6126a8565b60009182526020808320909101546001600160a01b031680835261016090915260408220600385015460018601549294509092916118cf90606490612722565b6118d99190612744565b90508082600401546118eb919061265f565b60048381019190915561015f5460405163a9059cbb60e01b81526001600160a01b03868116938201939093526024810184905291169063a9059cbb906044016020604051808303816000875af1158015611949573d6000803e3d6000fd5b505050506040513d601f19601f8201168201806040525081019061196d9190612672565b50611979876000611c29565b80546001810182556000828152602090200180546001600160a01b0319166001600160a01b03891617905596506119af83611d49565b600085815260078301602052604081208054916119cb8361275b565b909155505086546119e29060068601908990612219565b50600182015482548554604080516001600160a01b039485168152939092166020840152429183019190915260608201527f2496e048edda281349e32d9ccb972de94737d94c958c5d182a0e1ed90602fd9a906080015b60405180910390a150505050505050565b611a526114b2565b61012d805460ff191690557f5db9ee0a495bf2e6ff9c91a7834c1ba4fdd244a5e8aa4e537bd38aeae4b073aa335b6040516001600160a01b03909116815260200160405180910390a1565b611aa5611824565b61012d805460ff191660011790557f62e78cea01bee320cd4e420270b5ea74000d11b0c9f74754ebdbfc544b05a258611a803390565b611ae5828261127e565b6107ee57611af281611ed4565b611afd836020611ee6565b604051602001611b0e929190612796565b60408051601f198184030181529082905262461bcd60e51b82526107db9160040161280b565b6001600160a01b0381163b611ba15760405162461bcd60e51b815260206004820152602d60248201527f455243313936373a206e657720696d706c656d656e746174696f6e206973206e60448201526c1bdd08184818dbdb9d1c9858dd609a1b60648201526084016107db565b60008051602061288483398151915280546001600160a01b0319166001600160a01b0392909216919091179055565b611bd983612089565b600082511180611be65750805b1561076a576111b083836120c9565b600054610100900460ff16611c1c5760405162461bcd60e51b81526004016107db906126d7565b61012d805460ff19169055565b81546000908210611c715760405162461bcd60e51b81526020600482015260126024820152711a5b99195e081bdd5d081bd988189bdd5b9960721b60448201526064016107db565b815b8354611c819060019061283e565b811015611d0f5783611c9482600161265f565b81548110611ca457611ca46126a8565b9060005260206000200160009054906101000a90046001600160a01b0316848281548110611cd457611cd46126a8565b600091825260209091200180546001600160a01b0319166001600160a01b039290921691909117905580611d078161268f565b915050611c73565b5082805480611d2057611d20612851565b600082815260209020600019908201810180546001600160a01b03191690550190555090919050565b6001600160a01b03808216600090815261016060209081526040808320600180820154600283015480875261016190955292852061016254918101549296939093169491611d9990606490612722565b611da39190612744565b60018601546001600160a01b0316600090815261016060205260409020600481015491925090611dd490839061265f565b600482810191909155600682018054600181018255600091825260209091200180546001600160a01b0319166001600160a01b038a81169190911790915561015f5460405163a9059cbb60e01b81528883169381019390935260248301859052169063a9059cbb906044016020604051808303816000875af1158015611e5e573d6000803e3d6000fd5b505050506040513d601f19601f82011682018060405250810190611e829190612672565b50604080516001600160a01b038088168252891660208201524291810191909152606081018590527f2496e048edda281349e32d9ccb972de94737d94c958c5d182a0e1ed90602fd9a90608001611a39565b60606106936001600160a01b03831660145b60606000611ef5836002612744565b611f0090600261265f565b67ffffffffffffffff811115611f1857611f186123ae565b6040519080825280601f01601f191660200182016040528015611f42576020820181803683370190505b509050600360fc1b81600081518110611f5d57611f5d6126a8565b60200101906001600160f81b031916908160001a905350600f60fb1b81600181518110611f8c57611f8c6126a8565b60200101906001600160f81b031916908160001a9053506000611fb0846002612744565b611fbb90600161265f565b90505b6001811115612033576f181899199a1a9b1b9c1cb0b131b232b360811b85600f1660108110611fef57611fef6126a8565b1a60f81b828281518110612005576120056126a8565b60200101906001600160f81b031916908160001a90535060049490941c9361202c8161275b565b9050611fbe565b5083156120825760405162461bcd60e51b815260206004820181905260248201527f537472696e67733a20686578206c656e67746820696e73756666696369656e7460448201526064016107db565b9392505050565b61209281611b34565b6040516001600160a01b038216907fbc7cd75a20ee27fd9adebab32041f755214dbc6bffa90cc0225b39da2e5c2d3b90600090a250565b60606001600160a01b0383163b6121315760405162461bcd60e51b815260206004820152602660248201527f416464726573733a2064656c65676174652063616c6c20746f206e6f6e2d636f6044820152651b9d1c9858dd60d21b60648201526084016107db565b600080846001600160a01b03168460405161214c9190612867565b600060405180830381855af49150503d8060008114612187576040519150601f19603f3d011682016040523d82523d6000602084013e61218c565b606091505b50915091506121b482826040518060600160405280602781526020016128a4602791396121bd565b95945050505050565b606083156121cc575081612082565b61208283838151156121e15781518083602001fd5b8060405162461bcd60e51b81526004016107db919061280b565b50805460008255906000526020600020908101906108ce9190612269565b8280548282559060005260206000209081019282156122595760005260206000209182015b8281111561225957825482559160010191906001019061223e565b50612265929150612269565b5090565b5b80821115612265576000815560010161226a565b60006020828403121561229057600080fd5b81356001600160e01b03198116811461208257600080fd5b600080600080600060a086880312156122c057600080fd5b505083359560208501359550604085013594606081013594506080013592509050565b6000602082840312156122f557600080fd5b5035919050565b6001600160a01b03811681146108ce57600080fd5b6000806040838503121561232457600080fd5b823591506020830135612336816122fc565b809150509250929050565b60006020828403121561235357600080fd5b8135612082816122fc565b6000806040838503121561237157600080fd5b50508035926020909101359150565b6000806040838503121561239357600080fd5b823561239e816122fc565b91506020830135612336816122fc565b634e487b7160e01b600052604160045260246000fd5b600080604083850312156123d757600080fd5b82356123e2816122fc565b9150602083013567ffffffffffffffff808211156123ff57600080fd5b818501915085601f83011261241357600080fd5b813581811115612425576124256123ae565b604051601f8201601f19908116603f0116810190838211818310171561244d5761244d6123ae565b8160405282815288602084870101111561246657600080fd5b8260208601602083013760006020848301015280955050505050509250929050565b600081518084526020808501945080840160005b838110156124c15781516001600160a01b03168752958201959082019060010161249c565b509495945050505050565b60018060a01b038716815285602082015284604082015283606082015282608082015260c060a0820152600061250560c0830184612488565b98975050505050505050565b6000806040838503121561252457600080fd5b823561252f816122fc565b946020939093013593505050565b85815284602082015283604082015282606082015260a06080820152600061256860a0830184612488565b979650505050505050565b80151581146108ce57600080fd5b60006020828403121561259357600080fd5b813561208281612573565b6020815260006120826020830184612488565b6020808252602c908201527f46756e6374696f6e206d7573742062652063616c6c6564207468726f7567682060408201526b19195b1959d85d1958d85b1b60a21b606082015260800190565b6020808252602c908201527f46756e6374696f6e206d7573742062652063616c6c6564207468726f7567682060408201526b6163746976652070726f787960a01b606082015260800190565b634e487b7160e01b600052601160045260246000fd5b8082018082111561069357610693612649565b60006020828403121561268457600080fd5b815161208281612573565b6000600182016126a1576126a1612649565b5060010190565b634e487b7160e01b600052603260045260246000fd5b6000602082840312156126d057600080fd5b5051919050565b6020808252602b908201527f496e697469616c697a61626c653a20636f6e7472616374206973206e6f74206960408201526a6e697469616c697a696e6760a81b606082015260800190565b60008261273f57634e487b7160e01b600052601260045260246000fd5b500490565b808202811582820484141761069357610693612649565b60008161276a5761276a612649565b506000190190565b60005b8381101561278d578181015183820152602001612775565b50506000910152565b7f416363657373436f6e74726f6c3a206163636f756e74200000000000000000008152600083516127ce816017850160208801612772565b7001034b99036b4b9b9b4b733903937b6329607d1b60179184019182015283516127ff816028840160208801612772565b01602801949350505050565b602081526000825180602084015261282a816040850160208701612772565b601f01601f19169190910160400192915050565b8181038181111561069357610693612649565b634e487b7160e01b600052603160045260246000fd5b60008251612879818460208701612772565b919091019291505056fe360894a13ba1a3210667c828492db98dca3e2076cc3735a920a3ca505d382bbc416464726573733a206c6f772d6c6576656c2064656c65676174652063616c6c206661696c6564a2646970667358221220cd1e11986950db7b19efa107df5ce903956488a74c8d7cac5c2c5299ffadb26764736f6c63430008110033",
  "linkReferences": {},
  "deployedLinkReferences": {}
}