{
  "contractName": "SkymoneyBasic",
  "abi": [
    {
      "anonymous": false,
      "inputs": [
        {
          "indexed": true,
          "internalType": "address",
          "name": "receiver",
          "type": "address"
        },
        {
          "indexed": true,
          "internalType": "address",
          "name": "from",
          "type": "address"
        },
        {
          "indexed": false,
          "internalType": "uint8",
          "name": "matrix",
          "type": "uint8"
        },
        {
          "indexed": false,
          "internalType": "uint8",
          "name": "level",
          "type": "uint8"
        }
      ],
      "name": "MissedEthReceive",
      "type": "event"
    },
    {
      "anonymous": false,
      "inputs": [
        {
          "indexed": true,
          "internalType": "address",
          "name": "user",
          "type": "address"
        },
        {
          "indexed": true,
          "internalType": "address",
          "name": "referrer",
          "type": "address"
        },
        {
          "indexed": false,
          "internalType": "uint8",
          "name": "matrix",
          "type": "uint8"
        },
        {
          "indexed": false,
          "internalType": "uint8",
          "name": "level",
          "type": "uint8"
        },
        {
          "indexed": false,
          "internalType": "uint8",
          "name": "place",
          "type": "uint8"
        }
      ],
      "name": "NewUserPlace",
      "type": "event"
    },
    {
      "anonymous": false,
      "inputs": [
        {
          "indexed": true,
          "internalType": "address",
          "name": "user",
          "type": "address"
        },
        {
          "indexed": true,
          "internalType": "address",
          "name": "referrer",
          "type": "address"
        },
        {
          "indexed": true,
          "internalType": "uint256",
          "name": "userId",
          "type": "uint256"
        },
        {
          "indexed": false,
          "internalType": "uint256",
          "name": "referrerId",
          "type": "uint256"
        }
      ],
      "name": "Registration",
      "type": "event"
    },
    {
      "anonymous": false,
      "inputs": [
        {
          "indexed": true,
          "internalType": "address",
          "name": "user",
          "type": "address"
        },
        {
          "indexed": true,
          "internalType": "address",
          "name": "currentReferrer",
          "type": "address"
        },
        {
          "indexed": true,
          "internalType": "address",
          "name": "caller",
          "type": "address"
        },
        {
          "indexed": false,
          "internalType": "uint8",
          "name": "matrix",
          "type": "uint8"
        },
        {
          "indexed": false,
          "internalType": "uint8",
          "name": "level",
          "type": "uint8"
        }
      ],
      "name": "Reinvest",
      "type": "event"
    },
    {
      "anonymous": false,
      "inputs": [
        {
          "indexed": true,
          "internalType": "address",
          "name": "from",
          "type": "address"
        },
        {
          "indexed": true,
          "internalType": "address",
          "name": "receiver",
          "type": "address"
        },
        {
          "indexed": false,
          "internalType": "uint8",
          "name": "matrix",
          "type": "uint8"
        },
        {
          "indexed": false,
          "internalType": "uint8",
          "name": "level",
          "type": "uint8"
        }
      ],
      "name": "SentExtraEthDividends",
      "type": "event"
    },
    {
      "anonymous": false,
      "inputs": [
        {
          "indexed": true,
          "internalType": "address",
          "name": "user",
          "type": "address"
        },
        {
          "indexed": true,
          "internalType": "address",
          "name": "referrer",
          "type": "address"
        },
        {
          "indexed": false,
          "internalType": "uint8",
          "name": "matrix",
          "type": "uint8"
        },
        {
          "indexed": false,
          "internalType": "uint8",
          "name": "level",
          "type": "uint8"
        }
      ],
      "name": "Upgrade",
      "type": "event"
    },
    {
      "inputs": [],
      "name": "BASIC_PRICE",
      "outputs": [
        {
          "internalType": "uint256",
          "name": "",
          "type": "uint256"
        }
      ],
      "stateMutability": "view",
      "type": "function"
    },
    {
      "inputs": [],
      "name": "LAST_LEVEL",
      "outputs": [
        {
          "internalType": "uint8",
          "name": "",
          "type": "uint8"
        }
      ],
      "stateMutability": "view",
      "type": "function"
    },
    {
      "inputs": [
        {
          "internalType": "address",
          "name": "",
          "type": "address"
        }
      ],
      "name": "balances",
      "outputs": [
        {
          "internalType": "uint256",
          "name": "",
          "type": "uint256"
        }
      ],
      "stateMutability": "view",
      "type": "function"
    },
    {
      "inputs": [],
      "name": "contractOwner",
      "outputs": [
        {
          "internalType": "address",
          "name": "",
          "type": "address"
        }
      ],
      "stateMutability": "view",
      "type": "function"
    },
    {
      "inputs": [],
      "name": "depositToken",
      "outputs": [
        {
          "internalType": "contract IERC20",
          "name": "",
          "type": "address"
        }
      ],
      "stateMutability": "view",
      "type": "function"
    },
    {
      "inputs": [],
      "name": "id1",
      "outputs": [
        {
          "internalType": "address",
          "name": "",
          "type": "address"
        }
      ],
      "stateMutability": "view",
      "type": "function"
    },
    {
      "inputs": [
        {
          "internalType": "uint256",
          "name": "",
          "type": "uint256"
        }
      ],
      "name": "idToAddress",
      "outputs": [
        {
          "internalType": "address",
          "name": "",
          "type": "address"
        }
      ],
      "stateMutability": "view",
      "type": "function"
    },
    {
      "inputs": [],
      "name": "lastUserId",
      "outputs": [
        {
          "internalType": "uint256",
          "name": "",
          "type": "uint256"
        }
      ],
      "stateMutability": "view",
      "type": "function"
    },
    {
      "inputs": [
        {
          "internalType": "uint8",
          "name": "",
          "type": "uint8"
        }
      ],
      "name": "levelPrice",
      "outputs": [
        {
          "internalType": "uint256",
          "name": "",
          "type": "uint256"
        }
      ],
      "stateMutability": "view",
      "type": "function"
    },
    {
      "inputs": [],
      "name": "locked",
      "outputs": [
        {
          "internalType": "bool",
          "name": "",
          "type": "bool"
        }
      ],
      "stateMutability": "view",
      "type": "function"
    },
    {
      "inputs": [
        {
          "internalType": "uint256",
          "name": "",
          "type": "uint256"
        }
      ],
      "name": "userIds",
      "outputs": [
        {
          "internalType": "address",
          "name": "",
          "type": "address"
        }
      ],
      "stateMutability": "view",
      "type": "function"
    },
    {
      "inputs": [
        {
          "internalType": "address",
          "name": "",
          "type": "address"
        }
      ],
      "name": "users",
      "outputs": [
        {
          "internalType": "uint256",
          "name": "id",
          "type": "uint256"
        },
        {
          "internalType": "address",
          "name": "referrer",
          "type": "address"
        },
        {
          "internalType": "uint256",
          "name": "partnersCount",
          "type": "uint256"
        }
      ],
      "stateMutability": "view",
      "type": "function"
    }
  ],
  "bytecode": "0x608060405234801561001057600080fd5b506103a9806100206000396000f3fe608060405234801561001057600080fd5b50600436106100d45760003560e01c80639ac7e09e11610081578063ce606ee01161005b578063ce606ee01461029d578063cf309012146102bd578063ecabdf79146102da57600080fd5b80639ac7e09e146101fd578063a87430ba14610206578063c89039c51461027d57600080fd5b8063348d4487116100b2578063348d44871461019e5780634635fd68146101a7578063517999bc146101dd57600080fd5b806327e235e3146100d957806329c704001461010c5780632a2d0c4714610143575b600080fd5b6100f96100e73660046102fa565b60046020526000908152604090205481565b6040519081526020015b60405180910390f35b6000546101319074010000000000000000000000000000000000000000900460ff1681565b60405160ff9091168152602001610103565b610179610151366004610337565b60026020526000908152604090205473ffffffffffffffffffffffffffffffffffffffff1681565b60405173ffffffffffffffffffffffffffffffffffffffff9091168152602001610103565b6100f960055481565b6101796101b5366004610337565b60036020526000908152604090205473ffffffffffffffffffffffffffffffffffffffff1681565b6006546101799073ffffffffffffffffffffffffffffffffffffffff1681565b6100f960095481565b61024d6102143660046102fa565b600160208190526000918252604090912080549181015460029091015473ffffffffffffffffffffffffffffffffffffffff9091169083565b6040805193845273ffffffffffffffffffffffffffffffffffffffff909216602084015290820152606001610103565b6008546101799073ffffffffffffffffffffffffffffffffffffffff1681565b6000546101799073ffffffffffffffffffffffffffffffffffffffff1681565b600a546102ca9060ff1681565b6040519015158152602001610103565b6100f96102e8366004610350565b60076020526000908152604090205481565b60006020828403121561030c57600080fd5b813573ffffffffffffffffffffffffffffffffffffffff8116811461033057600080fd5b9392505050565b60006020828403121561034957600080fd5b5035919050565b60006020828403121561036257600080fd5b813560ff8116811461033057600080fdfea2646970667358221220561ff4c944db7d6318f492299b90fd919f666b604abcd6214b71734253aab56564736f6c634300080f0033",
  "immutableReferences": {},
  "source": "//SPDX-License-Identifier: UNLICENSED\npragma solidity 0.8.15;\n\nimport \"@openzeppelin/contracts/token/ERC20/IERC20.sol\";\n\ncontract SkymoneyBasic {\n\n  \n    address public contractOwner;\n\n    struct User {\n        uint id;\n        address referrer;\n        uint partnersCount;\n        \n        mapping(uint8 => bool) activeX3Levels;\n        mapping(uint8 => bool) activeX6Levels;\n        \n        mapping(uint8 => X3) x3Matrix;\n        mapping(uint8 => X6) x6Matrix;\n    }\n    \n    struct X3 {\n        address currentReferrer;\n        address[] referrals;\n        bool blocked;\n        uint reinvestCount;\n    }\n    \n    struct X6 {\n        address currentReferrer;\n        address[] firstLevelReferrals;\n        address[] secondLevelReferrals;\n        bool blocked;\n        uint reinvestCount;\n\n        address closedPart;\n    }\n\n    uint8 public LAST_LEVEL;\n    \n    mapping(address => User) public users;\n    mapping(uint => address) public idToAddress;\n    mapping(uint => address) public userIds;\n    mapping(address => uint) public balances; \n\n    uint public lastUserId;\n    address public id1;\n    //address public multisig;\n    \n    mapping(uint8 => uint) public levelPrice;\n\n    IERC20 public depositToken;\n    \n    uint public BASIC_PRICE;\n\n    bool public locked;\n    \n    event Registration(address indexed user, address indexed referrer, uint indexed userId, uint referrerId);\n    event Reinvest(address indexed user, address indexed currentReferrer, address indexed caller, uint8 matrix, uint8 level);\n    event Upgrade(address indexed user, address indexed referrer, uint8 matrix, uint8 level);\n    event NewUserPlace(address indexed user, address indexed referrer, uint8 matrix, uint8 level, uint8 place);\n    event MissedEthReceive(address indexed receiver, address indexed from, uint8 matrix, uint8 level);\n    event SentExtraEthDividends(address indexed from, address indexed receiver, uint8 matrix, uint8 level);\n}",
  "sourcePath": "C:\\Users\\kolam\\Desktop\\expressgame\\contracts\\SkymoneyBasic.sol",
  "compiler": {
    "name": "solc",
    "version": "0.8.15+commit.e14f2714.Emscripten.clang"
  },
  "schemaVersion": "3.4.6",
  "updatedAt": "2022-07-30T15:00:04.176Z",
  "devdoc": {
    "kind": "dev",
    "methods": {},
    "version": 1
  },
  "userdoc": {
    "kind": "user",
    "methods": {},
    "version": 1
  }
}