{
  "contractName": "SkyMoney",
  "abi": [
    {
      "inputs": [
        {
          "internalType": "contract IERC20",
          "name": "token_",
          "type": "address"
        },
        {
          "internalType": "address",
          "name": "owner_",
          "type": "address"
        }
      ],
      "stateMutability": "nonpayable",
      "type": "constructor"
    },
    {
      "anonymous": false,
      "inputs": [
        {
          "indexed": false,
          "internalType": "uint256",
          "name": "LevelNumber",
          "type": "uint256"
        },
        {
          "indexed": false,
          "internalType": "uint256",
          "name": "PriseToStart",
          "type": "uint256"
        },
        {
          "indexed": false,
          "internalType": "uint256",
          "name": "RefillCount",
          "type": "uint256"
        },
        {
          "indexed": false,
          "internalType": "uint256",
          "name": "RefillPercent",
          "type": "uint256"
        },
        {
          "indexed": false,
          "internalType": "uint256",
          "name": "Time",
          "type": "uint256"
        }
      ],
      "name": "CreatedNewLevel",
      "type": "event"
    },
    {
      "anonymous": false,
      "inputs": [
        {
          "indexed": false,
          "internalType": "address",
          "name": "User",
          "type": "address"
        },
        {
          "indexed": false,
          "internalType": "uint256",
          "name": "Time",
          "type": "uint256"
        },
        {
          "indexed": false,
          "internalType": "uint256",
          "name": "amount",
          "type": "uint256"
        },
        {
          "indexed": false,
          "internalType": "uint256",
          "name": "LevelNumber",
          "type": "uint256"
        }
      ],
      "name": "EmergencyWithdraw",
      "type": "event"
    },
    {
      "anonymous": false,
      "inputs": [
        {
          "indexed": false,
          "internalType": "uint256",
          "name": "LevelNumber",
          "type": "uint256"
        },
        {
          "indexed": false,
          "internalType": "uint256",
          "name": "Time",
          "type": "uint256"
        },
        {
          "indexed": false,
          "internalType": "address",
          "name": "User",
          "type": "address"
        }
      ],
      "name": "LevelBought",
      "type": "event"
    },
    {
      "anonymous": false,
      "inputs": [
        {
          "indexed": true,
          "internalType": "address",
          "name": "previousOwner",
          "type": "address"
        },
        {
          "indexed": true,
          "internalType": "address",
          "name": "newOwner",
          "type": "address"
        }
      ],
      "name": "OwnershipTransferred",
      "type": "event"
    },
    {
      "anonymous": false,
      "inputs": [
        {
          "indexed": false,
          "internalType": "address",
          "name": "Referall",
          "type": "address"
        },
        {
          "indexed": false,
          "internalType": "address",
          "name": "User",
          "type": "address"
        },
        {
          "indexed": false,
          "internalType": "uint256",
          "name": "Time",
          "type": "uint256"
        },
        {
          "indexed": false,
          "internalType": "uint256",
          "name": "LevelNumber",
          "type": "uint256"
        }
      ],
      "name": "ReferallGetBonus",
      "type": "event"
    },
    {
      "stateMutability": "nonpayable",
      "type": "fallback"
    },
    {
      "inputs": [],
      "name": "ReferallBonusPercent",
      "outputs": [
        {
          "internalType": "uint256",
          "name": "",
          "type": "uint256"
        }
      ],
      "stateMutability": "view",
      "type": "function"
    },
    {
      "inputs": [],
      "name": "Token",
      "outputs": [
        {
          "internalType": "contract IERC20",
          "name": "",
          "type": "address"
        }
      ],
      "stateMutability": "view",
      "type": "function"
    },
    {
      "inputs": [],
      "name": "TotalBoughtLevels",
      "outputs": [
        {
          "internalType": "uint256",
          "name": "",
          "type": "uint256"
        }
      ],
      "stateMutability": "view",
      "type": "function"
    },
    {
      "inputs": [
        {
          "internalType": "uint256",
          "name": "",
          "type": "uint256"
        }
      ],
      "name": "levels",
      "outputs": [
        {
          "internalType": "uint256",
          "name": "numberLvl",
          "type": "uint256"
        },
        {
          "internalType": "uint256",
          "name": "priceToStart",
          "type": "uint256"
        },
        {
          "internalType": "uint256",
          "name": "refillCount",
          "type": "uint256"
        },
        {
          "internalType": "uint256",
          "name": "refillPercent",
          "type": "uint256"
        }
      ],
      "stateMutability": "view",
      "type": "function"
    },
    {
      "inputs": [],
      "name": "owner",
      "outputs": [
        {
          "internalType": "address",
          "name": "",
          "type": "address"
        }
      ],
      "stateMutability": "view",
      "type": "function"
    },
    {
      "inputs": [],
      "name": "renounceOwnership",
      "outputs": [],
      "stateMutability": "nonpayable",
      "type": "function"
    },
    {
      "inputs": [
        {
          "internalType": "address",
          "name": "newOwner",
          "type": "address"
        }
      ],
      "name": "transferOwnership",
      "outputs": [],
      "stateMutability": "nonpayable",
      "type": "function"
    },
    {
      "inputs": [
        {
          "internalType": "address",
          "name": "",
          "type": "address"
        }
      ],
      "name": "users",
      "outputs": [
        {
          "internalType": "address",
          "name": "user",
          "type": "address"
        },
        {
          "internalType": "address",
          "name": "referral",
          "type": "address"
        },
        {
          "internalType": "uint256",
          "name": "currentlvl",
          "type": "uint256"
        },
        {
          "internalType": "uint256",
          "name": "deposited",
          "type": "uint256"
        },
        {
          "internalType": "uint256",
          "name": "earned",
          "type": "uint256"
        },
        {
          "internalType": "uint256",
          "name": "countOfBuyingLevels",
          "type": "uint256"
        }
      ],
      "stateMutability": "view",
      "type": "function"
    },
    {
      "stateMutability": "payable",
      "type": "receive"
    },
    {
      "inputs": [
        {
          "internalType": "uint256",
          "name": "_numberLvl",
          "type": "uint256"
        },
        {
          "internalType": "uint256",
          "name": "_priceStart",
          "type": "uint256"
        },
        {
          "internalType": "uint256",
          "name": "_refillCount",
          "type": "uint256"
        },
        {
          "internalType": "uint256",
          "name": "_refillPercent",
          "type": "uint256"
        }
      ],
      "name": "createNewLvl",
      "outputs": [
        {
          "internalType": "uint256",
          "name": "",
          "type": "uint256"
        }
      ],
      "stateMutability": "nonpayable",
      "type": "function"
    },
    {
      "inputs": [
        {
          "internalType": "uint256",
          "name": "buyLvl",
          "type": "uint256"
        },
        {
          "internalType": "address",
          "name": "_refferal",
          "type": "address"
        }
      ],
      "name": "buyLevel",
      "outputs": [],
      "stateMutability": "nonpayable",
      "type": "function"
    },
    {
      "inputs": [
        {
          "internalType": "uint256",
          "name": "_level",
          "type": "uint256"
        }
      ],
      "name": "closeLevelAndSendReward",
      "outputs": [],
      "stateMutability": "nonpayable",
      "type": "function"
    },
    {
      "inputs": [
        {
          "internalType": "uint256",
          "name": "levelNumber",
          "type": "uint256"
        }
      ],
      "name": "currentQueueInLevel",
      "outputs": [
        {
          "internalType": "address[]",
          "name": "",
          "type": "address[]"
        }
      ],
      "stateMutability": "view",
      "type": "function"
    },
    {
      "inputs": [
        {
          "internalType": "uint256",
          "name": "percent",
          "type": "uint256"
        }
      ],
      "name": "changeReferallPercent",
      "outputs": [
        {
          "internalType": "uint256",
          "name": "",
          "type": "uint256"
        }
      ],
      "stateMutability": "nonpayable",
      "type": "function"
    }
  ],
  "bytecode": "0x608060405260036005553480156200001657600080fd5b50604051620015023803806200150283398101604081905262000039916200033e565b62000044336200016c565b60018055600280546001600160a01b0319166001600160a01b0384161790556200006e81620001bc565b62000088600068022b1c8c1227a00000600560c86200023f565b50620000a360016804e1003b28d9280000600460966200023f565b50620000be600268093739534d28680000600560af6200023f565b50620000d96003680ea300b17a8b780000600660c86200023f565b50620000f46004681b1ae4d6e2ef500000600660e16200023f565b506200010f60056830ca024f987b900000600860fa6200023f565b506200012b6006685150ae84a8cdf0000060086101136200023f565b50620001476007686c6b935b8bbd400000600961012c6200023f565b5062000163600868a2a15d09519be00000600a6101456200023f565b5050506200037d565b600080546001600160a01b038381166001600160a01b0319831681178455604051919092169283917f8be0079c531659141344cd1fd0a4f28419497f9722a3daafe3b4186f6b6457e09190a35050565b620001c6620002ca565b6001600160a01b038116620002315760405162461bcd60e51b815260206004820152602660248201527f4f776e61626c653a206e6577206f776e657220697320746865207a65726f206160448201526564647265737360d01b60648201526084015b60405180910390fd5b6200023c816200016c565b50565b60006200024b620002ca565b6000858152600460209081526040918290208781556001810187905560028101869055600381018590558251888152918201879052918101859052606081018490524260808201527f35fa5cc0e4b24f8b04552ff8f26ee1322d1c61dff5e2b52d87abb1282e10dc799060a00160405180910390a15093949350505050565b6000546001600160a01b03163314620003265760405162461bcd60e51b815260206004820181905260248201527f4f776e61626c653a2063616c6c6572206973206e6f7420746865206f776e6572604482015260640162000228565b565b6001600160a01b03811681146200023c57600080fd5b600080604083850312156200035257600080fd5b82516200035f8162000328565b6020840151909250620003728162000328565b809150509250929050565b611175806200038d6000396000f3fe6080604052600436106100d65760003560e01c80638da5cb5b1161007f578063b2596a6711610059578063b2596a6714610286578063c2412676146102e8578063e176ce0a14610308578063f2fde38b14610335576100dd565b80638da5cb5b1461019f578063a87430ba146101d1578063ab7a6bf114610266576100dd565b8063715018a6116100b0578063715018a61461014a57806380891cf11461015f578063855b42831461017f576100dd565b80632d5339e0146100eb5780634b70e8e71461011457806364e5322a1461012a576100dd565b366100dd57005b3480156100e957600080fd5b005b3480156100f757600080fd5b5061010160065481565b6040519081526020015b60405180910390f35b34801561012057600080fd5b5061010160055481565b34801561013657600080fd5b506100e9610145366004610f6b565b610355565b34801561015657600080fd5b506100e9610681565b34801561016b57600080fd5b5061010161017a366004610f97565b610695565b34801561018b57600080fd5b5061010161019a366004610fc9565b61071e565b3480156101ab57600080fd5b506000546001600160a01b03165b6040516001600160a01b03909116815260200161010b565b3480156101dd57600080fd5b5061022e6101ec366004610fe2565b60036020819052600091825260409091208054600182015460028301549383015460048401546005909401546001600160a01b03938416959390921693909186565b604080516001600160a01b039788168152969095166020870152938501929092526060840152608083015260a082015260c00161010b565b34801561027257600080fd5b506100e9610281366004610fc9565b610735565b34801561029257600080fd5b506102c86102a1366004610fc9565b60046020526000908152604090208054600182015460028301546003909301549192909184565b60408051948552602085019390935291830152606082015260800161010b565b3480156102f457600080fd5b506002546101b9906001600160a01b031681565b34801561031457600080fd5b50610328610323366004610fc9565b610879565b60405161010b9190611004565b34801561034157600080fd5b506100e9610350366004610fe2565b6108e9565b6002600154036103ac5760405162461bcd60e51b815260206004820152601f60248201527f5265656e7472616e637947756172643a207265656e7472616e742063616c6c0060448201526064015b60405180910390fd5b60026001553360009081526003602090815260408083208584526004909252822090916001600160a01b038416900361044d5760405162461bcd60e51b815260206004820152603360248201527f696620796f7520646f6e74206861766520726566666572616c2061646472657360448201527f73207573652061646472657373206f776e65720000000000000000000000000060648201526084016103a3565b6001828101805473ffffffffffffffffffffffffffffffffffffffff19166001600160a01b038616179055600283015485916104899190611067565b10156104d75760405162461bcd60e51b815260206004820152601d60248201527f596f75206e65656420746f20627579206561726c696572206c6576656c00000060448201526064016103a3565b60025460018201546040517f23b872dd00000000000000000000000000000000000000000000000000000000815233600482015230602482015260448101919091526001600160a01b03909116906323b872dd906064016020604051808303816000875af115801561054d573d6000803e3d6000fd5b505050506040513d601f19601f82011682018060405250810190610571919061107f565b50600282018490556001810154600383018054600090610592908490611067565b9091555050815473ffffffffffffffffffffffffffffffffffffffff1916331782556005820180549060006105c6836110a1565b90915550506004810180546002830154036105ee576105e9826004013387610979565b610623565b6004820180546001810182556000918252602090912001805473ffffffffffffffffffffffffffffffffffffffff1916331790555b60068054906000610633836110a1565b909155505060408051868152426020820152338183015290517f67b7c39dce5fa35f6a4cbe6ec721b5782cc6b7699bec93ff0cd066a22a899b399181900360600190a1505060018055505050565b610689610b42565b6106936000610b9c565b565b600061069f610b42565b6000858152600460209081526040918290208781556001810187905560028101869055600381018590558251888152918201879052918101859052606081018490524260808201527f35fa5cc0e4b24f8b04552ff8f26ee1322d1c61dff5e2b52d87abb1282e10dc799060a00160405180910390a15093949350505050565b6000610728610b42565b506005819055805b919050565b61073d610b42565b6000818152600460208190526040822091908201815b81548110156108645781818154811061076e5761076e6110bb565b600091825260209091200154600254600186015460405163a9059cbb60e01b81526001600160a01b0393841660048201819052602482019290925290955091169063a9059cbb906044016020604051808303816000875af11580156107d7573d6000803e3d6000fd5b505050506040513d601f19601f820116820180604052508101906107fb919061107f565b5060018401548454604080516001600160a01b03871681524260208201529081019290925260608201527f2369db1bafee945aee5630782f4a170682e3f8188d8dc247a4c73eb8c9e692d29060800160405180910390a18061085c816110a1565b915050610753565b50610873600484016000610ed1565b50505050565b6000818152600460208181526040928390209182018054845181840281018401909552808552606094928301828280156108dc57602002820191906000526020600020905b81546001600160a01b031681526001909101906020018083116108be575b5050505050915050919050565b6108f1610b42565b6001600160a01b03811661096d5760405162461bcd60e51b815260206004820152602660248201527f4f776e61626c653a206e6577206f776e657220697320746865207a65726f206160448201527f646472657373000000000000000000000000000000000000000000000000000060648201526084016103a3565b61097681610b9c565b50565b600081815260046020526040812084549091908590829061099c5761099c6110bb565b60009182526020808320909101546001600160a01b031680835260039182905260408320918501546001860154919450919291906109dc906064906110d1565b6109e691906110f3565b90508082600401546109f89190611067565b60048381019190915560025460405163a9059cbb60e01b81526001600160a01b03868116938201939093526024810184905291169063a9059cbb906044016020604051808303816000875af1158015610a55573d6000803e3d6000fd5b505050506040513d601f19601f82011682018060405250810190610a79919061107f565b50610a85876000610bf9565b805460018101825560008281526020902001805473ffffffffffffffffffffffffffffffffffffffff19166001600160a01b0389161790559650610ac883610d3e565b8654610ada9060048601908990610eef565b50600182015482548554604080516001600160a01b039485168152939092166020840152429183019190915260608201527f2496e048edda281349e32d9ccb972de94737d94c958c5d182a0e1ed90602fd9a906080015b60405180910390a150505050505050565b6000546001600160a01b031633146106935760405162461bcd60e51b815260206004820181905260248201527f4f776e61626c653a2063616c6c6572206973206e6f7420746865206f776e657260448201526064016103a3565b600080546001600160a01b0383811673ffffffffffffffffffffffffffffffffffffffff19831681178455604051919092169283917f8be0079c531659141344cd1fd0a4f28419497f9722a3daafe3b4186f6b6457e09190a35050565b81546000908210610c4c5760405162461bcd60e51b815260206004820152601260248201527f696e646578206f7574206f6620626f756e64000000000000000000000000000060448201526064016103a3565b815b8354610c5c90600190611112565b811015610cf75783610c6f826001611067565b81548110610c7f57610c7f6110bb565b9060005260206000200160009054906101000a90046001600160a01b0316848281548110610caf57610caf6110bb565b6000918252602090912001805473ffffffffffffffffffffffffffffffffffffffff19166001600160a01b039290921691909117905580610cef816110a1565b915050610c4e565b5082805480610d0857610d08611129565b6000828152602090206000199082018101805473ffffffffffffffffffffffffffffffffffffffff191690550190555090919050565b6001600160a01b03808216600090815260036020908152604080832060018082015460028301548087526004909552928520600554918101549296939093169491610d8b906064906110d1565b610d9591906110f3565b60018601546001600160a01b03166000908152600360205260409020600481015491925090610dc5908390611067565b6004828101919091556006820180546001810182556000918252602090912001805473ffffffffffffffffffffffffffffffffffffffff19166001600160a01b038a81169190911790915560025460405163a9059cbb60e01b81528883169381019390935260248301859052169063a9059cbb906044016020604051808303816000875af1158015610e5b573d6000803e3d6000fd5b505050506040513d601f19601f82011682018060405250810190610e7f919061107f565b50604080516001600160a01b038088168252891660208201524291810191909152606081018590527f2496e048edda281349e32d9ccb972de94737d94c958c5d182a0e1ed90602fd9a90608001610b31565b50805460008255906000526020600020908101906109769190610f3f565b828054828255906000526020600020908101928215610f2f5760005260206000209182015b82811115610f2f578254825591600101919060010190610f14565b50610f3b929150610f3f565b5090565b5b80821115610f3b5760008155600101610f40565b80356001600160a01b038116811461073057600080fd5b60008060408385031215610f7e57600080fd5b82359150610f8e60208401610f54565b90509250929050565b60008060008060808587031215610fad57600080fd5b5050823594602084013594506040840135936060013592509050565b600060208284031215610fdb57600080fd5b5035919050565b600060208284031215610ff457600080fd5b610ffd82610f54565b9392505050565b6020808252825182820181905260009190848201906040850190845b818110156110455783516001600160a01b031683529284019291840191600101611020565b50909695505050505050565b634e487b7160e01b600052601160045260246000fd5b6000821982111561107a5761107a611051565b500190565b60006020828403121561109157600080fd5b81518015158114610ffd57600080fd5b600060001982036110b4576110b4611051565b5060010190565b634e487b7160e01b600052603260045260246000fd5b6000826110ee57634e487b7160e01b600052601260045260246000fd5b500490565b600081600019048311821515161561110d5761110d611051565b500290565b60008282101561112457611124611051565b500390565b634e487b7160e01b600052603160045260246000fdfea264697066735822122071d393081510d0c9c97693d4f1fd67ee7453c5b4de446cb5efbf154914c4d76d64736f6c634300080f0033",
  "immutableReferences": {},
  "source": "//SPDX-License-Identifier: UNLICENSED\npragma solidity 0.8.15;\nimport \"@openzeppelin/contracts/token/ERC20/utils/SafeERC20.sol\";\nimport \"@openzeppelin/contracts/security/ReentrancyGuard.sol\";\nimport \"@openzeppelin/contracts/access/Ownable.sol\";\n//import \"@openzeppelin/contracts/utils/Address.sol\";\n\ncontract SkyMoney is Ownable,ReentrancyGuard{\n\n    struct User{\n        address user;\n        address referral;\n        uint currentlvl;\n        uint deposited;\n        uint earned;\n        uint countOfBuyingLevels;\n        address[] referals;\n    }\n    struct Level{\n        uint numberLvl;\n        uint priceToStart;\n        uint refillCount;\n        uint refillPercent;\n        address[] currentLvlLine;\n    }\n    IERC20 public Token;\n    mapping(address => User) public users;\n    mapping(uint => Level) public levels;\n    uint public ReferallBonusPercent = 3;\n    uint public TotalBoughtLevels;  \n    event CreatedNewLevel(uint LevelNumber,uint PriseToStart,uint RefillCount,uint RefillPercent,uint Time);\n    event LevelBought(uint LevelNumber,uint Time,address User);\n    event ReferallGetBonus(address Referall, address User,uint Time,uint LevelNumber);\n    event EmergencyWithdraw(address User,uint Time,uint amount,uint LevelNumber);\nconstructor(IERC20 token_,address owner_){\n    Token = token_;\n    transferOwnership(owner_);\n    createNewLvl(0, 40*(10**18), 5, 200);\n    createNewLvl(1, 90*(10**18), 4, 150);\n    createNewLvl(2, 170*(10**18),5, 175);\n    createNewLvl(3, 270*(10**18), 6, 200);\n    createNewLvl(4, 500*(10**18), 6, 225);\n    createNewLvl(5, 900*(10**18), 8, 250);\n    createNewLvl(6, 1500*(10**18), 8, 275);\n    createNewLvl(7, 2000*(10**18), 9, 300);\n    createNewLvl(8, 3000*(10**18), 10, 325);\n}\nfallback()external{\n\n}\nreceive() external payable {\n\n}\n//set refill percent in actual percentage\n//refillcount set with active count of percent who will stand in queue for waiting last man\nfunction createNewLvl(uint _numberLvl,uint _priceStart,uint _refillCount,uint _refillPercent)public onlyOwner returns(uint){\n    Level storage lvl = levels[_numberLvl];\n    lvl.numberLvl = _numberLvl;\n    lvl.priceToStart = _priceStart;\n    lvl.refillCount = _refillCount;\n    lvl.refillPercent = _refillPercent;\n    emit CreatedNewLevel(_numberLvl, _priceStart, _refillCount, _refillPercent, block.timestamp);\n    return _numberLvl;\n}\n//require refferal is exist and buy some lvl\nfunction buyLevel(uint buyLvl,address _refferal)public nonReentrant {\n    User storage user = users[msg.sender];\n    Level storage lvl = levels[buyLvl];\n    require(_refferal != 0x0000000000000000000000000000000000000000,\"if you dont have refferal address use address owner\");\n    user.referral = _refferal;\n    require(user.currentlvl+1 >= buyLvl,\"You need to buy earlier level\");\n    Token.transferFrom(msg.sender, address(this), lvl.priceToStart);\n    user.currentlvl = buyLvl;   \n    user.deposited += lvl.priceToStart;\n    user.user = msg.sender;\n    user.countOfBuyingLevels++;\n    address[] storage current = lvl.currentLvlLine;\n    if (lvl.refillCount == current.length){\n        _sendPaymentAndPushInQueue(lvl.currentLvlLine, msg.sender, buyLvl);\n    }\n    else{\n        lvl.currentLvlLine.push(msg.sender);\n    }\n    TotalBoughtLevels++;\n    emit LevelBought(buyLvl, block.timestamp, msg.sender);\n}\nfunction changeToken(IERC20 _token)private onlyOwner{\n    Token = _token;\n}\nfunction closeLevelAndSendReward(uint _level)public onlyOwner{\n    Level storage level = levels[_level];\n    address currentUserAddress;\n    address[]storage usersArray = level.currentLvlLine;\n    for (uint i = 0; i < usersArray.length; i++){\n        currentUserAddress = usersArray[i];\n        Token.transfer(currentUserAddress, level.priceToStart);\n        emit EmergencyWithdraw(currentUserAddress, block.timestamp, level.priceToStart, level.numberLvl);\n    }\n    delete level.currentLvlLine;\n\n}\nfunction _sendPaymentAndPushInQueue(address[]storage array,address newUser,uint _lvle) internal {\n    Level storage lvl = levels[_lvle];\n    address paymentToUser = array[0];\n    User storage user = users[paymentToUser];\n    uint amountForlvl = (lvl.priceToStart/100)*lvl.refillPercent ;\n    user.earned = user.earned + amountForlvl;\n    Token.transfer(paymentToUser, amountForlvl);\n    array = _remove(array, 0);\n    array.push(newUser);\n    _sendToRefferalPercent(paymentToUser);\n    lvl.currentLvlLine = array;\n    emit ReferallGetBonus(user.referral, user.user, block.timestamp, lvl.numberLvl);\n}\nfunction _sendToRefferalPercent(address _user) internal {\n    User storage user = users[_user];\n    address reseiver = user.referral;\n    uint lvlCurrentUser = user.currentlvl;\n    Level storage lvl = levels[lvlCurrentUser];\n    uint amountBonus = (lvl.priceToStart / 100) * ReferallBonusPercent;\n   \n    User storage refUser = users[user.referral];\n    refUser.earned = refUser.earned + amountBonus;\n    refUser.referals.push(_user);\n    Token.transfer(reseiver, amountBonus);\n    emit ReferallGetBonus(reseiver, _user, block.timestamp, lvlCurrentUser);\n}\nfunction currentQueueInLevel(uint levelNumber)public view returns(address[] memory){\n    Level storage lvl = levels[levelNumber];\n    return lvl.currentLvlLine;\n}\nfunction _remove(address[]storage arr,uint _index) internal returns(address[]storage) {\n    require(_index < arr.length, \"index out of bound\");\n    for (uint i = _index; i < arr.length - 1; i++) {\n        arr[i] = arr[i + 1];\n    }\n    arr.pop();\n    return arr;\n    }\nfunction changeReferallPercent(uint percent)public onlyOwner returns(uint){\n    ReferallBonusPercent = percent;\n    return percent;\n}\n\nfunction witdhraw(address token,uint amount) private onlyOwner{\n    IERC20(token).transfer(address(msg.sender), amount);\n}\n}",
  "sourcePath": "C:\\Users\\kolam\\Desktop\\expressgame\\contracts\\SkyMoney.sol",
  "compiler": {
    "name": "solc",
    "version": "0.8.15+commit.e14f2714.Emscripten.clang"
  },
  "schemaVersion": "3.4.6",
  "updatedAt": "2022-08-14T16:02:59.331Z",
  "devdoc": {
    "kind": "dev",
    "methods": {
      "owner()": {
        "details": "Returns the address of the current owner."
      },
      "renounceOwnership()": {
        "details": "Leaves the contract without owner. It will not be possible to call `onlyOwner` functions anymore. Can only be called by the current owner. NOTE: Renouncing ownership will leave the contract without an owner, thereby removing any functionality that is only available to the owner."
      },
      "transferOwnership(address)": {
        "details": "Transfers ownership of the contract to a new account (`newOwner`). Can only be called by the current owner."
      }
    },
    "version": 1
  },
  "userdoc": {
    "kind": "user",
    "methods": {},
    "version": 1
  }
}