{
  "contractName": "SkyMoney",
  "abi": [
    {
      "inputs": [
        {
          "internalType": "contract IERC20",
          "name": "token_",
          "type": "address"
        },
        {
          "internalType": "address",
          "name": "owner_",
          "type": "address"
        }
      ],
      "stateMutability": "nonpayable",
      "type": "constructor"
    },
    {
      "anonymous": false,
      "inputs": [
        {
          "indexed": false,
          "internalType": "uint256",
          "name": "LevelNumber",
          "type": "uint256"
        },
        {
          "indexed": false,
          "internalType": "uint256",
          "name": "PriseToStart",
          "type": "uint256"
        },
        {
          "indexed": false,
          "internalType": "uint256",
          "name": "RefillCount",
          "type": "uint256"
        },
        {
          "indexed": false,
          "internalType": "uint256",
          "name": "RefillPercent",
          "type": "uint256"
        },
        {
          "indexed": false,
          "internalType": "uint256",
          "name": "Time",
          "type": "uint256"
        }
      ],
      "name": "CreatedNewLevel",
      "type": "event"
    },
    {
      "anonymous": false,
      "inputs": [
        {
          "indexed": false,
          "internalType": "uint256",
          "name": "LevelNumber",
          "type": "uint256"
        },
        {
          "indexed": false,
          "internalType": "uint256",
          "name": "Time",
          "type": "uint256"
        },
        {
          "indexed": false,
          "internalType": "address",
          "name": "User",
          "type": "address"
        }
      ],
      "name": "LevelBought",
      "type": "event"
    },
    {
      "anonymous": false,
      "inputs": [
        {
          "indexed": true,
          "internalType": "address",
          "name": "previousOwner",
          "type": "address"
        },
        {
          "indexed": true,
          "internalType": "address",
          "name": "newOwner",
          "type": "address"
        }
      ],
      "name": "OwnershipTransferred",
      "type": "event"
    },
    {
      "anonymous": false,
      "inputs": [
        {
          "indexed": false,
          "internalType": "address",
          "name": "Referall",
          "type": "address"
        },
        {
          "indexed": false,
          "internalType": "address",
          "name": "User",
          "type": "address"
        },
        {
          "indexed": false,
          "internalType": "uint256",
          "name": "Time",
          "type": "uint256"
        },
        {
          "indexed": false,
          "internalType": "uint256",
          "name": "LevelNumber",
          "type": "uint256"
        }
      ],
      "name": "ReferallGetBonus",
      "type": "event"
    },
    {
      "inputs": [],
      "name": "ReferallBonusPercent",
      "outputs": [
        {
          "internalType": "uint256",
          "name": "",
          "type": "uint256"
        }
      ],
      "stateMutability": "view",
      "type": "function",
      "constant": true
    },
    {
      "inputs": [],
      "name": "Token",
      "outputs": [
        {
          "internalType": "contract IERC20",
          "name": "",
          "type": "address"
        }
      ],
      "stateMutability": "view",
      "type": "function",
      "constant": true
    },
    {
      "inputs": [],
      "name": "TotalUsers",
      "outputs": [
        {
          "internalType": "uint256",
          "name": "",
          "type": "uint256"
        }
      ],
      "stateMutability": "view",
      "type": "function",
      "constant": true
    },
    {
      "inputs": [
        {
          "internalType": "uint256",
          "name": "",
          "type": "uint256"
        }
      ],
      "name": "levels",
      "outputs": [
        {
          "internalType": "uint256",
          "name": "numberLvl",
          "type": "uint256"
        },
        {
          "internalType": "uint256",
          "name": "priceToStart",
          "type": "uint256"
        },
        {
          "internalType": "uint256",
          "name": "refillCount",
          "type": "uint256"
        },
        {
          "internalType": "uint256",
          "name": "refillPercent",
          "type": "uint256"
        }
      ],
      "stateMutability": "view",
      "type": "function",
      "constant": true
    },
    {
      "inputs": [],
      "name": "owner",
      "outputs": [
        {
          "internalType": "address",
          "name": "",
          "type": "address"
        }
      ],
      "stateMutability": "view",
      "type": "function",
      "constant": true
    },
    {
      "inputs": [],
      "name": "renounceOwnership",
      "outputs": [],
      "stateMutability": "nonpayable",
      "type": "function"
    },
    {
      "inputs": [
        {
          "internalType": "address",
          "name": "newOwner",
          "type": "address"
        }
      ],
      "name": "transferOwnership",
      "outputs": [],
      "stateMutability": "nonpayable",
      "type": "function"
    },
    {
      "inputs": [
        {
          "internalType": "address",
          "name": "",
          "type": "address"
        }
      ],
      "name": "users",
      "outputs": [
        {
          "internalType": "address",
          "name": "user",
          "type": "address"
        },
        {
          "internalType": "address",
          "name": "referral",
          "type": "address"
        },
        {
          "internalType": "uint256",
          "name": "currentlvl",
          "type": "uint256"
        },
        {
          "internalType": "uint256",
          "name": "deposited",
          "type": "uint256"
        },
        {
          "internalType": "uint256",
          "name": "earned",
          "type": "uint256"
        },
        {
          "internalType": "uint256",
          "name": "countOfBuyingLevels",
          "type": "uint256"
        }
      ],
      "stateMutability": "view",
      "type": "function",
      "constant": true
    },
    {
      "inputs": [
        {
          "internalType": "uint256",
          "name": "_numberLvl",
          "type": "uint256"
        },
        {
          "internalType": "uint256",
          "name": "_priceStart",
          "type": "uint256"
        },
        {
          "internalType": "uint256",
          "name": "_refillCount",
          "type": "uint256"
        },
        {
          "internalType": "uint256",
          "name": "_refillPercent",
          "type": "uint256"
        }
      ],
      "name": "createNewLvl",
      "outputs": [
        {
          "internalType": "uint256",
          "name": "",
          "type": "uint256"
        }
      ],
      "stateMutability": "nonpayable",
      "type": "function"
    },
    {
      "inputs": [
        {
          "internalType": "uint256",
          "name": "buyLvl",
          "type": "uint256"
        },
        {
          "internalType": "address",
          "name": "_refferal",
          "type": "address"
        }
      ],
      "name": "buyLevel",
      "outputs": [],
      "stateMutability": "nonpayable",
      "type": "function"
    },
    {
      "inputs": [
        {
          "internalType": "contract IERC20",
          "name": "_token",
          "type": "address"
        }
      ],
      "name": "changeToken",
      "outputs": [],
      "stateMutability": "nonpayable",
      "type": "function"
    },
    {
      "inputs": [
        {
          "internalType": "uint256",
          "name": "levelNumber",
          "type": "uint256"
        }
      ],
      "name": "currentQueueInLevel",
      "outputs": [
        {
          "internalType": "address[]",
          "name": "",
          "type": "address[]"
        }
      ],
      "stateMutability": "view",
      "type": "function",
      "constant": true
    }
  ],
  "bytecode": "0x608060405260036005553480156200001657600080fd5b50604051620012c3380380620012c3833981016040819052620000399162000327565b620000443362000155565b60018055600280546001600160a01b0319166001600160a01b0384161790556200006e81620001a5565b6200008860006801a055690d9db80000600660c862000228565b50620000a460016803cb71f51fc5580000600561012c62000228565b50620000c0600268070c1cc73b00c80000600561015e62000228565b50620000dc60036809c2007651b2500000600661019062000228565b50620000f86004680ad78ebc5ac620000060066101c262000228565b50620001146005680bed1d0263d9f0000060086101f462000228565b50620001306006680d8d726b7177a80000600861022662000228565b506200014c600768119e47f21381f40000600961025862000228565b50505062000366565b600080546001600160a01b038381166001600160a01b0319831681178455604051919092169283917f8be0079c531659141344cd1fd0a4f28419497f9722a3daafe3b4186f6b6457e09190a35050565b620001af620002b3565b6001600160a01b0381166200021a5760405162461bcd60e51b815260206004820152602660248201527f4f776e61626c653a206e6577206f776e657220697320746865207a65726f206160448201526564647265737360d01b60648201526084015b60405180910390fd5b620002258162000155565b50565b600062000234620002b3565b6000858152600460209081526040918290208781556001810187905560028101869055600381018590558251888152918201879052918101859052606081018490524260808201527f35fa5cc0e4b24f8b04552ff8f26ee1322d1c61dff5e2b52d87abb1282e10dc799060a00160405180910390a15093949350505050565b6000546001600160a01b031633146200030f5760405162461bcd60e51b815260206004820181905260248201527f4f776e61626c653a2063616c6c6572206973206e6f7420746865206f776e6572604482015260640162000211565b565b6001600160a01b03811681146200022557600080fd5b600080604083850312156200033b57600080fd5b8251620003488162000311565b60208401519092506200035b8162000311565b809150509250929050565b610f4d80620003766000396000f3fe608060405234801561001057600080fd5b50600436106100d45760003560e01c80638da5cb5b11610081578063c24126761161005b578063c241267614610243578063e176ce0a14610256578063f2fde38b1461027657600080fd5b80638da5cb5b14610141578063a87430ba14610166578063b2596a67146101ee57600080fd5b806366829b16116100b257806366829b1614610113578063715018a61461012657806380891cf11461012e57600080fd5b80634b70e8e7146100d9578063641fba96146100f557806364e5322a146100fe575b600080fd5b6100e260055481565b6040519081526020015b60405180910390f35b6100e260065481565b61011161010c366004610d3d565b610289565b005b610111610121366004610d6d565b61059e565b6101116105d5565b6100e261013c366004610d91565b6105e9565b6000546001600160a01b03165b6040516001600160a01b0390911681526020016100ec565b6101b6610174366004610d6d565b60036020819052600091825260409091208054600182015460028301549383015460048401546005909401546001600160a01b03938416959390921693909186565b604080516001600160a01b039788168152969095166020870152938501929092526060840152608083015260a082015260c0016100ec565b6102236101fc366004610dc3565b60046020526000908152604090208054600182015460028301546003909301549192909184565b6040805194855260208501939093529183015260608201526080016100ec565b60025461014e906001600160a01b031681565b610269610264366004610dc3565b610672565b6040516100ec9190610ddc565b610111610284366004610d6d565b6106e2565b6002600154036102e05760405162461bcd60e51b815260206004820152601f60248201527f5265656e7472616e637947756172643a207265656e7472616e742063616c6c0060448201526064015b60405180910390fd5b60026001553360009081526003602090815260408083208584526004909252822090916001600160a01b03841690036103815760405162461bcd60e51b815260206004820152603360248201527f696620796f7520646f6e74206861766520726566666572616c2061646472657360448201527f73207573652061646472657373206f776e65720000000000000000000000000060648201526084016102d7565b6001828101805473ffffffffffffffffffffffffffffffffffffffff19166001600160a01b038616179055600283015485916103bd9190610e3f565b101561040b5760405162461bcd60e51b815260206004820152601d60248201527f596f75206e65656420746f20627579206561726c696572206c6576656c00000060448201526064016102d7565b60025460018201546040517f23b872dd00000000000000000000000000000000000000000000000000000000815233600482015230602482015260448101919091526001600160a01b03909116906323b872dd906064016020604051808303816000875af1158015610481573d6000803e3d6000fd5b505050506040513d601f19601f820116820180604052508101906104a59190610e57565b506002820184905560018101546003830180546000906104c6908490610e3f565b9091555050815473ffffffffffffffffffffffffffffffffffffffff19163317825560048101805460028301540361050b57610506826004013387610772565b610540565b6004820180546001810182556000918252602090912001805473ffffffffffffffffffffffffffffffffffffffff1916331790555b6006805490600061055083610e79565b909155505060408051868152426020820152338183015290517f67b7c39dce5fa35f6a4cbe6ec721b5782cc6b7699bec93ff0cd066a22a899b399181900360600190a1505060018055505050565b6105a6610954565b6002805473ffffffffffffffffffffffffffffffffffffffff19166001600160a01b0392909216919091179055565b6105dd610954565b6105e760006109ae565b565b60006105f3610954565b6000858152600460209081526040918290208781556001810187905560028101869055600381018590558251888152918201879052918101859052606081018490524260808201527f35fa5cc0e4b24f8b04552ff8f26ee1322d1c61dff5e2b52d87abb1282e10dc799060a00160405180910390a15093949350505050565b6000818152600460208181526040928390209182018054845181840281018401909552808552606094928301828280156106d557602002820191906000526020600020905b81546001600160a01b031681526001909101906020018083116106b7575b5050505050915050919050565b6106ea610954565b6001600160a01b0381166107665760405162461bcd60e51b815260206004820152602660248201527f4f776e61626c653a206e6577206f776e657220697320746865207a65726f206160448201527f646472657373000000000000000000000000000000000000000000000000000060648201526084016102d7565b61076f816109ae565b50565b600081815260046020526040812084549091908590829061079557610795610e93565b60009182526020808320909101546001600160a01b031680835260039182905260408320918501546001860154919450919291906107d590606490610ea9565b6107df9190610ecb565b90508082600401546107f19190610e3f565b6004838101919091556002546040517fa9059cbb0000000000000000000000000000000000000000000000000000000081526001600160a01b03868116938201939093526024810184905291169063a9059cbb906044016020604051808303816000875af1158015610867573d6000803e3d6000fd5b505050506040513d601f19601f8201168201806040525081019061088b9190610e57565b50610897876000610a0b565b805460018101825560008281526020902001805473ffffffffffffffffffffffffffffffffffffffff19166001600160a01b03891617905596506108da83610b50565b86546108ec9060048601908990610cc3565b50600182015482548554604080516001600160a01b039485168152939092166020840152429183019190915260608201527f2496e048edda281349e32d9ccb972de94737d94c958c5d182a0e1ed90602fd9a906080015b60405180910390a150505050505050565b6000546001600160a01b031633146105e75760405162461bcd60e51b815260206004820181905260248201527f4f776e61626c653a2063616c6c6572206973206e6f7420746865206f776e657260448201526064016102d7565b600080546001600160a01b0383811673ffffffffffffffffffffffffffffffffffffffff19831681178455604051919092169283917f8be0079c531659141344cd1fd0a4f28419497f9722a3daafe3b4186f6b6457e09190a35050565b81546000908210610a5e5760405162461bcd60e51b815260206004820152601260248201527f696e646578206f7574206f6620626f756e64000000000000000000000000000060448201526064016102d7565b815b8354610a6e90600190610eea565b811015610b095783610a81826001610e3f565b81548110610a9157610a91610e93565b9060005260206000200160009054906101000a90046001600160a01b0316848281548110610ac157610ac1610e93565b6000918252602090912001805473ffffffffffffffffffffffffffffffffffffffff19166001600160a01b039290921691909117905580610b0181610e79565b915050610a60565b5082805480610b1a57610b1a610f01565b6000828152602090206000199082018101805473ffffffffffffffffffffffffffffffffffffffff191690550190555090919050565b6001600160a01b03808216600090815260036020908152604080832060018082015460028301548087526004909552928520600554918101549296939093169491610b9d90606490610ea9565b610ba79190610ecb565b60018601546001600160a01b03166000908152600360205260409020600481015491925090610bd7908390610e3f565b6004828101919091556002546040517fa9059cbb0000000000000000000000000000000000000000000000000000000081526001600160a01b03888116938201939093526024810185905291169063a9059cbb906044016020604051808303816000875af1158015610c4d573d6000803e3d6000fd5b505050506040513d601f19601f82011682018060405250810190610c719190610e57565b50604080516001600160a01b038088168252891660208201524291810191909152606081018590527f2496e048edda281349e32d9ccb972de94737d94c958c5d182a0e1ed90602fd9a90608001610943565b828054828255906000526020600020908101928215610d035760005260206000209182015b82811115610d03578254825591600101919060010190610ce8565b50610d0f929150610d13565b5090565b5b80821115610d0f5760008155600101610d14565b6001600160a01b038116811461076f57600080fd5b60008060408385031215610d5057600080fd5b823591506020830135610d6281610d28565b809150509250929050565b600060208284031215610d7f57600080fd5b8135610d8a81610d28565b9392505050565b60008060008060808587031215610da757600080fd5b5050823594602084013594506040840135936060013592509050565b600060208284031215610dd557600080fd5b5035919050565b6020808252825182820181905260009190848201906040850190845b81811015610e1d5783516001600160a01b031683529284019291840191600101610df8565b50909695505050505050565b634e487b7160e01b600052601160045260246000fd5b60008219821115610e5257610e52610e29565b500190565b600060208284031215610e6957600080fd5b81518015158114610d8a57600080fd5b60006000198203610e8c57610e8c610e29565b5060010190565b634e487b7160e01b600052603260045260246000fd5b600082610ec657634e487b7160e01b600052601260045260246000fd5b500490565b6000816000190483118215151615610ee557610ee5610e29565b500290565b600082821015610efc57610efc610e29565b500390565b634e487b7160e01b600052603160045260246000fdfea26469706673582212203577c313f60a96bb8ca2d18bb31070486271a98949695b2655e0b2174a873ef164736f6c634300080f0033",
  "immutableReferences": {},
  "source": "//SPDX-License-Identifier: UNLICENSED\r\npragma solidity 0.8.15;\r\nimport \"@openzeppelin/contracts/token/ERC20/utils/SafeERC20.sol\";\r\nimport \"@openzeppelin/contracts/security/ReentrancyGuard.sol\";\r\nimport \"@openzeppelin/contracts/access/Ownable.sol\";\r\n//import \"@openzeppelin/contracts/utils/Address.sol\";\r\n\r\ncontract SkyMoney is Ownable,ReentrancyGuard{\r\n\r\n    struct User{\r\n        address user;\r\n        address referral;\r\n        uint currentlvl;\r\n        uint deposited;\r\n        uint earned;\r\n        uint countOfBuyingLevels;\r\n        mapping(uint=>address) referals;\r\n    }\r\n    struct Level{\r\n        uint numberLvl;\r\n        uint priceToStart;\r\n        uint refillCount;\r\n        uint refillPercent;\r\n        address[] currentLvlLine;\r\n    }\r\n    IERC20 public Token;\r\n    mapping(address => User) public users;\r\n    mapping(uint => Level) public levels;\r\n    uint public ReferallBonusPercent = 3;\r\n    uint public TotalUsers;\r\n    \r\n\r\n    event CreatedNewLevel(uint LevelNumber,uint PriseToStart,uint RefillCount,uint RefillPercent,uint Time);\r\n    event LevelBought(uint LevelNumber,uint Time,address User);\r\n    event ReferallGetBonus(address Referall, address User,uint Time,uint LevelNumber);\r\n\r\nconstructor(IERC20 token_,address owner_){\r\n    Token = token_;\r\n    transferOwnership(owner_);\r\n    createNewLvl(0, 30*(10**18), 6, 200);\r\n    createNewLvl(1, 70*(10**18), 5, 300);\r\n    createNewLvl(2, 130*(10**18),5, 350);\r\n    createNewLvl(3, 180*(10**18), 6, 400);\r\n    createNewLvl(4, 200*(10**18), 6, 450);\r\n    createNewLvl(5, 220*(10**18), 8, 500);\r\n    createNewLvl(6, 250*(10**18), 8, 550);\r\n    createNewLvl(7, 325*(10**18), 9, 600);\r\n}\r\n\r\nfunction createNewLvl(uint _numberLvl,uint _priceStart,uint _refillCount,uint _refillPercent)public onlyOwner returns(uint){\r\n    Level storage lvl = levels[_numberLvl];\r\n    lvl.numberLvl = _numberLvl;\r\n    lvl.priceToStart = _priceStart;\r\n    lvl.refillCount = _refillCount;\r\n    lvl.refillPercent = _refillPercent;\r\n    emit CreatedNewLevel(_numberLvl, _priceStart, _refillCount, _refillPercent, block.timestamp);\r\n    return _numberLvl;\r\n}\r\n//requier referal is exist and buy some lvl\r\nfunction buyLevel(uint buyLvl,address _refferal)public nonReentrant {\r\n    User storage user = users[msg.sender];\r\n    Level storage lvl = levels[buyLvl];\r\n    require(_refferal != 0x0000000000000000000000000000000000000000,\"if you dont have refferal address use address owner\");\r\n    user.referral = _refferal;\r\n    require(user.currentlvl+1 >= buyLvl,\"You need to buy earlier level\");\r\n    Token.transferFrom(msg.sender, address(this), lvl.priceToStart);\r\n    user.currentlvl = buyLvl;\r\n    user.deposited += lvl.priceToStart;\r\n    user.user = msg.sender;\r\n    address[] storage current = lvl.currentLvlLine;\r\n    if (lvl.refillCount == current.length){\r\n        _sendPaymentaAndPushInQueue(lvl.currentLvlLine, msg.sender, buyLvl);\r\n    }\r\n    else{\r\n        lvl.currentLvlLine.push(msg.sender);\r\n    }\r\n    TotalUsers++;\r\n    emit LevelBought(buyLvl, block.timestamp, msg.sender);\r\n}\r\nfunction changeToken(IERC20 _token)public onlyOwner{\r\n    Token = _token;\r\n}\r\nfunction _sendPaymentaAndPushInQueue(address[]storage array,address newUser,uint _lvl) internal {\r\n    Level storage lvl = levels[_lvl];\r\n    address paymentToUser = array[0];\r\n    User storage user = users[paymentToUser];\r\n    uint amountForlvl = (lvl.priceToStart / 100 )*lvl.refillPercent ;\r\n    user.earned = user.earned + amountForlvl;\r\n    Token.transfer(paymentToUser, amountForlvl);\r\n    array = _remove(array, 0);\r\n    array.push(newUser);\r\n    _sendToRefferalPercent(paymentToUser);\r\n    lvl.currentLvlLine = array;\r\n    emit ReferallGetBonus(user.referral, user.user, block.timestamp, lvl.numberLvl);\r\n}\r\n\r\nfunction _sendToRefferalPercent(address _user) internal {\r\n    User storage user = users[_user];\r\n    address reseiver = user.referral;\r\n    uint lvlCurrentUser = user.currentlvl;\r\n    Level storage lvl = levels[lvlCurrentUser];\r\n    uint amountBonus = (lvl.priceToStart / 100) * ReferallBonusPercent;\r\n    User storage refUser = users[user.referral];\r\n    refUser.earned = refUser.earned + amountBonus;\r\n    Token.transfer(reseiver, amountBonus);\r\n    emit ReferallGetBonus(reseiver, _user, block.timestamp, lvlCurrentUser);\r\n}\r\nfunction currentQueueInLevel(uint levelNumber)public view returns(address[] memory){\r\n    Level storage lvl = levels[levelNumber];\r\n    return lvl.currentLvlLine;\r\n}\r\n\r\nfunction _remove(address[]storage arr,uint _index) internal returns(address[]storage) {\r\n        require(_index < arr.length, \"index out of bound\");\r\n\r\n        for (uint i = _index; i < arr.length - 1; i++) {\r\n            arr[i] = arr[i + 1];\r\n        }\r\n        arr.pop();\r\n        return arr;\r\n    } \r\n\r\n\r\n\r\n}",
  "sourcePath": "C:\\Users\\kolam\\Desktop\\expressgame\\contracts\\SkyMoney.sol",
  "compiler": {
    "name": "solc",
    "version": "0.8.15+commit.e14f2714.Emscripten.clang"
  },
  "schemaVersion": "3.4.6",
  "updatedAt": "2022-07-30T15:00:37.079Z",
  "networkType": "ethereum",
  "devdoc": {
    "kind": "dev",
    "methods": {
      "owner()": {
        "details": "Returns the address of the current owner."
      },
      "renounceOwnership()": {
        "details": "Leaves the contract without owner. It will not be possible to call `onlyOwner` functions anymore. Can only be called by the current owner. NOTE: Renouncing ownership will leave the contract without an owner, thereby removing any functionality that is only available to the owner."
      },
      "transferOwnership(address)": {
        "details": "Transfers ownership of the contract to a new account (`newOwner`). Can only be called by the current owner."
      }
    },
    "version": 1
  },
  "userdoc": {
    "kind": "user",
    "methods": {},
    "version": 1
  }
}