{
  "contractName": "SkyMoney",
  "abi": [
    {
      "inputs": [
        {
          "internalType": "contract IERC20",
          "name": "token_",
          "type": "address"
        },
        {
          "internalType": "address",
          "name": "owner_",
          "type": "address"
        }
      ],
      "stateMutability": "nonpayable",
      "type": "constructor"
    },
    {
      "anonymous": false,
      "inputs": [
        {
          "indexed": false,
          "internalType": "uint256",
          "name": "LevelNumber",
          "type": "uint256"
        },
        {
          "indexed": false,
          "internalType": "uint256",
          "name": "PriseToStart",
          "type": "uint256"
        },
        {
          "indexed": false,
          "internalType": "uint256",
          "name": "RefillCount",
          "type": "uint256"
        },
        {
          "indexed": false,
          "internalType": "uint256",
          "name": "RefillPercent",
          "type": "uint256"
        },
        {
          "indexed": false,
          "internalType": "uint256",
          "name": "Time",
          "type": "uint256"
        }
      ],
      "name": "CreatedNewLevel",
      "type": "event"
    },
    {
      "anonymous": false,
      "inputs": [
        {
          "indexed": false,
          "internalType": "address",
          "name": "User",
          "type": "address"
        },
        {
          "indexed": false,
          "internalType": "uint256",
          "name": "Time",
          "type": "uint256"
        },
        {
          "indexed": false,
          "internalType": "uint256",
          "name": "amount",
          "type": "uint256"
        },
        {
          "indexed": false,
          "internalType": "uint256",
          "name": "LevelNumber",
          "type": "uint256"
        }
      ],
      "name": "EmergencyWithdraw",
      "type": "event"
    },
    {
      "anonymous": false,
      "inputs": [
        {
          "indexed": false,
          "internalType": "uint256",
          "name": "LevelNumber",
          "type": "uint256"
        },
        {
          "indexed": false,
          "internalType": "uint256",
          "name": "Time",
          "type": "uint256"
        },
        {
          "indexed": false,
          "internalType": "address",
          "name": "User",
          "type": "address"
        }
      ],
      "name": "LevelBought",
      "type": "event"
    },
    {
      "anonymous": false,
      "inputs": [
        {
          "indexed": true,
          "internalType": "address",
          "name": "previousOwner",
          "type": "address"
        },
        {
          "indexed": true,
          "internalType": "address",
          "name": "newOwner",
          "type": "address"
        }
      ],
      "name": "OwnershipTransferred",
      "type": "event"
    },
    {
      "anonymous": false,
      "inputs": [
        {
          "indexed": false,
          "internalType": "address",
          "name": "Referall",
          "type": "address"
        },
        {
          "indexed": false,
          "internalType": "address",
          "name": "User",
          "type": "address"
        },
        {
          "indexed": false,
          "internalType": "uint256",
          "name": "Time",
          "type": "uint256"
        },
        {
          "indexed": false,
          "internalType": "uint256",
          "name": "LevelNumber",
          "type": "uint256"
        }
      ],
      "name": "ReferallGetBonus",
      "type": "event"
    },
    {
      "inputs": [],
      "name": "ReferallBonusPercent",
      "outputs": [
        {
          "internalType": "uint256",
          "name": "",
          "type": "uint256"
        }
      ],
      "stateMutability": "view",
      "type": "function",
      "constant": true
    },
    {
      "inputs": [],
      "name": "Token",
      "outputs": [
        {
          "internalType": "contract IERC20",
          "name": "",
          "type": "address"
        }
      ],
      "stateMutability": "view",
      "type": "function",
      "constant": true
    },
    {
      "inputs": [],
      "name": "TotalUsers",
      "outputs": [
        {
          "internalType": "uint256",
          "name": "",
          "type": "uint256"
        }
      ],
      "stateMutability": "view",
      "type": "function",
      "constant": true
    },
    {
      "inputs": [
        {
          "internalType": "uint256",
          "name": "",
          "type": "uint256"
        }
      ],
      "name": "levels",
      "outputs": [
        {
          "internalType": "uint256",
          "name": "numberLvl",
          "type": "uint256"
        },
        {
          "internalType": "uint256",
          "name": "priceToStart",
          "type": "uint256"
        },
        {
          "internalType": "uint256",
          "name": "refillCount",
          "type": "uint256"
        },
        {
          "internalType": "uint256",
          "name": "refillPercent",
          "type": "uint256"
        }
      ],
      "stateMutability": "view",
      "type": "function",
      "constant": true
    },
    {
      "inputs": [],
      "name": "owner",
      "outputs": [
        {
          "internalType": "address",
          "name": "",
          "type": "address"
        }
      ],
      "stateMutability": "view",
      "type": "function",
      "constant": true
    },
    {
      "inputs": [],
      "name": "renounceOwnership",
      "outputs": [],
      "stateMutability": "nonpayable",
      "type": "function"
    },
    {
      "inputs": [
        {
          "internalType": "address",
          "name": "newOwner",
          "type": "address"
        }
      ],
      "name": "transferOwnership",
      "outputs": [],
      "stateMutability": "nonpayable",
      "type": "function"
    },
    {
      "inputs": [
        {
          "internalType": "address",
          "name": "",
          "type": "address"
        }
      ],
      "name": "users",
      "outputs": [
        {
          "internalType": "address",
          "name": "user",
          "type": "address"
        },
        {
          "internalType": "address",
          "name": "referral",
          "type": "address"
        },
        {
          "internalType": "uint256",
          "name": "currentlvl",
          "type": "uint256"
        },
        {
          "internalType": "uint256",
          "name": "deposited",
          "type": "uint256"
        },
        {
          "internalType": "uint256",
          "name": "earned",
          "type": "uint256"
        },
        {
          "internalType": "uint256",
          "name": "countOfBuyingLevels",
          "type": "uint256"
        }
      ],
      "stateMutability": "view",
      "type": "function",
      "constant": true
    },
    {
      "inputs": [
        {
          "internalType": "uint256",
          "name": "_numberLvl",
          "type": "uint256"
        },
        {
          "internalType": "uint256",
          "name": "_priceStart",
          "type": "uint256"
        },
        {
          "internalType": "uint256",
          "name": "_refillCount",
          "type": "uint256"
        },
        {
          "internalType": "uint256",
          "name": "_refillPercent",
          "type": "uint256"
        }
      ],
      "name": "createNewLvl",
      "outputs": [
        {
          "internalType": "uint256",
          "name": "",
          "type": "uint256"
        }
      ],
      "stateMutability": "nonpayable",
      "type": "function"
    },
    {
      "inputs": [
        {
          "internalType": "uint256",
          "name": "buyLvl",
          "type": "uint256"
        },
        {
          "internalType": "address",
          "name": "_refferal",
          "type": "address"
        }
      ],
      "name": "buyLevel",
      "outputs": [],
      "stateMutability": "nonpayable",
      "type": "function"
    },
    {
      "inputs": [
        {
          "internalType": "uint256",
          "name": "_level",
          "type": "uint256"
        }
      ],
      "name": "closeLevelAndSendReward",
      "outputs": [],
      "stateMutability": "nonpayable",
      "type": "function"
    },
    {
      "inputs": [
        {
          "internalType": "uint256",
          "name": "levelNumber",
          "type": "uint256"
        }
      ],
      "name": "currentQueueInLevel",
      "outputs": [
        {
          "internalType": "address[]",
          "name": "",
          "type": "address[]"
        }
      ],
      "stateMutability": "view",
      "type": "function",
      "constant": true
    },
    {
      "inputs": [
        {
          "internalType": "uint256",
          "name": "percent",
          "type": "uint256"
        }
      ],
      "name": "changeReferallPercent",
      "outputs": [
        {
          "internalType": "uint256",
          "name": "",
          "type": "uint256"
        }
      ],
      "stateMutability": "nonpayable",
      "type": "function"
    }
  ],
  "bytecode": "0x608060405260036005553480156200001657600080fd5b506040516200143838038062001438833981016040819052620000399162000322565b620000443362000150565b60018055600280546001600160a01b0319166001600160a01b0384161790556200006e81620001a0565b6200008860006801a055690d9db80000600560c862000223565b50620000a360016803cb71f51fc55800006004609662000223565b50620000be600268070c1cc73b00c80000600560af62000223565b50620000d960036809c2007651b2500000600660c862000223565b50620000f46004680ad78ebc5ac6200000600660e162000223565b506200010f6005680bed1d0263d9f00000600860fa62000223565b506200012b6006680d8d726b7177a80000600861011362000223565b5062000147600768119e47f21381f40000600961012c62000223565b50505062000361565b600080546001600160a01b038381166001600160a01b0319831681178455604051919092169283917f8be0079c531659141344cd1fd0a4f28419497f9722a3daafe3b4186f6b6457e09190a35050565b620001aa620002ae565b6001600160a01b038116620002155760405162461bcd60e51b815260206004820152602660248201527f4f776e61626c653a206e6577206f776e657220697320746865207a65726f206160448201526564647265737360d01b60648201526084015b60405180910390fd5b620002208162000150565b50565b60006200022f620002ae565b6000858152600460209081526040918290208781556001810187905560028101869055600381018590558251888152918201879052918101859052606081018490524260808201527f35fa5cc0e4b24f8b04552ff8f26ee1322d1c61dff5e2b52d87abb1282e10dc799060a00160405180910390a15093949350505050565b6000546001600160a01b031633146200030a5760405162461bcd60e51b815260206004820181905260248201527f4f776e61626c653a2063616c6c6572206973206e6f7420746865206f776e657260448201526064016200020c565b565b6001600160a01b03811681146200022057600080fd5b600080604083850312156200033657600080fd5b825162000343816200030c565b602084015190925062000356816200030c565b809150509250929050565b6110c780620003716000396000f3fe608060405234801561001057600080fd5b50600436106100df5760003560e01c80638da5cb5b1161008c578063b2596a6711610066578063b2596a671461020c578063c241267614610261578063e176ce0a14610274578063f2fde38b1461029457600080fd5b80638da5cb5b1461014c578063a87430ba14610171578063ab7a6bf1146101f957600080fd5b8063715018a6116100bd578063715018a61461011e57806380891cf114610126578063855b42831461013957600080fd5b80634b70e8e7146100e4578063641fba961461010057806364e5322a14610109575b600080fd5b6100ed60055481565b6040519081526020015b60405180910390f35b6100ed60065481565b61011c610117366004610ebd565b6102a7565b005b61011c6105d3565b6100ed610134366004610ee9565b6105e7565b6100ed610147366004610f1b565b610670565b6000546001600160a01b03165b6040516001600160a01b0390911681526020016100f7565b6101c161017f366004610f34565b60036020819052600091825260409091208054600182015460028301549383015460048401546005909401546001600160a01b03938416959390921693909186565b604080516001600160a01b039788168152969095166020870152938501929092526060840152608083015260a082015260c0016100f7565b61011c610207366004610f1b565b610687565b61024161021a366004610f1b565b60046020526000908152604090208054600182015460028301546003909301549192909184565b6040805194855260208501939093529183015260608201526080016100f7565b600254610159906001600160a01b031681565b610287610282366004610f1b565b6107cb565b6040516100f79190610f56565b61011c6102a2366004610f34565b61083b565b6002600154036102fe5760405162461bcd60e51b815260206004820152601f60248201527f5265656e7472616e637947756172643a207265656e7472616e742063616c6c0060448201526064015b60405180910390fd5b60026001553360009081526003602090815260408083208584526004909252822090916001600160a01b038416900361039f5760405162461bcd60e51b815260206004820152603360248201527f696620796f7520646f6e74206861766520726566666572616c2061646472657360448201527f73207573652061646472657373206f776e65720000000000000000000000000060648201526084016102f5565b6001828101805473ffffffffffffffffffffffffffffffffffffffff19166001600160a01b038616179055600283015485916103db9190610fb9565b10156104295760405162461bcd60e51b815260206004820152601d60248201527f596f75206e65656420746f20627579206561726c696572206c6576656c00000060448201526064016102f5565b60025460018201546040517f23b872dd00000000000000000000000000000000000000000000000000000000815233600482015230602482015260448101919091526001600160a01b03909116906323b872dd906064016020604051808303816000875af115801561049f573d6000803e3d6000fd5b505050506040513d601f19601f820116820180604052508101906104c39190610fd1565b506002820184905560018101546003830180546000906104e4908490610fb9565b9091555050815473ffffffffffffffffffffffffffffffffffffffff19163317825560058201805490600061051883610ff3565b90915550506004810180546002830154036105405761053b8260040133876108cb565b610575565b6004820180546001810182556000918252602090912001805473ffffffffffffffffffffffffffffffffffffffff1916331790555b6006805490600061058583610ff3565b909155505060408051868152426020820152338183015290517f67b7c39dce5fa35f6a4cbe6ec721b5782cc6b7699bec93ff0cd066a22a899b399181900360600190a1505060018055505050565b6105db610a94565b6105e56000610aee565b565b60006105f1610a94565b6000858152600460209081526040918290208781556001810187905560028101869055600381018590558251888152918201879052918101859052606081018490524260808201527f35fa5cc0e4b24f8b04552ff8f26ee1322d1c61dff5e2b52d87abb1282e10dc799060a00160405180910390a15093949350505050565b600061067a610a94565b506005819055805b919050565b61068f610a94565b6000818152600460208190526040822091908201815b81548110156107b6578181815481106106c0576106c061100d565b600091825260209091200154600254600186015460405163a9059cbb60e01b81526001600160a01b0393841660048201819052602482019290925290955091169063a9059cbb906044016020604051808303816000875af1158015610729573d6000803e3d6000fd5b505050506040513d601f19601f8201168201806040525081019061074d9190610fd1565b5060018401548454604080516001600160a01b03871681524260208201529081019290925260608201527f2369db1bafee945aee5630782f4a170682e3f8188d8dc247a4c73eb8c9e692d29060800160405180910390a1806107ae81610ff3565b9150506106a5565b506107c5600484016000610e23565b50505050565b60008181526004602081815260409283902091820180548451818402810184019095528085526060949283018282801561082e57602002820191906000526020600020905b81546001600160a01b03168152600190910190602001808311610810575b5050505050915050919050565b610843610a94565b6001600160a01b0381166108bf5760405162461bcd60e51b815260206004820152602660248201527f4f776e61626c653a206e6577206f776e657220697320746865207a65726f206160448201527f646472657373000000000000000000000000000000000000000000000000000060648201526084016102f5565b6108c881610aee565b50565b60008181526004602052604081208454909190859082906108ee576108ee61100d565b60009182526020808320909101546001600160a01b0316808352600391829052604083209185015460018601549194509192919061092e90606490611023565b6109389190611045565b905080826004015461094a9190610fb9565b60048381019190915560025460405163a9059cbb60e01b81526001600160a01b03868116938201939093526024810184905291169063a9059cbb906044016020604051808303816000875af11580156109a7573d6000803e3d6000fd5b505050506040513d601f19601f820116820180604052508101906109cb9190610fd1565b506109d7876000610b4b565b805460018101825560008281526020902001805473ffffffffffffffffffffffffffffffffffffffff19166001600160a01b0389161790559650610a1a83610c90565b8654610a2c9060048601908990610e41565b50600182015482548554604080516001600160a01b039485168152939092166020840152429183019190915260608201527f2496e048edda281349e32d9ccb972de94737d94c958c5d182a0e1ed90602fd9a906080015b60405180910390a150505050505050565b6000546001600160a01b031633146105e55760405162461bcd60e51b815260206004820181905260248201527f4f776e61626c653a2063616c6c6572206973206e6f7420746865206f776e657260448201526064016102f5565b600080546001600160a01b0383811673ffffffffffffffffffffffffffffffffffffffff19831681178455604051919092169283917f8be0079c531659141344cd1fd0a4f28419497f9722a3daafe3b4186f6b6457e09190a35050565b81546000908210610b9e5760405162461bcd60e51b815260206004820152601260248201527f696e646578206f7574206f6620626f756e64000000000000000000000000000060448201526064016102f5565b815b8354610bae90600190611064565b811015610c495783610bc1826001610fb9565b81548110610bd157610bd161100d565b9060005260206000200160009054906101000a90046001600160a01b0316848281548110610c0157610c0161100d565b6000918252602090912001805473ffffffffffffffffffffffffffffffffffffffff19166001600160a01b039290921691909117905580610c4181610ff3565b915050610ba0565b5082805480610c5a57610c5a61107b565b6000828152602090206000199082018101805473ffffffffffffffffffffffffffffffffffffffff191690550190555090919050565b6001600160a01b03808216600090815260036020908152604080832060018082015460028301548087526004909552928520600554918101549296939093169491610cdd90606490611023565b610ce79190611045565b60018601546001600160a01b03166000908152600360205260409020600481015491925090610d17908390610fb9565b6004828101919091556006820180546001810182556000918252602090912001805473ffffffffffffffffffffffffffffffffffffffff19166001600160a01b038a81169190911790915560025460405163a9059cbb60e01b81528883169381019390935260248301859052169063a9059cbb906044016020604051808303816000875af1158015610dad573d6000803e3d6000fd5b505050506040513d601f19601f82011682018060405250810190610dd19190610fd1565b50604080516001600160a01b038088168252891660208201524291810191909152606081018590527f2496e048edda281349e32d9ccb972de94737d94c958c5d182a0e1ed90602fd9a90608001610a83565b50805460008255906000526020600020908101906108c89190610e91565b828054828255906000526020600020908101928215610e815760005260206000209182015b82811115610e81578254825591600101919060010190610e66565b50610e8d929150610e91565b5090565b5b80821115610e8d5760008155600101610e92565b80356001600160a01b038116811461068257600080fd5b60008060408385031215610ed057600080fd5b82359150610ee060208401610ea6565b90509250929050565b60008060008060808587031215610eff57600080fd5b5050823594602084013594506040840135936060013592509050565b600060208284031215610f2d57600080fd5b5035919050565b600060208284031215610f4657600080fd5b610f4f82610ea6565b9392505050565b6020808252825182820181905260009190848201906040850190845b81811015610f975783516001600160a01b031683529284019291840191600101610f72565b50909695505050505050565b634e487b7160e01b600052601160045260246000fd5b60008219821115610fcc57610fcc610fa3565b500190565b600060208284031215610fe357600080fd5b81518015158114610f4f57600080fd5b6000600019820361100657611006610fa3565b5060010190565b634e487b7160e01b600052603260045260246000fd5b60008261104057634e487b7160e01b600052601260045260246000fd5b500490565b600081600019048311821515161561105f5761105f610fa3565b500290565b60008282101561107657611076610fa3565b500390565b634e487b7160e01b600052603160045260246000fdfea26469706673582212202d29612b2abb9766f1d27427bf351dfacaa3ad78d231271babbb302baec4767164736f6c634300080f0033",
  "immutableReferences": {},
  "source": "//SPDX-License-Identifier: UNLICENSED\npragma solidity 0.8.15;\nimport \"@openzeppelin/contracts/token/ERC20/utils/SafeERC20.sol\";\nimport \"@openzeppelin/contracts/security/ReentrancyGuard.sol\";\nimport \"@openzeppelin/contracts/access/Ownable.sol\";\n//import \"@openzeppelin/contracts/utils/Address.sol\";\n\ncontract SkyMoney is Ownable,ReentrancyGuard{\n\n    struct User{\n        address user;\n        address referral;\n        uint currentlvl;\n        uint deposited;\n        uint earned;\n        uint countOfBuyingLevels;\n        address[] referals;\n    }\n    struct Level{\n        uint numberLvl;\n        uint priceToStart;\n        uint refillCount;\n        uint refillPercent;\n        address[] currentLvlLine;\n    }\n    IERC20 public Token;\n    mapping(address => User) public users;\n    mapping(uint => Level) public levels;\n    uint public ReferallBonusPercent = 3;\n    uint public TotalUsers;  \n    event CreatedNewLevel(uint LevelNumber,uint PriseToStart,uint RefillCount,uint RefillPercent,uint Time);\n    event LevelBought(uint LevelNumber,uint Time,address User);\n    event ReferallGetBonus(address Referall, address User,uint Time,uint LevelNumber);\n    event EmergencyWithdraw(address User,uint Time,uint amount,uint LevelNumber);\nconstructor(IERC20 token_,address owner_){\n    Token = token_;\n    transferOwnership(owner_);\n    createNewLvl(0, 30*(10**18), 5, 200);\n    createNewLvl(1, 70*(10**18), 4, 150);\n    createNewLvl(2, 130*(10**18),5, 175);\n    createNewLvl(3, 180*(10**18), 6, 200);\n    createNewLvl(4, 200*(10**18), 6, 225);\n    createNewLvl(5, 220*(10**18), 8, 250);\n    createNewLvl(6, 250*(10**18), 8, 275);\n    createNewLvl(7, 325*(10**18), 9, 300);\n}\n//set refill percent in actual percentage\n//refillcount set with active count of percent who will stand in queue for waiting last man\nfunction createNewLvl(uint _numberLvl,uint _priceStart,uint _refillCount,uint _refillPercent)public onlyOwner returns(uint){\n    Level storage lvl = levels[_numberLvl];\n    lvl.numberLvl = _numberLvl;\n    lvl.priceToStart = _priceStart;\n    lvl.refillCount = _refillCount;\n    lvl.refillPercent = _refillPercent;\n    emit CreatedNewLevel(_numberLvl, _priceStart, _refillCount, _refillPercent, block.timestamp);\n    return _numberLvl;\n}\n//require refferal is exist and buy some lvl\nfunction buyLevel(uint buyLvl,address _refferal)public nonReentrant {\n    User storage user = users[msg.sender];\n    Level storage lvl = levels[buyLvl];\n    require(_refferal != 0x0000000000000000000000000000000000000000,\"if you dont have refferal address use address owner\");\n    user.referral = _refferal;\n    require(user.currentlvl+1 >= buyLvl,\"You need to buy earlier level\");\n    Token.transferFrom(msg.sender, address(this), lvl.priceToStart);\n    user.currentlvl = buyLvl;\n    user.deposited += lvl.priceToStart;\n    user.user = msg.sender;\n    user.countOfBuyingLevels++;\n    address[] storage current = lvl.currentLvlLine;\n    if (lvl.refillCount == current.length){\n        _sendPaymentaAndPushInQueue(lvl.currentLvlLine, msg.sender, buyLvl);\n    }\n    else{\n        lvl.currentLvlLine.push(msg.sender);\n    }\n    TotalUsers++;\n    emit LevelBought(buyLvl, block.timestamp, msg.sender);\n}\nfunction changeToken(IERC20 _token)private onlyOwner{\n    Token = _token;\n}\nfunction closeLevelAndSendReward(uint _level)public onlyOwner{\n    Level storage level = levels[_level];\n    address currentUserAddress;\n    address[]storage usersArray = level.currentLvlLine;\n    for (uint i = 0; i < usersArray.length; i++){\n        currentUserAddress = usersArray[i];\n        Token.transfer(currentUserAddress, level.priceToStart);\n        emit EmergencyWithdraw(currentUserAddress, block.timestamp, level.priceToStart, level.numberLvl);\n    }\n    delete level.currentLvlLine;\n\n}\nfunction _sendPaymentaAndPushInQueue(address[]storage array,address newUser,uint _lvle) internal {\n    Level storage lvl = levels[_lvle];\n    address paymentToUser = array[0];\n    User storage user = users[paymentToUser];\n    uint amountForlvl = (lvl.priceToStart/100)*lvl.refillPercent ;\n    user.earned = user.earned + amountForlvl;\n    Token.transfer(paymentToUser, amountForlvl);\n    array = _remove(array, 0);\n    array.push(newUser);\n    _sendToRefferalPercent(paymentToUser);\n    lvl.currentLvlLine = array;\n    emit ReferallGetBonus(user.referral, user.user, block.timestamp, lvl.numberLvl);\n}\nfunction _sendToRefferalPercent(address _user) internal {\n    User storage user = users[_user];\n    address reseiver = user.referral;\n    uint lvlCurrentUser = user.currentlvl;\n    Level storage lvl = levels[lvlCurrentUser];\n    uint amountBonus = (lvl.priceToStart / 100) * ReferallBonusPercent;\n    User storage refUser = users[user.referral];\n    refUser.earned = refUser.earned + amountBonus;\n    refUser.referals.push(_user);\n    Token.transfer(reseiver, amountBonus);\n    emit ReferallGetBonus(reseiver, _user, block.timestamp, lvlCurrentUser);\n}\nfunction currentQueueInLevel(uint levelNumber)public view returns(address[] memory){\n    Level storage lvl = levels[levelNumber];\n    return lvl.currentLvlLine;\n}\nfunction _remove(address[]storage arr,uint _index) internal returns(address[]storage) {\n    require(_index < arr.length, \"index out of bound\");\n    for (uint i = _index; i < arr.length - 1; i++) {\n        arr[i] = arr[i + 1];\n    }\n    arr.pop();\n    return arr;\n    }\nfunction changeReferallPercent(uint percent)public onlyOwner returns(uint){\n    ReferallBonusPercent = percent;\n    return percent;\n}\nfunction witdhraw(address token,uint amount) private onlyOwner{\n    IERC20(token).transfer(address(msg.sender), amount);\n}\n}",
  "sourcePath": "C:\\Users\\kolam\\Desktop\\expressgame\\contracts\\SkyMoney.sol",
  "compiler": {
    "name": "solc",
    "version": "0.8.15+commit.e14f2714.Emscripten.clang"
  },
  "schemaVersion": "3.4.6",
  "updatedAt": "2022-08-03T14:47:22.436Z",
  "networkType": "ethereum",
  "devdoc": {
    "kind": "dev",
    "methods": {
      "owner()": {
        "details": "Returns the address of the current owner."
      },
      "renounceOwnership()": {
        "details": "Leaves the contract without owner. It will not be possible to call `onlyOwner` functions anymore. Can only be called by the current owner. NOTE: Renouncing ownership will leave the contract without an owner, thereby removing any functionality that is only available to the owner."
      },
      "transferOwnership(address)": {
        "details": "Transfers ownership of the contract to a new account (`newOwner`). Can only be called by the current owner."
      }
    },
    "version": 1
  },
  "userdoc": {
    "kind": "user",
    "methods": {},
    "version": 1
  }
}