{
  "contractName": "SkyMoneyMain",
  "abi": [
    {
      "inputs": [],
      "stateMutability": "nonpayable",
      "type": "constructor"
    },
    {
      "anonymous": false,
      "inputs": [
        {
          "indexed": true,
          "internalType": "address",
          "name": "receiver",
          "type": "address"
        },
        {
          "indexed": true,
          "internalType": "address",
          "name": "from",
          "type": "address"
        },
        {
          "indexed": false,
          "internalType": "uint8",
          "name": "matrix",
          "type": "uint8"
        },
        {
          "indexed": false,
          "internalType": "uint8",
          "name": "level",
          "type": "uint8"
        }
      ],
      "name": "MissedEthReceive",
      "type": "event"
    },
    {
      "anonymous": false,
      "inputs": [
        {
          "indexed": true,
          "internalType": "address",
          "name": "user",
          "type": "address"
        },
        {
          "indexed": true,
          "internalType": "address",
          "name": "referrer",
          "type": "address"
        },
        {
          "indexed": false,
          "internalType": "uint8",
          "name": "matrix",
          "type": "uint8"
        },
        {
          "indexed": false,
          "internalType": "uint8",
          "name": "level",
          "type": "uint8"
        },
        {
          "indexed": false,
          "internalType": "uint8",
          "name": "place",
          "type": "uint8"
        }
      ],
      "name": "NewUserPlace",
      "type": "event"
    },
    {
      "anonymous": false,
      "inputs": [
        {
          "indexed": true,
          "internalType": "address",
          "name": "user",
          "type": "address"
        },
        {
          "indexed": true,
          "internalType": "address",
          "name": "referrer",
          "type": "address"
        },
        {
          "indexed": true,
          "internalType": "uint256",
          "name": "userId",
          "type": "uint256"
        },
        {
          "indexed": false,
          "internalType": "uint256",
          "name": "referrerId",
          "type": "uint256"
        }
      ],
      "name": "Registration",
      "type": "event"
    },
    {
      "anonymous": false,
      "inputs": [
        {
          "indexed": true,
          "internalType": "address",
          "name": "user",
          "type": "address"
        },
        {
          "indexed": true,
          "internalType": "address",
          "name": "currentReferrer",
          "type": "address"
        },
        {
          "indexed": true,
          "internalType": "address",
          "name": "caller",
          "type": "address"
        },
        {
          "indexed": false,
          "internalType": "uint8",
          "name": "matrix",
          "type": "uint8"
        },
        {
          "indexed": false,
          "internalType": "uint8",
          "name": "level",
          "type": "uint8"
        }
      ],
      "name": "Reinvest",
      "type": "event"
    },
    {
      "anonymous": false,
      "inputs": [
        {
          "indexed": true,
          "internalType": "address",
          "name": "from",
          "type": "address"
        },
        {
          "indexed": true,
          "internalType": "address",
          "name": "receiver",
          "type": "address"
        },
        {
          "indexed": false,
          "internalType": "uint8",
          "name": "matrix",
          "type": "uint8"
        },
        {
          "indexed": false,
          "internalType": "uint8",
          "name": "level",
          "type": "uint8"
        }
      ],
      "name": "SentExtraEthDividends",
      "type": "event"
    },
    {
      "anonymous": false,
      "inputs": [
        {
          "indexed": true,
          "internalType": "address",
          "name": "user",
          "type": "address"
        },
        {
          "indexed": true,
          "internalType": "address",
          "name": "referrer",
          "type": "address"
        },
        {
          "indexed": false,
          "internalType": "uint8",
          "name": "matrix",
          "type": "uint8"
        },
        {
          "indexed": false,
          "internalType": "uint8",
          "name": "level",
          "type": "uint8"
        }
      ],
      "name": "Upgrade",
      "type": "event"
    },
    {
      "stateMutability": "nonpayable",
      "type": "fallback"
    },
    {
      "inputs": [],
      "name": "BASIC_PRICE",
      "outputs": [
        {
          "internalType": "uint256",
          "name": "",
          "type": "uint256"
        }
      ],
      "stateMutability": "view",
      "type": "function"
    },
    {
      "inputs": [],
      "name": "LAST_LEVEL",
      "outputs": [
        {
          "internalType": "uint8",
          "name": "",
          "type": "uint8"
        }
      ],
      "stateMutability": "view",
      "type": "function"
    },
    {
      "inputs": [
        {
          "internalType": "address",
          "name": "",
          "type": "address"
        }
      ],
      "name": "balances",
      "outputs": [
        {
          "internalType": "uint256",
          "name": "",
          "type": "uint256"
        }
      ],
      "stateMutability": "view",
      "type": "function"
    },
    {
      "inputs": [],
      "name": "contractOwner",
      "outputs": [
        {
          "internalType": "address",
          "name": "",
          "type": "address"
        }
      ],
      "stateMutability": "view",
      "type": "function"
    },
    {
      "inputs": [],
      "name": "depositToken",
      "outputs": [
        {
          "internalType": "contract IERC20",
          "name": "",
          "type": "address"
        }
      ],
      "stateMutability": "view",
      "type": "function"
    },
    {
      "inputs": [],
      "name": "id1",
      "outputs": [
        {
          "internalType": "address",
          "name": "",
          "type": "address"
        }
      ],
      "stateMutability": "view",
      "type": "function"
    },
    {
      "inputs": [
        {
          "internalType": "uint256",
          "name": "",
          "type": "uint256"
        }
      ],
      "name": "idToAddress",
      "outputs": [
        {
          "internalType": "address",
          "name": "",
          "type": "address"
        }
      ],
      "stateMutability": "view",
      "type": "function"
    },
    {
      "inputs": [],
      "name": "lastUserId",
      "outputs": [
        {
          "internalType": "uint256",
          "name": "",
          "type": "uint256"
        }
      ],
      "stateMutability": "view",
      "type": "function"
    },
    {
      "inputs": [
        {
          "internalType": "uint8",
          "name": "",
          "type": "uint8"
        }
      ],
      "name": "levelPrice",
      "outputs": [
        {
          "internalType": "uint256",
          "name": "",
          "type": "uint256"
        }
      ],
      "stateMutability": "view",
      "type": "function"
    },
    {
      "inputs": [],
      "name": "locked",
      "outputs": [
        {
          "internalType": "bool",
          "name": "",
          "type": "bool"
        }
      ],
      "stateMutability": "view",
      "type": "function"
    },
    {
      "inputs": [
        {
          "internalType": "uint256",
          "name": "",
          "type": "uint256"
        }
      ],
      "name": "userIds",
      "outputs": [
        {
          "internalType": "address",
          "name": "",
          "type": "address"
        }
      ],
      "stateMutability": "view",
      "type": "function"
    },
    {
      "inputs": [
        {
          "internalType": "address",
          "name": "",
          "type": "address"
        }
      ],
      "name": "users",
      "outputs": [
        {
          "internalType": "uint256",
          "name": "id",
          "type": "uint256"
        },
        {
          "internalType": "address",
          "name": "referrer",
          "type": "address"
        },
        {
          "internalType": "uint256",
          "name": "partnersCount",
          "type": "uint256"
        }
      ],
      "stateMutability": "view",
      "type": "function"
    },
    {
      "inputs": [
        {
          "internalType": "address",
          "name": "_ownerAddress",
          "type": "address"
        },
        {
          "internalType": "contract IERC20",
          "name": "_depositTokenAddress",
          "type": "address"
        }
      ],
      "name": "init",
      "outputs": [],
      "stateMutability": "nonpayable",
      "type": "function"
    },
    {
      "inputs": [],
      "name": "changeLock",
      "outputs": [],
      "stateMutability": "nonpayable",
      "type": "function"
    },
    {
      "inputs": [
        {
          "internalType": "address",
          "name": "referrerAddress",
          "type": "address"
        }
      ],
      "name": "registrationExt",
      "outputs": [],
      "stateMutability": "nonpayable",
      "type": "function"
    },
    {
      "inputs": [
        {
          "internalType": "address",
          "name": "userAddress",
          "type": "address"
        },
        {
          "internalType": "address",
          "name": "referrerAddress",
          "type": "address"
        }
      ],
      "name": "registrationFor",
      "outputs": [],
      "stateMutability": "nonpayable",
      "type": "function"
    },
    {
      "inputs": [
        {
          "internalType": "uint8",
          "name": "matrix",
          "type": "uint8"
        },
        {
          "internalType": "uint8",
          "name": "level",
          "type": "uint8"
        }
      ],
      "name": "buyNewLevel",
      "outputs": [],
      "stateMutability": "nonpayable",
      "type": "function"
    },
    {
      "inputs": [
        {
          "internalType": "address",
          "name": "userAddress",
          "type": "address"
        },
        {
          "internalType": "uint8",
          "name": "matrix",
          "type": "uint8"
        },
        {
          "internalType": "uint8",
          "name": "level",
          "type": "uint8"
        }
      ],
      "name": "buyNewLevelFor",
      "outputs": [],
      "stateMutability": "nonpayable",
      "type": "function"
    },
    {
      "inputs": [
        {
          "internalType": "address",
          "name": "userAddress",
          "type": "address"
        },
        {
          "internalType": "uint8",
          "name": "level",
          "type": "uint8"
        }
      ],
      "name": "findFreeX3Referrer",
      "outputs": [
        {
          "internalType": "address",
          "name": "",
          "type": "address"
        }
      ],
      "stateMutability": "view",
      "type": "function"
    },
    {
      "inputs": [
        {
          "internalType": "address",
          "name": "userAddress",
          "type": "address"
        },
        {
          "internalType": "uint8",
          "name": "level",
          "type": "uint8"
        }
      ],
      "name": "findFreeX6Referrer",
      "outputs": [
        {
          "internalType": "address",
          "name": "",
          "type": "address"
        }
      ],
      "stateMutability": "view",
      "type": "function"
    },
    {
      "inputs": [
        {
          "internalType": "address",
          "name": "userAddress",
          "type": "address"
        },
        {
          "internalType": "uint8",
          "name": "level",
          "type": "uint8"
        }
      ],
      "name": "usersActiveX3Levels",
      "outputs": [
        {
          "internalType": "bool",
          "name": "",
          "type": "bool"
        }
      ],
      "stateMutability": "view",
      "type": "function"
    },
    {
      "inputs": [
        {
          "internalType": "address",
          "name": "userAddress",
          "type": "address"
        },
        {
          "internalType": "uint8",
          "name": "level",
          "type": "uint8"
        }
      ],
      "name": "usersActiveX6Levels",
      "outputs": [
        {
          "internalType": "bool",
          "name": "",
          "type": "bool"
        }
      ],
      "stateMutability": "view",
      "type": "function"
    },
    {
      "inputs": [
        {
          "internalType": "address",
          "name": "userAddress",
          "type": "address"
        },
        {
          "internalType": "uint8",
          "name": "level",
          "type": "uint8"
        }
      ],
      "name": "usersX3Matrix",
      "outputs": [
        {
          "internalType": "address",
          "name": "",
          "type": "address"
        },
        {
          "internalType": "address[]",
          "name": "",
          "type": "address[]"
        },
        {
          "internalType": "bool",
          "name": "",
          "type": "bool"
        }
      ],
      "stateMutability": "view",
      "type": "function"
    },
    {
      "inputs": [
        {
          "internalType": "address",
          "name": "userAddress",
          "type": "address"
        },
        {
          "internalType": "uint8",
          "name": "level",
          "type": "uint8"
        }
      ],
      "name": "usersX6Matrix",
      "outputs": [
        {
          "internalType": "address",
          "name": "",
          "type": "address"
        },
        {
          "internalType": "address[]",
          "name": "",
          "type": "address[]"
        },
        {
          "internalType": "address[]",
          "name": "",
          "type": "address[]"
        },
        {
          "internalType": "bool",
          "name": "",
          "type": "bool"
        },
        {
          "internalType": "address",
          "name": "",
          "type": "address"
        }
      ],
      "stateMutability": "view",
      "type": "function"
    },
    {
      "inputs": [
        {
          "internalType": "address",
          "name": "user",
          "type": "address"
        }
      ],
      "name": "isUserExists",
      "outputs": [
        {
          "internalType": "bool",
          "name": "",
          "type": "bool"
        }
      ],
      "stateMutability": "view",
      "type": "function"
    },
    {
      "inputs": [
        {
          "internalType": "address",
          "name": "tokenAddress",
          "type": "address"
        },
        {
          "internalType": "uint256",
          "name": "amount",
          "type": "uint256"
        }
      ],
      "name": "withdrawLostTokens",
      "outputs": [],
      "stateMutability": "nonpayable",
      "type": "function"
    }
  ],
  "bytecode": "0x608060405234801561001057600080fd5b50600080546001600160a01b03191633179055613a1c806100326000396000f3fe608060405234801561001057600080fd5b50600436106101ae5760003560e01c80639cc102fc116100ee578063ce606ee011610097578063ecabdf7911610071578063ecabdf79146104d5578063f07b62be146104f5578063f09a4016146104fd578063fa45323d14610510576101ae565b8063ce606ee0146104a2578063cf309012146104b5578063e06e8dbd146104c2576101ae565b8063b99a9671116100c8578063b99a967114610469578063be389d571461047c578063c89039c51461048f576101ae565b80639cc102fc146103a9578063a87430ba146103cd578063b2f7543a1461042a576101ae565b806338d7822b1161015b578063517999bc11610135578063517999bc14610358578063797eee241461036b57806383ba31b21461037e5780639ac7e09e146103a0576101ae565b806338d7822b146102f15780634635fd6814610304578063509222cd1461032d576101ae565b806329c704001161018c57806329c70400146102815780632a2d0c47146102a7578063348d4487146102e8576101ae565b806307279e2a146102185780630b1610fd1461024057806327e235e314610253575b366000036101cf576006546101cd9033906001600160a01b0316610523565b005b6101cd336102136000368080601f0160208091040260200160405190810160405280939291908181526020018383808284376000920191909152506107e092505050565b610523565b61022b610226366004613637565b6107e7565b60405190151581526020015b60405180910390f35b6101cd61024e36600461366c565b61081d565b610273610261366004613698565b60046020526000908152604090205481565b604051908152602001610237565b60005461029590600160a01b900460ff1681565b60405160ff9091168152602001610237565b6102d06102b53660046136b5565b6002602052600090815260409020546001600160a01b031681565b6040516001600160a01b039091168152602001610237565b61027360055481565b6101cd6102ff3660046136ce565b610964565b6102d06103123660046136b5565b6003602052600090815260409020546001600160a01b031681565b61022b61033b366004613698565b6001600160a01b0316600090815260016020526040902054151590565b6006546102d0906001600160a01b031681565b6101cd610379366004613698565b610997565b61039161038c366004613637565b6109c9565b6040516102379392919061374b565b61027360095481565b6103bc6103b7366004613637565b610a73565b60405161023795949392919061377f565b6104076103db366004613698565b60016020819052600091825260409091208054918101546002909101546001600160a01b039091169083565b604080519384526001600160a01b03909216602084015290820152606001610237565b61022b610438366004613637565b6001600160a01b0391909116600090815260016020908152604080832060ff94851684526004019091529020541690565b6101cd6104773660046137cf565b610b90565b6101cd61048a366004613814565b610bc0565b6008546102d0906001600160a01b031681565b6000546102d0906001600160a01b031681565b600a5461022b9060ff1681565b6102d06104d0366004613637565b610bf0565b6102736104e3366004613830565b60076020526000908152604090205481565b6101cd610c7f565b6101cd61050b3660046136ce565b610ced565b6102d061051e366004613637565b611032565b61054b33306009546002610537919061387a565b6008546001600160a01b03169291906110c1565b6001600160a01b038216600090815260016020526040902054156105b65760405162461bcd60e51b815260206004820152600b60248201527f757365722065786973747300000000000000000000000000000000000000000060448201526064015b60405180910390fd5b6001600160a01b03811660009081526001602052604090205461061b5760405162461bcd60e51b815260206004820152601360248201527f7265666572726572206e6f74206578697374730000000000000000000000000060448201526064016105ad565b33600090815260016020818152604080842060058054825581850180546001600160a01b038981166001600160a01b0319928316811790935560028086018a905584548a5287528589208054918c169183168217905580895287875285892088018054831690931790925586885260038085018752858920805460ff199081168a17909155600486018852868a208054909116909817909755825488529590945291852080549094169092179092558154853b93919290916106dc83613899565b90915550506001600160a01b038316600090815260016020526040812060020180549161070883613899565b9190505550600061071a856001611032565b6001600160a01b03868116600090815260016020818152604080842083855260050190915290912080546001600160a01b031916928416929092179091559091506107689086908390611178565b61077e85610777876001610bf0565b600161156b565b6001600160a01b03858116600081815260016020908152604080832054948916808452928190205490519081529192917f309bb360e8b69c23937ccc5fb01f9aeeead1c95a99604e175113ff82f2b1723a910160405180910390a45050505050565b6014015190565b6001600160a01b038216600090815260016020908152604080832060ff8086168552600390910190925290912054165b92915050565b6000546001600160a01b031633146108775760405162461bcd60e51b815260206004820152600960248201527f6f6e6c794f776e6572000000000000000000000000000000000000000000000060448201526064016105ad565b6008546001600160a01b03908116908316036108d55760405162461bcd60e51b815260206004820152601d60248201527f63616e6e6f74207769746864726177206465706f73697420746f6b656e00000060448201526064016105ad565b6040517fa9059cbb000000000000000000000000000000000000000000000000000000008152336004820152602481018290526001600160a01b0383169063a9059cbb906044016020604051808303816000875af115801561093b573d6000803e3d6000fd5b505050506040513d601f19601f8201168201806040525081019061095f91906138b3565b505050565b600a5460ff16158061098057506000546001600160a01b031633145b61098957600080fd5b6109938282610523565b5050565b600a5460ff1615806109b357506000546001600160a01b031633145b6109bc57600080fd5b6109c63382610523565b50565b6001600160a01b03828116600090815260016020818152604080842060ff878116865260059091018352818520805460028201549190950180548451818702810187019095528085529697606097899790911695919492909316928491830182828015610a5f57602002820191906000526020600020905b81546001600160a01b03168152600190910190602001808311610a41575b505050505091509250925092509250925092565b6001600160a01b03828116600090815260016020818152604080842060ff878116865260069091018352818520805460038201546005830154968301805486518189028101890190975280875298996060998a998c998a99968416989497600201969590941694921692869190830182828015610b1957602002820191906000526020600020905b81546001600160a01b03168152600190910190602001808311610afb575b5050505050935082805480602002602001604051908101604052809291908181526020018280548015610b7557602002820191906000526020600020905b81546001600160a01b03168152600190910190602001808311610b57575b50505050509250945094509450945094509295509295909350565b600a5460ff161580610bac57506000546001600160a01b031633145b610bb557600080fd5b61095f838383611faa565b600a5460ff161580610bdc57506000546001600160a01b031633145b610be557600080fd5b610993338383611faa565b60005b6001600160a01b03808416600090815260016020818152604080842090920154909316825280822060ff808716845260049091019093529020541615610c5857506001600160a01b038083166000908152600160208190526040909120015416610817565b6001600160a01b039283166000908152600160208190526040909120015490921691610bf3565b6000546001600160a01b03163314610cd95760405162461bcd60e51b815260206004820152600960248201527f6f6e6c794f776e6572000000000000000000000000000000000000000000000060448201526064016105ad565b600a805460ff19811660ff90911615179055565b6000546001600160a01b03163314610d475760405162461bcd60e51b815260206004820152600960248201527f6f6e6c794f776e6572000000000000000000000000000000000000000000000060448201526064016105ad565b6801a055690d9db800006009819055600080547fffffffffffffffffffffff00ffffffffffffffffffffffffffffffffffffffff16740700000000000000000000000000000000000000001781556001905260076020527fb39221ace053465ec3453ce2b36430bd138b997ecea25c1043da0c366812b8285560025b60088160ff1611610e215760076000610ddd6001846138d5565b60ff168152602081019190915260400160002054610dfc90600261387a565b60ff821660009081526007602052604090205580610e19816138f8565b915050610dc3565b506803cb71f51fc55800007fb7c774451310d1be4108bc180d1b52823cb0ee0274a6c0081bcaf94f115fb96d5568070c1cc73b00c800007f3be6fd20d5acfde5b873b48692cd31f4d3c7e8ee8a813af4696af8859e5ca6c655681b1ae4d6e2ef5000007fb805995a7ec585a251200611a61d179cfd7fb105e1ab17dc415a7336783786f7556835ab028ac154b800007fbcdda56b5d08466ec462cbbe0adfa57cb0a15fcc8940ef68f702f21b787bc9358190557f55c5b153ab560fcde54a63b18c7f53d75501706907cef8767fbded79ab9997c78190557fb7c49cceb9f85950584035457a41ebbd8cf93b9b612733ad25aa9731ac43aad6556001600160a01b0382166000818152600160208181526040832082815580830180546001600160a01b0319908116909155600282810186905594849052939091527fe90b7bceb6e7df5418fb78d8ee546e97c83a08bbccc01a0644d599ccd2a7c2e080549093169093179091555b60005460ff600160a01b909104811690821611610ffb576001600160a01b038416600090815260016020818152604080842060ff86168552600381018352818520805460ff1990811686179091556004909101909252909220805490921617905580610ff3816138f8565b915050610f88565b50506002600555600880546001600160a01b0319166001600160a01b039290921691909117905550600a805460ff19166001179055565b60005b6001600160a01b03808416600090815260016020818152604080842090920154909316825280822060ff80871684526003909101909352902054161561109a57506001600160a01b038083166000908152600160208190526040909120015416610817565b6001600160a01b039283166000908152600160208190526040909120015490921691611035565b6040516001600160a01b03808516602483015283166044820152606481018290526111729085907f23b872dd00000000000000000000000000000000000000000000000000000000906084015b60408051601f198184030181529190526020810180517bffffffffffffffffffffffffffffffffffffffffffffffffffffffff167fffffffff00000000000000000000000000000000000000000000000000000000909316929092179091526125d8565b50505050565b6001600160a01b03828116600090815260016020818152604080842060ff87168086526005909101835290842083018054938401815580855291842090920180546001600160a01b0319169488169490941790935590525460031115611257576001600160a01b03828116600081815260016020818152604080842060ff8881168087526005909201845294829020840154825194855292840152921681830152905191928616917f68062c5925c4317adf3a7095478d28b33fd8b41458bc7620b61bc46bf1b24d829181900360600190a361095f82846001846126bd565b604080516001815260ff8316602082015260038183015290516001600160a01b0384811692908616917f68062c5925c4317adf3a7095478d28b33fd8b41458bc7620b61bc46bf1b24d829181900360600190a360408051600080825260208083018085526001600160a01b0387168352600180835285842060ff881685526005019092529390912091516112f093929091019190613592565b506001600160a01b03821660009081526001602081905260408220600301919061131b908490613917565b60ff90811682526020820192909252604001600020541615801561134e575060005460ff828116600160a01b9092041614155b1561138c576001600160a01b038216600090815260016020818152604080842060ff86168552600501909152909120600201805460ff191690911790555b6006546001600160a01b038381169116146114bd5760006113ad8383611032565b6001600160a01b03848116600090815260016020908152604080832060ff88168452600501909152902054919250828116911614611425576001600160a01b03838116600090815260016020908152604080832060ff87168452600501909152902080546001600160a01b0319169183169190911790555b6001600160a01b038316600090815260016020908152604080832060ff86168452600501909152812060030180549161145d83613899565b9091555050604080516001815260ff841660208201526001600160a01b038087169284821692918716917fa00c953eff38ec1b71e7fe060b2ab8df0bbe5354319fbdde4fbdafd6324386a6910160405180910390a4611172838284611178565b6006546114d6906001600160a01b0316846001846126bd565b6006546001600160a01b0316600090815260016020908152604080832060ff85168452600501909152812060030180549161151083613899565b9091555050600654604080516001815260ff841660208201526001600160a01b03868116936000939116917fa00c953eff38ec1b71e7fe060b2ab8df0bbe5354319fbdde4fbdafd6324386a6910160405180910390a4505050565b6001600160a01b038216600090815260016020908152604080832060ff8086168552600490910190925290912054166115e65760405162461bcd60e51b815260206004820152601f60248201527f3530302e205265666572726572206c6576656c20697320696e6163746976650060448201526064016105ad565b6001600160a01b038216600090815260016020818152604080842060ff86168552600601909152909120015460021115611bd9576001600160a01b03828116600081815260016020818152604080842060ff8881168087526006909201845282862085018054958601815580875284872090950180546001600160a01b031916988c1698891790559481905292548151600281529283019390935291909216908201529091907f68062c5925c4317adf3a7095478d28b33fd8b41458bc7620b61bc46bf1b24d829060600160405180910390a36001600160a01b03838116600090815260016020908152604080832060ff86168452600690810190925290912080546001600160a01b031916858416908117909155905490911690036117135761095f82846002846126bd565b6001600160a01b03828116600090815260016020818152604080842060ff871680865260069182018452828620548716808752858552838720828852909201845291852060028082018054808801825590885294872090940180546001600160a01b031916978b169790971790965593529201549091811480156117e957506001600160a01b03828116600090815260016020818152604080842060ff891685526006019091528220018054928716929091906117d2576117d261393c565b6000918252602090912001546001600160a01b0316145b801561184b57506001600160a01b03828116600090815260016020818152604080842060ff89168552600601909152909120810180549287169290919081106118345761183461393c565b6000918252602090912001546001600160a01b0316145b15611934576001600160a01b038416600090815260016020818152604080842060ff8816855260060190915290912081015490036118e057604080516002815260ff851660208201526005918101919091526001600160a01b0380841691908716907f68062c5925c4317adf3a7095478d28b33fd8b41458bc7620b61bc46bf1b24d82906060015b60405180910390a3611bc7565b604080516002815260ff851660208201526006918101919091526001600160a01b0380841691908716907f68062c5925c4317adf3a7095478d28b33fd8b41458bc7620b61bc46bf1b24d82906060016118d3565b80600114806119435750806002145b80156119a157506001600160a01b03828116600090815260016020818152604080842060ff8916855260060190915282200180549287169290919061198a5761198a61393c565b6000918252602090912001546001600160a01b0316145b15611a81576001600160a01b038416600090815260016020818152604080842060ff881685526006019091529091208101549003611a2d57604080516002815260ff851660208201526003918101919091526001600160a01b0380841691908716907f68062c5925c4317adf3a7095478d28b33fd8b41458bc7620b61bc46bf1b24d82906060016118d3565b604080516002815260ff851660208201526004918101919091526001600160a01b0380841691908716907f68062c5925c4317adf3a7095478d28b33fd8b41458bc7620b61bc46bf1b24d82906060016118d3565b806002148015611ae757506001600160a01b03828116600090815260016020818152604080842060ff8916855260060190915290912081018054928716929091908110611ad057611ad061393c565b6000918252602090912001546001600160a01b0316145b15611bc7576001600160a01b038416600090815260016020818152604080842060ff881685526006019091529091208101549003611b7357604080516002815260ff851660208201526005918101919091526001600160a01b0380841691908716907f68062c5925c4317adf3a7095478d28b33fd8b41458bc7620b61bc46bf1b24d82906060016118d3565b604080516002815260ff8516602082015260068183015290516001600160a01b0384811692908816917f68062c5925c4317adf3a7095478d28b33fd8b41458bc7620b61bc46bf1b24d829181900360600190a35b611bd2858385612759565b5050505050565b6001600160a01b03828116600090815260016020818152604080842060ff8716808652600690910183529084206002810180549485018155855291842090920180546001600160a01b0319168886161790559152600501541615611dd3576001600160a01b038216600090815260016020818152604080842060ff86168552600601909152909120810180549091908110611c7657611c7661393c565b60009182526020808320909101546001600160a01b0385811684526001808452604080862060ff88168752600601909452928420909201805492909116929091611cc257611cc261393c565b6000918252602090912001546001600160a01b0316148015611d3c57506001600160a01b03828116600090815260016020818152604080842060ff87168552600601909152822060058101549101805491909316929190611d2557611d2561393c565b6000918252602090912001546001600160a01b0316145b15611d5957611d4e8383836001612c1e565b61095f838383612759565b6001600160a01b03828116600090815260016020818152604080842060ff87168552600601909152822060058101549101805491909316929190611d9f57611d9f61393c565b6000918252602090912001546001600160a01b031603611dc657611d4e8383836001612c1e565b611d4e8383836000612c1e565b6001600160a01b03828116600090815260016020818152604080842060ff8716855260060190915290912081018054928616929091908110611e1757611e1761393c565b6000918252602090912001546001600160a01b031603611e3e57611d4e8383836000612c1e565b6001600160a01b03828116600090815260016020818152604080842060ff87168552600601909152822001805492861692909190611e7e57611e7e61393c565b6000918252602090912001546001600160a01b031603611ea557611d4e8383836001612c1e565b6001600160a01b038216600090815260016020818152604080842060ff8616855260060190915282208101805491929183908110611ee557611ee561393c565b60009182526020808320909101546001600160a01b039081168452838201949094526040928301822060ff86168084526006918201835284842060019081015496891685528084528585209185529101909152918120820180548290611f4d57611f4d61393c565b60009182526020808320909101546001600160a01b03168352828101939093526040918201812060ff8616825260060190925290206001015411611f9d57611f988383836000612c1e565b611d4e565b611d4e8383836001612c1e565b6001600160a01b0383166000908152600160205260409020546120355760405162461bcd60e51b815260206004820152602360248201527f75736572206973206e6f74206578697374732e2052656769737465722066697260448201527f73742e000000000000000000000000000000000000000000000000000000000060648201526084016105ad565b8160ff166001148061204a57508160ff166002145b6120965760405162461bcd60e51b815260206004820152600e60248201527f696e76616c6964206d617472697800000000000000000000000000000000000060448201526064016105ad565b60ff81166000908152600760205260409020546008546120c5916001600160a01b0390911690339030906110c1565b60018160ff161180156120e8575060005460ff600160a01b909104811690821611155b6121345760405162461bcd60e51b815260206004820152600d60248201527f696e76616c6964206c6576656c0000000000000000000000000000000000000060448201526064016105ad565b8160ff166001036123a1576001600160a01b03831660009081526001602081905260408220600301919061216890846138d5565b60ff9081168252602082019290925260400160002054166121cb5760405162461bcd60e51b815260206004820152601860248201527f6275792070726576696f7573206c6576656c206669727374000000000000000060448201526064016105ad565b6001600160a01b038316600090815260016020908152604080832060ff808616855260039091019092529091205416156122475760405162461bcd60e51b815260206004820152601760248201527f6c6576656c20616c72656164792061637469766174656400000000000000000060448201526064016105ad565b6001600160a01b03831660009081526001602081905260408220600501919061227090846138d5565b60ff908116825260208201929092526040016000206002015416156122df576001600160a01b038316600090815260016020819052604082206005019082906122b990856138d5565b60ff1681526020810191909152604001600020600201805460ff19169115159190911790555b60006122eb8483611032565b6001600160a01b03858116600090815260016020818152604080842060ff8916855260058101835281852080546001600160a01b0319169688169690961790955560039094019052919020805460ff19169091179055905061234e848284611178565b604080516001815260ff841660208201526001600160a01b0380841692908716917f18a92df19fd94d6cfff209966673a5ca05a1c8e2bb68e097fce2bdc2ed81111991015b60405180910390a350505050565b6001600160a01b0383166000908152600160208190526040822060040191906123ca90846138d5565b60ff90811682526020820192909252604001600020541661242d5760405162461bcd60e51b815260206004820152601860248201527f6275792070726576696f7573206c6576656c206669727374000000000000000060448201526064016105ad565b6001600160a01b038316600090815260016020908152604080832060ff808616855260049091019092529091205416156124a95760405162461bcd60e51b815260206004820152601760248201527f6c6576656c20616c72656164792061637469766174656400000000000000000060448201526064016105ad565b6001600160a01b0383166000908152600160208190526040822060060191906124d290846138d5565b60ff90811682526020820192909252604001600020600301541615612541576001600160a01b0383166000908152600160208190526040822060060190829061251b90856138d5565b60ff1681526020810191909152604001600020600301805460ff19169115159190911790555b600061254d8483610bf0565b6001600160a01b038516600090815260016020818152604080842060ff88168552600401909152909120805460ff19169091179055905061258f84828461156b565b604080516002815260ff841660208201526001600160a01b0380841692908716917f18a92df19fd94d6cfff209966673a5ca05a1c8e2bb68e097fce2bdc2ed8111199101612393565b600061262d826040518060400160405280602081526020017f5361666545524332303a206c6f772d6c6576656c2063616c6c206661696c6564815250856001600160a01b03166132199092919063ffffffff16565b80519091501561095f578080602001905181019061264b91906138b3565b61095f5760405162461bcd60e51b815260206004820152602a60248201527f5361666545524332303a204552433230206f7065726174696f6e20646964206e60448201527f6f7420737563636565640000000000000000000000000000000000000000000060648201526084016105ad565b6000806126cc86868686613232565b60ff85166000908152600760205260409020546008549294509092506126fd916001600160a01b03169084906133c8565b8015612751576040805160ff8087168252851660208201526001600160a01b0380851692908816917ff0ddc65c0d411f042f723dcfa1b7d13e85a35b7b70761d447c6500411cacf328910160405180910390a35b505050505050565b6001600160a01b038216600090815260016020908152604080832060ff851684526006019091529020600201546004111561279b5761095f82846002846126bd565b6001600160a01b03808316600090815260016020818152604080842060ff8716808652600691820184528286205490961685528383528185209585529490940181528383209091018054845181840281018401909552808552929392909183018282801561283257602002820191906000526020600020905b81546001600160a01b03168152600190910190602001808311612814575b5050505050905080516002036129a257826001600160a01b03168160008151811061285f5761285f61393c565b60200260200101516001600160a01b031614806128a75750826001600160a01b0316816001815181106128945761289461393c565b60200260200101516001600160a01b0316145b1561290b576001600160a01b03808416600081815260016020818152604080842060ff8916808652600691820184528286205490971685529282528084209584529490910190529190912060050180546001600160a01b03191690911790556129a2565b80516001036129a257826001600160a01b0316816000815181106129315761293161393c565b60200260200101516001600160a01b0316036129a2576001600160a01b03808416600081815260016020818152604080842060ff8916808652600691820184528286205490971685529282528084209584529490910190529190912060050180546001600160a01b03191690911790555b60408051600080825260208083018085526001600160a01b0388168352600180835285842060ff891685526006019092529390912091516129e893929091019190613592565b5060408051600080825260208083018085526001600160a01b03881683526001825284832060ff881684526006019091529290209051612a2e9260029092019190613592565b506001600160a01b038316600081815260016020818152604080842060ff8816855260068101835290842060050180546001600160a01b0319169055938352819052600490920191612a81908590613917565b60ff908116825260208201929092526040016000205416158015612ab4575060005460ff838116600160a01b9092041614155b15612af2576001600160a01b038316600090815260016020818152604080842060ff87168552600601909152909120600301805460ff191690911790555b6001600160a01b038316600090815260016020908152604080832060ff861684526006019091528120600401805491612b2a83613899565b90915550506006546001600160a01b03848116911614612bb4576000612b508484610bf0565b604080516002815260ff861660208201529192506001600160a01b038088169281851692918816917fa00c953eff38ec1b71e7fe060b2ab8df0bbe5354319fbdde4fbdafd6324386a6910160405180910390a4612bae84828561156b565b50611172565b600654604080516002815260ff851660208201526001600160a01b03878116936000939116917fa00c953eff38ec1b71e7fe060b2ab8df0bbe5354319fbdde4fbdafd6324386a6910160405180910390a4600654611172906001600160a01b0316856002856126bd565b80612f19576001600160a01b038316600090815260016020818152604080842060ff871685526006019091528220810180549192918290612c6157612c6161393c565b6000918252602080832091909101546001600160a01b039081168452838201949094526040928301822060ff8716808452600691820183528484206001908101805480830182559086528486200180546001600160a01b0319168c891617905595891684528583528484209084520190529081209091018054909190612ce957612ce961393c565b60009182526020808320909101546001600160a01b0386811684526001808452604080862060ff891687526006019094529284208301805492821694918916937f68062c5925c4317adf3a7095478d28b33fd8b41458bc7620b61bc46bf1b24d8293600293899390918290612d6057612d6061393c565b6000918252602080832091909101546001600160a01b03168352828101939093526040918201812060ff8b81168352600690910184529082902060010154825195821686529381169285019290925291169082015260600160405180910390a36001600160a01b03808416600081815260016020818152604080842060ff8916855260060190915282208101805493948916937f68062c5925c4317adf3a7095478d28b33fd8b41458bc7620b61bc46bf1b24d8293600293899390928290612e2a57612e2a61393c565b60009182526020808320909101546001600160a01b03168352828101939093526040918201812060ff8b168252600601909252902060010154612e6e906002613917565b6040805160ff9485168152928416602084015292168183015290519081900360600190a36001600160a01b038316600090815260016020818152604080842060ff871685526006019091528220018054909190612ecd57612ecd61393c565b60009182526020808320909101546001600160a01b03878116845260018352604080852060ff881686526006019093529190922080546001600160a01b03191691909216179055611172565b6001600160a01b038316600090815260016020818152604080842060ff8716855260060190915282208101805491929183908110612f5957612f5961393c565b6000918252602080832091909101546001600160a01b039081168452838201949094526040928301822060ff8716808452600691820183528484206001908101805480830182559086528486200180546001600160a01b0319168c8916179055958916845285835284842090845201905220810180549091908110612fe057612fe061393c565b60009182526020808320909101546001600160a01b0386811684526001808452604080862060ff891687526006019094529284208301805492821694918916937f68062c5925c4317adf3a7095478d28b33fd8b41458bc7620b61bc46bf1b24d829360029389939091839081106130595761305961393c565b6000918252602080832091909101546001600160a01b03168352828101939093526040918201812060ff8b81168352600690910184529082902060010154825195821686529381169285019290925291169082015260600160405180910390a36001600160a01b03808416600081815260016020818152604080842060ff8916855260060190915282208101805493948916937f68062c5925c4317adf3a7095478d28b33fd8b41458bc7620b61bc46bf1b24d829360029389939092839081106131255761312561393c565b60009182526020808320909101546001600160a01b03168352828101939093526040918201812060ff8b168252600601909252902060010154613169906004613917565b6040805160ff9485168152928416602084015292168183015290519081900360600190a36001600160a01b038316600090815260016020818152604080842060ff871685526006019091529091208101805490919081106131cc576131cc61393c565b60009182526020808320909101546001600160a01b03878116845260018352604080852060ff881686526006019093529190922080546001600160a01b0319169190921617905550505050565b60606132288484600085613411565b90505b9392505050565b600080858160ff8616600103613306575b6001600160a01b038216600090815260016020908152604080832060ff808a16855260059091019092529091206002015416156132fc57604080516001815260ff871660208201526001600160a01b03808a1692908516917ffc0cb63f8dbd6b20ceb84a3c5358a41576a1479e6ecd040b4b985525dc09a709910160405180910390a3506001600160a01b03908116600090815260016020818152604080842060ff891685526005019091529091205490911690613243565b90925090506133bf565b6001600160a01b038216600090815260016020908152604080832060ff808a16855260069091019092529091206003015416156132fc57604080516002815260ff871660208201526001600160a01b03808a1692908516917ffc0cb63f8dbd6b20ceb84a3c5358a41576a1479e6ecd040b4b985525dc09a709910160405180910390a3506001600160a01b03908116600090815260016020818152604080842060ff891685526006019091529091205490911690613306565b94509492505050565b6040516001600160a01b03831660248201526044810182905261095f9084907fa9059cbb000000000000000000000000000000000000000000000000000000009060640161110e565b6060824710156134895760405162461bcd60e51b815260206004820152602660248201527f416464726573733a20696e73756666696369656e742062616c616e636520666f60448201527f722063616c6c000000000000000000000000000000000000000000000000000060648201526084016105ad565b6001600160a01b0385163b6134e05760405162461bcd60e51b815260206004820152601d60248201527f416464726573733a2063616c6c20746f206e6f6e2d636f6e747261637400000060448201526064016105ad565b600080866001600160a01b031685876040516134fc9190613997565b60006040518083038185875af1925050503d8060008114613539576040519150601f19603f3d011682016040523d82523d6000602084013e61353e565b606091505b509150915061354e828286613559565b979650505050505050565b6060831561356857508161322b565b8251156135785782518084602001fd5b8160405162461bcd60e51b81526004016105ad91906139b3565b8280548282559060005260206000209081019282156135e7579160200282015b828111156135e757825182546001600160a01b0319166001600160a01b039091161782556020909201916001909101906135b2565b506135f39291506135f7565b5090565b5b808211156135f357600081556001016135f8565b6001600160a01b03811681146109c657600080fd5b803560ff8116811461363257600080fd5b919050565b6000806040838503121561364a57600080fd5b82356136558161360c565b915061366360208401613621565b90509250929050565b6000806040838503121561367f57600080fd5b823561368a8161360c565b946020939093013593505050565b6000602082840312156136aa57600080fd5b813561322b8161360c565b6000602082840312156136c757600080fd5b5035919050565b600080604083850312156136e157600080fd5b82356136ec8161360c565b915060208301356136fc8161360c565b809150509250929050565b600081518084526020808501945080840160005b838110156137405781516001600160a01b03168752958201959082019060010161371b565b509495945050505050565b6001600160a01b038416815260606020820152600061376d6060830185613707565b90508215156040830152949350505050565b60006001600160a01b03808816835260a060208401526137a260a0840188613707565b83810360408501526137b48188613707565b95151560608501525092909216608090910152509392505050565b6000806000606084860312156137e457600080fd5b83356137ef8161360c565b92506137fd60208501613621565b915061380b60408501613621565b90509250925092565b6000806040838503121561382757600080fd5b61365583613621565b60006020828403121561384257600080fd5b61322b82613621565b7f4e487b7100000000000000000000000000000000000000000000000000000000600052601160045260246000fd5b60008160001904831182151516156138945761389461384b565b500290565b600060001982036138ac576138ac61384b565b5060010190565b6000602082840312156138c557600080fd5b8151801515811461322b57600080fd5b600060ff821660ff8416808210156138ef576138ef61384b565b90039392505050565b600060ff821660ff810361390e5761390e61384b565b60010192915050565b600060ff821660ff84168060ff038211156139345761393461384b565b019392505050565b7f4e487b7100000000000000000000000000000000000000000000000000000000600052603260045260246000fd5b60005b8381101561398657818101518382015260200161396e565b838111156111725750506000910152565b600082516139a981846020870161396b565b9190910192915050565b60208152600082518060208401526139d281604085016020870161396b565b601f01601f1916919091016040019291505056fea264697066735822122048182e094f8495648d5abcab9545179edfb7566d0e0640508b91a9e0e18b30ad64736f6c634300080f0033",
  "immutableReferences": {},
  "source": "//SPDX-License-Identifier: UNLICENSED\r\npragma solidity 0.8.15;\r\nimport \"@openzeppelin/contracts/token/ERC20/utils/SafeERC20.sol\";\r\nimport \"./SkymoneyBasic.sol\";\r\n\r\n\r\ncontract SkyMoneyMain is SkymoneyBasic {\r\n    \r\n    using SafeERC20 for IERC20;\r\n\r\n    modifier onlyContractOwner() { \r\n        require(msg.sender == contractOwner, \"onlyOwner\"); \r\n        _; \r\n    }\r\n\r\n    modifier onlyUnlocked() { \r\n        require(!locked || msg.sender == contractOwner); \r\n        _; \r\n    }\r\n    constructor(){\r\n        contractOwner = msg.sender;\r\n        \r\n    }\r\n    \r\n    function init(address _ownerAddress, IERC20 _depositTokenAddress) public onlyContractOwner {\r\n        \r\n        BASIC_PRICE = 30e18;\r\n        LAST_LEVEL = 7;\r\n\r\n        levelPrice[1] = BASIC_PRICE;\r\n        for (uint8 i = 2; i <= 8; i++) {\r\n            levelPrice[i] = levelPrice[i-1] * 2;\r\n        }\r\n\r\n        levelPrice[2] = 70e18;\r\n        levelPrice[3] = 130e18;\r\n        levelPrice[4] = 500e18;\r\n        levelPrice[5] = 990e18;\r\n        levelPrice[6] = 990e18;\r\n        levelPrice[7] = 990e18;\r\n\r\n        \r\n        \r\n        \r\n        User storage user = users[_ownerAddress];\r\n        user.id = 1;\r\n        user.referrer= address(0);\r\n        user.partnersCount= uint(0);\r\n        \r\n        //users[_ownerAddress] = user;\r\n        idToAddress[1] = _ownerAddress;\r\n        \r\n        for (uint8 i = 1; i <= LAST_LEVEL; i++) {\r\n            users[_ownerAddress].activeX3Levels[i] = true;\r\n            users[_ownerAddress].activeX6Levels[i] = true;\r\n        }\r\n        \r\n        //userIds[1] = _ownerAddress;\r\n        lastUserId = 2;\r\n        //multisig = _multisig;\r\n\r\n        depositToken = _depositTokenAddress;\r\n\r\n        locked = true;\r\n    }\r\n\r\n    function changeLock() external onlyContractOwner() {\r\n        locked = !locked;\r\n    }\r\n    \r\n    fallback() external {\r\n        if(msg.data.length == 0) {\r\n            return registration(msg.sender, id1);\r\n        }\r\n        \r\n        registration(msg.sender, bytesToAddress(msg.data));\r\n    }\r\n\r\n    function registrationExt(address referrerAddress) external onlyUnlocked() {\r\n        registration(msg.sender, referrerAddress);\r\n    }\r\n\r\n    function registrationFor(address userAddress, address referrerAddress) external onlyUnlocked() {\r\n        registration(userAddress, referrerAddress);\r\n    }\r\n    \r\n    function buyNewLevel(uint8 matrix, uint8 level) external onlyUnlocked() {\r\n        _buyNewLevel(msg.sender, matrix, level);\r\n    }\r\n\r\n    function buyNewLevelFor(address userAddress, uint8 matrix, uint8 level) external onlyUnlocked() {\r\n        _buyNewLevel(userAddress, matrix, level);\r\n    }\r\n\r\n    function _buyNewLevel(address _userAddress, uint8 matrix, uint8 level) internal {\r\n        require(isUserExists(_userAddress), \"user is not exists. Register first.\");\r\n        require(matrix == 1 || matrix == 2, \"invalid matrix\");\r\n\r\n        depositToken.safeTransferFrom(msg.sender, address(this), levelPrice[level]);\r\n        // require(msg.value == levelPrice[level], \"invalid price\");\r\n        require(level > 1 && level <= LAST_LEVEL, \"invalid level\");\r\n\r\n        if (matrix == 1) {\r\n          require(users[_userAddress].activeX3Levels[level-1], \"buy previous level first\");\r\n          require(!users[_userAddress].activeX3Levels[level], \"level already activated\");\r\n\r\n            if (users[_userAddress].x3Matrix[level-1].blocked) {\r\n                users[_userAddress].x3Matrix[level-1].blocked = false;\r\n            }\r\n    \r\n            address freeX3Referrer = findFreeX3Referrer(_userAddress, level);\r\n            users[_userAddress].x3Matrix[level].currentReferrer = freeX3Referrer;\r\n            users[_userAddress].activeX3Levels[level] = true;\r\n            updateX3Referrer(_userAddress, freeX3Referrer, level);\r\n            \r\n            emit Upgrade(_userAddress, freeX3Referrer, 1, level);\r\n\r\n        } else {\r\n            require(users[_userAddress].activeX6Levels[level-1], \"buy previous level first\");\r\n            require(!users[_userAddress].activeX6Levels[level], \"level already activated\"); \r\n\r\n            if (users[_userAddress].x6Matrix[level-1].blocked) {\r\n                users[_userAddress].x6Matrix[level-1].blocked = false;\r\n            }\r\n\r\n            address freeX6Referrer = findFreeX6Referrer(_userAddress, level);\r\n            \r\n            users[_userAddress].activeX6Levels[level] = true;\r\n            updateX6Referrer(_userAddress, freeX6Referrer, level);\r\n            \r\n            emit Upgrade(_userAddress, freeX6Referrer, 2, level);\r\n        }\r\n    }\r\n    \r\n    function registration(address userAddress, address referrerAddress) private {\r\n        depositToken.safeTransferFrom(msg.sender, address(this), BASIC_PRICE * 2);\r\n        // require(msg.value == BASIC_PRICE * 2, \"invalid registration value\");\r\n\r\n        require(!isUserExists(userAddress), \"user exists\");\r\n        require(isUserExists(referrerAddress), \"referrer not exists\");\r\n        \r\n        uint32 size;\r\n        assembly {\r\n            size := extcodesize(userAddress)\r\n        }\r\n       // require(size == 0, \"cannot be a contract\");\r\n        \r\n        User storage user = users[msg.sender];\r\n            user.id = lastUserId;\r\n            user.referrer= referrerAddress;\r\n            user.partnersCount= 0;\r\n       \r\n        \r\n        //users[userAddress] = user;\r\n        idToAddress[lastUserId] = userAddress;\r\n        \r\n        users[userAddress].referrer = referrerAddress;\r\n        \r\n        user.activeX3Levels[1] = true; \r\n        user.activeX6Levels[1] = true;\r\n        \r\n        \r\n        userIds[lastUserId] = userAddress;\r\n        lastUserId++;\r\n        \r\n        users[referrerAddress].partnersCount++;\r\n\r\n        address freeX3Referrer = findFreeX3Referrer(userAddress, 1);\r\n        users[userAddress].x3Matrix[1].currentReferrer = freeX3Referrer;\r\n        updateX3Referrer(userAddress, freeX3Referrer, 1);\r\n\r\n        updateX6Referrer(userAddress, findFreeX6Referrer(userAddress, 1), 1);\r\n        \r\n        emit Registration(userAddress, referrerAddress, users[userAddress].id, users[referrerAddress].id);\r\n    }\r\n    \r\n    function updateX3Referrer(address userAddress, address referrerAddress, uint8 level) private {\r\n        users[referrerAddress].x3Matrix[level].referrals.push(userAddress);\r\n\r\n        if (users[referrerAddress].x3Matrix[level].referrals.length < 3) {\r\n            emit NewUserPlace(userAddress, referrerAddress, 1, level, uint8(users[referrerAddress].x3Matrix[level].referrals.length));\r\n            return sendETHDividends(referrerAddress, userAddress, 1, level);\r\n        }\r\n        \r\n        emit NewUserPlace(userAddress, referrerAddress, 1, level, 3);\r\n        //close matrix\r\n        users[referrerAddress].x3Matrix[level].referrals = new address[](0);\r\n        if (!users[referrerAddress].activeX3Levels[level+1] && level != LAST_LEVEL) {\r\n            users[referrerAddress].x3Matrix[level].blocked = true;\r\n        }\r\n\r\n        //create new one by recursion\r\n        if (referrerAddress != id1) {\r\n            //check referrer active level\r\n            address freeReferrerAddress = findFreeX3Referrer(referrerAddress, level);\r\n            if (users[referrerAddress].x3Matrix[level].currentReferrer != freeReferrerAddress) {\r\n                users[referrerAddress].x3Matrix[level].currentReferrer = freeReferrerAddress;\r\n            }\r\n            \r\n            users[referrerAddress].x3Matrix[level].reinvestCount++;\r\n            emit Reinvest(referrerAddress, freeReferrerAddress, userAddress, 1, level);\r\n            updateX3Referrer(referrerAddress, freeReferrerAddress, level);\r\n        } else {\r\n            sendETHDividends(id1, userAddress, 1, level);\r\n            users[id1].x3Matrix[level].reinvestCount++;\r\n            emit Reinvest(id1, address(0), userAddress, 1, level);\r\n        }\r\n    }\r\n\r\n    function updateX6Referrer(address userAddress, address referrerAddress, uint8 level) private {\r\n        require(users[referrerAddress].activeX6Levels[level], \"500. Referrer level is inactive\");\r\n        \r\n        if (users[referrerAddress].x6Matrix[level].firstLevelReferrals.length < 2) {\r\n            users[referrerAddress].x6Matrix[level].firstLevelReferrals.push(userAddress);\r\n            emit NewUserPlace(userAddress, referrerAddress, 2, level, uint8(users[referrerAddress].x6Matrix[level].firstLevelReferrals.length));\r\n            \r\n            //set current level\r\n            users[userAddress].x6Matrix[level].currentReferrer = referrerAddress;\r\n\r\n            if (referrerAddress == id1) {\r\n                return sendETHDividends(referrerAddress, userAddress, 2, level);\r\n            }\r\n            \r\n            address ref = users[referrerAddress].x6Matrix[level].currentReferrer;            \r\n            users[ref].x6Matrix[level].secondLevelReferrals.push(userAddress); \r\n            \r\n            uint len = users[ref].x6Matrix[level].firstLevelReferrals.length;\r\n            \r\n            if ((len == 2) && \r\n                (users[ref].x6Matrix[level].firstLevelReferrals[0] == referrerAddress) &&\r\n                (users[ref].x6Matrix[level].firstLevelReferrals[1] == referrerAddress)) {\r\n                if (users[referrerAddress].x6Matrix[level].firstLevelReferrals.length == 1) {\r\n                    emit NewUserPlace(userAddress, ref, 2, level, 5);\r\n                } else {\r\n                    emit NewUserPlace(userAddress, ref, 2, level, 6);\r\n                }\r\n            }  else if ((len == 1 || len == 2) &&\r\n                    users[ref].x6Matrix[level].firstLevelReferrals[0] == referrerAddress) {\r\n                if (users[referrerAddress].x6Matrix[level].firstLevelReferrals.length == 1) {\r\n                    emit NewUserPlace(userAddress, ref, 2, level, 3);\r\n                } else {\r\n                    emit NewUserPlace(userAddress, ref, 2, level, 4);\r\n                }\r\n            } else if (len == 2 && users[ref].x6Matrix[level].firstLevelReferrals[1] == referrerAddress) {\r\n                if (users[referrerAddress].x6Matrix[level].firstLevelReferrals.length == 1) {\r\n                    emit NewUserPlace(userAddress, ref, 2, level, 5);\r\n                } else {\r\n                    emit NewUserPlace(userAddress, ref, 2, level, 6);\r\n                }\r\n            }\r\n\r\n            return updateX6ReferrerSecondLevel(userAddress, ref, level);\r\n        }\r\n        \r\n        users[referrerAddress].x6Matrix[level].secondLevelReferrals.push(userAddress);\r\n\r\n        if (users[referrerAddress].x6Matrix[level].closedPart != address(0)) {\r\n            if ((users[referrerAddress].x6Matrix[level].firstLevelReferrals[0] == \r\n                users[referrerAddress].x6Matrix[level].firstLevelReferrals[1]) &&\r\n                (users[referrerAddress].x6Matrix[level].firstLevelReferrals[0] ==\r\n                users[referrerAddress].x6Matrix[level].closedPart)) {\r\n\r\n                updateX6(userAddress, referrerAddress, level, true);\r\n                return updateX6ReferrerSecondLevel(userAddress, referrerAddress, level);\r\n            } else if (users[referrerAddress].x6Matrix[level].firstLevelReferrals[0] == \r\n                users[referrerAddress].x6Matrix[level].closedPart) {\r\n                updateX6(userAddress, referrerAddress, level, true);\r\n                return updateX6ReferrerSecondLevel(userAddress, referrerAddress, level);\r\n            } else {\r\n                updateX6(userAddress, referrerAddress, level, false);\r\n                return updateX6ReferrerSecondLevel(userAddress, referrerAddress, level);\r\n            }\r\n        }\r\n\r\n        if (users[referrerAddress].x6Matrix[level].firstLevelReferrals[1] == userAddress) {\r\n            updateX6(userAddress, referrerAddress, level, false);\r\n            return updateX6ReferrerSecondLevel(userAddress, referrerAddress, level);\r\n        } else if (users[referrerAddress].x6Matrix[level].firstLevelReferrals[0] == userAddress) {\r\n            updateX6(userAddress, referrerAddress, level, true);\r\n            return updateX6ReferrerSecondLevel(userAddress, referrerAddress, level);\r\n        }\r\n        \r\n        if (users[users[referrerAddress].x6Matrix[level].firstLevelReferrals[0]].x6Matrix[level].firstLevelReferrals.length <= \r\n            users[users[referrerAddress].x6Matrix[level].firstLevelReferrals[1]].x6Matrix[level].firstLevelReferrals.length) {\r\n            updateX6(userAddress, referrerAddress, level, false);\r\n        } else {\r\n            updateX6(userAddress, referrerAddress, level, true);\r\n        }\r\n        \r\n        updateX6ReferrerSecondLevel(userAddress, referrerAddress, level);\r\n    }\r\n\r\n    function updateX6(address userAddress, address referrerAddress, uint8 level, bool x2) private {\r\n        if (!x2) {\r\n            users[users[referrerAddress].x6Matrix[level].firstLevelReferrals[0]].x6Matrix[level].firstLevelReferrals.push(userAddress);\r\n            emit NewUserPlace(userAddress, users[referrerAddress].x6Matrix[level].firstLevelReferrals[0], 2, level, uint8(users[users[referrerAddress].x6Matrix[level].firstLevelReferrals[0]].x6Matrix[level].firstLevelReferrals.length));\r\n            emit NewUserPlace(userAddress, referrerAddress, 2, level, 2 + uint8(users[users[referrerAddress].x6Matrix[level].firstLevelReferrals[0]].x6Matrix[level].firstLevelReferrals.length));\r\n            //set current level\r\n            users[userAddress].x6Matrix[level].currentReferrer = users[referrerAddress].x6Matrix[level].firstLevelReferrals[0];\r\n        } else {\r\n            users[users[referrerAddress].x6Matrix[level].firstLevelReferrals[1]].x6Matrix[level].firstLevelReferrals.push(userAddress);\r\n            emit NewUserPlace(userAddress, users[referrerAddress].x6Matrix[level].firstLevelReferrals[1], 2, level, uint8(users[users[referrerAddress].x6Matrix[level].firstLevelReferrals[1]].x6Matrix[level].firstLevelReferrals.length));\r\n            emit NewUserPlace(userAddress, referrerAddress, 2, level, 4 + uint8(users[users[referrerAddress].x6Matrix[level].firstLevelReferrals[1]].x6Matrix[level].firstLevelReferrals.length));\r\n            //set current level\r\n            users[userAddress].x6Matrix[level].currentReferrer = users[referrerAddress].x6Matrix[level].firstLevelReferrals[1];\r\n        }\r\n    }\r\n    \r\n    function updateX6ReferrerSecondLevel(address userAddress, address referrerAddress, uint8 level) private {\r\n        if (users[referrerAddress].x6Matrix[level].secondLevelReferrals.length < 4) {\r\n            return sendETHDividends(referrerAddress, userAddress, 2, level);\r\n        }\r\n        \r\n        address[] memory x6 = users[users[referrerAddress].x6Matrix[level].currentReferrer].x6Matrix[level].firstLevelReferrals;\r\n        \r\n        if (x6.length == 2) {\r\n            if (x6[0] == referrerAddress ||\r\n                x6[1] == referrerAddress) {\r\n                users[users[referrerAddress].x6Matrix[level].currentReferrer].x6Matrix[level].closedPart = referrerAddress;\r\n            } else if (x6.length == 1) {\r\n                if (x6[0] == referrerAddress) {\r\n                    users[users[referrerAddress].x6Matrix[level].currentReferrer].x6Matrix[level].closedPart = referrerAddress;\r\n                }\r\n            }\r\n        }\r\n        \r\n        users[referrerAddress].x6Matrix[level].firstLevelReferrals = new address[](0);\r\n        users[referrerAddress].x6Matrix[level].secondLevelReferrals = new address[](0);\r\n        users[referrerAddress].x6Matrix[level].closedPart = address(0);\r\n\r\n        if (!users[referrerAddress].activeX6Levels[level+1] && level != LAST_LEVEL) {\r\n            users[referrerAddress].x6Matrix[level].blocked = true;\r\n        }\r\n\r\n        users[referrerAddress].x6Matrix[level].reinvestCount++;\r\n        \r\n        if (referrerAddress != id1) {\r\n            address freeReferrerAddress = findFreeX6Referrer(referrerAddress, level);\r\n\r\n            emit Reinvest(referrerAddress, freeReferrerAddress, userAddress, 2, level);\r\n            updateX6Referrer(referrerAddress, freeReferrerAddress, level);\r\n        } else {\r\n            emit Reinvest(id1, address(0), userAddress, 2, level);\r\n            sendETHDividends(id1, userAddress, 2, level);\r\n        }\r\n    }\r\n    \r\n    function findFreeX3Referrer(address userAddress, uint8 level) public view returns(address) {\r\n        while (true) {\r\n            if (users[users[userAddress].referrer].activeX3Levels[level]) {\r\n                return users[userAddress].referrer;\r\n            }\r\n            \r\n            userAddress = users[userAddress].referrer;\r\n        }\r\n        return userAddress;\r\n    }\r\n    \r\n    function findFreeX6Referrer(address userAddress, uint8 level) public view returns(address) {\r\n        while (true) {\r\n            if (users[users[userAddress].referrer].activeX6Levels[level]) {\r\n                return users[userAddress].referrer;\r\n            }\r\n            \r\n             userAddress = users[userAddress].referrer;\r\n        }\r\n        return userAddress = users[userAddress].referrer;\r\n    }\r\n        \r\n    function usersActiveX3Levels(address userAddress, uint8 level) public view returns(bool) {\r\n        return users[userAddress].activeX3Levels[level];\r\n    }\r\n\r\n    function usersActiveX6Levels(address userAddress, uint8 level) public view returns(bool) {\r\n        return users[userAddress].activeX6Levels[level];\r\n    }\r\n\r\n    function usersX3Matrix(address userAddress, uint8 level) public view returns(address, address[] memory, bool) {\r\n        return (users[userAddress].x3Matrix[level].currentReferrer,\r\n                users[userAddress].x3Matrix[level].referrals,\r\n                users[userAddress].x3Matrix[level].blocked);\r\n    }\r\n\r\n    function usersX6Matrix(address userAddress, uint8 level) public view returns(address, address[] memory, address[] memory, bool, address) {\r\n        return (users[userAddress].x6Matrix[level].currentReferrer,\r\n                users[userAddress].x6Matrix[level].firstLevelReferrals,\r\n                users[userAddress].x6Matrix[level].secondLevelReferrals,\r\n                users[userAddress].x6Matrix[level].blocked,\r\n                users[userAddress].x6Matrix[level].closedPart);\r\n    }\r\n    \r\n    function isUserExists(address user) public view returns (bool) {\r\n        return (users[user].id != 0);\r\n    }\r\n\r\n    function findEthReceiver(address userAddress, address _from, uint8 matrix, uint8 level) private returns(address, bool) {\r\n        address receiver = userAddress;\r\n        bool isExtraDividends;\r\n        if (matrix == 1) {\r\n            while (true) {\r\n                if (users[receiver].x3Matrix[level].blocked) {\r\n                    emit MissedEthReceive(receiver, _from, 1, level);\r\n                    isExtraDividends = true;\r\n                    receiver = users[receiver].x3Matrix[level].currentReferrer;\r\n                } else {\r\n                    return (receiver, isExtraDividends);\r\n                }\r\n            }\r\n        } else {\r\n            while (true) {\r\n                if (users[receiver].x6Matrix[level].blocked) {\r\n                    emit MissedEthReceive(receiver, _from, 2, level);\r\n                    isExtraDividends = true;\r\n                    receiver = users[receiver].x6Matrix[level].currentReferrer;\r\n                } else {\r\n                    return (receiver, isExtraDividends);\r\n                }\r\n            }\r\n            \r\n        }\r\n        return (receiver, isExtraDividends);\r\n    }\r\n\r\n    function sendETHDividends(address userAddress, address _from, uint8 matrix, uint8 level) private {\r\n        (address receiver, bool isExtraDividends) = findEthReceiver(userAddress, _from, matrix, level);\r\n\r\n        depositToken.safeTransfer(receiver, levelPrice[level]);\r\n        // if (!address(uint160(receiver)).send(levelPrice[level])) {\r\n        //     return address(uint160(receiver)).transfer(address(this).balance);\r\n        // }\r\n        \r\n        if (isExtraDividends) {\r\n            emit SentExtraEthDividends(_from, receiver, matrix, level);\r\n        }\r\n    }\r\n    \r\n    function bytesToAddress(bytes memory bys) private pure returns (address addr) {\r\n        assembly {\r\n            addr := mload(add(bys, 20))\r\n        }\r\n    }\r\n\r\n    function withdrawLostTokens(address tokenAddress, uint amount) public onlyContractOwner {\r\n        require(tokenAddress != address(depositToken), \"cannot withdraw deposit token\");\r\n        IERC20(tokenAddress).transfer(address(msg.sender), amount);\r\n    }\r\n}",
  "sourcePath": "C:\\Users\\kolam\\Desktop\\expressgame\\contracts\\SkyMoneyMain.sol",
  "compiler": {
    "name": "solc",
    "version": "0.8.15+commit.e14f2714.Emscripten.clang"
  },
  "schemaVersion": "3.4.6",
  "updatedAt": "2022-07-30T15:00:04.129Z",
  "devdoc": {
    "kind": "dev",
    "methods": {},
    "version": 1
  },
  "userdoc": {
    "kind": "user",
    "methods": {},
    "version": 1
  }
}