{
  "contractName": "SmartMatrixForsage",
  "abi": [
    {
      "anonymous": false,
      "inputs": [
        {
          "indexed": true,
          "internalType": "address",
          "name": "receiver",
          "type": "address"
        },
        {
          "indexed": true,
          "internalType": "address",
          "name": "from",
          "type": "address"
        },
        {
          "indexed": false,
          "internalType": "uint8",
          "name": "matrix",
          "type": "uint8"
        },
        {
          "indexed": false,
          "internalType": "uint8",
          "name": "level",
          "type": "uint8"
        }
      ],
      "name": "MissedEthReceive",
      "type": "event"
    },
    {
      "anonymous": false,
      "inputs": [
        {
          "indexed": true,
          "internalType": "address",
          "name": "user",
          "type": "address"
        },
        {
          "indexed": true,
          "internalType": "address",
          "name": "referrer",
          "type": "address"
        },
        {
          "indexed": false,
          "internalType": "uint8",
          "name": "matrix",
          "type": "uint8"
        },
        {
          "indexed": false,
          "internalType": "uint8",
          "name": "level",
          "type": "uint8"
        },
        {
          "indexed": false,
          "internalType": "uint8",
          "name": "place",
          "type": "uint8"
        }
      ],
      "name": "NewUserPlace",
      "type": "event"
    },
    {
      "anonymous": false,
      "inputs": [
        {
          "indexed": true,
          "internalType": "address",
          "name": "user",
          "type": "address"
        },
        {
          "indexed": true,
          "internalType": "address",
          "name": "referrer",
          "type": "address"
        },
        {
          "indexed": true,
          "internalType": "uint256",
          "name": "userId",
          "type": "uint256"
        },
        {
          "indexed": false,
          "internalType": "uint256",
          "name": "referrerId",
          "type": "uint256"
        }
      ],
      "name": "Registration",
      "type": "event"
    },
    {
      "anonymous": false,
      "inputs": [
        {
          "indexed": true,
          "internalType": "address",
          "name": "user",
          "type": "address"
        },
        {
          "indexed": true,
          "internalType": "address",
          "name": "currentReferrer",
          "type": "address"
        },
        {
          "indexed": true,
          "internalType": "address",
          "name": "caller",
          "type": "address"
        },
        {
          "indexed": false,
          "internalType": "uint8",
          "name": "matrix",
          "type": "uint8"
        },
        {
          "indexed": false,
          "internalType": "uint8",
          "name": "level",
          "type": "uint8"
        }
      ],
      "name": "Reinvest",
      "type": "event"
    },
    {
      "anonymous": false,
      "inputs": [
        {
          "indexed": true,
          "internalType": "address",
          "name": "from",
          "type": "address"
        },
        {
          "indexed": true,
          "internalType": "address",
          "name": "receiver",
          "type": "address"
        },
        {
          "indexed": false,
          "internalType": "uint8",
          "name": "matrix",
          "type": "uint8"
        },
        {
          "indexed": false,
          "internalType": "uint8",
          "name": "level",
          "type": "uint8"
        }
      ],
      "name": "SentExtraEthDividends",
      "type": "event"
    },
    {
      "anonymous": false,
      "inputs": [
        {
          "indexed": true,
          "internalType": "address",
          "name": "user",
          "type": "address"
        },
        {
          "indexed": true,
          "internalType": "address",
          "name": "referrer",
          "type": "address"
        },
        {
          "indexed": false,
          "internalType": "uint8",
          "name": "matrix",
          "type": "uint8"
        },
        {
          "indexed": false,
          "internalType": "uint8",
          "name": "level",
          "type": "uint8"
        }
      ],
      "name": "Upgrade",
      "type": "event"
    },
    {
      "stateMutability": "nonpayable",
      "type": "fallback"
    },
    {
      "inputs": [],
      "name": "BASIC_PRICE",
      "outputs": [
        {
          "internalType": "uint256",
          "name": "",
          "type": "uint256"
        }
      ],
      "stateMutability": "view",
      "type": "function"
    },
    {
      "inputs": [],
      "name": "LAST_LEVEL",
      "outputs": [
        {
          "internalType": "uint8",
          "name": "",
          "type": "uint8"
        }
      ],
      "stateMutability": "view",
      "type": "function"
    },
    {
      "inputs": [
        {
          "internalType": "address",
          "name": "",
          "type": "address"
        }
      ],
      "name": "balances",
      "outputs": [
        {
          "internalType": "uint256",
          "name": "",
          "type": "uint256"
        }
      ],
      "stateMutability": "view",
      "type": "function"
    },
    {
      "inputs": [],
      "name": "contractOwner",
      "outputs": [
        {
          "internalType": "address",
          "name": "",
          "type": "address"
        }
      ],
      "stateMutability": "view",
      "type": "function"
    },
    {
      "inputs": [],
      "name": "depositToken",
      "outputs": [
        {
          "internalType": "contract IERC20",
          "name": "",
          "type": "address"
        }
      ],
      "stateMutability": "view",
      "type": "function"
    },
    {
      "inputs": [],
      "name": "id1",
      "outputs": [
        {
          "internalType": "address",
          "name": "",
          "type": "address"
        }
      ],
      "stateMutability": "view",
      "type": "function"
    },
    {
      "inputs": [
        {
          "internalType": "uint256",
          "name": "",
          "type": "uint256"
        }
      ],
      "name": "idToAddress",
      "outputs": [
        {
          "internalType": "address",
          "name": "",
          "type": "address"
        }
      ],
      "stateMutability": "view",
      "type": "function"
    },
    {
      "inputs": [],
      "name": "impl",
      "outputs": [
        {
          "internalType": "address",
          "name": "",
          "type": "address"
        }
      ],
      "stateMutability": "view",
      "type": "function"
    },
    {
      "inputs": [],
      "name": "lastUserId",
      "outputs": [
        {
          "internalType": "uint256",
          "name": "",
          "type": "uint256"
        }
      ],
      "stateMutability": "view",
      "type": "function"
    },
    {
      "inputs": [
        {
          "internalType": "uint8",
          "name": "",
          "type": "uint8"
        }
      ],
      "name": "levelPrice",
      "outputs": [
        {
          "internalType": "uint256",
          "name": "",
          "type": "uint256"
        }
      ],
      "stateMutability": "view",
      "type": "function"
    },
    {
      "inputs": [],
      "name": "locked",
      "outputs": [
        {
          "internalType": "bool",
          "name": "",
          "type": "bool"
        }
      ],
      "stateMutability": "view",
      "type": "function"
    },
    {
      "inputs": [
        {
          "internalType": "uint256",
          "name": "",
          "type": "uint256"
        }
      ],
      "name": "userIds",
      "outputs": [
        {
          "internalType": "address",
          "name": "",
          "type": "address"
        }
      ],
      "stateMutability": "view",
      "type": "function"
    },
    {
      "inputs": [
        {
          "internalType": "address",
          "name": "",
          "type": "address"
        }
      ],
      "name": "users",
      "outputs": [
        {
          "internalType": "uint256",
          "name": "id",
          "type": "uint256"
        },
        {
          "internalType": "address",
          "name": "referrer",
          "type": "address"
        },
        {
          "internalType": "uint256",
          "name": "partnersCount",
          "type": "uint256"
        }
      ],
      "stateMutability": "view",
      "type": "function"
    },
    {
      "inputs": [
        {
          "internalType": "address",
          "name": "_ownerAddress",
          "type": "address"
        },
        {
          "internalType": "contract IERC20",
          "name": "_depositTokenAddress",
          "type": "address"
        }
      ],
      "name": "init",
      "outputs": [],
      "stateMutability": "nonpayable",
      "type": "function"
    },
    {
      "inputs": [],
      "name": "changeLock",
      "outputs": [],
      "stateMutability": "nonpayable",
      "type": "function"
    },
    {
      "inputs": [
        {
          "internalType": "address",
          "name": "referrerAddress",
          "type": "address"
        }
      ],
      "name": "registrationExt",
      "outputs": [],
      "stateMutability": "nonpayable",
      "type": "function"
    },
    {
      "inputs": [
        {
          "internalType": "address",
          "name": "userAddress",
          "type": "address"
        },
        {
          "internalType": "address",
          "name": "referrerAddress",
          "type": "address"
        }
      ],
      "name": "registrationFor",
      "outputs": [],
      "stateMutability": "nonpayable",
      "type": "function"
    },
    {
      "inputs": [
        {
          "internalType": "uint8",
          "name": "matrix",
          "type": "uint8"
        },
        {
          "internalType": "uint8",
          "name": "level",
          "type": "uint8"
        }
      ],
      "name": "buyNewLevel",
      "outputs": [],
      "stateMutability": "nonpayable",
      "type": "function"
    },
    {
      "inputs": [
        {
          "internalType": "address",
          "name": "userAddress",
          "type": "address"
        },
        {
          "internalType": "uint8",
          "name": "matrix",
          "type": "uint8"
        },
        {
          "internalType": "uint8",
          "name": "level",
          "type": "uint8"
        }
      ],
      "name": "buyNewLevelFor",
      "outputs": [],
      "stateMutability": "nonpayable",
      "type": "function"
    },
    {
      "inputs": [
        {
          "internalType": "address",
          "name": "userAddress",
          "type": "address"
        },
        {
          "internalType": "uint8",
          "name": "level",
          "type": "uint8"
        }
      ],
      "name": "findFreeX3Referrer",
      "outputs": [
        {
          "internalType": "address",
          "name": "",
          "type": "address"
        }
      ],
      "stateMutability": "view",
      "type": "function"
    },
    {
      "inputs": [
        {
          "internalType": "address",
          "name": "userAddress",
          "type": "address"
        },
        {
          "internalType": "uint8",
          "name": "level",
          "type": "uint8"
        }
      ],
      "name": "findFreeX6Referrer",
      "outputs": [
        {
          "internalType": "address",
          "name": "",
          "type": "address"
        }
      ],
      "stateMutability": "view",
      "type": "function"
    },
    {
      "inputs": [
        {
          "internalType": "address",
          "name": "userAddress",
          "type": "address"
        },
        {
          "internalType": "uint8",
          "name": "level",
          "type": "uint8"
        }
      ],
      "name": "usersActiveX3Levels",
      "outputs": [
        {
          "internalType": "bool",
          "name": "",
          "type": "bool"
        }
      ],
      "stateMutability": "view",
      "type": "function"
    },
    {
      "inputs": [
        {
          "internalType": "address",
          "name": "userAddress",
          "type": "address"
        },
        {
          "internalType": "uint8",
          "name": "level",
          "type": "uint8"
        }
      ],
      "name": "usersActiveX6Levels",
      "outputs": [
        {
          "internalType": "bool",
          "name": "",
          "type": "bool"
        }
      ],
      "stateMutability": "view",
      "type": "function"
    },
    {
      "inputs": [
        {
          "internalType": "address",
          "name": "userAddress",
          "type": "address"
        },
        {
          "internalType": "uint8",
          "name": "level",
          "type": "uint8"
        }
      ],
      "name": "usersX3Matrix",
      "outputs": [
        {
          "internalType": "address",
          "name": "",
          "type": "address"
        },
        {
          "internalType": "address[]",
          "name": "",
          "type": "address[]"
        },
        {
          "internalType": "bool",
          "name": "",
          "type": "bool"
        }
      ],
      "stateMutability": "view",
      "type": "function"
    },
    {
      "inputs": [
        {
          "internalType": "address",
          "name": "userAddress",
          "type": "address"
        },
        {
          "internalType": "uint8",
          "name": "level",
          "type": "uint8"
        }
      ],
      "name": "usersX6Matrix",
      "outputs": [
        {
          "internalType": "address",
          "name": "",
          "type": "address"
        },
        {
          "internalType": "address[]",
          "name": "",
          "type": "address[]"
        },
        {
          "internalType": "address[]",
          "name": "",
          "type": "address[]"
        },
        {
          "internalType": "bool",
          "name": "",
          "type": "bool"
        },
        {
          "internalType": "address",
          "name": "",
          "type": "address"
        }
      ],
      "stateMutability": "view",
      "type": "function"
    },
    {
      "inputs": [
        {
          "internalType": "address",
          "name": "user",
          "type": "address"
        }
      ],
      "name": "isUserExists",
      "outputs": [
        {
          "internalType": "bool",
          "name": "",
          "type": "bool"
        }
      ],
      "stateMutability": "view",
      "type": "function"
    },
    {
      "inputs": [
        {
          "internalType": "address",
          "name": "tokenAddress",
          "type": "address"
        },
        {
          "internalType": "uint256",
          "name": "amount",
          "type": "uint256"
        }
      ],
      "name": "withdrawLostTokens",
      "outputs": [],
      "stateMutability": "nonpayable",
      "type": "function"
    }
  ],
  "bytecode": "0x608060405234801561001057600080fd5b50613a53806100206000396000f3fe608060405234801561001057600080fd5b50600436106101b95760003560e01c80639ac7e09e116100f9578063ce606ee011610097578063ecabdf7911610071578063ecabdf79146104f3578063f07b62be14610513578063f09a40161461051b578063fa45323d1461052e576101b9565b8063ce606ee0146104c0578063cf309012146104d3578063e06e8dbd146104e0576101b9565b8063b2f7543a116100d3578063b2f7543a14610448578063b99a967114610487578063be389d571461049a578063c89039c5146104ad576101b9565b80639ac7e09e146103be5780639cc102fc146103c7578063a87430ba146103eb576101b9565b806338d7822b11610166578063517999bc11610140578063517999bc14610363578063797eee241461037657806383ba31b2146103895780638abf6077146103ab576101b9565b806338d7822b146102fc5780634635fd681461030f578063509222cd14610338576101b9565b806329c704001161019757806329c704001461028c5780632a2d0c47146102b2578063348d4487146102f3576101b9565b806307279e2a146102235780630b1610fd1461024b57806327e235e31461025e575b366000036101da576007546101d89033906001600160a01b0316610541565b005b6101d83361021e6000368080601f01602080910402602001604051908101604052809392919081815260200183838082843760009201919091525061080192505050565b610541565b61023661023136600461366e565b610808565b60405190151581526020015b60405180910390f35b6101d86102593660046136a3565b61083e565b61027e61026c3660046136cf565b60056020526000908152604090205481565b604051908152602001610242565b6001546102a090600160a01b900460ff1681565b60405160ff9091168152602001610242565b6102db6102c03660046136ec565b6003602052600090815260409020546001600160a01b031681565b6040516001600160a01b039091168152602001610242565b61027e60065481565b6101d861030a366004613705565b610985565b6102db61031d3660046136ec565b6004602052600090815260409020546001600160a01b031681565b6102366103463660046136cf565b6001600160a01b0316600090815260026020526040902054151590565b6007546102db906001600160a01b031681565b6101d86103843660046136cf565b6109b8565b61039c61039736600461366e565b6109ea565b60405161024293929190613782565b6000546102db906001600160a01b031681565b61027e600a5481565b6103da6103d536600461366e565b610a94565b6040516102429594939291906137b6565b6104256103f93660046136cf565b60026020819052600091825260409091208054600182015491909201546001600160a01b039091169083565b604080519384526001600160a01b03909216602084015290820152606001610242565b61023661045636600461366e565b6001600160a01b0391909116600090815260026020908152604080832060ff94851684526004019091529020541690565b6101d8610495366004613806565b610bb5565b6101d86104a836600461384b565b610be5565b6009546102db906001600160a01b031681565b6001546102db906001600160a01b031681565b600b546102369060ff1681565b6102db6104ee36600461366e565b610c15565b61027e610501366004613867565b60086020526000908152604090205481565b6101d8610ca3565b6101d8610529366004613705565b610d11565b6102db61053c36600461366e565b611056565b6105693330600a54600261055591906138b1565b6009546001600160a01b03169291906110e4565b6001600160a01b038216600090815260026020526040902054156105d45760405162461bcd60e51b815260206004820152600b60248201527f757365722065786973747300000000000000000000000000000000000000000060448201526064015b60405180910390fd5b6001600160a01b0381166000908152600260205260409020546106395760405162461bcd60e51b815260206004820152601360248201527f7265666572726572206e6f74206578697374730000000000000000000000000060448201526064016105cb565b336000908152600260208181526040808420600680548255600180830180546001600160a01b038a81166001600160a01b031992831681179093558589018a905584548a526003808952878b208054928e1692841683179055818b52988852868a208401805483169093179092558289529684018652848820805460ff19908116841790915560048086018852868a208054909216909317905582548852945291852080549094169092179092558154853b93919290916106f9836138d0565b90915550506001600160a01b0383166000908152600260208190526040822001805491610725836138d0565b91905055506000610737856001611056565b6001600160a01b0386811660009081526002602090815260408083206001808552600590910190925290912080546001600160a01b03191692841692909217909155909150610789908690839061119b565b61079f85610798876001610c15565b6001611592565b6001600160a01b03858116600081815260026020908152604080832054948916808452928190205490519081529192917f309bb360e8b69c23937ccc5fb01f9aeeead1c95a99604e175113ff82f2b1723a910160405180910390a45050505050565b6014015190565b6001600160a01b038216600090815260026020908152604080832060ff8086168552600390910190925290912054165b92915050565b6001546001600160a01b031633146108985760405162461bcd60e51b815260206004820152600960248201527f6f6e6c794f776e6572000000000000000000000000000000000000000000000060448201526064016105cb565b6009546001600160a01b03908116908316036108f65760405162461bcd60e51b815260206004820152601d60248201527f63616e6e6f74207769746864726177206465706f73697420746f6b656e00000060448201526064016105cb565b6040517fa9059cbb000000000000000000000000000000000000000000000000000000008152336004820152602481018290526001600160a01b0383169063a9059cbb906044016020604051808303816000875af115801561095c573d6000803e3d6000fd5b505050506040513d601f19601f8201168201806040525081019061098091906138ea565b505050565b600b5460ff1615806109a157506001546001600160a01b031633145b6109aa57600080fd5b6109b48282610541565b5050565b600b5460ff1615806109d457506001546001600160a01b031633145b6109dd57600080fd5b6109e73382610541565b50565b6001600160a01b03828116600090815260026020818152604080842060ff878116865260059091018352818520805494810154600190910180548451818702810187019095528085529697606097899790911695919492909316928491830182828015610a8057602002820191906000526020600020905b81546001600160a01b03168152600190910190602001808311610a62575b505050505091509250925092509250925092565b6001600160a01b03828116600090815260026020818152604080842060ff8781168652600690910183528185208054600382015460058301546001840180548751818a0281018a01909852808852999a60609a8b9a8d9a8b9a978416999498909101969590931694939091169291869190830182828015610b3e57602002820191906000526020600020905b81546001600160a01b03168152600190910190602001808311610b20575b5050505050935082805480602002602001604051908101604052809291908181526020018280548015610b9a57602002820191906000526020600020905b81546001600160a01b03168152600190910190602001808311610b7c575b50505050509250945094509450945094509295509295909350565b600b5460ff161580610bd157506001546001600160a01b031633145b610bda57600080fd5b610980838383611ff1565b600b5460ff161580610c0157506001546001600160a01b031633145b610c0a57600080fd5b6109b4338383611ff1565b60005b6001600160a01b03808416600090815260026020908152604080832060010154909316825282822060ff80871684526004909101909152919020541615610c7d57506001600160a01b0380831660009081526002602052604090206001015416610838565b6001600160a01b0392831660009081526002602052604090206001015490921691610c18565b6001546001600160a01b03163314610cfd5760405162461bcd60e51b815260206004820152600960248201527f6f6e6c794f776e6572000000000000000000000000000000000000000000000060448201526064016105cb565b600b805460ff19811660ff90911615179055565b6001546001600160a01b03163314610d6b5760405162461bcd60e51b815260206004820152600960248201527f6f6e6c794f776e6572000000000000000000000000000000000000000000000060448201526064016105cb565b6801a055690d9db80000600a819055600180547fffffffffffffffffffffff00ffffffffffffffffffffffffffffffffffffffff167407000000000000000000000000000000000000000017815560005260086020527fad67d757c34507f157cacfa2e3153e9f260a2244f30428821be7be64587ac55f5560025b60088160ff1611610e445760086000610e0060018461390c565b60ff168152602081019190915260400160002054610e1f9060026138b1565b60ff821660009081526008602052604090205580610e3c8161392f565b915050610de6565b506803cb71f51fc55800007f6add646517a5b0f6793cd5891b7937d28a5b2981a5d88ebc7cd776088fea90415568070c1cc73b00c800007f625b35f5e76f098dd7c3a05b10e2e5e78a4a01228d60c3b143426cdf36d2645555681b1ae4d6e2ef5000007f9321edea6e3be4df59a344b401fab4f888b556fda1f954244cff9204bad624b8556835ab028ac154b800007f91238f30f286c9a1c6e901c4eda3b214c381c846e3dbe48df95c21488e8e1fdb8190557f13acf3fc7bed94759963f076d5d3443d88732026bffc8253bdf4a6e65f21ecc58190557f24cd397636bedc6cf9b490d0edd57c769c19b367fb7d5c2344ae1ddc7d21c144556001600160a01b03821660008181526002602081815260408320600180825580820180546001600160a01b03199081169091559382018590559384905260039091527fa15bc60c955c405d20d9149c709e2460f1c2d9a497496a7f46004d1772c3054c805490921690931790555b60015460ff600160a01b90910481169082161161101f576001600160a01b038416600090815260026020908152604080832060ff851684526003810183528184208054600160ff199182168117909255600490920190935292208054909216179055806110178161392f565b915050610fab565b50506002600655600980546001600160a01b0319166001600160a01b039290921691909117905550600b805460ff19166001179055565b60005b6001600160a01b03808416600090815260026020908152604080832060010154909316825282822060ff808716845260039091019091529190205416156110be57506001600160a01b0380831660009081526002602052604090206001015416610838565b6001600160a01b0392831660009081526002602052604090206001015490921691611059565b6040516001600160a01b03808516602483015283166044820152606481018290526111959085907f23b872dd00000000000000000000000000000000000000000000000000000000906084015b60408051601f198184030181529190526020810180517bffffffffffffffffffffffffffffffffffffffffffffffffffffffff167fffffffff000000000000000000000000000000000000000000000000000000009093169290921790915261260e565b50505050565b6001600160a01b03828116600090815260026020908152604080832060ff8616808552600590910183529083206001908101805491820181558085529284200180546001600160a01b031916948816949094179093559190525460031115611284576001600160a01b03828116600081815260026020908152604080832060ff87811680865260059092018452938290206001908101548351918252938101919091529190921681830152905191928616917f68062c5925c4317adf3a7095478d28b33fd8b41458bc7620b61bc46bf1b24d829181900360600190a361098082846001846126f3565b604080516001815260ff8316602082015260038183015290516001600160a01b0384811692908616917f68062c5925c4317adf3a7095478d28b33fd8b41458bc7620b61bc46bf1b24d829181900360600190a360408051600080825260208083018085526001600160a01b03871683526002825284832060ff87168452600501909152929020905161131c92600190920191906135c9565b506001600160a01b03821660009081526002602052604081206003019061134483600161394e565b60ff908116825260208201929092526040016000205416158015611377575060015460ff828116600160a01b9092041614155b156113b3576001600160a01b038216600090815260026020818152604080842060ff8616855260050190915290912001805460ff191660011790555b6007546001600160a01b038381169116146114e45760006113d48383611056565b6001600160a01b03848116600090815260026020908152604080832060ff8816845260050190915290205491925082811691161461144c576001600160a01b03838116600090815260026020908152604080832060ff87168452600501909152902080546001600160a01b0319169183169190911790555b6001600160a01b038316600090815260026020908152604080832060ff861684526005019091528120600301805491611484836138d0565b9091555050604080516001815260ff841660208201526001600160a01b038087169284821692918716917fa00c953eff38ec1b71e7fe060b2ab8df0bbe5354319fbdde4fbdafd6324386a6910160405180910390a461119583828461119b565b6007546114fd906001600160a01b0316846001846126f3565b6007546001600160a01b0316600090815260026020908152604080832060ff851684526005019091528120600301805491611537836138d0565b9091555050600754604080516001815260ff841660208201526001600160a01b03868116936000939116917fa00c953eff38ec1b71e7fe060b2ab8df0bbe5354319fbdde4fbdafd6324386a6910160405180910390a4505050565b6001600160a01b038216600090815260026020908152604080832060ff80861685526004909101909252909120541661160d5760405162461bcd60e51b815260206004820152601f60248201527f3530302e205265666572726572206c6576656c20697320696e6163746976650060448201526064016105cb565b6001600160a01b038216600090815260026020818152604080842060ff86168552600601909152909120600101541015611c0a576001600160a01b03828116600081815260026020818152604080842060ff888116808752600690920184528286206001908101805491820181558088528588209091018054998d166001600160a01b0319909a168a17905595829052945482519485529284015292168183015290519192917f68062c5925c4317adf3a7095478d28b33fd8b41458bc7620b61bc46bf1b24d829181900360600190a36001600160a01b03838116600090815260026020908152604080832060ff86168452600601909152902080546001600160a01b03191684831690811790915560075490911690036117355761098082846002846126f3565b6001600160a01b03828116600090815260026020818152604080842060ff871680865260069182018452828620548716808752858552838720828852909201845291852080850180546001808201835591885294872090940180546001600160a01b031916978b169790971790965593529092015490918114801561180e57506001600160a01b03828116600090815260026020908152604080832060ff8816845260060190915281206001018054928716929091906117f7576117f7613973565b6000918252602090912001546001600160a01b0316145b801561187257506001600160a01b03828116600090815260026020908152604080832060ff8816845260060190915290206001908101805492871692909190811061185b5761185b613973565b6000918252602090912001546001600160a01b0316145b1561195d576001600160a01b038416600090815260026020908152604080832060ff871684526006019091529020600190810154900361190957604080516002815260ff851660208201526005918101919091526001600160a01b0380841691908716907f68062c5925c4317adf3a7095478d28b33fd8b41458bc7620b61bc46bf1b24d82906060015b60405180910390a3611bf8565b604080516002815260ff851660208201526006918101919091526001600160a01b0380841691908716907f68062c5925c4317adf3a7095478d28b33fd8b41458bc7620b61bc46bf1b24d82906060016118fc565b806001148061196c5750806002145b80156119cc57506001600160a01b03828116600090815260026020908152604080832060ff8816845260060190915281206001018054928716929091906119b5576119b5613973565b6000918252602090912001546001600160a01b0316145b15611aae576001600160a01b038416600090815260026020908152604080832060ff8716845260060190915290206001908101549003611a5a57604080516002815260ff851660208201526003918101919091526001600160a01b0380841691908716907f68062c5925c4317adf3a7095478d28b33fd8b41458bc7620b61bc46bf1b24d82906060016118fc565b604080516002815260ff851660208201526004918101919091526001600160a01b0380841691908716907f68062c5925c4317adf3a7095478d28b33fd8b41458bc7620b61bc46bf1b24d82906060016118fc565b806002148015611b1657506001600160a01b03828116600090815260026020908152604080832060ff88168452600601909152902060019081018054928716929091908110611aff57611aff613973565b6000918252602090912001546001600160a01b0316145b15611bf8576001600160a01b038416600090815260026020908152604080832060ff8716845260060190915290206001908101549003611ba457604080516002815260ff851660208201526005918101919091526001600160a01b0380841691908716907f68062c5925c4317adf3a7095478d28b33fd8b41458bc7620b61bc46bf1b24d82906060016118fc565b604080516002815260ff8516602082015260068183015290516001600160a01b0384811692908816917f68062c5925c4317adf3a7095478d28b33fd8b41458bc7620b61bc46bf1b24d829181900360600190a35b611c0385838561278f565b5050505050565b6001600160a01b03828116600090815260026020818152604080842060ff871680865260069091018352908420928301805460018101825590855291842090910180546001600160a01b031916888616179055909152600501541615611e0d576001600160a01b038216600090815260026020908152604080832060ff851684526006019091529020600190810180549091908110611cab57611cab613973565b60009182526020808320909101546001600160a01b03858116845260028352604080852060ff87168652600601909352918320600101805492909116929091611cf657611cf6613973565b6000918252602090912001546001600160a01b0316148015611d7357506001600160a01b03828116600090815260026020908152604080832060ff86168452600601909152812060058101546001909101805491909316929190611d5c57611d5c613973565b6000918252602090912001546001600160a01b0316145b15611d9057611d858383836001612c50565b61098083838361278f565b6001600160a01b03828116600090815260026020908152604080832060ff86168452600601909152812060058101546001909101805491909316929190611dd957611dd9613973565b6000918252602090912001546001600160a01b031603611e0057611d858383836001612c50565b611d858383836000612c50565b6001600160a01b03828116600090815260026020908152604080832060ff86168452600601909152902060019081018054928616929091908110611e5357611e53613973565b6000918252602090912001546001600160a01b031603611e7a57611d858383836000612c50565b6001600160a01b03828116600090815260026020908152604080832060ff861684526006019091528120600101805492861692909190611ebc57611ebc613973565b6000918252602090912001546001600160a01b031603611ee357611d858383836001612c50565b6001600160a01b038216600090815260026020818152604080842060ff861685526006019091528220600190810180549293929091908110611f2757611f27613973565b60009182526020808320909101546001600160a01b039081168452838201949094526040928301822060ff861680845260069182018352848420600190810154968916855260028085528686209286529190920190925292822090920180548290611f9457611f94613973565b60009182526020808320909101546001600160a01b03168352828101939093526040918201812060ff8616825260060190925290206001015411611fe457611fdf8383836000612c50565b611d85565b611d858383836001612c50565b6001600160a01b03831660009081526002602052604090205461207c5760405162461bcd60e51b815260206004820152602360248201527f75736572206973206e6f74206578697374732e2052656769737465722066697260448201527f73742e000000000000000000000000000000000000000000000000000000000060648201526084016105cb565b8160ff166001148061209157508160ff166002145b6120dd5760405162461bcd60e51b815260206004820152600e60248201527f696e76616c6964206d617472697800000000000000000000000000000000000060448201526064016105cb565b60ff811660009081526008602052604090205460095461210c916001600160a01b0390911690339030906110e4565b60018160ff1611801561212f575060015460ff600160a01b909104811690821611155b61217b5760405162461bcd60e51b815260206004820152600d60248201527f696e76616c6964206c6576656c0000000000000000000000000000000000000060448201526064016105cb565b8160ff166001036123df576001600160a01b0383166000908152600260205260408120600301906121ad60018461390c565b60ff9081168252602082019290925260400160002054166122105760405162461bcd60e51b815260206004820152601860248201527f6275792070726576696f7573206c6576656c206669727374000000000000000060448201526064016105cb565b6001600160a01b038316600090815260026020908152604080832060ff8086168552600390910190925290912054161561228c5760405162461bcd60e51b815260206004820152601760248201527f6c6576656c20616c72656164792061637469766174656400000000000000000060448201526064016105cb565b6001600160a01b0383166000908152600260205260408120600501906122b360018461390c565b60ff9081168252602082019290925260400160002060020154161561231f576001600160a01b0383166000908152600260205260408120600501816122f960018561390c565b60ff1681526020810191909152604001600020600201805460ff19169115159190911790555b600061232b8483611056565b6001600160a01b03858116600090815260026020908152604080832060ff8816845260058101835281842080546001600160a01b031916958716959095179094556003909301905220805460ff19166001179055905061238c84828461119b565b604080516001815260ff841660208201526001600160a01b0380841692908716917f18a92df19fd94d6cfff209966673a5ca05a1c8e2bb68e097fce2bdc2ed81111991015b60405180910390a350505050565b6001600160a01b03831660009081526002602052604081206004019061240660018461390c565b60ff9081168252602082019290925260400160002054166124695760405162461bcd60e51b815260206004820152601860248201527f6275792070726576696f7573206c6576656c206669727374000000000000000060448201526064016105cb565b6001600160a01b038316600090815260026020908152604080832060ff808616855260049091019092529091205416156124e55760405162461bcd60e51b815260206004820152601760248201527f6c6576656c20616c72656164792061637469766174656400000000000000000060448201526064016105cb565b6001600160a01b03831660009081526002602052604081206006019061250c60018461390c565b60ff90811682526020820192909252604001600020600301541615612578576001600160a01b03831660009081526002602052604081206006018161255260018561390c565b60ff1681526020810191909152604001600020600301805460ff19169115159190911790555b60006125848483610c15565b6001600160a01b038516600090815260026020908152604080832060ff871684526004019091529020805460ff1916600117905590506125c5848284611592565b604080516002815260ff841660208201526001600160a01b0380841692908716917f18a92df19fd94d6cfff209966673a5ca05a1c8e2bb68e097fce2bdc2ed81111991016123d1565b6000612663826040518060400160405280602081526020017f5361666545524332303a206c6f772d6c6576656c2063616c6c206661696c6564815250856001600160a01b03166132569092919063ffffffff16565b805190915015610980578080602001905181019061268191906138ea565b6109805760405162461bcd60e51b815260206004820152602a60248201527f5361666545524332303a204552433230206f7065726174696f6e20646964206e60448201527f6f7420737563636565640000000000000000000000000000000000000000000060648201526084016105cb565b6000806127028686868661326f565b60ff8516600090815260086020526040902054600954929450909250612733916001600160a01b03169084906133ff565b8015612787576040805160ff8087168252851660208201526001600160a01b0380851692908816917ff0ddc65c0d411f042f723dcfa1b7d13e85a35b7b70761d447c6500411cacf328910160405180910390a35b505050505050565b6001600160a01b038216600090815260026020818152604080842060ff861685526006019091529091200154600411156127d05761098082846002846126f3565b6001600160a01b03808316600090815260026020818152604080842060ff8716808652600691820184528286205490961685529282528084209484529390910181528282206001018054845181840281018401909552808552929392909183018282801561286757602002820191906000526020600020905b81546001600160a01b03168152600190910190602001808311612849575b5050505050905080516002036129d757826001600160a01b03168160008151811061289457612894613973565b60200260200101516001600160a01b031614806128dc5750826001600160a01b0316816001815181106128c9576128c9613973565b60200260200101516001600160a01b0316145b15612940576001600160a01b03808416600081815260026020818152604080842060ff8916808652600691820184528286205490971685529282528084209584529490910190529190912060050180546001600160a01b03191690911790556129d7565b80516001036129d757826001600160a01b03168160008151811061296657612966613973565b60200260200101516001600160a01b0316036129d7576001600160a01b03808416600081815260026020818152604080842060ff8916808652600691820184528286205490971685529282528084209584529490910190529190912060050180546001600160a01b03191690911790555b60408051600080825260208083018085526001600160a01b03881683526002825284832060ff881684526006019091529290209051612a1c92600190920191906135c9565b5060408051600080825260208083018085526001600160a01b0388168352600280835285842060ff89168552600601909252939091209151612a63939290910191906135c9565b506001600160a01b038316600081815260026020818152604080842060ff8816855260068101835290842060050180546001600160a01b031916905593835252600490910190612ab484600161394e565b60ff908116825260208201929092526040016000205416158015612ae7575060015460ff838116600160a01b9092041614155b15612b24576001600160a01b038316600090815260026020908152604080832060ff861684526006019091529020600301805460ff191660011790555b6001600160a01b038316600090815260026020908152604080832060ff861684526006019091528120600401805491612b5c836138d0565b90915550506007546001600160a01b03848116911614612be6576000612b828484610c15565b604080516002815260ff861660208201529192506001600160a01b038088169281851692918816917fa00c953eff38ec1b71e7fe060b2ab8df0bbe5354319fbdde4fbdafd6324386a6910160405180910390a4612be0848285611592565b50611195565b600754604080516002815260ff851660208201526001600160a01b03878116936000939116917fa00c953eff38ec1b71e7fe060b2ab8df0bbe5354319fbdde4fbdafd6324386a6910160405180910390a4600754611195906001600160a01b0316856002856126f3565b80612f4d576001600160a01b038316600090815260026020818152604080842060ff87168552600601909152822060010180549192918290612c9457612c94613973565b6000918252602080832091909101546001600160a01b039081168452838201949094526040928301822060ff8716808452600691820183528484206001908101805480830182559086528486200180546001600160a01b0319168c89161790559589168452600283528484209084520190529081209091018054909190612d1d57612d1d613973565b60009182526020808320909101546001600160a01b0386811684526002808452604080862060ff89168752600601909452928420600101805492821694918916937f68062c5925c4317adf3a7095478d28b33fd8b41458bc7620b61bc46bf1b24d82939092889284928290612d9457612d94613973565b6000918252602080832091909101546001600160a01b03168352828101939093526040918201812060ff8b81168352600690910184529082902060010154825195821686529381169285019290925291169082015260600160405180910390a36001600160a01b03808416600081815260026020818152604080842060ff891685526006019091528220600101805493948916937f68062c5925c4317adf3a7095478d28b33fd8b41458bc7620b61bc46bf1b24d8293889284928290612e5c57612e5c613973565b60009182526020808320909101546001600160a01b03168352828101939093526040918201812060ff8b168252600601909252902060010154612ea090600261394e565b6040805160ff9485168152928416602084015292168183015290519081900360600190a36001600160a01b038316600090815260026020908152604080832060ff8616845260060190915281206001018054909190612f0157612f01613973565b60009182526020808320909101546001600160a01b03878116845260028352604080852060ff881686526006019093529190922080546001600160a01b03191691909216179055611195565b6001600160a01b038316600090815260026020818152604080842060ff871685526006019091528220600190810180549293929091908110612f9157612f91613973565b6000918252602080832091909101546001600160a01b039081168452838201949094526040928301822060ff8716808452600691820183528484206001908101805480830182559086528486200180546001600160a01b0319168c89161790559589168452600283528484209084520190522081018054909190811061301957613019613973565b60009182526020808320909101546001600160a01b0386811684526002808452604080862060ff891687526006019094529284206001908101805493831695928a16947f68062c5925c4317adf3a7095478d28b33fd8b41458bc7620b61bc46bf1b24d82949093899385939192811061309457613094613973565b6000918252602080832091909101546001600160a01b03168352828101939093526040918201812060ff8b81168352600690910184529082902060010154825195821686529381169285019290925291169082015260600160405180910390a36001600160a01b03808416600081815260026020818152604080842060ff8916855260060190915282206001908101805494958a16947f68062c5925c4317adf3a7095478d28b33fd8b41458bc7620b61bc46bf1b24d8294899385939192811061316057613160613973565b60009182526020808320909101546001600160a01b03168352828101939093526040918201812060ff8b1682526006019092529020600101546131a490600461394e565b6040805160ff9485168152928416602084015292168183015290519081900360600190a36001600160a01b038316600090815260026020908152604080832060ff86168452600601909152902060019081018054909190811061320957613209613973565b60009182526020808320909101546001600160a01b03878116845260028352604080852060ff881686526006019093529190922080546001600160a01b0319169190921617905550505050565b60606132658484600085613448565b90505b9392505050565b600080858160ff861660010361333f575b6001600160a01b038216600090815260026020818152604080842060ff808b16865260059091019092529092200154161561333557604080516001815260ff871660208201526001600160a01b03808a1692908516917ffc0cb63f8dbd6b20ceb84a3c5358a41576a1479e6ecd040b4b985525dc09a709910160405180910390a3506001600160a01b03908116600090815260026020908152604080832060ff88168452600501909152902054166001613280565b90925090506133f6565b6001600160a01b038216600090815260026020908152604080832060ff808a168552600690910190925290912060030154161561333557604080516002815260ff871660208201526001600160a01b03808a1692908516917ffc0cb63f8dbd6b20ceb84a3c5358a41576a1479e6ecd040b4b985525dc09a709910160405180910390a3506001600160a01b03908116600090815260026020908152604080832060ff8816845260060190915290205416600161333f565b94509492505050565b6040516001600160a01b0383166024820152604481018290526109809084907fa9059cbb0000000000000000000000000000000000000000000000000000000090606401611131565b6060824710156134c05760405162461bcd60e51b815260206004820152602660248201527f416464726573733a20696e73756666696369656e742062616c616e636520666f60448201527f722063616c6c000000000000000000000000000000000000000000000000000060648201526084016105cb565b6001600160a01b0385163b6135175760405162461bcd60e51b815260206004820152601d60248201527f416464726573733a2063616c6c20746f206e6f6e2d636f6e747261637400000060448201526064016105cb565b600080866001600160a01b0316858760405161353391906139ce565b60006040518083038185875af1925050503d8060008114613570576040519150601f19603f3d011682016040523d82523d6000602084013e613575565b606091505b5091509150613585828286613590565b979650505050505050565b6060831561359f575081613268565b8251156135af5782518084602001fd5b8160405162461bcd60e51b81526004016105cb91906139ea565b82805482825590600052602060002090810192821561361e579160200282015b8281111561361e57825182546001600160a01b0319166001600160a01b039091161782556020909201916001909101906135e9565b5061362a92915061362e565b5090565b5b8082111561362a576000815560010161362f565b6001600160a01b03811681146109e757600080fd5b803560ff8116811461366957600080fd5b919050565b6000806040838503121561368157600080fd5b823561368c81613643565b915061369a60208401613658565b90509250929050565b600080604083850312156136b657600080fd5b82356136c181613643565b946020939093013593505050565b6000602082840312156136e157600080fd5b813561326881613643565b6000602082840312156136fe57600080fd5b5035919050565b6000806040838503121561371857600080fd5b823561372381613643565b9150602083013561373381613643565b809150509250929050565b600081518084526020808501945080840160005b838110156137775781516001600160a01b031687529582019590820190600101613752565b509495945050505050565b6001600160a01b03841681526060602082015260006137a4606083018561373e565b90508215156040830152949350505050565b60006001600160a01b03808816835260a060208401526137d960a084018861373e565b83810360408501526137eb818861373e565b95151560608501525092909216608090910152509392505050565b60008060006060848603121561381b57600080fd5b833561382681613643565b925061383460208501613658565b915061384260408501613658565b90509250925092565b6000806040838503121561385e57600080fd5b61368c83613658565b60006020828403121561387957600080fd5b61326882613658565b7f4e487b7100000000000000000000000000000000000000000000000000000000600052601160045260246000fd5b60008160001904831182151516156138cb576138cb613882565b500290565b600060001982036138e3576138e3613882565b5060010190565b6000602082840312156138fc57600080fd5b8151801515811461326857600080fd5b600060ff821660ff84168082101561392657613926613882565b90039392505050565b600060ff821660ff810361394557613945613882565b60010192915050565b600060ff821660ff84168060ff0382111561396b5761396b613882565b019392505050565b7f4e487b7100000000000000000000000000000000000000000000000000000000600052603260045260246000fd5b60005b838110156139bd5781810151838201526020016139a5565b838111156111955750506000910152565b600082516139e08184602087016139a2565b9190910192915050565b6020815260008251806020840152613a098160408501602087016139a2565b601f01601f1916919091016040019291505056fea26469706673582212201655325c979c318945c9974990b7a671d483427848833f5cf395bdbbcd05aee464736f6c634300080f0033",
  "immutableReferences": {},
  "source": "//SPDX-License-Identifier: UNLICENSED\r\npragma solidity 0.8.15;\r\nimport \"@openzeppelin/contracts/token/ERC20/utils/SafeERC20.sol\";\r\nimport \"./SkymoneyBasic.sol\";\r\n\r\n\r\ncontract SmartMatrixForsage is SkymoneyBasic {\r\n    \r\n    using SafeERC20 for IERC20;\r\n\r\n    modifier onlyContractOwner() { \r\n        require(msg.sender == contractOwner, \"onlyOwner\"); \r\n        _; \r\n    }\r\n\r\n    modifier onlyUnlocked() { \r\n        require(!locked || msg.sender == contractOwner); \r\n        _; \r\n    }\r\n    \r\n    function init(address _ownerAddress, IERC20 _depositTokenAddress) public onlyContractOwner {\r\n        \r\n        BASIC_PRICE = 30e18;\r\n        LAST_LEVEL = 7;\r\n\r\n        levelPrice[1] = BASIC_PRICE;\r\n        for (uint8 i = 2; i <= 8; i++) {\r\n            levelPrice[i] = levelPrice[i-1] * 2;\r\n        }\r\n\r\n        levelPrice[2] = 70e18;\r\n        levelPrice[3] = 130e18;\r\n        levelPrice[4] = 500e18;\r\n        levelPrice[5] = 990e18;\r\n        levelPrice[6] = 990e18;\r\n        levelPrice[7] = 990e18;\r\n\r\n        \r\n        \r\n        \r\n        User storage user = users[_ownerAddress];\r\n        user.id = 1;\r\n        user.referrer= address(0);\r\n        user.partnersCount= uint(0);\r\n        \r\n        //users[_ownerAddress] = user;\r\n        idToAddress[1] = _ownerAddress;\r\n        \r\n        for (uint8 i = 1; i <= LAST_LEVEL; i++) {\r\n            users[_ownerAddress].activeX3Levels[i] = true;\r\n            users[_ownerAddress].activeX6Levels[i] = true;\r\n        }\r\n        \r\n        //userIds[1] = _ownerAddress;\r\n        lastUserId = 2;\r\n        //multisig = _multisig;\r\n\r\n        depositToken = _depositTokenAddress;\r\n\r\n        locked = true;\r\n    }\r\n\r\n    function changeLock() external onlyContractOwner() {\r\n        locked = !locked;\r\n    }\r\n    \r\n    fallback() external {\r\n        if(msg.data.length == 0) {\r\n            return registration(msg.sender, id1);\r\n        }\r\n        \r\n        registration(msg.sender, bytesToAddress(msg.data));\r\n    }\r\n\r\n    function registrationExt(address referrerAddress) external onlyUnlocked() {\r\n        registration(msg.sender, referrerAddress);\r\n    }\r\n\r\n    function registrationFor(address userAddress, address referrerAddress) external onlyUnlocked() {\r\n        registration(userAddress, referrerAddress);\r\n    }\r\n    \r\n    function buyNewLevel(uint8 matrix, uint8 level) external onlyUnlocked() {\r\n        _buyNewLevel(msg.sender, matrix, level);\r\n    }\r\n\r\n    function buyNewLevelFor(address userAddress, uint8 matrix, uint8 level) external onlyUnlocked() {\r\n        _buyNewLevel(userAddress, matrix, level);\r\n    }\r\n\r\n    function _buyNewLevel(address _userAddress, uint8 matrix, uint8 level) internal {\r\n        require(isUserExists(_userAddress), \"user is not exists. Register first.\");\r\n        require(matrix == 1 || matrix == 2, \"invalid matrix\");\r\n\r\n        depositToken.safeTransferFrom(msg.sender, address(this), levelPrice[level]);\r\n        // require(msg.value == levelPrice[level], \"invalid price\");\r\n        require(level > 1 && level <= LAST_LEVEL, \"invalid level\");\r\n\r\n        if (matrix == 1) {\r\n          require(users[_userAddress].activeX3Levels[level-1], \"buy previous level first\");\r\n          require(!users[_userAddress].activeX3Levels[level], \"level already activated\");\r\n\r\n            if (users[_userAddress].x3Matrix[level-1].blocked) {\r\n                users[_userAddress].x3Matrix[level-1].blocked = false;\r\n            }\r\n    \r\n            address freeX3Referrer = findFreeX3Referrer(_userAddress, level);\r\n            users[_userAddress].x3Matrix[level].currentReferrer = freeX3Referrer;\r\n            users[_userAddress].activeX3Levels[level] = true;\r\n            updateX3Referrer(_userAddress, freeX3Referrer, level);\r\n            \r\n            emit Upgrade(_userAddress, freeX3Referrer, 1, level);\r\n\r\n        } else {\r\n            require(users[_userAddress].activeX6Levels[level-1], \"buy previous level first\");\r\n            require(!users[_userAddress].activeX6Levels[level], \"level already activated\"); \r\n\r\n            if (users[_userAddress].x6Matrix[level-1].blocked) {\r\n                users[_userAddress].x6Matrix[level-1].blocked = false;\r\n            }\r\n\r\n            address freeX6Referrer = findFreeX6Referrer(_userAddress, level);\r\n            \r\n            users[_userAddress].activeX6Levels[level] = true;\r\n            updateX6Referrer(_userAddress, freeX6Referrer, level);\r\n            \r\n            emit Upgrade(_userAddress, freeX6Referrer, 2, level);\r\n        }\r\n    }\r\n    \r\n    function registration(address userAddress, address referrerAddress) private {\r\n        depositToken.safeTransferFrom(msg.sender, address(this), BASIC_PRICE * 2);\r\n        // require(msg.value == BASIC_PRICE * 2, \"invalid registration value\");\r\n\r\n        require(!isUserExists(userAddress), \"user exists\");\r\n        require(isUserExists(referrerAddress), \"referrer not exists\");\r\n        \r\n        uint32 size;\r\n        assembly {\r\n            size := extcodesize(userAddress)\r\n        }\r\n       // require(size == 0, \"cannot be a contract\");\r\n        \r\n        User storage user = users[msg.sender];\r\n            user.id = lastUserId;\r\n            user.referrer= referrerAddress;\r\n            user.partnersCount= 0;\r\n       \r\n        \r\n        //users[userAddress] = user;\r\n        idToAddress[lastUserId] = userAddress;\r\n        \r\n        users[userAddress].referrer = referrerAddress;\r\n        \r\n        user.activeX3Levels[1] = true; \r\n        user.activeX6Levels[1] = true;\r\n        \r\n        \r\n        userIds[lastUserId] = userAddress;\r\n        lastUserId++;\r\n        \r\n        users[referrerAddress].partnersCount++;\r\n\r\n        address freeX3Referrer = findFreeX3Referrer(userAddress, 1);\r\n        users[userAddress].x3Matrix[1].currentReferrer = freeX3Referrer;\r\n        updateX3Referrer(userAddress, freeX3Referrer, 1);\r\n\r\n        updateX6Referrer(userAddress, findFreeX6Referrer(userAddress, 1), 1);\r\n        \r\n        emit Registration(userAddress, referrerAddress, users[userAddress].id, users[referrerAddress].id);\r\n    }\r\n    \r\n    function updateX3Referrer(address userAddress, address referrerAddress, uint8 level) private {\r\n        users[referrerAddress].x3Matrix[level].referrals.push(userAddress);\r\n\r\n        if (users[referrerAddress].x3Matrix[level].referrals.length < 3) {\r\n            emit NewUserPlace(userAddress, referrerAddress, 1, level, uint8(users[referrerAddress].x3Matrix[level].referrals.length));\r\n            return sendETHDividends(referrerAddress, userAddress, 1, level);\r\n        }\r\n        \r\n        emit NewUserPlace(userAddress, referrerAddress, 1, level, 3);\r\n        //close matrix\r\n        users[referrerAddress].x3Matrix[level].referrals = new address[](0);\r\n        if (!users[referrerAddress].activeX3Levels[level+1] && level != LAST_LEVEL) {\r\n            users[referrerAddress].x3Matrix[level].blocked = true;\r\n        }\r\n\r\n        //create new one by recursion\r\n        if (referrerAddress != id1) {\r\n            //check referrer active level\r\n            address freeReferrerAddress = findFreeX3Referrer(referrerAddress, level);\r\n            if (users[referrerAddress].x3Matrix[level].currentReferrer != freeReferrerAddress) {\r\n                users[referrerAddress].x3Matrix[level].currentReferrer = freeReferrerAddress;\r\n            }\r\n            \r\n            users[referrerAddress].x3Matrix[level].reinvestCount++;\r\n            emit Reinvest(referrerAddress, freeReferrerAddress, userAddress, 1, level);\r\n            updateX3Referrer(referrerAddress, freeReferrerAddress, level);\r\n        } else {\r\n            sendETHDividends(id1, userAddress, 1, level);\r\n            users[id1].x3Matrix[level].reinvestCount++;\r\n            emit Reinvest(id1, address(0), userAddress, 1, level);\r\n        }\r\n    }\r\n\r\n    function updateX6Referrer(address userAddress, address referrerAddress, uint8 level) private {\r\n        require(users[referrerAddress].activeX6Levels[level], \"500. Referrer level is inactive\");\r\n        \r\n        if (users[referrerAddress].x6Matrix[level].firstLevelReferrals.length < 2) {\r\n            users[referrerAddress].x6Matrix[level].firstLevelReferrals.push(userAddress);\r\n            emit NewUserPlace(userAddress, referrerAddress, 2, level, uint8(users[referrerAddress].x6Matrix[level].firstLevelReferrals.length));\r\n            \r\n            //set current level\r\n            users[userAddress].x6Matrix[level].currentReferrer = referrerAddress;\r\n\r\n            if (referrerAddress == id1) {\r\n                return sendETHDividends(referrerAddress, userAddress, 2, level);\r\n            }\r\n            \r\n            address ref = users[referrerAddress].x6Matrix[level].currentReferrer;            \r\n            users[ref].x6Matrix[level].secondLevelReferrals.push(userAddress); \r\n            \r\n            uint len = users[ref].x6Matrix[level].firstLevelReferrals.length;\r\n            \r\n            if ((len == 2) && \r\n                (users[ref].x6Matrix[level].firstLevelReferrals[0] == referrerAddress) &&\r\n                (users[ref].x6Matrix[level].firstLevelReferrals[1] == referrerAddress)) {\r\n                if (users[referrerAddress].x6Matrix[level].firstLevelReferrals.length == 1) {\r\n                    emit NewUserPlace(userAddress, ref, 2, level, 5);\r\n                } else {\r\n                    emit NewUserPlace(userAddress, ref, 2, level, 6);\r\n                }\r\n            }  else if ((len == 1 || len == 2) &&\r\n                    users[ref].x6Matrix[level].firstLevelReferrals[0] == referrerAddress) {\r\n                if (users[referrerAddress].x6Matrix[level].firstLevelReferrals.length == 1) {\r\n                    emit NewUserPlace(userAddress, ref, 2, level, 3);\r\n                } else {\r\n                    emit NewUserPlace(userAddress, ref, 2, level, 4);\r\n                }\r\n            } else if (len == 2 && users[ref].x6Matrix[level].firstLevelReferrals[1] == referrerAddress) {\r\n                if (users[referrerAddress].x6Matrix[level].firstLevelReferrals.length == 1) {\r\n                    emit NewUserPlace(userAddress, ref, 2, level, 5);\r\n                } else {\r\n                    emit NewUserPlace(userAddress, ref, 2, level, 6);\r\n                }\r\n            }\r\n\r\n            return updateX6ReferrerSecondLevel(userAddress, ref, level);\r\n        }\r\n        \r\n        users[referrerAddress].x6Matrix[level].secondLevelReferrals.push(userAddress);\r\n\r\n        if (users[referrerAddress].x6Matrix[level].closedPart != address(0)) {\r\n            if ((users[referrerAddress].x6Matrix[level].firstLevelReferrals[0] == \r\n                users[referrerAddress].x6Matrix[level].firstLevelReferrals[1]) &&\r\n                (users[referrerAddress].x6Matrix[level].firstLevelReferrals[0] ==\r\n                users[referrerAddress].x6Matrix[level].closedPart)) {\r\n\r\n                updateX6(userAddress, referrerAddress, level, true);\r\n                return updateX6ReferrerSecondLevel(userAddress, referrerAddress, level);\r\n            } else if (users[referrerAddress].x6Matrix[level].firstLevelReferrals[0] == \r\n                users[referrerAddress].x6Matrix[level].closedPart) {\r\n                updateX6(userAddress, referrerAddress, level, true);\r\n                return updateX6ReferrerSecondLevel(userAddress, referrerAddress, level);\r\n            } else {\r\n                updateX6(userAddress, referrerAddress, level, false);\r\n                return updateX6ReferrerSecondLevel(userAddress, referrerAddress, level);\r\n            }\r\n        }\r\n\r\n        if (users[referrerAddress].x6Matrix[level].firstLevelReferrals[1] == userAddress) {\r\n            updateX6(userAddress, referrerAddress, level, false);\r\n            return updateX6ReferrerSecondLevel(userAddress, referrerAddress, level);\r\n        } else if (users[referrerAddress].x6Matrix[level].firstLevelReferrals[0] == userAddress) {\r\n            updateX6(userAddress, referrerAddress, level, true);\r\n            return updateX6ReferrerSecondLevel(userAddress, referrerAddress, level);\r\n        }\r\n        \r\n        if (users[users[referrerAddress].x6Matrix[level].firstLevelReferrals[0]].x6Matrix[level].firstLevelReferrals.length <= \r\n            users[users[referrerAddress].x6Matrix[level].firstLevelReferrals[1]].x6Matrix[level].firstLevelReferrals.length) {\r\n            updateX6(userAddress, referrerAddress, level, false);\r\n        } else {\r\n            updateX6(userAddress, referrerAddress, level, true);\r\n        }\r\n        \r\n        updateX6ReferrerSecondLevel(userAddress, referrerAddress, level);\r\n    }\r\n\r\n    function updateX6(address userAddress, address referrerAddress, uint8 level, bool x2) private {\r\n        if (!x2) {\r\n            users[users[referrerAddress].x6Matrix[level].firstLevelReferrals[0]].x6Matrix[level].firstLevelReferrals.push(userAddress);\r\n            emit NewUserPlace(userAddress, users[referrerAddress].x6Matrix[level].firstLevelReferrals[0], 2, level, uint8(users[users[referrerAddress].x6Matrix[level].firstLevelReferrals[0]].x6Matrix[level].firstLevelReferrals.length));\r\n            emit NewUserPlace(userAddress, referrerAddress, 2, level, 2 + uint8(users[users[referrerAddress].x6Matrix[level].firstLevelReferrals[0]].x6Matrix[level].firstLevelReferrals.length));\r\n            //set current level\r\n            users[userAddress].x6Matrix[level].currentReferrer = users[referrerAddress].x6Matrix[level].firstLevelReferrals[0];\r\n        } else {\r\n            users[users[referrerAddress].x6Matrix[level].firstLevelReferrals[1]].x6Matrix[level].firstLevelReferrals.push(userAddress);\r\n            emit NewUserPlace(userAddress, users[referrerAddress].x6Matrix[level].firstLevelReferrals[1], 2, level, uint8(users[users[referrerAddress].x6Matrix[level].firstLevelReferrals[1]].x6Matrix[level].firstLevelReferrals.length));\r\n            emit NewUserPlace(userAddress, referrerAddress, 2, level, 4 + uint8(users[users[referrerAddress].x6Matrix[level].firstLevelReferrals[1]].x6Matrix[level].firstLevelReferrals.length));\r\n            //set current level\r\n            users[userAddress].x6Matrix[level].currentReferrer = users[referrerAddress].x6Matrix[level].firstLevelReferrals[1];\r\n        }\r\n    }\r\n    \r\n    function updateX6ReferrerSecondLevel(address userAddress, address referrerAddress, uint8 level) private {\r\n        if (users[referrerAddress].x6Matrix[level].secondLevelReferrals.length < 4) {\r\n            return sendETHDividends(referrerAddress, userAddress, 2, level);\r\n        }\r\n        \r\n        address[] memory x6 = users[users[referrerAddress].x6Matrix[level].currentReferrer].x6Matrix[level].firstLevelReferrals;\r\n        \r\n        if (x6.length == 2) {\r\n            if (x6[0] == referrerAddress ||\r\n                x6[1] == referrerAddress) {\r\n                users[users[referrerAddress].x6Matrix[level].currentReferrer].x6Matrix[level].closedPart = referrerAddress;\r\n            } else if (x6.length == 1) {\r\n                if (x6[0] == referrerAddress) {\r\n                    users[users[referrerAddress].x6Matrix[level].currentReferrer].x6Matrix[level].closedPart = referrerAddress;\r\n                }\r\n            }\r\n        }\r\n        \r\n        users[referrerAddress].x6Matrix[level].firstLevelReferrals = new address[](0);\r\n        users[referrerAddress].x6Matrix[level].secondLevelReferrals = new address[](0);\r\n        users[referrerAddress].x6Matrix[level].closedPart = address(0);\r\n\r\n        if (!users[referrerAddress].activeX6Levels[level+1] && level != LAST_LEVEL) {\r\n            users[referrerAddress].x6Matrix[level].blocked = true;\r\n        }\r\n\r\n        users[referrerAddress].x6Matrix[level].reinvestCount++;\r\n        \r\n        if (referrerAddress != id1) {\r\n            address freeReferrerAddress = findFreeX6Referrer(referrerAddress, level);\r\n\r\n            emit Reinvest(referrerAddress, freeReferrerAddress, userAddress, 2, level);\r\n            updateX6Referrer(referrerAddress, freeReferrerAddress, level);\r\n        } else {\r\n            emit Reinvest(id1, address(0), userAddress, 2, level);\r\n            sendETHDividends(id1, userAddress, 2, level);\r\n        }\r\n    }\r\n    \r\n    function findFreeX3Referrer(address userAddress, uint8 level) public view returns(address) {\r\n        while (true) {\r\n            if (users[users[userAddress].referrer].activeX3Levels[level]) {\r\n                return users[userAddress].referrer;\r\n            }\r\n            \r\n            userAddress = users[userAddress].referrer;\r\n        }\r\n        return userAddress;\r\n    }\r\n    \r\n    function findFreeX6Referrer(address userAddress, uint8 level) public view returns(address) {\r\n        while (true) {\r\n            if (users[users[userAddress].referrer].activeX6Levels[level]) {\r\n                return users[userAddress].referrer;\r\n            }\r\n            \r\n             userAddress = users[userAddress].referrer;\r\n        }\r\n        return userAddress = users[userAddress].referrer;\r\n    }\r\n        \r\n    function usersActiveX3Levels(address userAddress, uint8 level) public view returns(bool) {\r\n        return users[userAddress].activeX3Levels[level];\r\n    }\r\n\r\n    function usersActiveX6Levels(address userAddress, uint8 level) public view returns(bool) {\r\n        return users[userAddress].activeX6Levels[level];\r\n    }\r\n\r\n    function usersX3Matrix(address userAddress, uint8 level) public view returns(address, address[] memory, bool) {\r\n        return (users[userAddress].x3Matrix[level].currentReferrer,\r\n                users[userAddress].x3Matrix[level].referrals,\r\n                users[userAddress].x3Matrix[level].blocked);\r\n    }\r\n\r\n    function usersX6Matrix(address userAddress, uint8 level) public view returns(address, address[] memory, address[] memory, bool, address) {\r\n        return (users[userAddress].x6Matrix[level].currentReferrer,\r\n                users[userAddress].x6Matrix[level].firstLevelReferrals,\r\n                users[userAddress].x6Matrix[level].secondLevelReferrals,\r\n                users[userAddress].x6Matrix[level].blocked,\r\n                users[userAddress].x6Matrix[level].closedPart);\r\n    }\r\n    \r\n    function isUserExists(address user) public view returns (bool) {\r\n        return (users[user].id != 0);\r\n    }\r\n\r\n    function findEthReceiver(address userAddress, address _from, uint8 matrix, uint8 level) private returns(address, bool) {\r\n        address receiver = userAddress;\r\n        bool isExtraDividends;\r\n        if (matrix == 1) {\r\n            while (true) {\r\n                if (users[receiver].x3Matrix[level].blocked) {\r\n                    emit MissedEthReceive(receiver, _from, 1, level);\r\n                    isExtraDividends = true;\r\n                    receiver = users[receiver].x3Matrix[level].currentReferrer;\r\n                } else {\r\n                    return (receiver, isExtraDividends);\r\n                }\r\n            }\r\n        } else {\r\n            while (true) {\r\n                if (users[receiver].x6Matrix[level].blocked) {\r\n                    emit MissedEthReceive(receiver, _from, 2, level);\r\n                    isExtraDividends = true;\r\n                    receiver = users[receiver].x6Matrix[level].currentReferrer;\r\n                } else {\r\n                    return (receiver, isExtraDividends);\r\n                }\r\n            }\r\n            \r\n        }\r\n        return (receiver, isExtraDividends);\r\n    }\r\n\r\n    function sendETHDividends(address userAddress, address _from, uint8 matrix, uint8 level) private {\r\n        (address receiver, bool isExtraDividends) = findEthReceiver(userAddress, _from, matrix, level);\r\n\r\n        depositToken.safeTransfer(receiver, levelPrice[level]);\r\n        // if (!address(uint160(receiver)).send(levelPrice[level])) {\r\n        //     return address(uint160(receiver)).transfer(address(this).balance);\r\n        // }\r\n        \r\n        if (isExtraDividends) {\r\n            emit SentExtraEthDividends(_from, receiver, matrix, level);\r\n        }\r\n    }\r\n    \r\n    function bytesToAddress(bytes memory bys) private pure returns (address addr) {\r\n        assembly {\r\n            addr := mload(add(bys, 20))\r\n        }\r\n    }\r\n\r\n    function withdrawLostTokens(address tokenAddress, uint amount) public onlyContractOwner {\r\n        require(tokenAddress != address(depositToken), \"cannot withdraw deposit token\");\r\n        IERC20(tokenAddress).transfer(address(msg.sender), amount);\r\n    }\r\n}",
  "sourcePath": "C:\\Users\\kolam\\Desktop\\expressgame\\contracts\\SkyMoneyMain.sol",
  "compiler": {
    "name": "solc",
    "version": "0.8.15+commit.e14f2714.Emscripten.clang"
  },
  "schemaVersion": "3.4.6",
  "updatedAt": "2022-07-29T09:46:03.814Z",
  "devdoc": {
    "kind": "dev",
    "methods": {},
    "version": 1
  },
  "userdoc": {
    "kind": "user",
    "methods": {},
    "version": 1
  }
}